:10000000ABC0C5C0D2CCC3C0C2C0C1C0C0C0BFC0DD
:100010008DCCBDC0BCC0BBC0C2CCB9C0B8C0323032
:1000200032323035313430363131000000000000DA
:1000300000000000000000000000000000000000C0
:1000400000000000000000000000000000000000B0
:1000500000000000000000000000000000000000A0
:100060000000000000000000000000000001030488
:10007000050708090B0C0E0F1113141618191B1D78
:100080001F21232527292B2D30323437393B3E4081
:100090004346484B4E5154575A5D606366696D70D4
:1000A00073777A7E8185898D9094989CA0A5A9AD5F
:1000B000B1B6BABFC3C8CDD1D6DBE0E5EAEFF4FAFA
:1000C000FF010102020303040405060708090A0CE4
:1000D0000D0E0F11131416181A1D1F2224272A2D76
:1000E0003033373B3E42464B4F54595D63686E7325
:1000F000797F868C939AA1A8B0B8C0C8D1D9E2EC18
:10010000F5FFFFFFFFFFFFFFFFFFFFFFFFFFFFFF09
:10011000FFFFFFFFFFFFFFFFFFFFFFFFFFFFFFFFEF
:10012000FFFFFFFFFFFFFFFFFFFFFFFFFFFFFFFFDF
:10013000FFFFFFFFFFFFFFFFFFFFFFFFFFFFFFFFCF
:10014000FFFFFFFFFFFFFFFFFFFFFFFFFFFFFFFFBF
:10015000FFFFFFFFFFFF000011241FBECFE5D2E02D
:10016000DEBFCDBF10E0A0E6B0E0EAE4FFE102C0F0
:1001700005900D92A639B107D9F721E0A6E9B0E0C4
:1001800001C01D92AE33B207E1F715DCDCCE38CFEB
:10019000482F362F272FEBE0F1E090E080E05081F0
:1001A00051110AC063E070E070DEFC01E55FFE4FB4
:1001B00040833183228305C00196339680319105B7
:1001C00071F70895BC0180913D01E2CF10923D018D
:1001D00010923C0110923B0181E08093C20008958F
:1001E00090E822E048EA57E030E0815008F40895B2
:1001F0000FB6F89496BD26BD0FBEFA013197F1F700
:100200000FB6F89496BD36BD0FBEEFCF86B18864A9
:1002100086B9089586B383FB882780F991E0892702
:100220008093E1000895E0916600F09167003196B7
:10023000FB70F460F0936700E09366008091DD004E
:100240008B5A8093DD00E4918091DD008E0F08953C
:10025000CF93DF9300D000D000D0CDB7DEB7209190
:10026000BD004091F9005091FA004E56554009F4F6
:1002700022E0843059F46093BE0026960FB6F894BD
:10028000DEBF0FBECDBFDF91CF9108956623A9F3E6
:10029000823019F497E9961B692F96E0EFE7F0E0BA
:1002A000DE01119601900D929A95E1F78150990B1C
:1002B000880F991FA1E0B0E0AC0FBD1F8A0F9B1FF4
:1002C000DC01ED91FC91E20FF11D6083D6CFCF925E
:1002D000DF92EF92FF920F931F93CF93DF939C01D6
:1002E0005091BD00E0917A0082E0E11101C0852FBC
:1002F00090E0DC01AC58BF4F4C91409378008F5890
:100300009F4FDC018C9180937700F0E0E259FF4F22
:10031000C181642F70E0552381F0C13071F4860FE4
:10032000972F911D95958795DF91CF911F910F91F3
:10033000FF90EF90DF90CF900895261737078CF14C
:10034000821713068CF3511102C0822FEDCF841B4C
:100350006C2F6150770B8B01E82EF12CC701C6DDA5
:100360006093BB006695E62FF0E0842FD12CC12C62
:10037000D0E0DC17C9F2C601B801A4DD842F860FD6
:10038000A82FB0E0B9016A1B7B0B77FF03C0BD014A
:10039000621B730BCE0CDF1CE617F7072CF6DF5F32
:1003A000E8CF842FC1CF81E00895611160937D0073
:1003B0000895662369F0813099F48091FB00909153
:1003C000FC00891B680F6093FB0082E080937E0035
:1003D00080917C00873418F086E480937C00089537
:1003E000635E60937C00F4CF6093B60008950F9332
:1003F0001F93CF93DF938091BD008093C3008091C2
:1004000074008093C400809171008093C500809136
:100410006E008093C600809175008093C700809124
:1004200072008093C80080916F008093C900809112
:1004300076008093CA00809173008093CB008091F6
:1004400070008093CC0080917A008093CD008091E1
:10045000BE008093CE008091BC008093CF0080913D
:1004600079008093D0008091C0008093D10080916A
:10047000BF008093D20080916B008093D300809165
:1004800069008093D40080916A008093D5008091A8
:1004900068008093D60080916C008093D700809193
:1004A0007C008093D8008091FB008093D9008091DC
:1004B0007D008093DA0080916D008093DB00809155
:1004C000B6008093DC00F89403EC10E0C1E0D1E0CA
:1004D000F80161918F01CE0124DD2196CB31F1E04D
:1004E000DF07B1F765EA80E091E01BDD7894DF91EA
:1004F000CF911F910F91089510920A0134B185B1E7
:100500002091DD00329536953695337090E0880F56
:10051000991F880F991F830F911D820F8093DD0013
:100520008091FF00882309F44BC01092FF00809156
:1005300008019091E000992319F037981092080172
:10054000811147C080917E0060910001709101018E
:10055000882341F0609104017091050170930101BD
:1005600060930001605F7F4F86E0769567958A957E
:10057000E1F780E098E5A6DC80917D00680F711DB1
:10058000769567956093FE008091B2008823C9F04C
:1005900081508093B2008091E000811108C08FEA01
:1005A00087B981E080930801109209012FDE8091C4
:1005B0007E00882329F080917E00815080937E0008
:1005C00008956D3140F770E060E084E0E1DD85E0A2
:1005D000E0CF813061F780917E0081115FC0809112
:1005E00002019091030140969C0145E036952795C4
:1005F0004A95E1F7E091FB0056E0969587955A956C
:10060000E1F70E2E000CFF0BAF0143515140840F58
:10061000951F9093FD008093FC008091A100A82F6E
:10062000B0E0AA0FBB1FAE55BF4F4D915C91119723
:10063000B901641B750BAB012D933C938F5F8770E1
:100640008093A100660F771F660F771F80917C0053
:1006500090E08D5E9E4F8E1B9F0B880F991F681B2D
:10066000790B620F731F83E0161617060CF045C056
:10067000615071098150C1F7161617060CF057C06A
:1006800057FD74C08091A0001816F4F5861B809366
:10069000A0008CE287B91092080186CF80910601F4
:1006A000909107019093030180930201409635E0F9
:1006B000969587953A95E1F79093A3008093A200D1
:1006C0009093A5008093A4009093A7008093A60028
:1006D0009093A9008093A8009093AB008093AA0008
:1006E0009093AD008093AC009093AF008093AE00E8
:1006F0009093B1008093B00072CF6115710509F439
:10070000B9CF6F5F7F4FB6CF660F771F653071052A
:100710005CF0635071097595679588E1861B80933D
:10072000A00085E035DDB5CF61E070E0F6CF6C3F2D
:100730008FEF7807DCF457FF19C08091A00087FF86
:1007400002C08450A3CF84EE861B8093A0008091CA
:10075000FE008F3108F49DCF8CEF9FEF9C01261B8C
:10076000370BB9017595679586E0DCCF8091FE0067
:100770008E3108F48ECF70E060E087E0D3CF88231D
:1007800021F0813029F0BC9A04C0BC98C498089527
:10079000BC98C49A0895CF93C82F8093DF008093AC
:1007A000DE008091E00081110AC091E0C11101C01A
:1007B00090E081E0C23408F480E0890FE0DFC111ED
:1007C0000FC019BC18BC8091DF008530B8F480E8F8
:1007D00092E00FB6F89486BD96BD0FBECF910895F6
:1007E000C1508C2F90E0FC01EF53FF4FE491E9BD25
:1007F000855D9F4FFC01849188BDE5CF8E3018F454
:1008000080E891E0E6CF80E890E0E3CF8093C100FC
:10081000C2CFCF93C091DF0089E18C0F873908F0F8
:1008200080E0B9DF82E0DCDC8C2FCF91B4CFCF93B6
:10083000C091DF0080E0AFDF83E0D2DC8C2FCF916E
:10084000AACF813019F41092C0000895823019F4B3
:100850006093BF000895833019F46093BC0008953D
:10086000843011F4609379000895E82F8091FE00A0
:100870008D3110F480E083CFEF70F0E0EB57FF4F45
:100880008081F9CFFF920F931F93CF93DF938C0159
:10089000D62FC72FF42E8091F9009091FA00892B62
:1008A00031F0E091F900F091FA0089E00995109398
:1008B000FA000093F900012B41F0E091F900F0916A
:1008C000FA006D2F7C2F8F2D099581E08093C20057
:1008D000DF91CF911F910F91FF9008952091E80033
:1008E000283080F4E22FF0E0EE0FFF1FE751FF4FBA
:1008F000808391832F5F2093E80048E0C3DF8091DD
:10090000E80008958FEF0895282FCB0130917A00E9
:10091000311146C0283039F41092BA001092B80054
:100920001092B7000895213B59F48091BA0081508C
:100930008330B0F583E08093BA008093B9000895C6
:10094000253B99F46EE370E0BDDA892B49F580917F
:10095000BA008A3F28F58B5F8093BA008093B90074
:100960001092B8001092B70054CF2130C9F4809192
:10097000B7009091B800019688382EE0920728F4CD
:100980009093B8008093B70008951092B800109229
:10099000B7008091BA00882319F081508093BA0083
:1009A0000895EF92FF921F93CF93DF9310910B0165
:1009B000111106C0DF91CF911F91FF90EF90089524
:1009C000E0900C01F0900D01C091E800C1500C2E98
:1009D000000CDD0BC7FD0EC0FE01EE0FFF1FE7513F
:1009E000FF4F0190F081E02DB701812F09952197EC
:1009F0008111F0CFEBE0F1E08381808384819581E8
:100A000092838183339681E0E833F807A9F7109247
:100A1000380110923A0110923901C8CF8091E80054
:100A2000882319F081508093E800E091E80090E07D
:100A300080E0EE2341F0E150FF0BEE0FFF1FE75186
:100A4000FF4F808191814AE070E060E01BCF582F1A
:100A5000CB01F901583089F410929B0080E09BDEB5
:100A60008091E10081111CC081E080939B0070E0C7
:100A700060E082E895E032DF13C0252F207F203B25
:100A8000B1F420919B00421780F06DE570E01ADA16
:100A9000029741F42F5F20939B0088E3421718F4DC
:100AA00080E0089582E177DEFBCF80E0FCCF203E3E
:100AB00041F480919B00882311F04817C0F6AEDF07
:100AC000EFCF5A3069F76091B30080919B00099590
:100AD0008EDCF5CF28E231E043E0B9CF28E231E007
:100AE00044E0B5CF21E234E044E0B1CF25ED31E080
:100AF00041E0ADCF29ED31E042E0A9CF24EF31E074
:100B000041E0A5CF883039F41092B30010929A00DA
:100B100080E041DE0CC08130F9F490919A0091118F
:100B200008C06032710518F080939A004FDB80E0B6
:100B30000895913079F46B3B710520F082E0809349
:100B40009A00E6CF6115710591F3862F880F8470A6
:100B50008E5EDFCF63DFEBCF813811F0813E39F756
:100B600091E090939A00813E41F48091B300865FBA
:100B70008093B3002BDB8BE4CCCF8091B3008F5FED
:100B8000F7CF0F931F93CF93DF93D82FC92F8B01EC
:100B900045DFB8018D2F9C2FDF91CF911F910F91D1
:100BA0009DCECF93C0917A00C11119C0813C41F410
:100BB00070E060E081E396E0E4DF8C2FCF91089550
:100BC000823C29F470E060E081EF95E0F5CF873B4F
:100BD00031F470E060E086E795E080DEEECFC1E0C2
:100BE000ECCF813C39F470E060E081E396E0C9DF4E
:100BF00080E00895823C29F470E060E08EE099E0A6
:100C0000F6CF873B31F470E060E08AE795E066DE7E
:100C1000EFCF81E00895843011F58091F900909133
:100C2000FA002AE0803E920731F469E170E08FE03B
:100C300097E0A7DF0DC08F50974061F49091DF00DF
:100C4000923040F0892F869596959695890FDEDD36
:100C500080E0089570E060E081E396E0EACF81E013
:100C600008950F931F93CF938B018830A1F480E0F8
:100C700092DD80916D00837082DD1092BA00012BAD
:100C800031F0C0E08C2FCF911F910F91089581E03A
:100C90008093E000F6CF813051F46931710588F31B
:100CA0008093E00080916D00837069DDEACF83302E
:100CB00031F52091C000222359F08091BF0090E0CF
:100CC00062EC71E0E2D80817190710F020937B005E
:100CD00080916D008370833011F4802FC6DD809188
:100CE000B600882371F290E062EC71E0CED88017F4
:100CF000910738F670E060E085E399E016C0813B2B
:100D0000B1F481E090E0E3DA46DD8091BC0081112E
:100D1000B8CF8091BD00811104C00831110508F4DD
:100D2000B0CF61E070E08FE097E02BDFAACF813E8B
:100D3000C1F3813831F480917B0090E0C8DA2BDD7B
:100D4000A0CF813C21F46091DF0070E0ECCF823BCA
:100D500071F48091790090917A0091118091BE0098
:100D6000811103C086E990E0E9CF86E9E8CF823EB1
:100D700011F480E0E4CF66E970E0823CA1F28339AF
:100D8000C1F3833C29F470E060E081ED95E0CDCFC4
:100D9000843C11F43EDDAECF8F3C29F470E060E07E
:100DA00083ED91E0C2CFC0917A008A3B79F4012BA8
:100DB000A1F5CC2329F02DDD10927A0018DB61CF4C
:100DC00070E060E08EE695E089DD5CCFC11125C062
:100DD0008A3C31F41EDD81E080937A0008DB52CF3B
:100DE000833B31F470E060E080EE9AE0CADE4ACFE7
:100DF000853C31F40EDD70E060E082E59CE0F6CFEA
:100E0000873C59F490916D0081E0890F83709C7F3D
:100E1000982B90936D00B3DCE1CFC1E033CF9F926C
:100E2000AF92BF92CF92DF92EF92FF920F931F93F8
:100E3000CF93DF93C82F8B01A0907800E0907700CC
:100E4000B090BD00D090BB00B11002C0DD24D3949F
:100E5000C0907900D0917A00D111C090BE00CC2012
:100E600009F441C041E0C41621F080917B008E1549
:100E7000D0F1A6E9FA2E9090BA00B8018C2F44DD8B
:100E80006091BA00662309F4C0C1911004C080913A
:100E9000DF0080939E008C2F8D7F883031F510927B
:100EA000B500CA3019F400917B0010E0A0161106BD
:100EB00030F4E016110619F010F000937B00C80121
:100EC00006DAA4DC81E080936500D0E08D2FDF910D
:100ED000CF911F910F91FF90EF90DF90CF90BF9037
:100EE000AF909F900895FE2CC6CFC13C09F490C1ED
:100EF000C23C71F48091DF008F1538F48F2D86DCB1
:100F00008091DF0080939E00E0CF80917B00F7CF3F
:100F1000C43C39F480E03FDC70E060E085E399E0B8
:100F20007BC18FE48C0F823008F050C060916E005E
:100F300070E0C801BB2011F068E170E0C3D7892BD5
:100F400021F62091DF000115110521F5C23BE1F4E6
:100F50008FEF80936500D091DF00809165006D2D4B
:100F600070E0082E000C990B90D78D0F911DAFD912
:100F7000C82F80937B00D81729F0813411F08E118F
:100F800001C055DC8C2FBBCF2E1510F7A21618F31D
:100F900081E0DFCFE0916E00F0E0CF0166E371E029
:100FA00074D78017910710F42E1590F6CF016CE6D8
:100FB00072E06BD78017910770F6A21660F229DCF9
:100FC00070E060E085E399E0DCDDC5CF8FE18C0F58
:100FD000823020F480916500819575CFC13009F091
:100FE00090C00932110511F4C0936500662389F0A1
:100FF00080919E006150770B90E047D76091B900D7
:1010000070E074D7611101C061E06093DE0060930D
:10101000C1008091DE009091DF00E82FE91BFF0BFB
:101020009F0160919C0070919D006F5F7F4F709356
:101030009D0060939C00309709F447CF40E052E058
:10104000F7FF06C040E450E0983810F440E051E06B
:101050005695479537FF02C02F5F3F4F359527952F
:1010600021153105A9F74617570708F02ECF891724
:1010700088F58FEF890F7FEF780F272F30E0A901D8
:101080004F535F4FFA016491791740F599B591116B
:1010900025C06F3F19F569BD255D3F4FF90194915A
:1010A00068B5691740F598B59F5F98BD99B5FA0185
:1010B000449194130AC098B5F9012491921305C084
:1010C000C091DE0068DBC093DE0010929D0010929C
:1010D0009C00FBCE981778F681E0CCCF99B5961797
:1010E00020F499B59F5F99BDD7CF99B56917A0F640
:1010F00099B59150F8CF68B59617C0F698B591504C
:10110000D4CFC530A9F48091DF00823408F4DDCE5D
:1011100090E0801B910B282F813491053CF087399A
:10112000910508F026E92093DE00CFCE21E4FBCF25
:10113000C630B1F49091DF008091C100981708F09B
:10114000C4CE090F111D90E08017910734F0C8013B
:101150000134110514F481E490E08093DE00B5CEF3
:10116000C73069F49091DE008091DF00891710F498
:101170008F5FF3CF981708F0A8CE8150EECFC33C15
:1011800071F481E0B11080E08093BD0030D94FDB75
:101190008091DF0090E09BD880937B00B0CED1118E
:1011A00032C0C33B51F4012B09F08FCECC2011F09B
:1011B00086E9F82E8F2D2ADB89CEC33E19F4809163
:1011C0007B00F9CFC53C41F480E0E5DA70E060E0F7
:1011D00082E59CE0D6DC7ACE70E060E08AE695E0BD
:1011E000C73B79F0CA3C39F48091DF008093C0009E
:1011F000FED80FDB6BCECA3B31F470E060E082E7D3
:1012000095E06CDB63CED1E061CE992009F443CE4A
:1012100070E060E081E396E0B4DC57CE282FCB018C
:10122000213C39F470E060E081E396E0AADC80E0E4
:101230000895223C29F470E060E081ED95E0F6CF5E
:10124000213B39F46EE370E03DD6892B81F7E1DA7A
:10125000EECF213E41F46EE370E034D66F5F6093D1
:101260006C00C5D8E4CF81E00895CF93DF93D82FE9
:10127000CB012D2F20792039F1F490917400209129
:1012800075008D2F8F70823049F48091C0008111DC
:1012900008C0822F291728F4892F03C0822F9217A4
:1012A000D8F379DAD33CB1F5B4DA70E060E081E3E9
:1012B00096E067DC24C0203811F480E0F2CFD8300B
:1012C00091F480916D008695869559DAC0917A00E7
:1012D000C11155C0DA3B09F03FC070E060E08EE715
:1012E00095E0FCDA25C0D13061F46931710538F040
:1012F000D093E00080916D008695869540DAC0E03D
:1013000017C0D33079F620916D002C702C30B9F7CE
:10131000ACDAF5CFD43C81F4C091C0006C2F70E002
:10132000C11111C060917B0070E08FE097E029DC73
:101330008C2FDF91CF910895D43B41F478DA10924D
:101340003D0161E070E08FE097E0B3CFD53C09F05C
:10135000BDCF66E970E0F7CFD73C89F490916D007E
:10136000892F869586958F5F8370282F220F220FF5
:101370009370920F90936D0002DA39D8D9CFC1E003
:10138000D7CF8CE287B910920801109209013ED79D
:1013900087EE86B908950F931F93CF931092E300C1
:1013A00080913B0190913C019C012F5F3F4F88272A
:1013B0009078822B932B90933C0180933B01C091BA
:1013C000E10028D7C817B1F01092E0008093E10047
:1013D00090913D01882399F1892F80699F709F30FA
:1013E00061F580933D0190E080E0ECD610923C01E5
:1013F00010923B0100913B0110913C018091E00073
:10140000882359F1B80183E0C3D6CBDA0F731127D3
:10141000012B79F410929F00B4DFC0919F00C1119D
:1014200004C0F4D681E08093FF00CF5FCF71C093FA
:101430009F00CF911F910F9108958F5FD2CF892F79
:101440008F7E95FD08C0806880933D0180913B01AF
:1014500090913C01CACF806CF7CFC0913D018C2F99
:10146000807F803B39F470E060E081E091D6C80174
:10147000A9D6D3CFB80181E08BD6C4FF0FC0C5FD7C
:10148000F6CF0831110548F210923C0110923B0151
:10149000C062C0933D0190E080E0EACFCC2309F424
:1014A000BCCFC5FF02C092D6B8CF0231110508F4F7
:1014B000B4CFC064C0933D0190E080E083D6F3CF09
:1014C00080910A01811118D88091E300811163CFC6
:1014D0000895BF92CF92DF92EF92FF920F931F93E6
:1014E000CF93DF93EC0110E888E0E82E87E0F82E38
:1014F00002E092ECC92EDD24D394B12C209751F454
:10150000DF91CF911F910F91FF90EF90DF90CF90DF
:10151000BF9008958091C2008111F2CF9091DF00B9
:10152000953090F40FB6F89416BD06BD0FBEC601F7
:101530000197F1F78B2D0FB6F89416BD86BD0FBE3F
:10154000BFDF2FDA2197DACF0FB6F89416BD86BD2C
:101550000FBEC701EDCF0F931F93CF93C82F06EA9D
:10156000811102C008E0C1E010E089E114D9C8018E
:10157000B0DF80E010D98AEF90E0ABDFC150A9F76F
:101580008AE992E0CF911F910F91A3CFCF93DF9380
:10159000282F64E68BD4382FC92F892F6AE086D490
:1015A000D92F243650F0832FD6DF8C2F6AE07ED4DB
:1015B000D2DF8D2FDF91CF91CECFCA30B0F7F9CFE8
:1015C000DF92EF92FF920F931F93CF93DF93D82F69
:1015D0008B01C0916B0081E08093B500C33079F43A
:1015E000F090BA008D2F90D9FF20A1F08091BA0021
:1015F000811110C070E060E081E396E0C2DAD8307B
:1016000071F0D13C09F0F6C070E060E081E396E053
:10161000B8DA08C0D83041F481E08093630081E0FB
:101620008093640080E033C1D23C61F41092BA0030
:101630008C2F90E0019666E070E058D480936B00A8
:10164000D6D6F0CFD13BC1F480916200012B41F49A
:101650009FEF8E3618F4823018F491E09093630077
:1016600090916300890F21F481E080936200DACFCA
:101670008F36D8F38EE6F9CFD13E59F480916300CE
:1016800081958093630080916400819580936400CC
:10169000D7CFD23BE1F481E0809363008091620078
:1016A000823018F081508093620081E08093640062
:1016B000C23008F0DFC000FDB5CFEC2FF0E0E759F5
:1016C000FF4F80818F3F09F4ADCF8F5FAAC0D1302B
:1016D00009F0E5C00932110511F4D0936300D090F0
:1016E00099008D2D880FD7FC809590E067E070E021
:1016F000CCD3292FE09098008E2D880FE7FC8095A1
:10170000D09161006D2F70E090E0BFD3290FF09071
:1017100097008F2D880FF7FC8095C09160006C2F8B
:1017200070E090E0B2D3622F690F80916200680F81
:101730007727771F8091BA00813091F48091B700AC
:101740009091B80025E0969587952A95E1F724E7D2
:1017500030E0A901481B590BCA0197D3B901B2D394
:10176000862F19D800FD05C05ED581708D0D809340
:101770009900809196008E0D8093980054D565E273
:1017800095D39F0D909397004ED58F7329F44BD529
:101790006DE08CD390939600DD2331F044D58F73A8
:1017A00019F4D150D09361003ED5811107C03BD5CB
:1017B0006BE07CD39093610010929800C33030F0BE
:1017C00032D58F7119F4C150C09360002CD58F773A
:1017D00029F429D566E06AD3909360000932110597
:1017E00019F481E0809364008091DD00080F00937C
:1017F000DD0018CFD23C09F41BCFD13B49F5C230F4
:1018000090F400FD0FCFEC2FF0E0E759FF4F8081FF
:1018100090916400891B8F3F08F08EEF883008F4A8
:1018200088E08083FFCEC43009F0FCCE8091680050
:1018300090916400890F823038F482E080936800D0
:1018400080916800A8D7EECE8937C0F388E7F6CF3D
:10185000D13E09F418CFD23B09F427CFD23E09F488
:10186000EFCED53C81F470E060E082E59CE089D960
:1018700080E0E8CFC43009F0D5CE80916800833095
:10188000F8F28150DBCF81E0D13009F4A7CFDF91AE
:10189000CF911F910F91FF90EF90DF900895D13C71
:1018A000E9F6B2CE0F931F93CF93DF93D82F8B011E
:1018B000883031F48091B500813011F488E080DE09
:1018C0008D2F8079803991F481E08093B400C091AC
:1018D000B500CC2311F0C0E003C080917B005BD742
:1018E0008C2FDF91CF911F910F910895803829F4AB
:1018F0001092B40080E04FD7EECFC1E0D13081F735
:10190000C091B400CC2351F08091B500813019F71B
:10191000B801DF91CF911F910F9152CE0733114043
:10192000D0F2D093E00080E02AD7DACF2F932FB700
:101930002F933F938F939F93AF93BF93EF93FF9317
:10194000809109018823E9F0E091080124B135B1C3
:10195000F0E0EE0FFF1FDF01AC5FBE4F2D933C9315
:10196000E050FF4F808191818217930708F4019620
:101970002817390708F401979183808381E08093C9
:101980000A0181E080930901FF91EF91BF91AF912E
:101990009F918F913F912F912FBF2F9118958F93EA
:1019A00081E08093E3008F9118958F9381E080937D
:1019B000E2008F911895F89484B7877F84BF0FB6A3
:1019C000F894A89581B5886181BD11BC0FBEB89A05
:1019D00081E083BF81EA8ABDB99A88E088BB85BB74
:1019E0008BB780628BBFA89581B5886181BD80E48B
:1019F00081BDC7DC789481E0F3D370E060E08BE0D8
:101A000096E06CD71092C20004D704D481117FC035
:101A1000F89480E091E07DD2853A09F0A0C003EC13
:101A200010E0C1E0D1E0CE0174D2F80181938F01C2
:101A30002196CB31F1E0DF07B1F778948091C300B4
:101A40008093BD008091C400809374008091C50094
:101A5000809371008091C60080936E008091C700D2
:101A6000809375008091C800809372008091C900B6
:101A700080936F008091CA00809376008091CB00A4
:101A8000809373008091CC00809370008091CD0092
:101A900080937A008091CE008093BE008091CF0029
:101AA0008093BC008091D000809379008091D10018
:101AB0008093C0008091D2008093BF008091D300BA
:101AC00080936B008091D400809369008091D50051
:101AD00080936A008091D600809368008091D7003F
:101AE00080936C008091D80080937C008091D90015
:101AF0008093FB008091DA0080937D008091DB0071
:101B000080936D008091DC008093B60029C0C0E016
:101B10008C2F41D683E190E0DCDC8C2F86953BD680
:101B200083E190E0D6DC76D38823B1F0CF5FC03478
:101B300079F765E181E03DD45AD4C6E98C2F2BD6E4
:101B400084E090E0C6DCC150C9F762CF8C2F23D669
:101B50008DE090E0BEDCC150C111F8CF59CF789430
:101B60008091C000811180937B0061E070E081E38F
:101B700096E0B4D643E4242E52E0352E60E4462E9F
:101B8000772473947CEF872E73E0972E512C612C71
:101B9000E1E3CE2EE6E0DE2E04D78091E6009091C0
:101BA000E700009749F06091E4007091E500E9D703
:101BB0001092E7001092E6008091E000882321F166
:101BC00080E0E9D5A89581B5886181BD21BC3798B1
:101BD00021D38111FDCFFAD28BB780628BBF1092D7
:101BE0000A011092E3001092E2008091E00081115E
:101BF0002DC030927E008BB78F7D8BBFC2DBA89546
:101C000081B5886181BD41BC5BDC1092C2008091CE
:101C1000F9009091FA0021E0833D9207B9F5CEE1F9
:101C2000D0E0FE018491805396DC8CE291E051DC9F
:101C30002196F0E0CA32DF07A1F7D092E700C09208
:101C4000E6001092E5001092E400A6CF85B7877EEB
:101C5000806185BF85B7806285BF889585B78F7D98
:101C600085BF8091E20081111092E00080910A010D
:101C7000882329F070927E007092FF003DD48091FD
:101C8000E300882309F4B1CF86DBAFCF2AE0803EA2
:101C9000920779F0ECE082359E0709F0BDC0809193
:101CA000B500813009F0E6C08091B400882309F4C2
:101CB000E1C0C0916B00C43009F495C008F06AC05F
:101CC000C23008F474C0C23009F066CFACD28F7352
:101CD000082F10E0A8D267E0E9D0C1E0D0E07E0193
:101CE00002C0EE0CFF1C9A95E2F79DD265E0DED0B3
:101CF00002C0CC0FDD1F9A95E2F7CE0DDF1D93D207
:101D000090E0BE01F3D0C80FD91FC739D10524F028
:101D1000F6E9CF2F20E0D22F8C2F3DD5C801D9DB9B
:101D20007E0133E0F594E7943A95E1F7E11002C0C3
:101D3000EE24E394F12CC801CCDB5E01AE18BF08A1
:101D4000E501B7FE02C0C52DD62D8C2F24D56BD250
:101D5000837031F4C801BDDBCE01959587951BD505
:101D6000F2E0AF16B1043CF75ED26DE09FD001E027
:101D700010E002C0000F111F9A95E2F754D2E8015B
:101D8000219790E0C823D923C00FD11F80E003D54D
:101D9000CE011FC0C53009F0FFCE80E4FCD480E046
:101DA00094E097DB80E0F7D480E094E012C0EC2F61
:101DB000F0E0E759FF4FD08186E9EDD4C1110FC0A3
:101DC000DA3248F4C4010197F1F780E0E4D48D2FB2
:101DD00090E07FDBE1CE81E090E07BDBF6CF8D2FE2
:101DE000869590E0FACFD0916800DD0FD73908F0E2
:101DF000D6E98D2FD0D485E090E06BDB8091680030
:101E0000CAD481E490E065DBC15099F780ED92E09F
:101E100060DB80E0C0D4C0CE25E0813D920751F464
:101E20008091FE00B3DB80917A00811106CF88EEAD
:101E300093E0CFCFE5E0813F9E0721F48091FC0045
:101E4000A5DBF5CF8E509940A9F48091E100811176
:101E5000A3CE80917B009FD484E690E03ADB80E0C3
:101E60009AD480916C0090E068EE73E00ED08456B6
:101E70009109AFCF85B7877E85BF85B7806285BF63
:101E8000889585B78F7D85BF87CE0024552704C0F0
:101E9000080E591F880F991F009729F076956795AE
:101EA000B8F37105B9F7802D952F0895991B79E046
:101EB00004C0991F961708F0961B881F7A95C9F7DA
:101EC00080950895AA1BBB1B51E107C0AA1FBB1F29
:101ED000A617B70710F0A61BB70B881F991F5A95B6
:101EE000A9F780959095BC01CD01089597FB072E29
:101EF00016F4009406D077FD08D0E4DF07FC05D087
:101F00003EF4909581959F4F0895709561957F4F10
:101F10000895E199FECF9FBB8EBBE09A99278DB3C0
:101F20000895262FE199FECF9FBB8EBBE09A0197C3
:101F30000DB2021639F01CBA2DBB0FB6F894E29A16
:0A1F4000E19A0FBE0895F894FFCF58
:101F4A00060B18010101000441294303020E01078F
:101F5A0005787896010A0A78010101412D07027471
:101F6A000071006E00000102010000000000000183
:061F7A0000000000000061
:00000001FF
