:1000000003C200001EC200000C9453111AC200006B
:1000100018C200000C944D1114C2000012C200005E
:1000200010C200000EC200000CC200000AC2000094
:1000300008C2000006C200000C94141102C20000A5
:1000400000C20000FEC10000FCC10000FAC10000B7
:10005000F8C10000F6C10000F4C10000F2C10000C8
:10006000F0C10000EEC10000ECC10000EAC10000D8
:100070003230323230353134303236360001050418
:1000800014101115FF3FB1333426013678257A3428
:10009000F326F42E633288335D336232DB30F62E82
:1000A0007931CD2E942F9D2C802CEE2B092BEA2913
:1000B000492AC1287C28C62626265C25732473235A
:1000C0006522F421CA209F1FF71EC91D0E1DE61BC5
:1000D000231B081AF8183A183917431658154214F2
:1000E0003D13761262116210740F960E860D8C0C01
:1000F000A60B9D0AAB09B608C107CD06DC05DC04DA
:10010000E403F302FF01FF01FF01FF01FF01FF0113
:10011000FF01FF01FF01FF01FF01FF01FF01FF01DF
:10012000FF01FF01FF01FF01FF01FF01FF01FF01CF
:10013000FF01FF01FF01FF01FF01FF01FF01FF01BF
:10014000FF01FF01FF01FF01FF01FF01FF01FF01AF
:10015000FF01FF01FF01FF01FF01FF01FF01FF019F
:10016000FF01FF01FF01FF01FF01FF01FF01FF018F
:10017000FF01FF01FF01FF01FF01FF01FF01FF017F
:10018000FF01FF01FF01FF01FF01FF01FF01FF016F
:10019000FF01FF01FF01FF01FF01FF01FF01FF015F
:1001A000FF01FF01FF01FF01FF01FF01FF01FF014F
:1001B000000000000000000000000000000000003F
:1001C000000000000000000000000000000000002F
:1001D000000000000000000000000000000000001F
:1001E000000000000000000000000000000000000F
:1001F00000000000000000000000000000000000FF
:1002000000000000000000000000000000000000EE
:1002100000000000000000000000000000000000DE
:1002200000000000000000000000000000000000CE
:1002300000000000000000000000000000000000BE
:1002400000000000000000000000000000000000AE
:10025000000000000000000000000000000000009E
:10026000000000000000000000000000000000008E
:10027000000000000000000000000000000000007E
:10028000000000000000000000000000000000006E
:10029000000000000000000000000000000000005E
:1002A000000000000000000000000000000000004E
:1002B0000000000005000D0015001D0027003100A2
:1002C0003C00470053005F006C007A0089009800F2
:1002D000A700B800C900DA00EC00FF00010001002F
:1002E00001000200020003000300040005000600F4
:1002F0000700080009000A000C000D000F001000A4
:1003000012001400160018001B001D00200022001F
:10031000250028002B002E003100350038003B005E
:100320003F004200460049004D0050005300570076
:100330005A005D00600062006400670068006900A8
:100340006A006B006A0069006800650062005E0078
:10035000590053004C00430039002E0021002300B7
:100360002500270029002B002E0030003300350027
:1003700038003B003E004100440048004B004F0065
:10038000530056005B005F00630068006C00710062
:1003900076007B00810087008C00920099009F000E
:1003A000A600AC00B300BB00C200CA00D200DA0055
:1003B000E300EC00F500FE00080112011C0127011A
:1003C00032013D014801540160016D017A0187014C
:1003D0009501A301B101C001CF01DF01EF01FF01D0
:1003E000F501E501D501C501B1019D01870171014B
:1003F0005901410127010B01ED00CF00B1008F0031
:100400006C004A002600000011241FBECFEFD4E08C
:10041000DEBFCDBF11E0A0E0B1E0E2E8FCE202C047
:1004200005900D92A035B107D9F722E0A0E5B1E023
:1004300001C01D92A730B207E1F70E9459110C9438
:100440003F16DECDF89498ED9FBD83BF7894089554
:10045000482F362F272FE2EDF1E090E080E0508129
:1004600051110BC063E070E00E94A615FC01EE5232
:10047000FE4F40833183228305C00196339680313D
:10048000910569F70895BC0180910402E1CF1092B3
:100490000402109203021092020281E08093840110
:1004A00008950F931F93CF93C82F08EA17E0C15008
:1004B00020F4CF911F910F91089582E0C3DFC8010E
:1004C0000197F1F780E0BEDFF2CF83B1886483B992
:1004D0000895E0910701F09108013196FB70F460F6
:1004E000F0930801E09307018091A4018B5A809357
:1004F000A401E4918091A4018E0F0895882321F036
:10050000813031F0829A05C0829892988A98089535
:100510008298929A8A9A0895CF93DF9300D00F928F
:10052000CDB7DEB720914C0130914D0140914E0185
:1005300029833A834B83FE01319650E040E0682FD7
:1005400070E0A1E0B0E09B01042E02C03595279534
:100550000A94E2F7922F937081919D0101C0220FBE
:100560008A95EAF7992329F09130C1F080B3822B64
:1005700019C080B32095822380BB82B3822382BBC3
:1005800081B3282321BB4E5F5F4F46305105D9F61A
:100590000F900F900F90DF91CF91089590B3822F1D
:1005A0008095892380BB82B3822B82BB81B3282BA9
:1005B000E9CFEF92FF920F931F93CF93DF9300D079
:1005C00000D00F92CDB7DEB78D838091A601811147
:1005D0000AC02D81222339F080911E01281718F4BA
:1005E000E8DF82E05EDF6D816093A6016093A50184
:1005F0008091A70181110DC08FDF91E07D81711184
:1006000001C090E081E0AD81A73408F480E0890F5B
:1006100075DFBD81B11176C01092060210920502FD
:1006200018BA10926D0010926C0010926B0010922C
:100630006A0010926F0010926E0088988998E0907E
:100640000502F09006020091680010916900809107
:10065000A601815090911F01911188C090E06FEF29
:1006600070E00E94A61566E970E00E94DC15C701E3
:10067000B0E0A0E0262F30E050E040E089839A838C
:10068000AB83BC83B701CD010E94B71561587F4F82
:100690008F4F9F4F69837A838B839C832FEF30E04A
:1006A00040E050E00E940316C9010217130708F04A
:1006B00076C09701201B310BC80130936D00209349
:1006C0006C0090936B0080936A00232B09F474C034
:1006D000889A892B09F472C0899A7D8170935E0192
:1006E0008091A601823008F06BC082E00F900F90DD
:1006F0000F900F900F90DF91CF911F910F91FF906E
:10070000EF90A0CE2D81215030E0220F331FF90150
:10071000E452FD4F859194919093060280930502D7
:10072000F901E055FE4F8591949188BBF901EC5792
:10073000FF4F8591949160915E019C012052310997
:10074000662339F040916E0050916F0024173507F1
:10075000B8F3909369008093680080915E018111E5
:100760006ECF10926F0010926E0069CF9F3F59F4C8
:1007700090E06FEF70E00E94A61566E970E00E94BD
:10078000DC15609574CF892F90E064E670E00E94DC
:10079000A61563E670E00E94F015615068CFB701BE
:1007A000621B730B9B010617170708F086CFC70162
:1007B000801B910B980181CF88988BCF89988DCF22
:1007C0008A3010F481E092CF80E090CFCF93DF9316
:1007D00000D000D000D0CDB7DEB720917F0140918E
:1007E000C0015091C1014351594009F422E08430C5
:1007F00059F46093800126960FB6F894DEBF0FBEC1
:10080000CDBFDF91CF9108956623A9F3823019F40B
:1008100097E9961B692F96E0E3E2F1E0DE0111967D
:1008200001900D929A95E1F78150990B880F991FCD
:10083000A1E0B0E0AC0FBD1F8A0F9B1FDC01ED9162
:10084000FC91E20FF11D6083D6CFCF92DF92EF9241
:10085000FF920F931F93CF93DF939C0150917F01E1
:10086000E0911C0182E0E11101C0852F90E0DC01E4
:10087000AA5EBE4F4C9140931A018D5E9E4FDC01E3
:100880008C9180931901F0E0E05FFE4FC181642FED
:1008900070E0552381F0C13071F4860F972F911DC0
:1008A00095958795DF91CF911F910F91FF90EF90D4
:1008B000DF90CF900895261737079CF18217130613
:1008C0008CF3511102C0822FEDCF841B6C2F61502D
:1008D000770B8B01E82EF12CC7010E94F015609375
:1008E0007D016695E62FF0E0842FD12CC12CD0E05D
:1008F000DC17C1F2C601B8010E94DC15842F860FF7
:10090000A82FB0E0B9016A1B7B0B77FF03C0BD01C4
:10091000621B730BCE0CDF1CE617F7071CF6DF5FBC
:10092000E7CF842FBFCF0F931F93CF93DF93D82FA1
:10093000862F9091C5012FEF290F2C3140F480E0D4
:10094000EBDD80E0DF91CF911F910F91D7CDCD2FBF
:10095000C295CF70DF702091A701211103C0C33071
:1009600008F0C2E0D730B0F40091580110E00F5FFA
:100970001F4FAFDD65E00E94D0159801290F311D92
:10098000C90166E070E00E94F01580935801ED2FD8
:10099000F0E016C0D73089F50091580110E00F5FE4
:1009A0001F4F97DD65E00E94D015D801A90FB11D3A
:1009B000CD0166E070E00E94F01580935801FC01C3
:1009C000E358FF4FE491C33071F48091570190E0F8
:1009D000019663E170E00E94DC1580935701875D0A
:1009E0009E4FDC01CC91CC23E1F1C13011F0EE0F30
:1009F000C2E08E2F91DD8C2FA5CFD830A9F4909135
:100A0000A7016FE0911101C063E0862351F480914A
:100A1000580190E0019666E070E00E94F015809326
:100A20005801E0915801B4CF2091A701222381F011
:100A300080E09D3118F4E0E0C6CF8E5FE82FF0E053
:100A4000E45CFE4F20819217C0F73197E081A0CF80
:100A5000869563E00E94D015E92FF0E0EE0FFF1FAE
:100A6000AFCFE0E0C6CFCF93C091A60186E48C0F54
:100A7000873908F080E09DDD83E013DD8C2FCF9176
:100A800098CDCF93C091A60180E093DD83E009DD8E
:100A90008C2FCF918ECD81E008956111609321015B
:100AA0000895662369F0813099F48091C201909194
:100AB000C301891B680F6093C20182E08093220109
:100AC00080912001873418F086E4809320010895F6
:100AD000635E60932001F4CF6093780108950F93D3
:100AE0001F93CF93DF9380917F0180938501809145
:100AF0001601809386018091130180938701809174
:100B00001001809388018091170180938901809161
:100B1000140180938A018091110180938B0180914F
:100B2000180180938C018091150180938D01809133
:100B3000120180938E0180911C0180938F0180911E
:100B400080018093900180917E018093910180913A
:100B50001B01809392018091820180939301809187
:100B6000810180939401809174018093950180911B
:100B70001F01809396018091750180939701809168
:100B80001E018093980180910C01809399018091BE
:100B90000A0180939A0180910B0180939B018091BF
:100BA000090180939C0180910D0180939D018091AA
:100BB000200180939E018091C20180939F018091CA
:100BC00021018093A00180910F018093A101809168
:100BD0000E018093A201809178018093A30182E0AD
:100BE00060DCF89405E811E0C1E8D0E0F80161911B
:100BF0008F01CE010E942D162196C03AD105B1F782
:100C000065EA80E890E00E942D167894DF91CF91FC
:100C10001F910F9108951092D10130B181B12091AF
:100C2000A401329536953695337090E0880F991F60
:100C3000880F991F830F911D820F8093A4018091CB
:100C4000C601882309F444C01092C6018091CF01E7
:100C50009091A701992319F01F981092CF0181114B
:100C600045C0809122018823A1F18091CB01909110
:100C7000CC019093C8018093C701409696958795C3
:100C8000807F9F7761EC72E00E94DC1580912101EA
:100C90008750680F6093C501809172018823F1F03D
:100CA0008150809372018091A701811108C08EE864
:100CB00084B981E08093CF011092D00106DC80914D
:100CC0002201882329F08091220181508093220102
:100CD00008958091C7019091C801CFCF6D3118F769
:100CE00070E060E084E0B4DB85E0DBCF813039F791
:100CF0008091220181115EC08091C9019091CA0149
:100D00004096DC0145E0B695A7954A95E1F74091FC
:100D1000C201042E000C550B9A012A50314066E0A6
:100D2000969587956A95E1F7820F931F9093C4017A
:100D30008093C30180916101E82FF0E0EE0FFF1F67
:100D4000EE59FE4F20813181BD01621B730B9B0167
:100D5000B183A0838F5F877080936101660F771FD7
:100D6000660F771F6A0F7B1F8091200190E0841B24
:100D7000950B865F9E4F880F991F681B790B83E048
:100D8000161617060CF045C0615071098150C1F765
:100D9000161617060CF057C037FD74C0809160011D
:100DA0001816F4F5861B8093600186E884B91092CA
:100DB000CF0182CF8091CD019091CE019093CA0155
:100DC0008093C901409635E0969587953A95E1F76D
:100DD0009093630180936201909365018093640115
:100DE00090936701809366019093690180936801F5
:100DF00090936B0180936A0190936D0180936C01D5
:100E000090936F0180936E019093710180937001B4
:100E100073CF6115710509F4B9CF6F5F7F4FB6CFFE
:100E2000660F771F653071055CF063507109759529
:100E3000679588E1861B8093600185E009DBB5CF6B
:100E400061E070E0F6CF6C3F8FEF7807DCF437FF9E
:100E500019C08091600187FF02C08450A3CF84EE47
:100E6000861B809360018091C5018F3108F49DCF6E
:100E70008CEF9FEF9C01261B370BB9017595679589
:100E800086E0DCCF8091C5018E3108F48ECF70E012
:100E900060E087E0D3CF813019F410928201089589
:100EA000823019F4609381010895833019F46093BE
:100EB0007E010895843011F460931B010895813000
:100EC00061F491E0611101C090E0909375016111AE
:100ED00001C08FE780931F010895823011F4609361
:100EE0001E010895CF93833B09F057C0809175018F
:100EF0008823A1F0672B09F066C080911F018E3F07
:100F000019F081E080931F0180911F0180958093EB
:100F10001F018091A6014DDB80E029C0672B19F5E8
:100F200081E08093560110925501909105018091C6
:100F30001F011916F4F48E3F18F48F5F80931F0180
:100F4000C091550180911F01C034C9F491E4909380
:100F5000550191E0892780931F0193DD80911F0146
:100F600080935401D6CF809156018111DECFCF916D
:100F70000895992329F3823018F38150DFCF90919F
:100F800054019813EBCFC11105C07BDDCF5FC09337
:100F90005501E4CFCF3F11F3F9CF833EA1F4109276
:100FA00056018091050181958093050180911F0173
:100FB000823028F481E08093050191DDAACF8E3F35
:100FC000E0F38FEFF8CF81E0D2CFFF920F931F9322
:100FD000CF93DF938C01D62FC72FF42E8091C001C1
:100FE0009091C101892B31F0E091C001F091C101D4
:100FF00089E009951093C1010093C001012B41F0D4
:10100000E091C001F091C1016D2F7C2F8F2D0995CA
:1010100081E080938401DF91CF911F910F91FF9028
:1010200008952091AF01283080F4E22FF0E0EE0F18
:10103000FF1FE055FE4F808391832F5F2093AF0108
:1010400048E0C3DF8091AF0108958FEF0895282F06
:10105000CB0130911C01311147C0283039F4109276
:101060007C0110927A01109279010895213B59F484
:1010700080917C0181508330B8F583E080937C01BE
:1010800080937B010895253BA1F46EE370E00E94FC
:10109000DC15892B49F580917C018A3F28F58B5F0F
:1010A00080937C0180937B0110927A0110927901E8
:1010B000DACC2130C9F48091790190917A010196BE
:1010C00088382EE0920728F490937A018093790172
:1010D000089510927A011092790180917C01882301
:1010E00019F0815080937C010895EF92FF921F9335
:1010F000CF93DF931091D201111106C0DF91CF91F0
:101100001F91FF90EF900895E090D301F090D401EB
:10111000C091AF01C1500C2E000CDD0BC7FD0EC0FD
:10112000FE01EE0FFF1FE055FE4F0190F081E02D14
:10113000B701812F099521978111F0CFE2EDF1E000
:10114000838180838481958192838183339681E03A
:10115000EF3FF807A9F71092FF01109201021092D9
:101160000002C8CF8091AF01882319F0815080938D
:10117000AF01E091AF0190E080E0EE2341F0E1505B
:10118000FF0BEE0FFF1FE055FE4F808191814AE07B
:1011900070E060E01ACF582FCB01F901583089F484
:1011A00010925A0180E005DA8091A80181111DC0DA
:1011B00081E080935A0170E060E08BE299E031DFDA
:1011C00014C0252F207F203BB9F420915A014217EB
:1011D00088F06DE570E00E94DC15029741F42F5F06
:1011E00020935A0188E3421718F480E0089582E1C1
:1011F000E0D9FBCF80E0FCCF203E41F480915A0142
:10120000882311F04817B8F6ADDFEFCF5A3069F7F1
:101210006091730180915A01099561DCF5CF26EE4A
:1012200033E043E0B8CF26EE33E044E0B4CF2BE424
:1012300037E044E0B0CF2FE537E042E0ACCF2DE41B
:1012400035E041E0A8CF21E535E042E0A4CF2CE62F
:1012500035E041E0A0CF883039F41092730110924C
:10126000590180E0A6D90CC08130F9F49091590160
:10127000911108C06032710518F08093590107D9A7
:1012800080E00895913079F46B3B710520F082E0A5
:1012900080935901E6CF6115710591F3862F880F70
:1012A00084708E5EDFCF5EDFEBCF813811F0813E40
:1012B00039F791E090935901813E41F48091730197
:1012C000865F80937301E3D88BE4CCCF8091730168
:1012D0008F5FF7CF0F931F93CF93DF93D82FC92F33
:1012E0008B0140DFB8018D2F9C2FDF91CF911F9193
:1012F0000F9197CECF93C0911C01C11119C0813CB1
:1013000041F470E060E08EEE99E0E4DF8C2FCF9145
:101310000895823C29F470E060E08AE999E0F5CF15
:10132000873B31F470E060E08FE199E07ADEEECF48
:10133000C1E0ECCF813C39F470E060E08EEE99E0E2
:10134000C9DF80E00895823C29F470E060E083E02A
:101350009BE0F6CF873B31F470E060E083E299E0F8
:1013600060DEEFCF81E00895813C39F470E060E009
:101370008EEE99E0AFDF80E00895823C29F470E0C2
:1013800060E08AE799E0F6CF81E00895843021F5A6
:101390008091C0019091C1012FE08D34920731F40A
:1013A00069E170E08CE19DE095DF0FC08C519D40BC
:1013B00071F49091A601923050F0892F8695969500
:1013C0009695890F80938301F4D880E0089570E0AA
:1013D00060E08EEE99E0E8CF81E008950F931F93CF
:1013E000CF938B018830A1F480E0E3D860E0809156
:1013F0000F0199DA10927C01012B31F0C0E08C2FA3
:10140000CF911F910F91089581E08093A701F6CFAE
:10141000813049F46931710588F38093A701809187
:101420000F0181DAEBCF833049F52091820122232D
:1014300081F08091810190E062EC71E00E94A6153C
:101440000817190730F020931D01809174018093D3
:101450001F01602F80910F0166DA80917801882347
:1014600069F290E062EC71E00E94A6158017910786
:1014700028F670E060E08CE29BE016C0813BB1F49E
:1014800081E090E0E2D995D880917E018111B6CFBC
:1014900080917F01811104C00831110508F4AECF9D
:1014A00061E070E08CE19DE015DFA8CF813EC1F3E3
:1014B000813831F480911D0190E0C7D97AD89ECF50
:1014C0006091A60170E0813C69F3823B71F48091E8
:1014D0001B0190911C01911180918001811103C029
:1014E00086E990E0EACF86E9E9CF823E11F480E018
:1014F000E5CF66E970E0823CA9F28339C1F3833C11
:1015000029F470E060E08AE799E0CECF843C11F4E2
:10151000AADAAFCF8D3B41F4F89488ED8FBD88E80F
:1015200080BF7894A895FFCF8F3C29F470E060E0ED
:101530008BE495E0B9CFC0911C018A3B81F4012B6B
:1015400009F05FC0CC2329F08EDA10921C01C7DAB3
:1015500055CF70E060E083E199E063DD50CFC111C9
:1015600050C08A3C31F47FDA81E080931C01B7DA05
:1015700046CF833B31F470E060E08DE49FE0AADE6B
:101580003ECF853C31F46FDA70E060E08CEC90E1A6
:10159000F6CF873C91F490910F01892F82958F703F
:1015A0008F5F83708295807F9F70892B80930F015E
:1015B00060E0B9D994DA57DA22CF873BB1F4C80199
:1015C0008F739927892B61F420910F01822F8F70DF
:1015D0008F5F207F6BE00E94D015922B90930F01BC
:1015E000602F80910F019FD90ACF873E09F4BFCFAA
:1015F000893B39F4012B29F470E060E08BE199E03C
:10160000ACCFC1E0FCCE282FCB01213C39F470E0F7
:1016100060E08EEE99E05EDE80E00895223C29F4E1
:1016200070E060E084EB99E0F6CF213B41F46EE39B
:1016300070E00E94DC15892B79F715DAEDCF213E99
:1016400049F46EE370E00E94DC156F5F60930D015A
:1016500046DAE2CF81E008950F931F93CF93DF9393
:10166000C82F8B01873B81F480E00E94D902D09182
:101670001C01D11196C0CA3B09F063C070E060E064
:1016800087E299E0CEDC47C080798039F9F4909107
:101690001601209117018C2F8F70823049F48091B0
:1016A0008201811108C0822F291728F4892F03C0D5
:1016B000822F9217D8F30E94D902C33CF1F4D3D9F8
:1016C00070E060E08EEE99E005DE15C0803811F420
:1016D00080E0F1CFC83009F066C060E080910E0173
:1016E00022D9C5CF0931110530F0C093A701602F71
:1016F00080910E0118D9D0E00EC0C43C91F4D09175
:1017000082016D2F70E0D11113C060911D0170E056
:101710008CE19DE0DFDD8D2FDF91CF911F910F9147
:101720000895C43B41F4ADD91092040261E070E029
:101730008CE19DE0C9CFC53C09F099CF66E970E026
:10174000F7CFC73C91F490910E01892F82958F704D
:101750008F5F83708295807F9F70892B80930E01AD
:1017600060E0E1D8BCD97FD9D6CFC73BB1F4C8017E
:101770008F739927892B61F420910E01822F8F702E
:101780008F5F207F6BE00E94D015922B90930E010B
:10179000602F80910E01C7D8BECFC73E11F49FD9EC
:1017A000BACFD1E0B8CFC13009F49CCFC33009F42F
:1017B0009ECF83CF86E884B91092CF011092D001DA
:1017C0000E946502E1E6F0E0808182608083139AE6
:1017D00087EE83B908950F931F93CF931092AA01B8
:1017E00080910202909103029C012F5F3F4F882756
:1017F0009078822B932B9093030280930202909116
:10180000A8012FB1822F8095881F8827881F809379
:10181000A8019817B9F01092A7018093A8019091A0
:101820000402892F27FD35C080699F709F3079F5AC
:101830008093040290E080E00E9443021092030231
:101840001092020200910202109103028091A701FE
:10185000882361F1B80183E00E94280246DC0F73FF
:101860001127012B81F410925F01A4DFC0915F0169
:10187000C11105C00E94650281E08093C601CF5F5F
:10188000CF71C0935F01CF911F910F9108958F5F2A
:10189000CFCF8F7E95FD08C0806880930402809131
:1018A000020290910302C8CF806CF7CFC09104026E
:1018B0008C2F807F803B49F470E060E081E00E94E3
:1018C0002802C8010E944302D1CFB80181E00E94E2
:1018D0002802C4FF0FC0C5FDF4CF0831110530F256
:1018E0001092030210920202C062C093040290E0C0
:1018F00080E0E8CFCC2309F4B9CFC5FF03C00E9434
:101900004702B4CF0231110508F4B0CFC064C093D0
:10191000040290E080E00E944302F1CF8091D10167
:10192000811179D98091AA01811155CF0895EF9243
:10193000FF920F931F93CF93DF93EC0108E017E022
:1019400082ECE82EFF24F394209739F4DF91CF91B5
:101950001F910F91FF90EF90089580918401811164
:10196000F5CF8091A601823068F482E00E942202C5
:10197000C7010197F1F780E00E942202CFDFB5DBBB
:101980002197E2CF80E00E942202C801F2CF0F939C
:101990001F93CF93C82F06EA811102C008E0C1E06F
:1019A00010E086E40E94D902C801C1DF80E00E94F5
:1019B000D9028AEF90E0BBDFC15099F78AE992E043
:1019C000CF911F910F91B3CFCF93DF93282F64E670
:1019D0000E94D015382FC92F892F6AE00E94D01598
:1019E000D92F243658F0832FD2DF8C2F6AE00E9443
:1019F000D015CDDF8D2FDF91CF91C9CFCA30A8F799
:101A0000F9CFCF93DF93D82FC3E080911D010E94BF
:101A1000D90288EC90E08BDFDD2319F080E991E0BA
:101A200086DF80E00E94D90288EC90E080DFC15020
:101A300061F7DF91CF910895AF92BF92CF92DF927D
:101A4000EF92FF920F931F93CF93DF93C82F8B01D9
:101A5000B0901A01F0901901C0907F01D0907D01E3
:101A6000C11002C0DD24D39480911B01D0911C01D0
:101A7000D11180918001882309F443C0813021F085
:101A800080911D018F15E8F1A6E9EA2EA0907C0156
:101A9000B8018C2FDCDA60917C01662309F4F0C177
:101AA000A11004C08091A60180935D018C2F8D7FD1
:101AB000883049F510927701CA3019F400911D0160
:101AC00010E0B016110630F4F016110619F010F0FF
:101AD00000931D01C8010E942504809383010E9488
:101AE000D90281E080930601D0E08D2FDF91CF9164
:101AF0001F910F91FF90EF90DF90CF90BF90AF902C
:101B00000895EF2CC3CFC13C09F4BDC1C23C99F488
:101B10008091A6018E1550F4E09283018E2D0E94D3
:101B2000D9028091A60180935D01DECF80911D01D5
:101B300080938301F4CFC43C41F480E00E94D90239
:101B400070E060E08CE29BE0A2C18FE48C0F8230F9
:101B500008F055C06091100170E0C801CC2011F070
:101B600068E170E00E94DC15892B09F0BDCF20915F
:101B7000A6010115110531F5C23BF1F48FEF8093F9
:101B80000601D091A601809106016D2D70E0082E0E
:101B9000000C990BDBD78D0F911D0E942504C82FD7
:101BA00080931D01D81721F08F1102C00E944105BA
:101BB000C09383018C2FB3CF2F1500F7B21608F313
:101BC00081E0DDCFE0911001F0E0CF0166E371E04C
:101BD000BDD78017910710F42F1580F6CF016CE662
:101BE00072E0B4D78017910760F6B21650F20E94E7
:101BF000330570E060E08CE29BE06CDBC2CF8FE1EC
:101C00008C0F823020F48091060181956BCFC1301A
:101C100009F0B1C00932110511F4C0930601662321
:101C200089F080915D016150770B90E08FD76091D2
:101C30007B0170E0D5D7611101C061E06093A5011F
:101C4000609383018091A5019091A601482F491BC3
:101C5000550B9A0160915B0170915C016F5F7F4F42
:101C600070935C0160935B01452B09F43DCF40E02C
:101C700052E037FF06C040E450E0933810F440E0F3
:101C800051E05695479537FF02C02F5F3F4F35957E
:101C9000279521153105A9F74617570708F024CFD6
:101CA000891708F04AC08FEF890FCFEFC80F2C2F8C
:101CB00030E0220F331FD901A452BD4FFD016591C1
:101CC00074914091050250910602C91708F03AC07C
:101CD0004115510509F036C06F3F91E0790709F0D1
:101CE000D8C0709306026093050220553E4FF9015B
:101CF0004591549198B394171506A8F598B39F5F32
:101D000098BBFD01659174914091050250910602C6
:101D10006417750769F498B3F90125913491921706
:101D2000130631F4C091A5010E94D902C093A50108
:101D300010925C0110925B01D7CE981708F0B5CFD6
:101D400081E0B2CF4617570738F44F5F5F4F50938B
:101D5000060240930502C9CF6417750708F0C5CF86
:101D600041505109F4CF98B39417150651F248F237
:101D700098B39150C5CFC530A9F48091A6018234A3
:101D800008F4B2CE90E0801B910B282F813491058E
:101D90003CF08739910508F026E92093A501A4CEEF
:101DA00021E4FBCFC630B1F49091A601809183016C
:101DB000981708F099CE090F111D90E08017910730
:101DC00034F0C8010134110514F481E490E08093EB
:101DD000A5018ACEC73069F49091A5018091A60132
:101DE000891710F48F5FF3CF981708F07DCE8150DC
:101DF000EECFD11143C0C33CC9F481E0C11080E0F3
:101E000080937F010E946F050E9441058091A60189
:101E100090E00E94250480931D01809383010E941D
:101E2000D9028091A60180935D015FCEC53C49F443
:101E300080E00E94D90270E060E08CEC90E14ADA28
:101E400054CE70E060E08FE099E0C73BA9F0CA3C57
:101E500069F48091A6018093820180911F01809393
:101E600074010E946F050E9433053FCECA3B31F4D6
:101E700070E060E087E199E0D4D837CED1E035CE8C
:101E8000AA2009F413CE70E060E08EEE99E022DA29
:101E90002BCE672B09F059CF28CFDF92EF92FF921C
:101EA0000F931F93CF93DF93D82F8B01C0910C0119
:101EB00081E080937701C33079F4F0907C018D2F1D
:101EC000C6D8FF20A1F080917C01811110C070E084
:101ED00060E08EEE99E0FED9D83071F0D13C09F087
:101EE00002C170E060E08EEE99E0F4D908C0D8300D
:101EF00041F481E08093030181E08093040180E05C
:101F000040C1D23C69F410927C018C2F90E0019684
:101F100066E070E065D680930C010E946F05EFCFFC
:101F2000D13BC1F480910201012B41F49FEF8F3529
:101F300018F4823018F491E090930301909103011A
:101F4000890F21F481E080930201D9CF8036D8F344
:101F50008FE5F9CFD13E59F48091030181958093AB
:101F6000030180910401819580930401D6CFD23B77
:101F7000E1F481E08093030180910201823018F046
:101F800081508093020181E080930401C23008F007
:101F9000EBC000FDB4CFEC2FF0E0E65FFE4F808198
:101FA0008F3F09F4ACCF8F5FB5C0D13009F0F1C0DD
:101FB0000932110511F4D0930301D09053018D2DF6
:101FC000880FD7FC809590E06CE070E0BFD5292F9A
:101FD000E09052018E2D880FE7FC8095D091010191
:101FE0006D2F70E090E0B2D5290FF09051018F2D48
:101FF000880FF7FC8095C09100016C2F70E090E095
:10200000A5D5622F690F80910201680F7727771F8E
:1020100080917C01813091F48091790190917A01D5
:1020200025E0969587952A95E1F724E730E0A90108
:10203000481B590BCA018AD5B901BED5862F0E940B
:10204000D90200FD06C00E94690281708D0D809347
:102050005301809150018E0D809352010E946902BC
:1020600065E29ED59F0D909351010E9469028F7386
:1020700031F40E9469026DE093D590935001DD2305
:1020800039F00E9469028F7319F4D150D093010185
:102090000E946902811108C00E94690262E180D534
:1020A0009093010110925201C33038F00E946902EE
:1020B0008F7119F4C150C09300010E9469028F779B
:1020C00031F40E9469026AE06BD5909300010932F5
:1020D000110519F481E0809304018091A401080F97
:1020E0000093A4010CCFD23C09F40FCFD13B51F5A2
:1020F000C23090F400FD03CFEC2FF0E0E65FFE4F1E
:10210000808190910401891B8F3F08F08EEF883009
:1021100008F488E08083F3CEC43009F0F0CE8091DB
:10212000090190910401890F823040F482E080938C
:102130000901809109010E94D902E1CE8937B8F3E3
:1021400088E7F5CFD13E09F40CCFD23B09F41BCF81
:10215000D23E09F4E2CED53C81F470E060E08CEC34
:1021600090E1B8D880E0E7CFC43009F0C8CE8091C4
:1021700009018330F0F28150DACF81E0D13009F4E7
:10218000A6CFDF91CF911F910F91FF90EF90DF903D
:102190000895D13CE9F6A5CE0F931F93CF93DF931B
:1021A000D82F8B01883031F480917701813011F480
:1021B00088E073DE8D2F8079803999F481E08093F7
:1021C0007601C0917701CC2311F0C0E004C080916A
:1021D0001D010E94D9028C2FDF91CF911F910F9189
:1021E0000895803831F41092760180E00E94D9027F
:1021F000ECCFC1E0D13079F7C0917601CC2351F01A
:1022000080917701813009F7B801DF91CF911F915B
:102210000F9143CE07331140C0F2D093A70160E085
:1022200080E00E949304D7CF2F932FB72F933F9333
:102230008F939F93AF93BF93EF93FF938091D001C0
:102240008823E9F0E091CF0120B131B1F0E0EE0F49
:10225000FF1FDF01A553BE4F2D933C93E953FE4F63
:10226000808191818217930708F401962817390716
:1022700008F401979183808381E08093D10181E00C
:102280008093D001FF91EF91BF91AF919F918F917A
:102290003F912F912FBF2F9118958F9381E08093BD
:1022A000AA018F9118958F9381E08093A9018F9156
:1022B0001895F89485B7877F85BF90E088ED0FB6B5
:1022C000F894A8958FBD90B7977F90BF0FBE81E01F
:1022D00088B998E09CB99FE790BB92EA909372000E
:1022E00091E19093710091E89BBB8ABB8FEF91E0E5
:1022F000909369008093680080E882BB87BD8CB7AB
:1023000088608CBFA89580E480BF54DA789481E01F
:102310000E94510270E060E086EC99E00E94110892
:10232000109284010E9433059FB1892F8095881FE8
:102330008827881F8093A80197FF95C082E00E949C
:102340005102F89480E890E080D4853A09F0C0C04A
:1023500005E811E0C1E8D0E0CE0177D4F80181931F
:102360008F012196C03AD105B9F778948091850103
:1023700080937F018091860180931601809187016F
:1023800080931301809188018093100180918901CD
:102390008093170180918A018093140180918B01B1
:1023A0008093110180918C018093180180918D019F
:1023B0008093150180918E018093120180918F018D
:1023C00080931C0180919001809380018091910104
:1023D00080937E018091920180931B0180919301F3
:1023E0008093820180919401809381018091950175
:1023F000809374018091960180931F0180919701D1
:10240000809375018091980180931E0180919901BC
:1024100080930C0180919A0180930A0180919B0125
:1024200080930B0180919C018093090180919D0113
:1024300080930D0180919E018093200180919F01E6
:102440008093C2018091A001809321018091A1011C
:1024500080930F018091A20180930E018091A301CE
:102460008093780136C0C0E08C2F0E94D90283E1AE
:1024700090E05DDA8C2F86950E94D90283E190E08E
:1024800056DA9FB1892F8095881F8827881F8093EF
:10249000A80197FD1AC0CF5FC03431F765E181E034
:1024A0000E9451050E946F05C6E98C2F0E94D90237
:1024B00084E090E03CDAC150C1F740CF8C2F0E94FD
:1024C000D9028DE090E033DAC150C111F7CF36CF99
:1024D000789480918201811180931D0170E060E009
:1024E00082E797E00E94110861E070E08EEE99E0CB
:1024F0000E94110843E4242E52E0352E60E4462E5B
:10250000772473947CEF872E73E0972E512C612CE7
:10251000EEEECE2EE9E0DE2E0E9475088091AD0130
:102520009091AE01009751F06091AB017091AC01B8
:102530000E946A091092AE011092AD018091A7012C
:10254000882339F180E00E94D902A89520BE1F9807
:102550009FB1892F8095881F8827881F8093A801A5
:1025600097FFF6CF0E9447028CB788608CBF10920D
:10257000D1011092AA011092A9018091A7018111A5
:102580002BC0309222018CB7877F8CBF13D9A895BE
:1025900040BEC4D9109284018091C0019091C101C4
:1025A000F5E08B349F0709F038C0C0E7D0E0FE01AA
:1025B00084918053ECD98CE291E0B9D92196F0E076
:1025C000CC37DF07A1F7D092AE01C092AD011092D7
:1025D000AC011092AB01A0CF86B78F79806486BF23
:1025E00086B7806186BF889586B78F7E86BF8091CB
:1025F000A90181111092A7018091D101882331F0A6
:10260000709222017092C6010E940B068091AA016D
:10261000882309F4B2CFDFD8B0CF2FE08D349207F2
:1026200079F0E0E18C3C9E0709F042C2809177018D
:10263000813009F080C280917601882309F47BC241
:10264000C0910C01C43009F414C208F075C0C23046
:1026500008F4EFC1C23009F05FCF0E9469028F73A6
:10266000082F10E00E94690267E09AD2C1E0D0E032
:102670007E0102C0EE0CFF1C9A95E2F70E946902EF
:1026800065E08ED202C0CC0FDD1F9A95E2F7CE0D29
:10269000DF1D0E94690290E0BE01A2D2C80FD91FBF
:1026A000C739D10524F0F6E9CF2F20E0D22F8C2FA7
:1026B0000E94D902C8013BD97E0133E0F594E7942A
:1026C0003A95E1F7E11002C0EE24E394F12CC80141
:1026D0002ED95E01AE18BF08E501B7FE02C0C52DB8
:1026E000D62D8C2F0E94D9020E946902837039F482
:1026F000C8011DD9CE01959587950E94D902F2E0B7
:10270000AF16B10424F70E9469026DE049D201E0DE
:1027100010E002C0000F111F9A95E2F70E946902B3
:10272000E801219790E0C823D923C00FD11F80E092
:102730000E94D902CE0191C1C53009F0EDCE80E2F0
:102740000E94D90280E890E0F2D880E00E94D9028D
:1027500080E890E0ECD880E20E94D90280E891E025
:10276000E6D880E00E94D90280E890E0E0D880E2DC
:102770000E94D90280E891E0DAD880E00E94D90274
:1027800080E890E0D4D880E20E94D90280E891E00D
:10279000CED880E00E94D90280E891E0C8D880E2DB
:1027A0000E94D90280E890E0C2D880E00E94D9025D
:1027B00080E890E0BCD880E20E94D90280E890E0F6
:1027C000B6D880E00E94D90280E891E0B0D880E2DB
:1027D0000E94D90280E891E0AAD880E00E94D90244
:1027E00080E890E0A4D880E20E94D90280E891E0DD
:1027F0009ED880E00E94D90280E891E098D880E2DB
:102800000E94D90280E891E092D880E00E94D9022B
:1028100080E890E08CD880E20E94D90280E891E0C4
:1028200086D880E00E94D90280E891E080D880E2DA
:102830000E94D90280E891E07AD880E00E94D90213
:1028400080E890E074D880E20E94D90280E890E0AD
:102850006ED880E00E94D90280E890E068D880E2DB
:102860000E94D90280E891E062D880E00E94D902FB
:1028700080E890E05CD880E20E94D90280E891E094
:1028800056D880E00E94D90280E893E050D880E2D8
:102890000E94D90280E890E04AD880E00E94D902E4
:1028A00080E890E044D880E20E94D90280E890E07D
:1028B0003ED880E00E94D90280E890E038D880E2DB
:1028C0000E94D90280E890E032D880E00E94D902CC
:1028D00080E891E02CD880E20E94D90280E890E064
:1028E00026D880E00E94D90280E890E020D880E2DB
:1028F0000E94D90280E890E01AD880E00E94D902B4
:1029000080E890E014D880E20E94D90280E891E04B
:102910000ED880E00E94D90280E891E008D880E2D9
:102920000E94D90280E891E002D880E00E94D9029A
:1029300080E890E00E94970C80E20E94D90280E833
:1029400090E00E94970C80E00E94D90280E890E01D
:102950000E94970C80E20E94D90280E891E00E94D8
:10296000970C80E00E94D90280E890E00E94970CCA
:1029700080E20E94D90280E890E00E94970C80E0FB
:102980000E94D90280E891E00E94970C80E20E94A8
:10299000D90280E891E00E94970C80E00E94D90261
:1029A00080E890E00E94970C80E20E94D90280E8C3
:1029B00090E00E94970C80E00E94D90280E890E0AD
:1029C0000E94970C80E20E94D90280E891E00E9468
:1029D000970C80E00E94D90280E891E00E94970C59
:1029E00080E20E94D90280E890E00E94970C80E08B
:1029F0000E94D90280E890E00E94970C80E20E9439
:102A0000D90280E890E00E94970C80E00E94D902F1
:102A100080E890E00E94970C80E20E94D90280E852
:102A200090E00E94970C80E00E94D90280E098E03C
:102A300014C0EC2FF0E0E65FFE4FD08186E90E94E3
:102A4000D902C11112C0DA3258F4C4010197F1F76A
:102A500080E00E94D9028D2F90E00E94970C5CCDFF
:102A600081E090E00E94970CF3CF8D2F869590E047
:102A7000F9CFD0910901DD0FD73908F0D6E98D2FB4
:102A80000E94D90285E090E00E94970C8091090194
:102A90000E94D90281E490E00E94970CC15079F71E
:102AA00080ED92E00E94970C80E00E94D90234CD24
:102AB00029E08A37920759F48091C5010E94E40CFD
:102AC00080911C0181117FCD88EE93E0C6CFE9E0B3
:102AD0008A399E0729F48091C3010E94E40CF4CF47
:102AE000FBE083309F07C1F48091A801811114CDD0
:102AF00080911D010E94D90284E690E00E94970C0B
:102B000080E00E94D90280910D0190E068EE73E0B0
:102B10001DD084569109A1CF845B994061F480E077
:102B20000E94010D81E00E94010D80E00E94010DD4
:102B300080ED97E092CF86B78F7986BF86B78061A8
:102B400086BF889586B78F7E86BFE6CC0024552742
:102B500004C0080E591F880F991F009729F0769519
:102B60006795B8F37105B9F7802D952F0895EE2775
:102B7000FF27AA27BB2708C0A20FB31FE41FF51F1A
:102B8000220F331F441F551F96958795779567959C
:102B900098F37040A9F7009799F7BD01CF01089508
:102BA000991B79E004C0991F961708F0961B881F9F
:102BB0007A95C9F780950895AA1BBB1B51E107C000
:102BC000AA1FBB1FA617B70710F0A61BB70B881FBD
:102BD000991F5A95A9F780959095BC01CD0108954C
:102BE00097FB072E16F4009406D077FD08D0E4DF9B
:102BF00007FC05D03EF4909581959F4F0895709500
:102C000061957F4F0895A1E21A2EAA1BBB1BFD01FF
:102C10000DC0AA1FBB1FEE1FFF1FA217B307E407BB
:102C2000F50720F0A21BB30BE40BF50B661F771F13
:102C3000881F991F1A9469F76095709580959095F3
:102C40009B01AC01BD01CF010895E199FECF1FBAF0
:102C50008EBBE09A99278DB30895262FE199FECF78
:102C60001FBA8EBBE09A81500DB2021639F01CBA21
:102C70002DBB0FB6F894E29AE19A0FBE0895F8942E
:022C8000FFCF84
:102C82000A121801010101000482294303023718C4
:102C92000107058282820A0A0A820A010146158018
:102CA2002D070216011301100102010000000000AD
:102CB20000000100000000000000000100002101EE
:102CC20023022503270429052C06FF060504030019
:00000001FF
