:1000000003C200001EC200001CC200000C943A1083
:1000100018C200000C94341014C2000012C2000078
:1000200010C200000EC200000CC200000AC2000094
:1000300008C2000006C200000C94FB0F02C20000C0
:1000400000C20000FEC10000FCC10000FAC10000B7
:10005000F8C10000F6C10000F4C10000F2C10000C8
:10006000F0C10000EEC10000ECC10000EAC10000D8
:100070003230323230353134303237340001050419
:1000800014101115FF3FFF3FE62D6239DF23973033
:100090002F3583363536F8342533F130EB33E13004
:1000A000D431E131752EE32D352FCD2D412C342C5B
:1000B000632AD92916292A2820270126D424522444
:1000C0000B235A220B2141206B1F231E491D6B1C41
:1000D0008C1B611A8A1974186A17A6167D15971455
:1000E0008E139612AD11AC10BE0FBF0EB40DBF0C27
:1000F000C20BC00AD509D008CE07E306E805E10423
:10010000E203ED02F101FF00FF00FF00FF00FF002E
:10011000FF00FF00FF00FF00FF00FF00FF00FF00E7
:10012000FF00FF00FF00FF00FF00FF00FF00FF00D7
:10013000FF00FF00FF00FF00FF00FF00FF00FF00C7
:10014000FF00FF00FF00FF00FF00FF00FF00FF00B7
:10015000FF00FF00FF00FF00FF00FF00FF00FF00A7
:10016000FF00FF00FF00FF00FF00FF00FF00FF0097
:10017000FF00FF00FF00FF00FF00FF00FF00FF0087
:10018000FF00FF00FF00FF00FF00FF00FF00FF0077
:10019000FF00FF00FF00FF00FF00FF00FF00FF0067
:1001A000FF00FF00FF00FF00FF00FF00FF00FF0057
:1001B000000000000000000000000000000000003F
:1001C000000000000000000000000000000000002F
:1001D000000000000000000000000000000000001F
:1001E000000000000000000000000000000000000F
:1001F00000000000000000000000000000000000FF
:1002000000000000000000000000000000000000EE
:1002100000000000000000000000000000000000DE
:1002200000000000000000000000000000000000CE
:1002300000000000000000000000000000000000BE
:1002400000000000000000000000000000000000AE
:10025000000000000000000000000000000000009E
:10026000000000000000000000000000000000008E
:10027000000000000000000000000000000000007E
:10028000000000000000000000000000000000006E
:10029000000000000000000000000000000000005E
:1002A000000000000000000000000000000000004E
:1002B00000000000090014001E00290034003F0067
:1002C0004B005700630070007D008A009700A50076
:1002D000B300C200D000E000EF00FF00000001000A
:1002E00001000200020003000400050006000700F0
:1002F000080009000B000C000E0010001100130094
:10030000160018001A001D001F00220025002800FA
:100310002B002E003100350038003C003F00430028
:1003200047004A004E005200560059005D00600030
:100330006300670069006C006E007000720073005B
:10034000740074007300720070006D006A00650034
:100350005F005900510047003C00300022001300AC
:10036000140015001600170018001A001B001C00CE
:100370001E001F0020002200240025002700290065
:100380002B002D002F0031003300350038003A00DB
:100390003D003F004200450048004B004E00510028
:1003A000540058005B005F00630067006B006F0043
:1003B000730077007C00810085008A008F00950023
:1003C0009A009F00A500AB00B100B700BD00C400BB
:1003D000CB00D200D900E000E700EF00F700FF00FB
:1003E000FF00FF00FF00FF00FF00FF00FF00FF0015
:1003F000FF00FF00FF00FF00FF00FF00FF00FF0005
:10040000FF00FF00FF00000011241FBECFEFD4E06B
:10041000DEBFCDBF11E0A0E0B1E0EEE4F9E202C042
:1004200005900D92AE34B107D9F721E0AEE4B1E00A
:1004300001C01D92AB3FB207E1F70E9440100C943F
:10044000A514DECDF89498ED9FBD83BF78940895F0
:10045000482F362F272FE8ECF1E090E080E0508124
:1004600051110BC063E070E00E944714FC01E85397
:10047000FE4F40833183228305C00196339680313D
:10048000910569F70895BC018091FA01E1CF1092BE
:10049000FA011092F9011092F80181E080937D0138
:1004A00008950F931F93CF93C82F08EA17E0C15008
:1004B00020F4CF911F910F91089582E0C3DFC8010E
:1004C0000197F1F780E0BEDFF2CF83B1886483B992
:1004D00008958BB182FB882780F991E0892780936A
:1004E0009E010895E0910601F09107013196FB709D
:1004F000F460F0930701E093060180919A018B5A12
:1005000080939A01E49180919A018E0F0895882337
:1005100021F0813031F0829A05C0829892988A98B1
:1005200008958298929A8A9A0895CF93DF9300D083
:100530000F92CDB7DEB720914A0130914B01409127
:100540004C0129833A834B83FE01319650E040E011
:10055000682F70E0A1E0B0E09B01042E02C0359549
:1005600027950A94E2F7922F937081919D0101C023
:10057000220F8A95EAF7992329F09130C1F080B3D0
:10058000822B19C080B32095822380BB82B3822343
:1005900082BB81B3282321BB4E5F5F4F463051059C
:1005A000D9F60F900F900F90DF91CF91089590B3EF
:1005B000822F8095892380BB82B3822B82BB81B33B
:1005C000282BE9CFCF93C82F80919C01811109C0BE
:1005D000CC2339F080911D01C81718F4F3DF82E0B5
:1005E00060DFC0939C01C0939B0180919D018111AC
:1005F0000BC09BDF91E0C11101C090E081E0C734E6
:1006000008F480E0890F83DFC11117C010926D00DC
:1006100010926C0010926B0010926A0010926F00A2
:1006200010926E006898C093590180919C018430AB
:1006300008F03BC082E0CF9105CF689A2FEF2C0FD6
:1006400030E0220F331FF901E452FD4F8591949160
:1006500090936D0080936C00F901E055FE4F8591F9
:10066000949190936B0080936A00F901EC57FF4FCF
:1006700085919491609159019C0120523109662322
:1006800039F040916E0050916F0024173507B8F390
:100690009093690080936800809159018111C3CFC4
:1006A00010926F0010926E00BECF8C3010F481E07B
:1006B000C2CF80E0C0CFCF93DF9300D000D000D076
:1006C000CDB7DEB7209178014091B6015091B701C6
:1006D000485E574009F422E0843059F46093790170
:1006E00026960FB6F894DEBF0FBECDBFDF91CF9137
:1006F00008956623A9F3823019F497E9961B692FB0
:1007000096E0E1E2F1E0DE01119601900D929A95FA
:10071000E1F78150990B880F991FA1E0B0E0AC0F71
:10072000BD1F8A0F9B1FDC01ED91FC91E20FF11DB3
:100730006083D6CF813011F460931D010895CF926C
:10074000DF92EF92FF920F931F93CF93DF939C0161
:1007500050917801E0911B0182E0E11101C0852FE9
:1007600090E0DC01AB5EBE4F4C91409319018E5E70
:100770009E4FDC018C9180931801F0E0E15FFE4F09
:10078000C181642F70E0552381F0C13071F4860F70
:10079000972F911D95958795DF91CF911F910F917F
:1007A000FF90EF90DF90CF900895261737079CF1C8
:1007B000821713068CF3511102C0822FEDCF841BD8
:1007C0006C2F6150770B8B01E82EF12CC7010E9432
:1007D0007814609376016695E62FF0E0842FD12C93
:1007E000C12CD0E0DC17C1F2C601B8010E9464142C
:1007F000842F860FA82FB0E0B9016A1B7B0B77FF0F
:1008000003C0BD01621B730BCE0CDF1CE617F7079C
:100810001CF6DF5FE7CF842FBFCF80937C01D2CE61
:100820000F931F93CF93E82F862F9091BB012FEF4B
:10083000290F2C3138F480E078DE80E0CF911F91D1
:100840000F9165CECE2FC295CF70EF7020919D0194
:10085000211103C0C33008F0C2E0E73010F4F0E02B
:1008600016C0E73089F50091530110E00F5F1F4F6C
:1008700039DE65E00E9458149801290F311DC90125
:1008800066E070E00E94781480935301FC01E35805
:10089000FF4FE491C33071F48091520190E00196D2
:1008A00063E170E00E94641480935201895D9E4F61
:1008B000DC01CC91CC23E1F1C13011F0EE0FC2E0AC
:1008C0008E2F33DE8C2FBACFE830A9F490919D01A2
:1008D0006FE0911101C063E0862351F480915301D0
:1008E00090E0019666E070E00E94781480935301D6
:1008F000E0915301B4CF20919D01222381F080E04B
:100900009D3118F4E0E0C6CF8E5FE82FF0E0E65CA2
:10091000FE4F20819217C0F73197E081A0CF8695D6
:1009200063E00E945814E92FF0E0EE0FFF1FAFCFF5
:10093000E0E0C6CFCF93C0919C0182E38C0F873952
:1009400008F080E03FDE83E0ACDD8C2FCF913ACE23
:10095000CF93C0919C0180E035DE83E0A2DD8C2F37
:10096000CF9130CE81E00895611160931F01089509
:10097000662369F0813099F48091B8019091B901B2
:10098000891B680F6093B80182E0809320018091F9
:100990001E01873418F086E480931E010895635E7B
:1009A00060931E01F4CF6093710108950F931F931C
:1009B000CF93DF938091780180937E018091150120
:1009C00080937F01809112018093800180910F01BB
:1009D000809381018091160180938201809113019F
:1009E000809383018091100180938401809117018D
:1009F000809385018091140180938601809111017B
:100A00008093870180911B018093880180917901F7
:100A1000809389018091770180938A0180911A01E6
:100A200080938B0180917B0180938C0180917A016E
:100A300080938D0180911D0180938E0180910B0127
:100A400080938F01809109018093900180910A0128
:100A500080939101809108018093920180910C0113
:100A60008093930180911E01809394018091B8013D
:100A70008093950180911F018093960180910E01D2
:100A80008093970180910D0180939801809171016D
:100A90008093990182E005DDF8940EE711E0C1E84A
:100AA000D0E0F80161918F01CE010E94931421964C
:100AB000CD39D105B1F765EA80E890E00E94931442
:100AC0007894DF91CF911F910F9108951092C701F3
:100AD00030B181B120919A013295369536953370B7
:100AE00090E0880F991F880F991F830F911D820F27
:100AF00080939A018091BC01882309F444C010922C
:100B0000BC018091C50190919D01992319F01F9816
:100B10001092C501811145C0809120018823A1F167
:100B20008091C1019091C2019093BE018093BD015B
:100B3000409696958795807F9F7761EC72E00E9442
:100B4000641480911F018750680F6093BB018091EE
:100B50006D018823F1F0815080936D0180919D019A
:100B6000811108C08EE884B981E08093C50110929C
:100B7000C601ABDC80912001882329F080912001FF
:100B800081508093200108958091BD019091BE0114
:100B9000CFCF6D3118F770E060E084E059DC85E07C
:100BA000DBCF813039F78091200181115EC08091C7
:100BB000BF019091C0014096DC0145E0B695A79534
:100BC0004A95E1F74091B801042E000C550B9A01AB
:100BD0002E50314066E0969587956A95E1F7820F31
:100BE000931F9093BA018093B90180915C01E82F23
:100BF000F0E0EE0FFF1FE35AFE4F20813181BD016F
:100C0000621B730B9B01B183A0838F5F87708093FE
:100C10005C01660F771F660F771F6A0F7B1F80913D
:100C20001E0190E0841B950B825F9E4F880F991FD9
:100C3000681B790B83E0161617060CF045C061504F
:100C400071098150C1F7161617060CF057C037FD11
:100C500074C080915B011816F4F5861B80935B01CC
:100C600086E884B91092C50182CF8091C30190912A
:100C7000C4019093C0018093BF01409635E09695E2
:100C800087953A95E1F790935E0180935D0190938B
:100C9000600180935F019093620180936101909362
:100CA0006401809363019093660180936501909342
:100CB00068018093670190936A0180936901909322
:100CC0006C0180936B0173CF6115710509F4B9CF85
:100CD0006F5F7F4FB6CF660F771F653071055CF091
:100CE000635071097595679588E1861B80935B0158
:100CF00085E0AEDBB5CF61E070E0F6CF6C3F8FEF03
:100D00007807DCF437FF19C080915B0187FF02C0D0
:100D10008450A3CF84EE861B80935B018091BB013E
:100D20008F3108F49DCF8CEF9FEF9C01261B370B72
:100D3000B9017595679586E0DCCF8091BB018E3156
:100D400008F48ECF70E060E087E0D3CF813019F4F3
:100D500010927B010895823019F460937A0108950E
:100D6000833019F4609377010895843011F460930F
:100D70001A010895FF920F931F93CF93DF938C0175
:100D8000D62FC72FF42E8091B6019091B701892BF1
:100D900031F0E091B601F091B70189E00995109327
:100DA000B7010093B601012B41F0E091B601F0913B
:100DB000B7016D2F7C2F8F2D099581E080937D01E8
:100DC000DF91CF911F910F91FF9008952091A50180
:100DD000283080F4E22FF0E0EE0FFF1FEA55FE4FBF
:100DE000808391832F5F2093A50148E0C3DF80912A
:100DF000A50108958FEF0895282FCB0130911B0195
:100E0000311147C0283039F41092750110927301E6
:100E1000109272010895213B59F48091750181501F
:100E20008330B8F583E08093750180937401089551
:100E3000253BA1F46EE370E00E946414892B49F510
:100E4000809175018A3F28F58B5F809375018093AF
:100E5000740110927301109272016CCD2130C9F4AB
:100E60008091720190917301019688382EE092076B
:100E700028F4909373018093720108951092730186
:100E80001092720180917501882319F0815080932E
:100E900075010895EF92FF921F93CF93DF93109106
:100EA000C801111106C0DF91CF911F91FF90EF9003
:100EB0000895E090C901F090CA01C091A501C15008
:100EC0000C2E000CDD0BC7FD0EC0FE01EE0FFF1F48
:100ED000EA55FE4F0190F081E02DB701812F099571
:100EE00021978111F0CFE8ECF1E083818083848148
:100EF000958192838183339681E0E53FF807A9F7D6
:100F00001092F5011092F7011092F601C8CF80916E
:100F1000A501882319F081508093A501E091A501D6
:100F200090E080E0EE2341F0E150FF0BEE0FFF1F59
:100F3000EA55FE4F808191814AE070E060E01ACF6F
:100F4000582FCB01F901583089F41092550180E0F7
:100F500039DB80919E0181111DC081E08093550194
:100F600070E060E080E098E031DF14C0252F207F42
:100F7000203BB9F420915501421788F06DE570E0EF
:100F80000E946414029741F42F5F2093550188E377
:100F9000421718F480E0089582E114DBFBCF80E073
:100FA000FCCF203E41F480915501882311F0481771
:100FB000B8F6ADDFEFCF5A3069F760916E018091DE
:100FC00055010995F3DCF5CF2BE533E043E0B8CFCD
:100FD0002BE533E044E0B4CF26EA36E044E0B0CF7E
:100FE0002AE933E041E0ACCF24EB34E041E0A8CF84
:100FF00028EB34E042E0A4CF23ED34E041E0A0CF81
:10100000883039F410926E011092540180E0DADADF
:101010000CC08130F9F490915401911108C06032F4
:10102000710518F08093540132DA80E00895913010
:1010300079F46B3B710520F082E080935401E6CF98
:101040006115710591F3862F880F84708E5EDFCF56
:101050005EDFEBCF813811F0813E39F791E090935C
:101060005401813E41F480916E01865F80936E0150
:101070000EDA8BE4CCCF80916E018F5FF7CF0F93A8
:101080001F93CF93DF93D82FC92F8B0140DFB80177
:101090008D2F9C2FDF91CF911F910F9197CECF93E2
:1010A000C0911B01C11119C0813C41F470E060E0A6
:1010B00081EC98E0E4DF8C2FCF910895823C29F4F5
:1010C00070E060E08FE698E0F5CF873B31F470E0A8
:1010D00060E084EF97E07ADEEECFC1E0ECCF813CB8
:1010E00039F470E060E081EC98E0C9DF80E00895B9
:1010F000823C29F470E060E08CE19CE0F6CF873B15
:1011000031F470E060E088EF97E060DEEFCF81E0DF
:101110000895813C39F470E060E081EC98E0AFDF45
:1011200080E00895823C29F470E060E08FE498E06C
:10113000F6CF81E00895843011F58091B601909149
:10114000B7012EE08433920731F469E170E082ED5B
:1011500099E095DF0DC0825D994061F490919C010A
:10116000923040F0892F869596959695890F55DB9C
:1011700080E0089570E060E081EC98E0EACF81E0E3
:1011800008950F931F93CF938B018830A1F480E0D3
:1011900019DA60E080910E0143DB10927501012B9A
:1011A00031F0C0E08C2FCF911F910F91089581E015
:1011B00080939D01F6CF813049F46931710588F340
:1011C00080939D0180910E012BDBEBCF833029F5BD
:1011D00020917B01222361F080917A0190E062EC02
:1011E00071E00E9447140817190710F020931C01A2
:1011F000602F80910E0114DB80917101882389F2A8
:1012000090E062EC71E00E9447148017910748F665
:1012100070E060E085E49CE016C0813BB1F481E0C1
:1012200090E08DDACFD9809177018111BACF80918A
:101230007801811104C00831110508F4B2CF61E0D2
:1012400070E082ED99E01BDFACCF813EC1F38138C5
:1012500031F480911C0190E072DAB4D9A2CF609190
:101260009C0170E0813C69F3823B71F480911A012A
:1012700090911B01911180917901811103C086E940
:1012800090E0EACF86E9E9CF823E11F480E0E5CF35
:1012900066E970E0823CA9F28339C1F3833C29F40A
:1012A00070E060E08FE498E0CECF843C11F442DB44
:1012B000AFCF8D3B41F4F89488ED8FBD88E880BFB7
:1012C0007894A895FFCF8F3C29F470E060E082EB22
:1012D00094E0B9CFC0911B018A3B81F4012B09F046
:1012E0005FC0CC2329F026DB10921B015FDB59CFB6
:1012F00070E060E088EE97E069DD54CFC11150C026
:101300008A3C31F417DB81E080931B014FDB4ACF2D
:10131000833B31F470E060E084E39EE0B0DE42CFD6
:10132000853C31F407DB70E060E083EB9FE0F6CFB3
:10133000873C91F490910E01892F82958F708F5F79
:1013400083708295807F9F70892B80930E0160E06F
:1013500067DA2CDBEFDA26CF873BB1F4C8018F7355
:101360009927892B61F420910E01822F8F708F5F56
:10137000207F6BE00E945814922B90930E01602FF7
:1013800080910E014DDA0ECF873E09F4BFCF893B25
:1013900039F4012B29F470E060E080EF97E0ACCFE6
:1013A000C1E000CF9F92AF92BF92CF92DF92EF92B7
:1013B000FF920F931F93CF93DF93C82F8B01A090C1
:1013C0001901E0901801B0907801D0907601B11029
:1013D00002C0DD24D394C0901A01D0911B01D11119
:1013E000C0907901CC2009F441C041E0C41621F03D
:1013F00080911C018E15D0F1A6E9FA2E909075010E
:10140000B8018C2FF9DC60917501662309F40BC2D9
:10141000911004C080919C01809358018C2F8D7F86
:10142000883031F510927001CA3019F400911C0116
:1014300010E0A016110630F4E016110619F010F0B5
:1014400000931C01C8017BD9E8D981E08093050194
:10145000D0E08D2FDF91CF911F910F91FF90EF90F2
:10146000DF90CF90BF90AF909F900895FE2CC6CF95
:10147000C13C09F4DBC1C23C71F480919C018F1521
:1014800038F48F2DCAD980919C0180935801E0CF08
:1014900080911C01F7CFC43C39F480E093D870E010
:1014A00060E085E49CE0C6C18FE48C0F823008F0D8
:1014B00052C060910F0170E0C801BB2011F068E1DB
:1014C00070E00E946414892B19F620919C0101158B
:1014D000110519F5C23BD9F48FEF80930501D09126
:1014E0009C01809105016D2D70E0082E000C990B78
:1014F0000E9447148D0F911D22D9C82F80931C0183
:10150000D81719F08E1101C023DA8C2FBBCF2E15FE
:1015100018F7A21620F381E0E0CFE0910F01F0E090
:10152000CF0166E371E00E9447148017910710F421
:101530002E1590F6CF016CE672E00E9447148017DA
:10154000910768F6A21658F2F5D970E060E085E4DC
:101550009CE095DDC4CF8FE18C0F823020F4809128
:101560000501819573CFC13009F0D2C00932110550
:1015700011F4C0930501662399F0809158016150E0
:10158000770B90E00E9447146091740170E00E9414
:101590007814611101C061E060939B0160937C014C
:1015A00080919B0190919C01482F491B550B9A01FA
:1015B00060915601709157016F5F7F4F7093570193
:1015C00060935601452B09F443CF40E052E037FFCA
:1015D00006C040E450E0933810F440E051E05695E6
:1015E000479537FF02C02F5F3F4F3595279521154F
:1015F0003105A9F74617570708F02ACF891708F0D1
:1016000056C08FEF890FAFEFA80F2A2F30E0220FBF
:10161000331FA90144525D4FFA0165917491A917D6
:1016200008F04AC0E0916C00F0916D00EF2B09F0DA
:1016300043C06F3F710509F03FC070936D00609328
:101640006C0020553E4FF90165917491E0916A005C
:10165000F0916B00E617F70708F04BC060916A0045
:1016600070916B006F5F7F4F70936B0060936A00A7
:1016700060916C0070916D00FA014591549164176E
:10168000750781F440916A0050916B00F901259132
:1016900034914217530731F4C0919B010E94E2023A
:1016A000C0939B011092570110925601D1CE98170A
:1016B00008F0A9CF81E0A6CFE0916C00F0916D0019
:1016C000E617F70738F460916C0070916D006F5F5A
:1016D0007F4FB3CFE0916C00F0916D006E177F07E4
:1016E00008F0AFCF60916C0070916D00615071098E
:1016F000A4CFE0916A00F0916B006E177F0708F0AD
:10170000B7CF60916A0070916B0061507109ACCFE6
:10171000C530A9F480919C01833408F499CE90E0FF
:10172000801B910B282F823491053CF0873991055D
:1017300008F026E920939B018BCE22E4FBCFC63034
:10174000B1F490919C0180917C01981708F080CEB3
:10175000090F111D90E08017910734F0C801023481
:10176000110514F482E490E080939B0171CEC730A0
:1017700069F490919B0180919C01891710F48F5F0F
:10178000F3CF981708F064CE8150EECFD11149C045
:10179000C33CA1F481E0B11080E08093780106D9C8
:1017A000D7D880919C0190E00E949F0380931C01F8
:1017B00034D880919C01809358014BCEC33B51F4A7
:1017C000012B09F045CECC2011F086E9F82E8F2DA3
:1017D00024D83FCEC33E19F480911C01F9CFC53CFB
:1017E00049F480E00E94E20270E060E083EB9FE059
:1017F00046DC2FCE70E060E084EE97E0C73B79F0E6
:10180000CA3C39F480919C0180937B01CFD892D857
:1018100020CECA3B31F470E060E08CEE97E0D6DA7F
:1018200018CED1E016CE992009F4F8CD70E060E032
:1018300081EC98E024DC0CCE282FCB01213C39F43C
:1018400070E060E081EC98E01ADC80E00895223CD2
:1018500029F470E060E089E898E0F6CF213B41F49C
:101860006EE370E00E946414892B79F763D8EDCFA2
:10187000213E49F46EE370E00E9464146F5F609350
:101880000C0194D8E2CF81E008950F931F93CF937A
:10189000DF93C82F8B01873B81F480E00E94E20236
:1018A000D0911B01D1119CC0CA3B09F066C070E009
:1018B00060E08CEF97E08ADA49C080798039F9F4EA
:1018C00090911501209116018C2F8F70823049F470
:1018D00080917B01811108C0822F291728F4892F5C
:1018E00003C0822F9217D8F30E94E202C33C01F595
:1018F00021D870E060E081EC98E0C1DB17C080384F
:1019000011F480E0F1CFC83009F06CC060E0809144
:101910000D010E941004C4CF0931110538F0C093A5
:101920009D01602F80910D010E941004D0E00EC037
:10193000C43C91F4D0917B016D2F70E0D11114C0A3
:1019400060911C0170E082ED99E099DB8D2FDF91B1
:10195000CF911F910F910895C43B49F40E94A804B0
:101960001092FA0161E070E082ED99E0C6CFC53CCB
:1019700009F096CF66E970E0F7CFC73CA1F49091EB
:101980000D01892F82958F708F5F83708295807F84
:101990009F70892B80930D0160E00E94100406D88F
:1019A0000E949A04D3CFC73BB1F4C8018F73992723
:1019B000892B59F420910D01822F8F708F5F207F2A
:1019C0006BE076D7922B90930D01602F80910D01E3
:1019D0000E941004BBCFC73E19F40E94D604B6CFB4
:1019E000D1E0B4CFC13009F497CFC33009F499CF17
:1019F0007DCF86E884B91092C5011092C6010E947D
:101A00006502E1E6F0E0808182608083139A87EED0
:101A100083B908950F931F93CF931092A0018091E3
:101A2000F8019091F9019C012F5F3F4F8827907832
:101A3000822B932B9093F9018093F801C0919E0122
:101A40000E946902C817B9F010929D0180939E010F
:101A50009091FA018823B1F1892F80699F709F309E
:101A600079F58093FA0190E080E00E9443021092A1
:101A7000F9011092F8010091F8011091F90180919B
:101A80009D01882369F1B80183E00E94280202DAEF
:101A90000F731127012B81F410925A01AADFC09114
:101AA0005A01C11105C00E94650281E08093BC010A
:101AB000CF5FCF71C0935A01CF911F910F910895BD
:101AC0008F5FCFCF892F8F7E95FD08C08068809370
:101AD000FA018091F8019091F901C7CF806CF7CF9E
:101AE000C091FA018C2F807F803B49F470E060E068
:101AF00081E00E942802C8010E944302D0CFB801B1
:101B000081E00E942802C4FF0FC0C5FDF4CF083158
:101B1000110528F21092F9011092F801C062C093E9
:101B2000FA0190E080E0E8CFCC2309F4B8CFC5FFFC
:101B300003C00E944702B3CF0231110508F4AFCFB2
:101B4000C064C093FA0190E080E00E944302F1CFAC
:101B50008091C70181110E9466058091A0018111C9
:101B600059CF0895EF92FF920F931F93CF93DF9376
:101B7000EC0108E017E082ECE82EFF24F3942097B4
:101B800039F4DF91CF911F910F91FF90EF9008955D
:101B900080917D018111F5CF80919C01843068F4A2
:101BA00082E00E942202C7010197F1F780E00E94C3
:101BB0002202CEDF6FD92197E2CF80E00E9422027D
:101BC000C801F2CF0F931F93CF93C82F06EA81115C
:101BD00002C008E0C1E010E082E30E94E202C80116
:101BE000C1DF80E00E94E2028AEF90E0BBDFC150DB
:101BF00099F78AE992E0CF911F910F91B3CFCF93DC
:101C0000DF93282F64E654D6382FC92F892F6AE036
:101C10004FD6D92F243650F0832FD4DF8C2F6AE093
:101C200047D6D0DF8D2FDF91CF91CCCFCA30B0F720
:101C3000F9CFCF93DF93D82FC3E080911C010E948E
:101C4000E20288EC90E08EDFDD2319F080E991E07C
:101C500089DF80E00E94E20288EC90E083DFC150DF
:101C600061F7DF91CF910895DF92EF92FF920F938A
:101C70001F93CF93DF93D82F8B01C0910B0181E08D
:101C800080937001C33079F4F09075018D2FB4D832
:101C9000FF20A1F080917501811110C070E060E01B
:101CA00081EC98E0ECD9D83071F0D13C09F002C158
:101CB00070E060E081EC98E0E2D908C0D83041F4EF
:101CC00081E08093030181E08093040180E040C1C2
:101CD000D23C69F4109275018C2F90E0019666E079
:101CE00070E006D680930B010E94D604EFCFD13B63
:101CF000C1F480910201012B41F49FEF893618F461
:101D0000823018F491E09093030190910301890FC0
:101D100021F481E080930201D9CF8A36D8F389E695
:101D2000F9CFD13E59F4809103018195809303014D
:101D300080910401819580930401D6CFD23BE1F4D8
:101D400081E08093030180910201823018F081507C
:101D50008093020181E080930401C23008F0EBC05F
:101D600000FDB4CFEC2FF0E0E75FFE4F80818F3FA6
:101D700009F4ACCF8F5FB5C0D13009F0F1C00932A2
:101D8000110511F4D0930301D09051018D2D880FCE
:101D9000D7FC809590E069E070E079D5292FE0903C
:101DA00050018E2D880FE7FC8095D09101016D2F99
:101DB00070E090E06CD5290FF0904F018F2D880FC7
:101DC000F7FC8095C09100016C2F70E090E05FD52A
:101DD000622F690F80910201680F7727771F80912A
:101DE0007501813091F4809172019091730125E029
:101DF000969587952A95E1F724E730E0A901481BDD
:101E0000590BCA0144D5B9015FD5862F0E94E20261
:101E100000FD06C00E94720281708D0D80935101F9
:101E200080914E018E0D809350010E94720265E2F6
:101E30003FD59F0D90934F010E9472028F7331F432
:101E40000E9472026DE034D590934E01DD2339F08B
:101E50000E9472028F7319F4D150D09301010E9435
:101E60007202811108C00E9472026DE021D5909328
:101E7000010110925001C33038F00E9472028F713C
:101E800019F4C150C09300010E9472028F7731F49F
:101E90000E94720267E00CD590930001093211058F
:101EA00019F481E08093040180919A01080F009356
:101EB0009A010CCFD23C09F40FCFD13B51F5C2307F
:101EC00090F400FD03CFEC2FF0E0E75FFE4F808140
:101ED00090910401891B8F3F08F08EEF883008F441
:101EE00088E08083F3CEC43009F0F0CE8091080101
:101EF00090910401890F823040F482E080930801C0
:101F0000809108010E94E202E1CE8937B8F388E7A8
:101F1000F5CFD13E09F40CCFD23B09F41BCFD23E12
:101F200009F4E2CED53C81F470E060E083EB9FE001
:101F3000A6D880E0E7CFC43009F0C8CE8091080170
:101F40008330F0F28150DACF81E0D13009F4A6CFAE
:101F5000DF91CF911F910F91FF90EF90DF90089547
:101F6000D13CE9F6A5CE0F931F93CF93DF93D82FE3
:101F70008B01883031F480917001813011F488E058
:101F800073DE8D2F8079803999F481E080936F0121
:101F9000C0917001CC2311F0C0E004C080911C01FD
:101FA0000E94E2028C2FDF91CF911F910F91089533
:101FB000803831F410926F0180E00E94E202ECCF91
:101FC000C1E0D13079F7C0916F01CC2351F08091FD
:101FD0007001813009F7B801DF91CF911F910F9106
:101FE00043CE07331140C0F2D0939D0160E080E002
:101FF0000E941004D7CF2F932FB72F933F938F9327
:102000009F93AF93BF93EF93FF938091C601882373
:10201000E9F0E091C50120B131B1F0E0EE0FFF1F12
:10202000DF01AF53BE4F2D933C93E354FE4F8081AD
:1020300091818217930708F401962817390708F44D
:1020400001979183808381E08093C70181E0809331
:10205000C601FF91EF91BF91AF919F918F913F91F9
:102060002F912FBF2F9118958F9381E08093A0011E
:102070008F9118958F9381E080939F018F91189590
:10208000F89485B7877F85BF90E088ED0FB6F89408
:10209000A8958FBD90B7977F90BF0FBE89E08CB990
:1020A0008CE780BB82EA8093720081E180937100AB
:1020B0008FEF90E0909369008093680084E08EB980
:1020C00088BD8CB780618CBFA89580E480BF91DC0F
:1020D000789481E00E94510270E060E08BE998E022
:1020E0000E94E60610927D010E949A040E946902F5
:1020F000811189C082E00E945102F89480E890E04A
:102100000AD4853A09F0AEC00EE711E0C1E8D0E08C
:10211000CE0101D4F80181938F012196CD39D105EB
:10212000B9F7789480917E018093780180917F0146
:10213000809315018091800180931201809181012B
:1021400080930F0180918201809316018091830119
:102150008093130180918401809310018091850107
:1021600080931701809186018093140180918701EB
:10217000809311018091880180931B0180918901D6
:102180008093790180918A018093770180918B01FE
:1021900080931A0180918C0180937B0180918D0145
:1021A00080937A0180918E0180931D0180918F012F
:1021B00080930B018091900180930901809191019E
:1021C00080930A018091920180930801809193018C
:1021D00080930C018091940180931E018091950160
:1021E0008093B8018091960180931F01809197019F
:1021F00080930E018091980180930D018091990147
:102200008093710130C0C0E08C2F0E94E20283E114
:1022100090E0A8DC8C2F86950E94E20283E190E09A
:10222000A1DC0E9469028823D1F0CF5FC03461F73E
:1022300065E181E00E94B8040E94D604C6E98C2FB3
:102240000E94E20284E090E08DDCC150C1F752CFE1
:102250008C2F0E94E2028DE090E084DCC150C1111D
:10226000F7CF48CF789480917B01811180931C0136
:1022700061E070E081EC98E00E94E60643E4242EE1
:1022800052E0352E60E4462E772473947CEF872E3F
:1022900073E0972E512C612CE1ECCE2EE8E0DE2E7F
:1022A0000E944A078091A3019091A401009751F0E8
:1022B0006091A1017091A2010E943F081092A401B7
:1022C0001092A30180919D01882309F180E00E9472
:1022D000E202A89520BE1F980E9469028111FCCFDE
:1022E0000E9447028CB780618CBF1092C701109288
:1022F000A00110929F0180919D0181112BC030920D
:1023000020018CB78F7E8CBF74DBA89540BE20DC8B
:1023100010927D018091B6019091B701F4E0823B6B
:102320009F0709F038C0C0E7D0E0FE0184918053D8
:1023300049DC8CE291E016DC2196F0E0CC37DF0737
:10234000A1F7D092A401C092A3011092A201109211
:10235000A101A6CF86B78F79806486BF86B78061DA
:1023600086BF889586B78F7E86BF80919F01811139
:1023700010929D018091C701882331F07092200155
:102380007092BC010E9466058091A001882309F427
:10239000B2CF40DBB0CF2EE08433920779F0EFE08C
:1023A000833B9E0709F02BC280917001813009F0B8
:1023B00063C280916F01882309F45EC2C0910B0152
:1023C000C43009F400C208F075C0C23008F4DDC1A1
:1023D000C23009F065CF0E9472028F73082F10E09F
:1023E0000E94720267E064D2C1E0D0E07E0102C0C8
:1023F000EE0CFF1C9A95E2F70E94720265E058D23B
:1024000002C0CC0FDD1F9A95E2F7CE0DDF1D0E94B2
:10241000720290E0BE016CD2C80FD91FC739D10536
:1024200024F0F6E9CF2F20E0D22F8C2F0E94E20279
:10243000C80198DB7E0133E0F594E7943A95E1F723
:10244000E11002C0EE24E394F12CC8018BDB5E01A5
:10245000AE18BF08E501B7FE02C0C52DD62D8C2FE2
:102460000E94E2020E947202837039F4C8017ADB92
:10247000CE01959587950E94E202F2E0AF16B10475
:1024800024F70E9472026DE013D201E010E002C056
:10249000000F111F9A95E2F70E947202E80121973E
:1024A00090E0C823D923C00FD11F80E00E94E20230
:1024B000CE017FC1C53009F0F3CE80E20E94E20276
:1024C00080E890E04FDB80E00E94E20280E890E04C
:1024D00049DB80E20E94E20280E891E043DB80E099
:1024E0000E94E20280E890E03DDB80E20E94E2028E
:1024F00080E891E037DB80E00E94E20280E890E033
:1025000031DB80E20E94E20280E891E02BDB80E098
:102510000E94E20280E891E025DB80E20E94E20274
:1025200080E890E01FDB80E00E94E20280E890E01B
:1025300019DB80E20E94E20280E890E013DB80E099
:102540000E94E20280E891E00DDB80E20E94E2025C
:1025500080E891E007DB80E00E94E20280E890E002
:1025600001DB80E20E94E20280E891E0FBDA80E099
:102570000E94E20280E891E0F5DA80E20E94E20245
:1025800080E891E0EFDA80E00E94E20280E890E0EB
:10259000E9DA80E20E94E20280E891E0E3DA80E09A
:1025A0000E94E20280E891E0DDDA80E20E94E2022D
:1025B00080E891E0D7DA80E00E94E20280E890E0D3
:1025C000D1DA80E20E94E20280E890E0CBDA80E09B
:1025D0000E94E20280E890E0C5DA80E20E94E20216
:1025E00080E891E0BFDA80E00E94E20280E890E0BB
:1025F000B9DA80E20E94E20280E891E0B3DA80E09A
:102600000E94E20280E893E0ADDA80E20E94E202FA
:1026100080E890E0A7DA80E00E94E20280E890E0A3
:10262000A1DA80E20E94E20280E890E09BDA80E09A
:102630000E94E20280E890E095DA80E20E94E202E5
:1026400080E890E08FDA80E00E94E20280E891E08A
:1026500089DA80E20E94E20280E890E083DA80E09A
:102660000E94E20280E890E07DDA80E20E94E202CD
:1026700080E890E077DA80E00E94E20280E890E073
:1026800071DA80E20E94E20280E891E06BDA80E099
:102690000E94E20280E891E065DA80E20E94E202B4
:1026A00080E891E05FDA80E00E94E20280E890E05A
:1026B00059DA80E20E94E20280E890E053DA80E09A
:1026C0000E94E20280E890E04DDA80E20E94E2029D
:1026D00080E891E047DA80E00E94E20280E890E042
:1026E00041DA80E20E94E20280E890E03BDA80E09A
:1026F0000E94E20280E891E035DA80E20E94E20284
:1027000080E891E02FDA80E00E94E20280E890E029
:1027100029DA80E20E94E20280E890E023DA80E099
:102720000E94E20280E890E01DDA80E20E94E2026C
:1027300080E891E017DA80E00E94E20280E891E010
:1027400011DA80E20E94E20280E890E00BDA80E099
:102750000E94E20280E890E005DA80E20E94E20254
:1027600080E890E0FFD980E00E94E20280E890E0FB
:10277000F9D980E20E94E20280E890E0F3D980E09B
:102780000E94E20280E098E014C0EC2FF0E0E75FE6
:10279000FE4FD08186E90E94E202C11110C0DA32F8
:1027A00050F4C4010197F1F780E00E94E2028D2FFE
:1027B00090E0D8D975CD81E090E0D4D9F5CF8D2FB8
:1027C000869590E0FACFD0910801DD0FD73908F057
:1027D000D6E98D2F0E94E20285E090E0C3D9809176
:1027E00008010E94E20281E490E0BCD9C15089F75F
:1027F00080ED92E0B7D980E00E94E20251CD28E05E
:102800008F34920751F48091BB01F9D980911B015B
:10281000811197CD88EE93E0CCCFE8E08F369E070C
:1028200021F48091B901EBD9F5CFFCE08C319F0701
:10283000B9F480919E01811133CD80911C010E94D9
:10284000E20284E690E08ED980E00E94E20280916C
:102850000C0190E068EE73E01AD084569109A9CF7C
:102860008958984049F480E0E4D981E0E2D980E0D9
:10287000E0D980ED97E09DCF86B78F7986BF86B788
:10288000806186BF889586B78F7E86BF09CD00247C
:10289000552704C0080E591F880F991F009729F06B
:1028A00076956795B8F37105B9F7802D952F089542
:1028B000991B79E004C0991F961708F0961B881F92
:1028C0007A95C9F780950895AA1BBB1B51E107C0F3
:1028D000AA1FBB1FA617B70710F0A61BB70B881FB0
:1028E000991F5A95A9F780959095BC01CD0108953F
:1028F00097FB072E16F4009406D077FD08D0E4DF8E
:1029000007FC05D03EF4909581959F4F08957095F2
:1029100061957F4F0895E199FECF1FBA8EBBE09A73
:1029200099278DB30895262FE199FECF1FBA8EBB4C
:10293000E09A81500DB2021639F01CBA2DBB0FB6C9
:0E294000F894E29AE19A0FBE0895F894FFCF42
:10294E00070D180101010004822943030237180103
:10295E0007058282820A0A0A820A010146152D079C
:10296E0002150112010F010201000000000000001B
:10297E000100000000000000000100002101230200
:0E298E002503270429052C06FF060504030077
:00000001FF
