:100000008CC00000A7C000000C94100CA3C000001E
:10001000A1C000000C940A0C9DC000009BC0000011
:1000200099C0000097C0000095C0000093C0000078
:1000300091C000008FC000000C94D10B8BC0000059
:1000400089C0000087C0000085C0000083C0000098
:1000500081C000007FC000007DC000007BC00000A8
:1000600079C0000077C0000075C0000073C00000B8
:10007000323032323035313430313135000105041F
:10008000141011150101010202020203030303040B
:1000900004050506060607080809090A0A0B0C0DDF
:1000A0000D0E0F10101112131415161717181A1B16
:1000B0001C1D1E1F20212224252627292A2B2D2EF8
:1000C0002F3132343537383A3B3D3E404243454785
:1000D000484A4C4E5051535557595B5D5F616365BB
:1000E00067696B6D6F717476787A7D7F818486889D
:1000F0008B8D909294979A9C9FA1A4A6A9ACAEB127
:10010000B4B7B9BCBFC2C5C8CBCDD0D3D6D9DCDF5C
:10011000E2E6E9ECEFF2F5F9FCFF11241FBECFEFA8
:10012000D4E0DEBFCDBF11E0A0E0B1E0E4EEF0E24C
:1001300002C005900D92AC34B107D9F721E0ACE4D0
:10014000B1E001C01D92AC3DB207E1F70E94160C70
:100150000C94701055CFF89498ED9FBD83BF7894A0
:100160000895482F362F272FE9EAF1E090E080E04C
:10017000508151110BC063E070E00E941210FC012D
:10018000E755FE4F40833183228305C001963396A5
:100190008031910569F70895BC018091DB01E1CFC1
:1001A0001092DB011092DA011092D90181E0809364
:1001B000650108950F931F93CF93C82F08EA17E0A6
:1001C000C15020F4CF911F910F91089582E0C3DFB9
:1001D000C8010197F1F780E0BEDFF2CF8FB182FB5B
:1001E000882780F991E08927809382010895E09122
:1001F0000601F09107013196FB70F460F09307015E
:10020000E093060180917F018B5A80937F01E491F6
:1002100080917F018E0F0895882321F0813031F085
:10022000819A05C081989198899808958198919AAA
:10023000899A0895CF93DF9300D00F92CDB7DEB7A0
:10024000209148013091490140914A0129833A8324
:100250004B83FE01319650E040E0682F70E0A1E052
:10026000B0E09B01042E02C0359527950A94E2F771
:10027000922F937081919D0101C0220F8A95EAF718
:10028000992329F09130C1F080B3822B19C080B33B
:100290002095822380BB82B3822382BB81B3282333
:1002A00021BB4E5F5F4F46305105D9F60F900F903E
:1002B0000F90DF91CF91089590B3822F809589237D
:1002C00080BB82B3822B82BB81B3282BE9CFCF9333
:1002D000C82F809380018091810181110BC0AADF1A
:1002E00091E0C11101C090E081E0C13508F480E0E7
:1002F000890F92DFC1110BC010926D0010926C003B
:1003000080918001883078F482E0CF9124CFC15071
:10031000EC2FF0E0EC57FF4FE491F0E0F0936D002C
:10032000E0936C00EDCF803110F481E0EECF80E0FF
:10033000ECCFCF93DF9300D000D000D0CDB7DEB7A5
:100340002091610140919A0150919B014451554087
:1003500009F422E0843059F46093620126960FB6C6
:10036000F894DEBF0FBECDBFDF91CF910895662315
:10037000A9F3823019F497E9961B692F96E0EFE113
:10038000F1E0DE01119601900D929A95E1F781500E
:10039000990B880F991FA1E0B0E0AC0FBD1F8A0F29
:1003A0009B1FDC01ED91FC91E20FF11D6083D6CF24
:1003B000CF92DF92EF92FF920F931F93CF93DF9331
:1003C0009C0150916101E0911B0182E0E11101C0AB
:1003D000852F90E0DC01AB5EBE4F4C91409319013C
:1003E0008E5E9E4FDC018C9180931801F0E0E15FFE
:1003F000FE4FC181642F70E0552381F0C13071F44C
:10040000860F972F911D95958795DF91CF911F911D
:100410000F91FF90EF90DF90CF9008952617370748
:100420009CF1821713068CF3511102C0822FEDCF7D
:10043000841B6C2F6150770B8B01E82EF12CC701C8
:100440000E94431060935F016695E62FF0E0842FD1
:10045000D12CC12CD0E0DC17C1F2C601B8010E943A
:100460002F10842F860FA82FB0E0B9016A1B7B0BD9
:1004700077FF03C0BD01621B730BCE0CDF1CE617B8
:10048000F7071CF6DF5FE7CF842FBFCF0F931F93D3
:10049000CF93E82F862F90919C012FEF290F2C31BD
:1004A00038F480E0C7DE80E0CF911F910F91B4CE89
:1004B000CE2FC295CF70EF7020918101211103C022
:1004C000C33008F0C2E0E73010F4F0E016C0E730C7
:1004D00089F50091510110E00F5F1F4F88DE65E044
:1004E0000E9423109801290F311DC90166E070E0B8
:1004F0000E94431080935101FC01E358FF4FE491A7
:10050000C33071F48091500190E0019663E170E096
:100510000E942F10809350018B5D9E4FDC01CC9187
:10052000CC23E1F1C13011F0EE0FC2E08E2F82DE5C
:100530008C2FBACFE830A9F4909181016FE091112E
:1005400001C063E0862351F48091510190E001964F
:1005500066E070E00E94431080935101E0915101E8
:10056000B4CF20918101222381F080E09D3118F4E5
:10057000E0E0C6CF8E5FE82FF0E0E85CFE4F208120
:100580009217C0F73197E081A0CF869563E00E9473
:100590002310E92FF0E0EE0FFF1FAFCFE0E0C6CF52
:1005A000CF93C091800189E18C0F873908F080E0FA
:1005B0008EDE82E0FFDD8C2FCF9189CECF93C0916C
:1005C000800180E084DE83E0F5DD8C2FCF917FCE4B
:1005D00081E00895611160931D01089560935A01AF
:1005E00008950F931F93CF93DF93809161018093C0
:1005F00066018091150180936701809112018093BB
:10060000680180910F0180936901809116018093A8
:100610006A018091130180936B0180911001809396
:100620006C018091170180936D018091140180937A
:100630006E018091110180936F0180911B01809365
:1006400070018091620180937101809160018093BB
:10065000720180911A0180937301809164018093EB
:100660007401809163018093750180910B018093E7
:100670007601809109018093770180910A0180932E
:100680007801809108018093790180910C01809319
:100690007A0180911D0180937B0180910E018093EE
:1006A0007C0180910D0180937D0180915A0180939E
:1006B0007E01F89406E611E0C1E8D0E0F80161910E
:1006C0008F01CE010E945E102196CA39D105B1F783
:1006D00065EA80E890E00E945E107894DF91CF9107
:1006E0001F910F9108951092A80130B181B120910E
:1006F0007F01329536953695337090E0880F991FBB
:10070000880F991F830F911D820F80937F01809125
:100710009D018823F1F110929D0180918101882330
:1007200019F01F981092A60180911E0160919E0100
:1007300070919F01882341F06091A2017091A30103
:1007400070939F0160939E01605F7F4F86E0769576
:1007500067958A95E1F780E098E50E942F108091D7
:100760001D018350990B680F791F769567956093EB
:100770009C0180915601882369F081508093560135
:1007800080911E01882329F080911E018150809361
:100790001E0108956D31A0F770E060E084E0E1DCB7
:1007A0008AE0ECCF813019F4109264010895823010
:1007B00019F4609363010895833019F46093600124
:1007C0000895843011F460931A010895FF920F93F5
:1007D0001F93CF93DF938C01D62FC72FF42E8091D8
:1007E0009A0190919B01892B31F0E0919A01F0914F
:1007F0009B0189E0099510939B0100939A01012BBD
:1008000041F0E0919A01F0919B016D2F7C2F8F2D8B
:10081000099581E080936501DF91CF911F910F9140
:10082000FF90089520918901283080F4E22FF0E0B4
:10083000EE0FFF1FE657FE4F808391832F5F2093BB
:10084000890148E0C3DF8091890108958FEF089501
:10085000282FCB0130911B01311147C0283039F4CA
:1008600010925E0110925C0110925B010895213B91
:1008700059F480915E0181508330B8F583E0809314
:100880005E0180935D010895253BA1F46EE370E065
:100890000E942F10892B49F580915E018A3F28F52F
:1008A0008B5F80935E0180935D0110925C011092DA
:1008B0005B0176CE2130C9F480915B0190915C019F
:1008C000019688382EE0920728F490935C0180937B
:1008D0005B01089510925C0110925B0180915E01B2
:1008E000882319F0815080935E010895EF92FF9262
:1008F0001F93CF93DF931091A901111106C0DF91CF
:10090000CF911F91FF90EF900895E090AA01F09091
:10091000AB01C0918901C1500C2E000CDD0BC7FD4D
:100920000EC0FE01EE0FFF1FE657FE4F0190F08153
:10093000E02DB701812F099521978111F0CFE9EAC8
:10094000F1E08381808384819581928381833396D2
:1009500081E0E63DF807A9F71092D6011092D80180
:100960001092D701C8CF80918901882319F0815056
:1009700080938901E091890190E080E0EE2341F0CD
:10098000E150FF0BEE0FFF1FE657FE4F8081918174
:100990004AE070E060E01ACF582FCB01F9015830DF
:1009A00089F41092530180E092DC809182018111E0
:1009B0001DC081E08093530170E060E084E295E027
:1009C00031DF14C0252F207F203BB9F42091530143
:1009D000421788F06DE570E00E942F10029741F4F5
:1009E0002F5F2093530188E3421718F480E00895A5
:1009F00082E16DDCFBCF80E0FCCF203E41F48091B2
:100A00005301882311F04817B8F6ADDFEFCF5A3005
:100A100069F760915701809153010995E2DDF5CFA7
:100A200029E931E043E0B8CF29E931E044E0B4CF2F
:100A300022ED33E044E0B0CF2AEE32E041E0ACCF2B
:100A40002EEE32E041E0A8CF883039F41092570101
:100A50001092520180E03BDC0CC08130F9F490919F
:100A60005201911108C06032710518F08093520153
:100A700097DB80E00895913079F46B3B710520F0AD
:100A800082E080935201E6CF6115710591F3862FC4
:100A9000880F84708E5EDFCF66DFEBCF813811F078
:100AA000813E39F791E090935201813E41F480916B
:100AB0005701865F8093570173DB8BE4CCCF809125
:100AC00057018F5FF7CF0F931F93CF93DF93D82FEB
:100AD000C92F8B0148DFB8018D2F9C2FDF91CF915B
:100AE0001F910F919FCECF93C0911B01C11119C0CF
:100AF000813C41F470E060E08BEC95E0E4DF8C2F0A
:100B0000CF910895823C29F470E060E08CE198E098
:100B1000F5CF873B31F470E060E08CE195E082DE58
:100B2000EECFC1E0ECCF813C39F470E060E08BECBB
:100B300095E0C9DF80E00895823C29F470E060E030
:100B400083E795E0F6CF81E00895843011F5809138
:100B50009A0190919B012AE08B30920731F469E170
:100B600070E089EC96E0AFDF0DC0895C964061F4DF
:100B700090918001923040F0892F869596959695B8
:100B8000890FA5DB80E0089570E060E08BEC95E0D4
:100B9000EACF81E008950F931F93CF938B018830A4
:100BA000A1F480E094DB60E080910E016FDC109294
:100BB0005E01012B31F0C0E08C2FCF911F910F917E
:100BC000089581E080938101F6CF813049F4693145
:100BD000710588F38093810180910E0157DCEBCF82
:100BE000833029F520916401222361F08091630113
:100BF00090E062EC71E00E9412100817190710F0E3
:100C000020931C01602F80910E0140DC80915A01DD
:100C1000882389F290E062EC71E00E941210801744
:100C2000910748F670E060E083E498E016C0813BED
:100C3000B1F481E090E0BCDB4ADB8091600181117E
:100C4000BACF80916101811104C00831110508F407
:100C5000B2CF61E070E089EC96E035DFACCF813E49
:100C6000C1F3813831F480911C0190E0A1DB2FDBCE
:100C7000A2CF6091800170E0813C69F3823B71F406
:100C800080911A0190911B01911180916201811153
:100C900003C086E990E0EACF86E9E9CF823E11F40D
:100CA00080E0E5CF66E970E0823CA9F28339C1F3C8
:100CB000833C29F470E060E083E795E0CECF843C8C
:100CC00011F46EDCAFCF8F3C29F470E060E088EE69
:100CD00092E0C3CFC0911B018A3B81F4012B09F044
:100CE00056C0CC2329F05CDC10921B017ADC63CF68
:100CF00070E060E084E195E095DD5ECFC11147C012
:100D00008A3C31F44DDC81E080931B016ADC54CFD6
:100D1000833B31F470E060E08BE09AE0D4DE4CCFAE
:100D2000853C31F43DDC70E060E089E89BE0F6CF83
:100D3000873C91F490910E01892F82958F708F5F7F
:100D400083708295807F9F70892B80930E0160E075
:100D50009DDB47DC25DC30CF873BB1F4C8018F73C6
:100D60009927892B61F420910E01822F8F708F5F5C
:100D7000207F6BE00E942310922B90930E01602F36
:100D800080910E0183DB18CF873E09F4BFCFC1E00D
:100D900013CF9F92AF92BF92CF92DF92EF92FF92CA
:100DA0000F931F93CF93DF93C82F8B01A09019014E
:100DB000E0901801B0906101D0905F01B11002C0C5
:100DC000DD24D394C0901A01D0911B01D111C090A1
:100DD0006201CC2009F441C081E0C81621F0809165
:100DE0001C018E15D0F196E9F92E90905E01B801A4
:100DF0008C2F2EDD60915E01662309F414C19110E1
:100E000004C080918001809354018C2F8D7F8830A5
:100E100031F510925901CA3019F400911C0110E00B
:100E2000A016110630F4E016110619F010F0009328
:100E30001C01C801BDDA4BDA81E080930501D0E0E6
:100E40008D2FDF91CF911F910F91FF90EF90DF9049
:100E5000CF90BF90AF909F900895FE2CC6CFC13C1D
:100E600009F4E4C0C23C71F4809180018F1538F41C
:100E70008F2D2DDA8091800180935401E0CF8091F5
:100E80001C01F7CFC43C39F480E021DA70E060E067
:100E900083E498E0CFC08FE48C0F823008F054C018
:100EA00060910F0170E0C801BB2011F068E170E0B3
:100EB0000E942F10892B19F6209180010115110530
:100EC00029F5C23BE9F48FEF80930501D0918001B1
:100ED000809105016D2D70E0082E000C990B0E9489
:100EE00012108D0F911D64DAC82F80931C01D81742
:100EF00029F0863911F08E1101C060DB8C2FB9CF3B
:100F00002E1508F7A21610F381E0DECFE0910F0155
:100F1000F0E0CF0166E371E00E94121080179107A4
:100F200010F42E1580F6CF016CE672E00E941210CC
:100F30008017910758F6A21648F232DB70E060E0A5
:100F400083E498E0C0DDC2CF8FE18C0F823020F4C3
:100F500080910501819571CFC130D1F4093211051D
:100F600011F4C0930501662309F469CF80915401FF
:100F70006150770B90E00E94121060915D0170E06B
:100F80000E944310862F611101C081E0A0D957CF84
:100F9000D11147C0C33C99F481E0B11080E0809347
:100FA00061011FDB0BDB8091800190E001DA80930F
:100FB0001C018DD9809180018093540141CFC33BA6
:100FC00051F4012B09F03BCFCC2011F086E9F82E2B
:100FD0008F2D7DD935CFC33E19F480911C01F9CFF7
:100FE000C53C41F480E073D970E060E089E89BE0A3
:100FF0006ADD26CF70E060E080E195E0C73B79F0E4
:10100000CA3C39F48091800180936401EADAC8DA3D
:1010100017CFCA3B31F470E060E088E195E002DC74
:101020000FCFD1E00DCF992009F4EFCE70E060E052
:101030008BEC95E048DD03CF282FCB01213C39F420
:1010400070E060E08BEC95E03EDD80E00895223CAE
:1010500029F470E060E083E995E0F6CF213B39F4B4
:101060006EE370E0FCD7892B81F79ADAEECF213E50
:1010700041F46EE370E0F3D76F5F60930C01B1DA77
:10108000E4CF81E008950F931F93CF93DF93C82F90
:101090008B01873B79F480E01AD9D0911B01D111E3
:1010A00094C0CA3B09F062C070E060E080E295E065
:1010B000B9DB46C080798039F1F490911501209117
:1010C00016018C2F8F70823049F480916401811158
:1010D00008C0822F291728F4892F03C0822F921766
:1010E000D8F3F5D8C33CF1F45BDA70E060E08BEC48
:1010F00095E0E9DC15C0803811F480E0F2CFC8300B
:1011000009F065C060E080910D01C0D9C6CF0931FA
:10111000110530F0C0938101602F80910D01B6D987
:10112000D0E00EC0C43C91F4D09164016D2F70E00A
:10113000D11113C060911C0170E089EC96E0C3DC12
:101140008D2FDF91CF911F910F910895C43B41F4F2
:1011500035DA1092DB0161E070E089EC96E0C9CFEE
:10116000C53C09F09ACF66E970E0F7CFC73C91F42F
:1011700090910D01892F82958F708F5F837082957A
:10118000807F9F70892B80930D0160E07FD929DAE1
:1011900007DAD6CFC73BA9F4C8018F739927892BEB
:1011A00059F420910D01822F8F708F5F207F6BE0AB
:1011B0004AD7922B90930D01602F80910D0166D933
:1011C000BFCFC73E11F40DDABBCFD1E0B9CFC130EC
:1011D00009F49DCFC33009F49FCF84CF8DE084B94B
:1011E0001092A6011092A70183B1886483B9139A63
:1011F00087EE83B908950F931F93CF9310928401C4
:101200008091D9019091DA019C012F5F3F4F88278F
:101210009078822B932B9093DA018093D901C0911F
:1012200082010E94EE00C817B9F0109281018093EC
:1012300082019091DB01882361F1892F80699F7081
:101240009F3029F58093DB0190E080E00E94CC0084
:101250001092DA011092D9010091D9011091DA01AE
:1012600080918101882319F1B80183E00E94B100C7
:101270003DDB0F731127012B91F510925501AEDF65
:1012800083B1886483B981E080939D0122C08F5F20
:10129000D9CF892F8F7E95FD08C080688093DB01B0
:1012A0008091D9019091DA01D1CF806CF7CFC091B4
:1012B000DB018C2F807F803BB1F470E060E081E047
:1012C0000E94B100C8010E94CC0080915501882382
:1012D000B9F2809155018F5F8F7180935501CF9145
:1012E0001F910F910895B80181E00E94B100C4FFE1
:1012F0000FC0C5FDE7CF0831110538F31092DA01B0
:101300001092D901C062C093DB0190E080E0DBCF96
:10131000CC23D9F2C5FF03C00E94D000D6CF023142
:10132000110598F2C064C093DB0190E080E00E9458
:10133000CC00F2CF8091A8018111D5D98091840190
:10134000811159CF0895EF92FF920F931F93CF937E
:10135000DF93EC0108E017E082ECE82EFF24F39421
:10136000209739F4DF91CF911F910F91FF90EF906B
:101370000895809165018111F5CF809180018830B9
:1013800068F482E00E94AB00C7010197F1F780E0AA
:101390000E94AB00CFDFAADA2197E2CF80E00E9463
:1013A000AB00C801F2CF0F931F93CF93C82F06EA6B
:1013B000811102C008E0C1E010E089E10E946701EC
:1013C000C801C1DF80E00E9467018AEF90E0BBDFC7
:1013D000C15099F78AE992E0CF911F910F91B3CF55
:1013E000CF93DF93D82FC3E080911C010E94670147
:1013F00088EC90E0A8DFDD2319F080E991E0A3DF1D
:1014000080E00E94670188EC90E09DDFC15061F7A9
:10141000DF91CF910895DF92EF92FF920F931F9388
:10142000CF93DF93D82F8B01C0910B0181E0809384
:101430005901C33079F4F0905E018D2F09DAFF2055
:10144000A1F080915E01811110C070E060E08BEC32
:1014500095E039DBD83071F0D13C09F001C170E082
:1014600060E08BEC95E02FDB08C0D83041F481E0E0
:101470008093030181E08093040180E03FC1D23C6E
:1014800061F410925E018C2F90E0019666E070E0AE
:10149000FAD580930B01A5D8F0CFD13BC1F4809150
:1014A0000201012B41F49FEF8B3418F4823018F4C1
:1014B00091E09093030190910301890F21F481E061
:1014C00080930201DACF8C34D8F38BE4F9CFD13E8C
:1014D00059F4809103018195809303018091040167
:1014E000819580930401D7CFD23BE1F481E08093D2
:1014F000030180910201823018F081508093020133
:1015000081E080930401C23008F0EBC000FDB5CF4C
:10151000EC2FF0E0E75FFE4F80818F3F09F4ADCF05
:101520008F5FB5C0D13009F0F1C00932110511F457
:10153000D0930301D0904F018D2D880FD7FC80955B
:1015400090E062E170E06ED5292FE0904E018E2D83
:10155000880FE7FC8095D09101016D2F70E090E03D
:1015600061D5290FF0904D018F2D880FF7FC8095E4
:10157000C09100016C2F70E090E054D5622F690F8C
:1015800080910201680F7727771F80915E0181307B
:1015900091F480915B0190915C0125E0969587958F
:1015A0002A95E1F724E730E0A901481B590BCA014D
:1015B00039D5B90154D5862F0E94670100FD06C0B8
:1015C0000E94F70081708D0D80934F0180914C0136
:1015D0008E0D80934E010E94F70065E234D59F0D79
:1015E00090934D010E94F7008F7331F40E94F70031
:1015F0006DE029D590934C01DD2339F00E94F7006E
:101600008F7319F4D150D09301010E94F70081111A
:1016100008C00E94F7006BE116D59093010110926B
:101620004E01C33038F00E94F7008F7119F4C15099
:10163000C09300010E94F7008F7731F40E94F700F9
:101640006FE001D5909300010932110519F481E092
:101650008093040180917F01080F00937F010DCFDB
:10166000D23C09F410CFD13B51F5C23090F400FDCB
:1016700004CFEC2FF0E0E75FFE4F808190910401F2
:10168000891B8F3F08F08EEF883008F488E0808354
:10169000F4CEC43009F0F1CE80910801909104019C
:1016A000890F823040F482E0809308018091080124
:1016B0000E946701E2CE8937B8F388E7F5CFD13EC3
:1016C00009F40CCFD23B09F41BCFD23E09F4E3CE90
:1016D000D53C81F470E060E089E89BE0F4D980E0DB
:1016E000E7CFC43009F0C9CE809108018330F0F211
:1016F0008150DACF81E0D13009F4A6CFDF91CF91CC
:101700001F910F91FF90EF90DF900895D13CE9F683
:10171000A6CE0F931F93CF93DF93D82F8B018830E2
:1017200031F480915901813011F488E074DE8D2FFD
:101730008079803999F481E080935801C0915901F2
:10174000CC2311F0C0E004C080911C010E9467010D
:101750008C2FDF91CF911F910F910895803831F434
:101760001092580180E00E946701ECCFC1E0D130B7
:1017700079F7C0915801CC2351F080915901813003
:1017800009F7B801DF91CF911F910F9144CE073334
:101790001140C0F2D093810160E080E00E944602D7
:1017A000D7CF2F932FB72F933F938F939F93AF93C1
:1017B000BF93EF93FF938091A7018823E9F0E09115
:1017C000A60120B131B1F0E0EE0FFF1FDF01AE55F1
:1017D000BE4F2D933C93E256FE4F8081918182173C
:1017E000930708F401962817390708F401979183A5
:1017F000808381E08093A80181E08093A701FF911D
:10180000EF91BF91AF919F918F913F912F912FBFFA
:101810002F9118958F9381E0809384018F91189573
:101820008F9381E0809383018F911895F89485B709
:10183000877F85BF90E088ED0FB6F894A8958FBD9F
:1018400090B7977F90BF0FBE88E08CB98AE780BBC6
:1018500081EA8093720081E08093710084E082BB12
:1018600087BD8CB788608CBFA89580E480BFB6DC4C
:10187000789481E00E94DA0070E060E085EA95E00B
:101880000E941204109265010E94D0020E94EE0094
:1018900081117AC0F89480E890E008D4853A09F084
:1018A0009EC006E611E0C1E8D0E0CE01FFD3F8010A
:1018B00081938F012196CA39D105B9F77894809127
:1018C0006601809361018091670180931501809189
:1018D0006801809312018091690180930F018091CA
:1018E0006A018093160180916B01809313018091AE
:1018F0006C018093100180916D018093170180919C
:101900006E018093140180916F0180931101809189
:10191000700180931B01809171018093620180911D
:101920007201809360018091730180931A0180910C
:1019300074018093640180917501809363018091AB
:10194000760180930B01809177018093090180914A
:10195000780180930A018091790180930801809138
:101960007A0180930C0180917B0180931D0180910D
:101970007C0180930E0180917D0180930D01809107
:101980007E0180935A012CC0C0E08C2F0E94670119
:1019900083E190E0D8DC8C2F86950E94670183E17B
:1019A00090E0D1DC0E94EE008823B1F0CF5FC0341C
:1019B00061F70E94F102C6E98C2F0E94670184E062
:1019C00090E0C1DCC150C1F765CF8C2F0E94670148
:1019D0008DE090E0B8DCC150C111F7CF5BCF7894B7
:1019E00080916401811180931C0161E070E08BECB7
:1019F00095E00E94120443E4242E52E0352E60E468
:101A0000462E772473947CEF872E73E0972E512C0B
:101A1000612CEBECCE2EE5E0DE2E0E947604809168
:101A2000870190918801009749F06091850170913C
:101A3000860149D810928801109287018091810116
:101A4000882309F180E00E946701A89520BE1F98B5
:101A50000E94EE008111FCCF0E94D0008CB78860FC
:101A60008CBF1092A8011092840110928301809182
:101A7000810181112BC030921E018CB7877F8CBFF2
:101A8000ADDBA89540BE56DC1092650180919A01AD
:101A900090919B01F2E0883E9F0709F038C0C0E7B3
:101AA000D0E0FE01849180537EDC8CE291E04BDC3F
:101AB0002196F0E0CC37DF07A1F7D0928801C092E1
:101AC00087011092860110928501A7CF86B78F7982
:101AD000806486BF86B7806186BF889586B78F7E13
:101AE00086BF809183018111109281018091A801AC
:101AF000882331F070921E0170929D010E94730341
:101B000080918401882309F4B2CF75DBB0CF2AE03D
:101B10008B30920779F0EBE089389E0709F02BC2F1
:101B200080915901813009F06EC28091580188235B
:101B300009F469C2C0910B01C43009F400C208F075
:101B400075C0C23008F4DDC1C23009F066CF0E9412
:101B5000F7008F73082F10E00E94F70067E073D240
:101B6000C1E0D0E07E0102C0EE0CFF1C9A95E2F7C6
:101B70000E94F70065E067D202C0CC0FDD1F9A9586
:101B8000E2F7CE0DDF1D0E94F70090E0BE017BD290
:101B9000C80FD91FC739D10524F0F6E9CF2F20E0AF
:101BA000D22F8C2F0E946701C801CDDB7E0133E06C
:101BB000F594E7943A95E1F7E11002C0EE24E3943E
:101BC000F12CC801C0DB5E01AE18BF08E501B7FE0D
:101BD00002C0C52DD62D8C2F0E9467010E94F700F0
:101BE000837039F4C801AFDBCE01959587950E94CB
:101BF0006701F2E0AF16B10424F70E94F7006DE030
:101C000022D201E010E002C0000F111F9A95E2F706
:101C10000E94F700E801219790E0C823D923C00F64
:101C2000D11F80E00E946701CE017FC1C53009F05D
:101C3000F4CE80E20E94670180E890E084DB80E0DF
:101C40000E94670180E890E07EDB80E20E946701ED
:101C500080E891E078DB80E00E94670180E890E016
:101C600072DB80E20E94670180E891E06CDB80E03B
:101C70000E94670180E890E066DB80E20E946701D5
:101C800080E891E060DB80E00E94670180E891E0FD
:101C90005ADB80E20E94670180E890E054DB80E03C
:101CA0000E94670180E890E04EDB80E20E946701BD
:101CB00080E890E048DB80E00E94670180E891E0E6
:101CC00042DB80E20E94670180E891E03CDB80E03B
:101CD0000E94670180E890E036DB80E20E946701A5
:101CE00080E891E030DB80E00E94670180E891E0CD
:101CF0002ADB80E20E94670180E891E024DB80E03B
:101D00000E94670180E890E01EDB80E20E9467018C
:101D100080E891E018DB80E00E94670180E891E0B4
:101D200012DB80E20E94670180E891E00CDB80E03A
:101D30000E94670180E890E006DB80E20E94670174
:101D400080E890E000DB80E00E94670180E890E09E
:101D5000FADA80E20E94670180E891E0F4DA80E03C
:101D60000E94670180E890E0EEDA80E20E9467015D
:101D700080E891E0E8DA80E00E94670180E893E083
:101D8000E2DA80E20E94670180E890E0DCDA80E03D
:101D90000E94670180E890E0D6DA80E20E94670145
:101DA00080E890E0D0DA80E00E94670180E890E06F
:101DB000CADA80E20E94670180E890E0C4DA80E03D
:101DC0000E94670180E891E0BEDA80E20E9467012C
:101DD00080E890E0B8DA80E00E94670180E890E057
:101DE000B2DA80E20E94670180E890E0ACDA80E03D
:101DF0000E94670180E890E0A6DA80E20E94670115
:101E000080E891E0A0DA80E00E94670180E891E03C
:101E10009ADA80E20E94670180E891E094DA80E03B
:101E20000E94670180E890E08EDA80E20E946701FC
:101E300080E890E088DA80E00E94670180E890E026
:101E400082DA80E20E94670180E891E07CDA80E03B
:101E50000E94670180E890E076DA80E20E946701E4
:101E600080E890E070DA80E00E94670180E891E00D
:101E70006ADA80E20E94670180E891E064DA80E03B
:101E80000E94670180E890E05EDA80E20E946701CC
:101E900080E890E058DA80E00E94670180E890E0F6
:101EA00052DA80E20E94670180E891E04CDA80E03B
:101EB0000E94670180E891E046DA80E20E946701B3
:101EC00080E890E040DA80E00E94670180E890E0DE
:101ED0003ADA80E20E94670180E890E034DA80E03C
:101EE0000E94670180E890E02EDA80E20E9467019C
:101EF00080E890E028DA80E00E94670180E098E0C6
:101F000014C0EC2FF0E0E75FFE4FD08186E90E941D
:101F10006701C11110C0DA3250F4C4010197F1F722
:101F200080E00E9467018D2F90E00DDA76CD81E090
:101F300090E009DAF5CF8D2F869590E0FACFD09119
:101F40000801DD0FD73908F0D6E98D2F0E9467010F
:101F500085E090E0F8D9809108010E94670181E452
:101F600090E0F1D9C15089F780ED92E0ECD980E0A2
:101F70000E94670152CD25E083379207E9F4209152
:101F80009C01822F64E65FD0382FC92F892F6AE029
:101F90005AD0D92F243608F441C0832F04DA8C2F6D
:101FA0006AE051D000DA8D2FFED980911B0181119A
:101FB00084CD88EE93E0B9CFE8E08C319E07B9F488
:101FC00080918201811129CD80911C010E946701BD
:101FD00084E690E0B8D980E00E94670180910C010E
:101FE00090E068EE73E01ED0845691099ECF83592D
:101FF000954049F480E0F4D981E0F2D980E0F0D94D
:1020000080ED97E092CF86B78F7986BF86B78061E3
:1020100086BF889586B78F7E86BFFFCCCA3008F012
:10202000BECFC1CF0024552704C0080E591F880F0A
:10203000991F009729F076956795B8F37105B9F760
:10204000802D952F0895991B79E004C0991F96174C
:1020500008F0961B881F7A95C9F780950895AA1BEA
:10206000BB1B51E107C0AA1FBB1FA617B70710F083
:10207000A61BB70B881F991F5A95A9F780959095B5
:10208000BC01CD01089597FB072E16F4009406D0ED
:1020900077FD08D0E4DF07FC05D03EF490958195EC
:1020A0009F4F0895709561957F4F0895E199FECFF8
:1020B0001FBA8EBBE09A99278DB30895262FE19918
:1020C000FECF1FBA8EBBE09A81500DB2021639F0D6
:1020D0001CBA2DBB0FB6F894E29AE19A0FBE089590
:0420E000F894FFCFA2
:1020E4000F1B18010101000496294303023718014C
:1020F4000505969696010A0A9601010150070215F4
:102104000112010F010201000000000000000100A3
:10211400000000000000000100002101230225034B
:0C212400270429052C06FF060504030013
:00000001FF
