:10000000F6C010C1F7CC0EC10DC10CC10BC10AC1A5
:10001000B2CC08C107C106C1E7CC04C103C132306C
:1000200032323035313430333131000000000000DD
:1000300000000000000000000000000000000000C0
:1000400000000000000000000000000000000000B0
:1000500000000000000000000000000000000000A0
:100060000000000000000000000000000000000090
:100070000000000000000000000000000000000080
:100080000000000000000000000000000000000070
:100090000000000000000000000000000000000060
:1000A0000000000000000000000000000008131F16
:1000B0002B37434F5B6875828F9DAAB8C6D4E2F098
:1000C000FF00000000000000000000000000000031
:1000D0000000000000000000000000000000000020
:1000E0000000000000000000000000000000000010
:1000F0000000000000000000000000000000000000
:100100000000020406080A0D0F111316181A1D1F0D
:100110002225272A2D303336393C4043464A4D515B
:1001200055585C6064686C7074797D82868B8F949E
:10013000999EA3A8ADB3B8BDC3C9CED4DAE0E6ECAE
:10014000F3F9FFFFFFFFFFFFFFFFFFFFFFFFFFFFD1
:10015000FFFFFFFFFFFF000101020203030404058C
:10016000060708090A0C0D0E0F11131416181A1D94
:100170001F2224272A2D3033373B3E42464B4F5413
:10018000595D63686E73797F868C939AA1A8B0B825
:10019000C0C8D1D9E2ECF5FFFFFFFFFFFFFFFFFF73
:1001A000FFFFFFFFFFFFFFFFFFFFFFFFFFFFFFFF5F
:1001B000FFFFFFFFFFFFFFFFFFFFFFFFFFFFFFFF4F
:1001C000FFFFFFFFFFFFFFFFFFFFFFFFFFFFFFFF3F
:1001D000FFFFFFFFFFFFFFFFFFFFFFFFFFFFFFFF2F
:1001E000FFFFFFFFFFFFFFFFFFFFFFFF00001124E6
:1001F0001FBECFE5D2E0DEBFCDBF10E0A0E6B0E08D
:10020000E2EDFFE102C005900D92A438B107D9F7E5
:1002100021E0A4E8B0E001C01D92AB32B207E1F7E3
:10022000EFDBD5CEEDCE482F362F272FE8EFF0E0CD
:1002300090E080E0508151110AC063E070E069DE17
:10024000FC01E850FF4F40833183228305C00196B3
:1002500033968031910571F70895BC0180912A0190
:10026000E2CF10922A01109229011092280181E018
:100270008093B000089590E822E048EA57E030E02B
:10028000815008F408950FB6F89496BD26BD0FBEB0
:10029000FA013197F1F70FB6F89496BD36BD0FBE4F
:1002A000EFCF86B1886486B9089586B383FB88272B
:1002B00080F991E089278093CE000895E09166004F
:1002C000F09167003196FB70F460F0936700E09363
:1002D00066008091CA008B5A8093CA00E491809195
:1002E000CA008E0F08958093CC008093CB008111BB
:1002F0000FC019BC18BC1BBC8091CC008530D0F459
:1003000080E892E00FB6F89486BD96BD0FBE0895C2
:10031000815090E0FC01E95AFE4FE491E9BDFC01F7
:10032000EF53FF4FE491E8BD855D9F4FFC01849141
:100330008BBDE2CF8E3018F480E891E0E3CF80E807
:1003400090E0E0CFCF93DF9300D000D000D0CDB7C6
:10035000DEB72091AB004091E6005091E7004B588A
:10036000554009F422E0843059F46093AC0026969D
:100370000FB6F894DEBF0FBECDBFDF91CF910895C9
:100380006623A9F3823019F497E9961B692F96E04A
:10039000EEE7F0E0DE01119601900D929A95E1F7FB
:1003A0008150990B880F991FA1E0B0E0AC0FBD1FE1
:1003B0008A0F9B1FDC01ED91FC91E20FF11D608320
:1003C000D6CFCF92DF92EF92FF920F931F93CF93EE
:1003D000DF939C015091AB00E091790082E0E11144
:1003E00001C0852F90E0DC01AD58BF4F4C91409388
:1003F000770080599F4FDC018C9180937600F0E06C
:10040000E359FF4FC181642F70E0552381F0C13063
:1004100071F4860F972F911D95958795DF91CF9158
:100420001F910F91FF90EF90DF90CF9008952617C6
:1004300037078CF1821713068CF3511102C0822FFB
:10044000EDCF841B6C2F6150770B8B01E82EF12CC4
:10045000C70190DD6093A9006695E62FF0E0842F38
:10046000D12CC12CD0E0DC17C9F2C601B8016EDD79
:10047000842F860FA82FB0E0B9016A1B7B0B77FF92
:1004800003C0BD01621B730BCE0CDF1CE617F70720
:100490002CF6DF5FE8CF842FC1CF8093AF0023CF4E
:1004A000CF93C091CC0089E18C0F873908F080E0B0
:1004B0001ADF82E0E0DE8C2FCF9115CFCF93C09171
:1004C000CC0080E010DF83E0D6DE8C2FCF910BCF05
:1004D00081E00895611160937C000895662369F0BE
:1004E000813099F48091E8009091E900891B680FB0
:1004F0006093E80082E080937D0080917B008734E8
:1005000018F086E480937B000895635E60937B001F
:10051000F4CF6093A40008950F931F93CF93DF93BC
:100520008091AB008093B100809173008093B20002
:10053000809170008093B30080916D008093B4002F
:10054000809174008093B500809171008093B60013
:1005500080916E008093B700809175008093B80001
:10056000809172008093B90080916F008093BA00EF
:10057000809179008093BB008091AC008093BC0097
:100580008091AA008093BD00809178008093BE0086
:100590008091AE008093BF008091AD008093C00039
:1005A00080916B008093C100809169008093C200AC
:1005B00080916A008093C300809168008093C4009A
:1005C00080916C008093C50080917B008093C60071
:1005D0008091E8008093C70080917C008093C800E0
:1005E0008091A4008093C900F89401EB10E0C1E071
:1005F000D1E0F80161918F01CE01D7DC2196CA319B
:10060000F1E0DF07B1F765EA80E091E0CEDC7894B5
:10061000DF91CF911F910F9108951092F70034B19F
:1006200085B12091CA00329536953695337090E0A9
:10063000880F991F880F991F830F911D820F809338
:10064000CA008091EC00882309F446C01092EC00A7
:100650008091F500811149C080917D006091ED008D
:100660007091EE00882341F06091F1007091F200EA
:100670007093EE006093ED00605F7F4F86E07695AB
:1006800067958A95E1F780E098E560DC80917C00D1
:100690008250990B680F791F769567956093EB00F0
:1006A0008091A0008823C9F081508093A0008091A0
:1006B000CD00811108C08FEA87B981E08093F500F1
:1006C0001092F600EEDD80917D00882329F0809164
:1006D0007D00815080937D0008956D3140F770E07A
:1006E00060E084E0A0DD85E0E0CF813061F78091BB
:1006F0007D0081115FC08091EF009091F0004096E5
:100700009C0145E0369527954A95E1F7E091E80090
:1007100056E0969587955A95E1F70E2E000CFF0B43
:10072000AF0143515140840F951F9093EA0080938D
:10073000E90080918F00A82FB0E0AA0FBB1FA0573F
:10074000BF4F4D915C911197B901641B750BAB01C3
:100750002D933C938F5F877080938F00660F771F78
:10076000660F771F80917B0090E08D5E9E4F8E1B01
:100770009F0B880F991F681B790B620F731F83E013
:10078000161617060CF045C0615071098150C1F76B
:10079000161617060CF057C057FD74C080918E00D6
:1007A0001816F4F5861B80938E008CE287B91092A0
:1007B000F50086CF8091F3009091F4009093F000C3
:1007C0008093EF00409635E0969587953A95E1F74E
:1007D0009093910080939000909393008093920067
:1007E0009093950080939400909397008093960047
:1007F000909399008093980090939B0080939A0027
:1008000090939D0080939C0090939F0080939E0006
:1008100072CF6115710509F4B9CF6F5F7F4FB6CF05
:10082000660F771F653071055CF06350710975952F
:10083000679588E1861B80938E0085E0F4DCB5CF58
:1008400061E070E0F6CF6C3F8FEF7807DCF457FF84
:1008500019C080918E0087FF02C08450A3CF84EE20
:10086000861B80938E008091EB008F3108F49DCF22
:100870008CEF9FEF9C01261B370BB901759567958F
:1008800086E0DCCF8091EB008E3108F48ECF70E0F3
:1008900060E087E0D3CF813019F41092AE00089564
:1008A000823019F46093AD000895833019F4609399
:1008B000AA000895843011F4609378000895FF929F
:1008C0000F931F93CF93DF938C01D62FC72FF42E56
:1008D0008091E6009091E700892B31F0E091E600ED
:1008E000F091E70089E009951093E7000093E60096
:1008F000012B41F0E091E600F091E7006D2F7C2F95
:100900008F2D099581E08093B000DF91CF911F91E9
:100910000F91FF9008952091D500283080F4E22FA8
:10092000F0E0EE0FFF1FEA52FF4F808391832F5FAD
:100930002093D50048E0C3DF8091D50008958FEF64
:100940000895282FCB0130917900311146C028300D
:1009500039F41092A8001092A6001092A5000895F4
:10096000213B59F48091A80081508330B0F583E099
:100970008093A8008093A7000895253B99F46EE327
:1009800070E0E4DA892B49F58091A8008A3F28F5C8
:100990008B5F8093A8008093A7001092A60010920E
:1009A000A5007ECD2130C9F48091A5009091A600CC
:1009B000019688382EE0920728F49093A600809341
:1009C000A50008951092A6001092A5008091A8009D
:1009D000882319F081508093A8000895EF92FF9228
:1009E0001F93CF93DF931091F800111106C0DF9190
:1009F000CF911F91FF90EF900895E090F900F09053
:100A0000FA00C091D500C1500C2E000CDD0BC7FDC3
:100A10000EC0FE01EE0FFF1FEA52FF4F0190F08162
:100A2000E02DB701812F099521978111F0CFE8EFD3
:100A3000F0E08381808384819581928381833396E2
:100A400081E0E532F807A9F71092250110922701FD
:100A500010922601C8CF8091D500882319F08150CB
:100A60008093D500E091D50090E080E0EE2341F046
:100A7000E150FF0BEE0FFF1FEA52FF4F8081918183
:100A80004AE070E060E01BCF582FCB01F9015830ED
:100A900089F41092890080E026DC8091CE008111DB
:100AA0001CC081E08093890070E060E08FE995E0F0
:100AB00032DF13C0252F207F203BB1F42091890025
:100AC000421780F06DE570E041DA029741F42F5F44
:100AD0002093890088E3421718F480E0089582E1AA
:100AE00002DCFBCF80E0FCCF203E41F48091890006
:100AF000882311F04817C0F6AEDFEFCF5A3069F700
:100B00006091A10080918900099506DDF5CF22EA68
:100B100031E043E0B9CF22EA31E044E0B5CF2BE445
:100B200034E044E0B1CF2AE632E041E0ADCF2EE63A
:100B300032E042E0A9CF29E832E041E0A5CF883099
:100B400039F41092A1001092880080E0CCDB0CC038
:100B50008130F9F490918800911108C060327105DC
:100B600018F0809388007DDB80E00895913079F45F
:100B70006B3B710520F082E080938800E6CF611521
:100B8000710591F3862F880F84708E5EDFCF63DF4F
:100B9000EBCF813811F0813E39F791E090938800D6
:100BA000813E41F48091A100865F8093A10059DBD2
:100BB0008BE4CCCF8091A1008F5FF7CF0F931F9371
:100BC000CF93DF93D82FC92F8B0145DFB8018D2F2D
:100BD0009C2FDF91CF911F910F919DCECF93C0910C
:100BE0007900C11119C0813C41F470E060E081ECF2
:100BF00096E0E4DF8C2FCF910895823C29F470E0D9
:100C000060E08EE096E0F5CF873B31F470E060E085
:100C100083E995E080DEEECFC1E0ECCF813C39F492
:100C200070E060E081EC96E0C9DF80E00895823CEE
:100C300029F470E060E089EB99E0F6CF873B31F46E
:100C400070E060E087E995E066DEEFCF81E008952F
:100C5000CF93DF93D82F2D2F20792039F1F4909165
:100C60007300209174008D2F8F70823049F4809131
:100C7000AE00811108C0822F291728F4892F03C0E4
:100C8000822F9217D8F32FDBD33CA1F409DC70E05C
:100C900060E081EC96E092DF0BC0203811F480E038
:100CA000F2CFD13089F76931710510F0D093CD00C2
:100CB000C0E00EC0D43C81F4C091AE006C2F70E057
:100CC000C11111C060917A0070E089E897E076DF89
:100CD0008C2FDF91CF910895D43B41F4EFDB10923C
:100CE0002A0161E070E089E897E0D5CFD53C19F49E
:100CF00066E970E0F8CFC0917900C11108C0DA3B15
:100D000031F470E060E08BE995E005DEE1CFC1E011
:100D1000DFCF813C39F470E060E081EC96E04EDF9B
:100D200080E00895823C29F470E060E08EEE95E06A
:100D3000F6CF81E00895843011F58091E60090911E
:100D4000E7002BE08730920731F469E170E089E831
:100D500097E034DF0DC08958974061F49091CC0042
:100D6000923040F0892F869596959695890F95DB60
:100D700080E0089570E060E081EC96E0EACF81E0E9
:100D800008950F931F93CF938B01883081F480E0F7
:100D9000AADA1092A800012B31F0C0E08C2FCF917D
:100DA0001F910F91089581E08093CD00F6CF81309F
:100DB00021F46931710588F3F7CF8330F9F420917C
:100DC000AE00222359F08091AD0090E062EC71E01A
:100DD000A0D80817190710F020937A008091A4007A
:100DE0008823D9F290E062EC71E093D880179107E4
:100DF000A0F670E060E088E296E016C0813BB1F4B6
:100E000081E090E0DEDA6FDA8091AA008111C5CF2F
:100E10008091AB00811104C00831110508F4BDCFE9
:100E200061E070E089E897E0C9DEB7CF813EC1F3A9
:100E3000813831F480917A0090E0C3DA54DAADCF92
:100E4000813C21F46091CC0070E0ECCF823B71F4E6
:100E5000809178009091790091118091AC0081117E
:100E600003C086E990E0E9CF86E9E8CF823E11F43D
:100E700080E0E4CF66E970E0823CA1F28339C1F3FF
:100E8000833C29F470E060E08EEE95E0CDCF843CA9
:100E900011F406DBAECF8D3B31F4F89488ED81BDC3
:100EA0007894A895FFCF8F3C29F470E060E088E645
:100EB00092E0BACFC09179008A3B79F4012B39F5E1
:100EC000CC2329F0EDDA1092790026DB66CF70E0B2
:100ED00060E08BE895E01FDD61CFC11118C08A3C4E
:100EE00031F4DEDA81E08093790016DB57CF833B63
:100EF00031F470E060E087E09BE060DE4FCF853C3E
:100F000031F4CEDA70E060E089E79CE0F6CFC1E032
:100F100045CF9F92AF92BF92CF92DF92EF92FF9216
:100F20000F931F93CF93DF93C82F8B01A09077006F
:100F3000E0907600B090AB00D090A900B11002C054
:100F4000DD24D394C0907800D0917900D111C09065
:100F5000AC00CC2009F441C041E0C41621F08091DE
:100F60007A008E15D0F1A6E9FA2E9090A800B8016B
:100F70008C2FE7DC6091A800662309F4F1C1911081
:100F800004C08091CC0080938C008C2F8D7F8830A2
:100F900031F51092A300CA3019F400917A0010E0E4
:100FA000A016110630F4E016110619F010F00093A7
:100FB0007A00C80106DA71DA81E080936500D0E03A
:100FC0008D2FDF91CF911F910F91FF90EF90DF90C8
:100FD000CF90BF90AF909F900895FE2CC6CFC13C9C
:100FE00009F4C1C1C23C71F48091CC008F1538F472
:100FF0008F2D53DA8091CC0080938C00E0CF8091CC
:101000007A00F7CFC43C39F480E06DD970E060E03D
:1010100088E296E0ACC18FE48C0F823008F052C0B9
:1010200060916D0070E0C801BB2011F068E170E0D4
:101030008DD7892B21F62091CC000115110531F5B2
:10104000C23BF1F48FEF80936500D091CC0080918A
:1010500065006D2D70E0082E000C990B5AD78D0F8E
:10106000911DAFD9C82F80937A00D81739F08238F4
:1010700021F0813411F08E1101C020DA8C2FB9CF0C
:101080002E1500F7A21608F381E0DDCFE0916D0088
:10109000F0E0CF0166E371E03CD78017910710F4D0
:1010A0002E1580F6CF016CE672E033D780179107DA
:1010B00060F6A21650F2F4D970E060E088E296E0A3
:1010C0007DDDC3CF8FE18C0F823020F480916500ED
:1010D000819573CFC13009F0BAC00932110511F4FE
:1010E000C0936500662389F080918C006150770B76
:1010F00090E00FD76091A70070E03CD7611101C06C
:1011000061E06093CB006093AF008091CB00909141
:10111000CC00E82FE91BFF0B9F0160918A007091C2
:101120008B006F5F7F4F70938B0060938A003097C6
:1011300009F445CF40E052E0F7FF06C040E450E03C
:10114000933810F440E051E05695479537FF02C0C0
:101150002F5F3F4F3595279521153105A9F7461784
:10116000570708F02CCF891708F04AC08FEF890F76
:10117000AFEFA80F2A2F30E0B901695A7E4FFB016B
:101180004491A91708F041C099B591113EC04F3F55
:1011900009F03BC049BDA9014F535F4FFA0194913B
:1011A000E091CC00AE1708F03EC0E8B5E1113BC0BD
:1011B0009F3F09F038C098BD255D3F4FF9019491DC
:1011C000EBB5E91708F03CC09BB59F5F9BBD99B597
:1011D000FB01649196130FC098B5FA0144919413E2
:1011E0000AC09BB5F9012491921305C0C091CB00B0
:1011F0007AD8C093CB0010928B0010928A00DFCE79
:10120000981708F0B5CF81E0B2CF99B5941720F4C4
:1012100099B59F5F99BDBFCF99B5491708F0BBCF6E
:1012200099B59150F7CFE8B5E91718F498B59F5FD5
:10123000C2CFE8B59E1708F0BFCF98B59150BBCF8D
:10124000EBB59E1708F0C3CF9BB59150BFCFC5300B
:10125000A9F48091CC00823408F4B1CE90E0801BD8
:10126000910B282F813491053CF08739910508F0C6
:1012700026E92093CB00A3CE21E4FBCFC630B1F406
:101280009091CC008091AF00981708F098CE090F8C
:10129000111D90E08017910734F0C8010134110549
:1012A00014F481E490E08093CB0089CEC73069F4D8
:1012B0009091CB008091CC00891710F48F5FF3CF11
:1012C000981708F07CCE8150EECFD11147C0C33CB7
:1012D00099F481E0B11080E08093AB001DD9EED885
:1012E0008091CC0090E06DD880937A00D6D8809120
:1012F000CC0080938C0064CEC33B51F4012B09F0E9
:101300005ECECC2011F086E9F82E8F2DC6D858CEAF
:10131000C33E19F480917A00F9CFC53C41F480E0D6
:10132000E2D770E060E089E79CE048DC49CE70E0FD
:1013300060E087E895E0C73B79F0CA3C39F48091DA
:10134000CC008093AE00E8D8ABD83ACECA3B31F49B
:1013500070E060E08FE895E0DEDA32CED1E030CEAA
:10136000992009F412CE70E060E081EC96E026DC72
:1013700026CE282FCB01213C39F470E060E081ECCF
:1013800096E01CDC80E00895223C29F470E060E0E7
:1013900089E896E0F6CF213B39F46EE370E0D6D5CC
:1013A000892B81F77DD8EECF213E41F46EE370E0CA
:1013B000CDD56F5F60936C00AFD8E4CF81E0089526
:1013C0000F931F93CF931092D0008091280190919A
:1013D00029019C012F5F3F4F88279078822B932B08
:1013E0009093290180932801C091CE005ED7C81741
:1013F000B1F01092CD008093CE0090912A01882305
:10140000F9F0892F80699F709F30C1F480932A0181
:1014100090E080E022D710922901109228010091DB
:101420002801109129018091CD008823B9F0B801DD
:1014300083E0F9D6CF911F910F91D0CA8F5FE6CF8D
:10144000892F8F7E95FD08C0806880932A01809146
:10145000280190912901DECF806CF7CFC0912A013D
:101460008C2F807F803BB1F470E060E081E0DBD6C0
:10147000C801F3D6C0918D00C11104C012D781E01C
:101480008093EC00CF5FCF71C0938D00CF911F91FF
:101490000F910895B80181E0C6D6C4FF0FC0C5FD05
:1014A000E7CF0831110530F310922901109228017D
:1014B000C062C0932A0190E080E0DBCFCC23D1F260
:1014C000C5FF02C0CED6D6CF0231110598F2C06456
:1014D000C0932A0190E080E0C0D6F4CF8091F7005D
:1014E00081119BD88091D00081116ACF0895BF925D
:1014F000CF92DF92EF92FF920F931F93CF93DF93E0
:10150000EC0110E888E0E82E87E0F82E02E092EC8B
:10151000C92EDD24D394B12C209751F4DF91CF91C3
:101520001F910F91FF90EF90DF90CF90BF900895A3
:101530008091B0008111F2CF9091CC00953090F461
:101540000FB6F89416BD06BD0FBEC6010197F1F7A0
:101550008B2D0FB6F89416BD86BD0FBEBFDF3EDAE9
:101560002197DACF0FB6F89416BD86BD0FBEC7011E
:10157000EDCF0F931F93CF93C82F06EA811102C0BE
:1015800008E0C1E010E089E1AED6C801B0DF80E03C
:10159000AAD68AEF90E0ABDFC150A9F78AE992E0C2
:1015A000CF911F910F91A3CFCF93DF93282F64E6A4
:1015B000C1D4382FC92F892F6AE0BCD4D92F243643
:1015C00050F0832FD6DF8C2F6AE0B4D4D2DF8D2F7A
:1015D000DF91CF91CECFCA30B0F7F9CFCF93DF9361
:1015E000D82FC3E080917A007ED688EC90E07FDF30
:1015F000DD2319F080E991E07ADF80E074D688EC91
:1016000090E075DFC15071F7DF91CF910895DF92BF
:10161000EF92FF920F931F93CF93DF93D82F8B01FD
:10162000C0916B0081E08093A300C33079F4F09007
:10163000A8008D2F86D9FF20A1F08091A8008111EC
:1016400010C070E060E081EC96E0B8DAD83071F05C
:10165000D13C09F0F6C070E060E081EC96E0AEDAD3
:1016600008C0D83041F481E08093630081E080932A
:10167000640080E033C1D23C61F41092A8008C2F4A
:1016800090E0019666E070E075D480936B0044D7DB
:10169000F0CFD13BC1F480916200012B41F49FEF68
:1016A0008E3618F4823018F491E090936300909194
:1016B0006300890F21F481E080936200DACF8F36D6
:1016C000D8F38EE6F9CFD13E59F48091630081952D
:1016D0008093630080916400819580936400D7CFEC
:1016E000D23BE1F481E0809363008091620082301C
:1016F00018F081508093620081E080936400C230D2
:1017000008F0DFC000FDB5CFEC2FF0E0E759FF4F48
:1017100080818F3F09F4ADCF8F5FAAC0D13009F02F
:10172000E5C00932110511F4D0936300D090870011
:101730008D2D880FD7FC809590E067E070E0E9D3AD
:10174000292FE09086008E2D880FE7FC8095D091A0
:1017500061006D2F70E090E0DCD3290FF0908500E0
:101760008F2D880FF7FC8095C09160006C2F70E082
:1017700090E0CFD3622F690F80916200680F7727C6
:10178000771F8091A800813091F48091A5009091FD
:10179000A60025E0969587952A95E1F724E730E0A5
:1017A000A901481B590BCA01B4D3B901CFD3862F65
:1017B0009AD500FD05C082D581708D0D809387007C
:1017C000809184008E0D8093860078D565E2B2D337
:1017D0009F0D9093850072D58F7329F46FD56DE0BE
:1017E000A9D390938400DD2331F068D58F7319F469
:1017F000D150D093610062D5811107C05FD56BE0F5
:1018000099D39093610010928600C33030F056D582
:101810008F7119F4C150C093600050D58F7729F4AF
:101820004DD566E087D3909360000932110519F415
:1018300081E0809364008091CA00080F0093CA0081
:1018400018CFD23C09F41BCFD13B49F5C23090F4FC
:1018500000FD0FCFEC2FF0E0E759FF4F8081909112
:101860006400891B8F3F08F08EEF883008F488E011
:101870008083FFCEC43009F0FCCE80916800909147
:101880006400890F823038F482E080936800809190
:10189000680029D5EECE8937C0F388E7F6CFD13E70
:1018A00009F418CFD23B09F427CFD23E09F4EFCE8A
:1018B000D53C81F470E060E089E79CE07FD980E06E
:1018C000E8CFC43009F0D5CE809168008330F8F2BB
:1018D0008150DBCF81E0D13009F4A7CFDF91CF91E8
:1018E0001F910F91FF90EF90DF900895D13CE9F6A2
:1018F000B2CE0F931F93CF93DF93D82F8B018830F5
:1019000031F48091A300813011F488E080DE8D2FC6
:101910008079803991F481E08093A200C091A30086
:10192000CC2311F0C0E003C080917A00DCD48C2F6E
:10193000DF91CF911F910F910895803829F4109273
:10194000A20080E0D0D4EECFC1E0D13081F7C091C9
:10195000A200CC2351F08091A300813019F7B80187
:10196000DF91CF911F910F9152CE07331140D0F2EA
:10197000D093CD00DCCF2F932FB72F933F938F932E
:101980009F93AF93BF93EF93FF938091F6008823CB
:10199000E9F0E091F50024B135B1F0E0EE0FFF1F62
:1019A000DF01AF50BF4F2D933C93E351FF4F808138
:1019B00091818217930708F401962817390708F4D4
:1019C00001979183808381E08093F70081E0809389
:1019D000F600FF91EF91BF91AF919F918F913F9151
:1019E0002F912FBF2F9118958F9381E08093D00076
:1019F0008F9118958F9381E08093CF008F911895E8
:101A0000F89484B7877F84BF0FB6F894A89581B502
:101A1000886181BD11BC0FBEB89A81E083BF91EA95
:101A20009ABDB99ABC9A80BF80E68CBD8FEF8DBD00
:101A300088E088BB85BB8BB780628BBFA89581B5DA
:101A4000886181BD80E481BD8CE287B91092F50088
:101A50001092F60026D487EE86B9789481E00BD4F4
:101A600070E060E08BE996E056D71092B00018D590
:101A70001CD481117BC0F89480E091E08ED2853A2D
:101A800009F09CC001EB10E0C1E0D1E0CE0185D2AD
:101A9000F80181938F012196CA31F1E0DF07B1F798
:101AA00078948091B1008093AB008091B2008093D4
:101AB00073008091B300809370008091B400809394
:101AC0006D008091B500809374008091B600809382
:101AD00071008091B70080936E008091B800809370
:101AE00075008091B900809372008091BA00809354
:101AF0006F008091BB00809379008091BC0080933F
:101B0000AC008091BD008093AA008091BE008093BC
:101B100078008091BF008093AE008091C0008093D8
:101B2000AD008091C10080936B008091C2008093D2
:101B300069008091C30080936A008091C400809303
:101B400068008091C50080936C008091C6008093EE
:101B50007B008091C7008093E8008091C80080934B
:101B60007C008091C9008093A40029C0C0E08C2F24
:101B7000BAD383E190E0BBDC8C2F8695B4D383E1AC
:101B800090E0B5DC92D38823B1F0CF5FC03479F711
:101B900065E181E0A3D4C0D4C6E98C2FA4D384E04E
:101BA00090E0A5DCC150C9F766CF8C2F9CD38DE0A7
:101BB00090E09DDCC150C111F8CF5DCF7894809149
:101BC000AE00811180937A0061E070E081EC96E0D4
:101BD000A2D64CE2242E57EE352E60E4462E772412
:101BE00073947CEF872E73E0972E512C612CE1ECDF
:101BF000CE2EE6E0DE2EF2D68091D3009091D40076
:101C0000009749F06091D1007091D200D7D710921F
:101C1000D4001092D3008091CD00882361F180E040
:101C200062D3A89581B5886181BD23E421BD379831
:101C30003CD38111FDCF15D38BB780628BBF10923F
:101C4000F7001092D0001092CF008091CD0081114A
:101C500034C082E080937D008BB78F7D8BBF27B827
:101C60001092F5001092F6001CD336B8A89581B5F5
:101C7000886181BD41BC32DC1092B0008091E600E9
:101C80009091E700E2E088369E07B9F5CEE1D0E01A
:101C9000FE01849180536DDC8CE291E028DC21967A
:101CA000F0E0CA32DF07A1F7D092D400C092D3008F
:101CB0001092D2001092D1009ECF85B7877E8061AE
:101CC00085BF85B7806285BF889585B78F7D85BFC5
:101CD0008091CF0081111092CD008091F700882370
:101CE00029F070927D007092EC0097D48091D00022
:101CF000882309F4AACF64DBA8CF2BE087309207B2
:101D000079F0ECE089379E0709F0BDC08091A3000F
:101D1000813009F0F3C08091A200882309F4EEC05D
:101D2000C0916B00C43009F495C008F06AC0C2309D
:101D300008F474C0C23009F05ECFC0D28F73082F90
:101D400010E0BCD267E0F6D0C1E0D0E07E0102C076
:101D5000EE0CFF1C9A95E2F7B1D265E0EBD002C021
:101D6000CC0FDD1F9A95E2F7CE0DDF1DA7D290E0D4
:101D7000BE0100D1C80FD91FC739D10524F0F6E93B
:101D8000CF2F20E0D22F8C2FAED2C801B0DB7E0146
:101D900033E0F594E7943A95E1F7E11002C0EE24C0
:101DA000E394F12CC801A3DB5E01AE18BF08E50186
:101DB000B7FE02C0C52DD62D8C2F95D27FD2837051
:101DC00031F4C80194DBCE01959587958CD2F2E071
:101DD000AF16B1043CF772D26DE0ACD001E010E078
:101DE00002C0000F111F9A95E2F768D2E80121970F
:101DF00090E0C823D923C00FD11F80E074D2CE0158
:101E00001FC0C53009F0F7CE80E46DD280E094E0C9
:101E10006EDB80E068D280E094E012C0EC2FF0E04E
:101E2000E759FF4FD08182E85ED2C1110FC0DA328C
:101E300048F4C4010197F1F780E055D28D2F90E06E
:101E400056DBD9CE81E090E052DBF6CF8D2F869520
:101E500090E0FACFD0916800DD0FD73908F0D6E9CD
:101E60008D2F41D285E090E042DB809168003BD22B
:101E700081E490E03CDBC15099F780ED92E037DBE4
:101E800080E031D2B8CE25E08E3E920751F48091A9
:101E9000EB008ADB80917900811106CF88EE93E018
:101EA000CFCFE6E08E309E0721F48091E9007CDB05
:101EB000F5CFF9E0893B9F07A9F48091CE0081110D
:101EC0009ACE80917A000FD284E690E010DB80E019
:101ED0000AD280916C0090E068EE73E01AD08456CC
:101EE0009109AECF8958964049F480E077DB81E0D4
:101EF00075DB80E073DB80ED97E0A2CF85B7877E4E
:101F000085BF85B7806285BF889585B78F7D85BF82
:101F100072CE0024552704C0080E591F880F991F40
:101F2000009729F076956795B8F37105B9F7802D7C
:101F3000952F0895991B79E004C0991F961708F012
:101F4000961B881F7A95C9F780950895AA1BBB1B1D
:101F500051E107C0AA1FBB1FA617B70710F0A61BA9
:101F6000B70B881F991F5A95A9F780959095BC01CA
:101F7000CD01089597FB072E16F4009406D077FD47
:101F800008D0E4DF07FC05D03EF4909581959F4F83
:101F90000895709561957F4F0895E199FECF9FBB9D
:101FA0008EBBE09A99278DB30895262FE199FECF35
:101FB0009FBB8EBBE09A01970DB2021639F01CBA96
:101FC0002DBB0FB6F894E29AE19A0FBE0895F894EB
:021FD000FFCF41
:101FD200060B180101010004412943030201070510
:101FE20082826401141482010201412D07027300EE
:041FF20070006D000E
:00000001FF
