:10000000D4C00000EFC000000C940B0DEBC000004A
:10001000E9C000000C94050DE5C00000E3C000003D
:10002000E1C00000DFC00000DDC00000DBC0000058
:10003000D9C00000D7C000000C94CC0CD3C0000085
:10004000D1C00000CFC00000CDC00000CBC0000078
:10005000C9C00000C7C00000C5C00000C3C0000088
:10006000C1C00000BFC00000BDC00000BBC0000098
:10007000323032323035313430313233000000002A
:100080000000000000000000000000000000000070
:100090000000000000000000000000000000000060
:1000A0000000000000000000000000000000000050
:1000B000000000000000000000000000000000013F
:1000C0000304050708090B0C0E0F11131416181959
:1000D0001B1D1F21232527292B2D30323437393B77
:1000E0003E404346484B4E5154575A5D60636669E3
:1000F0006D7073777A7E8185898D9094989CA0A588
:10010000A9ADB1B6BABFC3C8CDD1D6DBE0E5EAEF41
:10011000F4FAFF01010202030304040506070809BB
:100120000A0C0D0E0F11131416181A1D1F22242766
:100130002A2D3033373B3E42464B4F54595D63685E
:100140006E73797F868C939AA1A8B0B8C0C8D1D9B4
:10015000E2ECF5FFFFFFFFFFFFFFFFFFFFFFFFFFE9
:10016000FFFFFFFFFFFFFFFFFFFFFFFFFFFFFFFF9F
:10017000FFFFFFFFFFFFFFFFFFFFFFFFFFFFFFFF8F
:10018000FFFFFFFFFFFFFFFFFFFFFFFFFFFFFFFF7F
:10019000FFFFFFFFFFFFFFFFFFFFFFFFFFFFFFFF6F
:1001A000FFFFFFFFFFFFFFFF000011241FBECFEF87
:1001B000D4E0DEBFCDBF11E0A0E0B1E0E6ECF2E2BA
:1001C00002C005900D92A432B107D9F721E0A4E254
:1001D000B1E001C01D92AB3CB207E1F70E94110DE6
:1001E0000C9461110DCFF89498ED9FBD83BF789466
:1001F0000895482F362F272FE8E9F1E090E080E0BE
:10020000508151110BC063E070E00E940311FC01AA
:10021000E856FE4F40833183228305C00196339612
:100220008031910569F70895BC018091CA01E1CF41
:100230001092CA011092C9011092C80181E0809306
:10024000500108950F931F93CF93C82F08EA17E02A
:10025000C15020F4CF911F910F91089582E0C3DF28
:10026000C8010197F1F780E0BEDFF2CF83B1886467
:1002700083B908958FB182FB882780F991E089279F
:1002800080936E010895E0910601F0910701319687
:10029000FB70F460F0930701E093060180916A011E
:1002A0008B5A80936A01E49180916A018E0F0895C0
:1002B00080936C0180936B0181110EC010926D00D0
:1002C00010926C0010926B0010926A0080916C0189
:1002D0008630B8F482E087CF815090E0FC01ED5E7B
:1002E000FE4FE491F0E0F0936D00E0936C008358D2
:1002F0009F4FFC01849190E090936B0080936A0083
:10030000E5CF8E3010F481E0E6CF80E0E4CFCF93EC
:10031000DF9300D000D000D0CDB7DEB720914B01E5
:1003200040918601509187014557554009F422E0DC
:10033000843059F460934C0126960FB6F894DEBFD2
:100340000FBECDBFDF91CF9108956623A9F3823010
:1003500019F497E9961B692F96E0EEE1F1E0DE01D2
:10036000119601900D929A95E1F78150990B880FA3
:10037000991FA1E0B0E0AC0FBD1F8A0F9B1FDC01ED
:10038000ED91FC91E20FF11D6083D6CFCF92DF9209
:10039000EF92FF920F931F93CF93DF939C015091A5
:1003A0004B01E091190182E0E11101C0852F90E03D
:1003B000DC01AD5EBE4F4C9140931701805F9E4FB4
:1003C000DC018C9180931601F0E0E35FFE4FC18168
:1003D000642F70E0552381F0C13071F4860F972FA0
:1003E000911D95958795DF91CF911F910F91FF906A
:1003F000EF90DF90CF900895261737079CF1821772
:1004000013068CF3511102C0822FEDCF841B6C2F89
:100410006150770B8B01E82EF12CC7010E9434113B
:10042000609349016695E62FF0E0842FD12CC12C12
:10043000D0E0DC17C1F2C601B8010E942011842F60
:10044000860FA82FB0E0B9016A1B7B0B77FF03C0B2
:10045000BD01621B730BCE0CDF1CE617F7071CF601
:10046000DF5FE7CF842FBFCF80934F0121CFCF93A2
:10047000C0916C0189E18C0F873908F080E018DFAA
:1004800082E0E0DE8C2FCF9113CFCF93C0916C012F
:1004900080E00EDF83E0D6DE8C2FCF9109CF81E0A4
:1004A0000895611160931C010895662369F08130FD
:1004B00099F48091880190918901891B680F60935C
:1004C000880182E080931D0180911B01873418F020
:1004D00086E480931B010895635E60931B01F4CF53
:1004E0006093440108950F931F93CF93DF938091FE
:1004F0004B018093510180911301809352018091AF
:1005000010018093530180910D01809354018091DB
:1005100014018093550180911101809356018091BF
:100520000E018093570180911501809358018091AD
:1005300012018093590180910F0180935A0180919B
:10054000190180935B0180914C0180935C01809143
:100550004A0180935D018091180180935E01809132
:100560004E0180935F0180914D01809360018091E5
:100570000B01809361018091090180936201809158
:100580000A01809363018091080180936401809146
:100590000C018093650180911B018093660180911D
:1005A00088018093670180911C018093680180918C
:1005B000440180936901F89401E511E0C1E8D0E0BD
:1005C000F80161918F01CE010E944F112196CA3925
:1005D000D105B1F765EA80E890E00E944F11789468
:1005E000DF91CF911F910F9108951092970130B133
:1005F00081B120916A01329536953695337090E03D
:10060000880F991F880F991F830F911D820F809368
:100610006A0180918C01882309F447C010928C01F3
:100620008091950181114AC080911D0160918D01D9
:1006300070918E01882341F0609191017091920137
:1006400070938E0160938D01605F7F4FA6E0769579
:100650006795AA95E1F780E098E50E9420118091C6
:100660001C018350990B680F791F769567956093ED
:100670008B01809140018823C9F081508093400113
:1006800080916D01811108C08EE884B981E080936A
:10069000950110929601EADD80911D01882329F0D1
:1006A00080911D01815080931D0108956D3140F7A7
:1006B00070E060E084E09DDD85E0E0CF813061F7AF
:1006C00080911D0181115EC080918F0190919001F8
:1006D0004096DC0145E0B695A7954A95E1F7409133
:1006E000880156E0969587955A95E1F7042E000CFF
:1006F000550B9A012E503140820F931F90938A011F
:100700008093890180912F01E82FF0E0EE0FFF1F09
:10071000E05DFE4F20813181BD01621B730B9B01A7
:10072000B183A0838F5F877080932F01660F771F3F
:10073000660F771F6A0F7B1F80911B0190E0841B5F
:10074000950B825F9E4F880F991F681B790B83E082
:10075000161617060CF045C0615071098150C1F79B
:10076000161617060CF057C037FD74C080912E0185
:100770001816F4F5861B80932E018DE084B9109233
:10078000950187CF8091930190919401909390016E
:1007900080938F01409635E0969587953A95E1F7DD
:1007A0009093310180933001909333018093320113
:1007B00090933501809334019093370180933601F3
:1007C000909339018093380190933B0180933A01D3
:1007D00090933D0180933C0190933F0180933E01B3
:1007E00073CF6115710509F4B9CF6F5F7F4FB6CF35
:1007F000660F771F653071055CF063507109759560
:10080000679588E1861B80932E0185E0F2DCB5CFE9
:1008100061E070E0F6CF6C3F8FEF7807DCF437FFD4
:1008200019C080912E0187FF02C08450A3CF84EEAF
:10083000861B80932E0180918B018F3108F49DCF10
:100840008CEF9FEF9C01261B370BB90175956795BF
:1008500086E0DCCF80918B018E3108F48ECF70E082
:1008600060E087E0D3CF813019F410924E010895F3
:10087000823019F460934D010895833019F4609328
:100880004A010895843011F4609318010895FF928D
:100890000F931F93CF93DF938C01D62FC72FF42E86
:1008A0008091860190918701892B31F0E09186013A
:1008B000F091870189E009951093870100938601E3
:1008C000012B41F0E0918601F09187016D2F7C2F83
:1008D0008F2D099581E080935001DF91CF911F9179
:1008E0000F91FF90089520917501283080F4E22F38
:1008F000F0E0EE0FFF1FEA58FE4F808391832F5FD9
:100900002093750148E0C3DF8091750108958FEF52
:100910000895282FCB0130911901311147C028309B
:1009200039F4109248011092460110924501089541
:10093000213B59F48091480181508330B8F583E020
:1009400080934801809347010895253BA1F46EE30D
:1009500070E00E942011892B49F5809148018A3F5F
:1009600028F58B5F809348018093470110924601E0
:10097000109245017CCD2130C9F4809145019091C0
:100980004601019688382EE0920728F4909346019C
:10099000809345010895109246011092450180917F
:1009A0004801882319F08150809348010895EF92FF
:1009B000FF921F93CF93DF9310919801111106C0FE
:1009C000DF91CF911F91FF90EF900895E0909901F2
:1009D000F0909A01C0917501C1500C2E000CDD0BF6
:1009E000C7FD0EC0FE01EE0FFF1FEA58FE4F01903B
:1009F000F081E02DB701812F099521978111F0CF6A
:100A0000E8E9F1E083818083848195819283818309
:100A1000339681E0E53CF807A9F71092C5011092E2
:100A2000C7011092C601C8CF80917501882319F0C3
:100A3000815080937501E091750190E080E0EE2394
:100A400041F0E150FF0BEE0FFF1FEA58FE4F80818F
:100A500091814AE070E060E01ACF582FCB01F90194
:100A6000583089F41092290180E022DC80916E01D7
:100A700081111DC081E08093290170E060E089E868
:100A800095E031DF14C0252F207F203BB9F4209161
:100A90002901421788F06DE570E00E94201102974D
:100AA00041F42F5F2093290188E3421718F480E076
:100AB000089582E1FDDBFBCF80E0FCCF203E41F4D6
:100AC00080912901882311F04817B8F6ADDFEFCFE8
:100AD0005A3069F76091410180912901099503DD40
:100AE000F5CF27E831E043E0B8CF27E831E044E034
:100AF000B4CF23E334E044E0B0CF21E532E041E07D
:100B0000ACCF25E532E042E0A8CF20E732E041E07B
:100B1000A4CF883039F4109241011092280180E06E
:100B2000C7DB0CC08130F9F490912801911108C005
:100B30006032710518F0809328017ADB80E0089517
:100B4000913079F46B3B710520F082E080932801AD
:100B5000E6CF6115710591F3862F880F84708E5E44
:100B6000DFCF62DFEBCF813811F0813E39F791E0C2
:100B700090932801813E41F480914101865F8093EA
:100B8000410156DB8BE4CCCF809141018F5FF7CFE1
:100B90000F931F93CF93DF93D82FC92F8B0144DF7F
:100BA000B8018D2F9C2FDF91CF911F910F919BCE7C
:100BB000CF93C0911901C11119C0813C41F470E07B
:100BC00060E08BEA96E0E4DF8C2FCF910895823CC1
:100BD00029F470E060E088EF95E0F5CF873B31F4D1
:100BE00070E060E08DE795E07EDEEECFC1E0ECCF17
:100BF000813C39F470E060E08BEA96E0C9DF80E088
:100C00000895823C29F470E060E084EB99E0F6CF2F
:100C1000873B31F470E060E081E895E064DEEFCF7F
:100C200081E00895CF93DF93D82F2D2F207920399D
:100C3000F1F490911301209114018D2F8F70823067
:100C400049F480914E01811108C0822F291728F4A0
:100C5000892F03C0822F9217D8F32ADBD33CA1F44B
:100C600006DC70E060E08BEA96E092DF0BC0203893
:100C700011F480E0F2CFD13089F76931710510F0BD
:100C8000D0936D01C0E00EC0D43C81F4C0914E0100
:100C90006C2F70E0C11111C060911A0170E08DE6F7
:100CA00097E076DF8C2FDF91CF910895D43B41F40C
:100CB000ECDB1092CA0161E070E08DE697E0D5CFE1
:100CC000D53C19F466E970E0F8CFC0911901C11163
:100CD00008C0DA3B31F470E060E085E895E003DEBF
:100CE000E1CFC1E0DFCF813C39F470E060E08BEA16
:100CF00096E04EDF80E00895823C29F470E060E0E9
:100D000088ED95E0F6CF81E00895843011F580916B
:100D10008601909187012BE08930920731F469E1D7
:100D200070E08DE697E034DF0DC08D56974061F49A
:100D300090916C01923040F0892F8695969596950A
:100D4000890F92DB80E0089570E060E08BEA96E026
:100D5000EACF81E008950F931F93CF938B018830E2
:100D600081F480E0A5DA10924801012B31F0C0E057
:100D70008C2FCF911F910F91089581E080936D0189
:100D8000F6CF813021F46931710588F3F7CF8330D4
:100D900009F520914E01222361F080914D0190E0F0
:100DA00062EC71E00E9403110817190710F02093FC
:100DB0001A01809144018823D1F290E062EC71E045
:100DC0000E9403118017910790F670E060E082E1C5
:100DD00096E016C0813BB1F481E090E0D7DA68DAA2
:100DE00080914A018111C3CF80914B01811104C0D0
:100DF0000831110508F4BBCF61E070E08DE697E0A3
:100E0000C7DEB5CF813EC1F3813831F480911A013C
:100E100090E0BCDA4DDAABCF813C21F460916C01FB
:100E200070E0ECCF823B71F4809118019091190130
:100E3000911180914C01811103C086E990E0E9CFC6
:100E400086E9E8CF823E11F480E0E4CF66E970E005
:100E5000823CA1F28339C1F3833C29F470E060E065
:100E600088ED95E0CDCF843C11F401DBAECF8F3C13
:100E700029F470E060E08FE492E0C2CFC0911901E4
:100E80008A3B79F4012B39F5CC2329F0F0DA109262
:100E9000190129DB6CCF70E060E085E795E023DD88
:100EA00067CFC11118C08A3C31F4E1DA81E0809348
:100EB000190119DB5DCF833B31F470E060E089E01C
:100EC0009BE066DE55CF853C31F4D1DA70E060E01E
:100ED00088E89CE0F6CFC1E04BCF9F92AF92BF92E3
:100EE000CF92DF92EF92FF920F931F93CF93DF93F6
:100EF000C82F8B01A0901701E0901601B0904B0114
:100F0000C0904901B11002C0CC24C394D090180104
:100F1000D0911901D111D0904C01DD2009F441C0CC
:100F200041E0D41621F080911A018E15D0F1A6E986
:100F3000FA2E90904801B8018C2FEBDC60914801AB
:100F4000662309F408C2911004C080916C0180935B
:100F50002C018C2F8D7F883031F510924301CA30DF
:100F600019F400911A0110E0A016110630F4E016F1
:100F7000110619F010F000931A01C80107DA74DAAB
:100F800081E080930501D0E08D2FDF91CF911F91FB
:100F90000F91FF90EF90DF90CF90BF90AF909F9018
:100FA0000895FE2CC6CFC13C09F4D8C1C23C71F4EF
:100FB00080916C018F1538F48F2D56DA80916C0179
:100FC00080932C01E0CF80911A01F7CFC43C39F413
:100FD00080E06ED970E060E082E196E0C3C18FE40A
:100FE0008C0F823008F054C060910D0170E0C80190
:100FF000BB2011F068E170E00E942011892B19F6E6
:1010000020916C010115110529F5C23BE9F48FEF20
:1010100080930501D0916C01809105016C2D70E0E9
:10102000082E000C990B0E9403118D0F911DAED953
:10103000C82F80931A01D81729F0813411F08E112E
:1010400001C023DA8C2FB9CF2E1508F7A21610F3A2
:1010500081E0DECFE0910D01F0E0CF0166E371E0C9
:101060000E9403118017910710F42E1580F6CF010E
:101070006CE672E00E9403118017910758F6A216E1
:1010800048F2F5D970E060E082E196E081DDC2CF00
:101090008FE18C0F823020F480910501819571CF12
:1010A000C13009F0CEC00932110511F4C093050119
:1010B000662399F080912C016150770B90E00E949B
:1010C00003116091470170E00E943411611101C069
:1010D00061E060936B0160934F0180916B0190918F
:1010E0006C01E82FE91BFF0B9F0160912A017091B1
:1010F0002B016F5F7F4F70932B0160932A01309714
:1011000009F441CF40E052E0F7FF06C040E450E070
:10111000983810F440E051E05695479537FF02C0EB
:101120002F5F3F4F3595279521153105A9F74617B4
:10113000570708F028CF891708F051C08FEF890FA3
:101140005FEF580F252F30E0B9016D5E7E4FFB0138
:101150004491591708F048C0E0916C00F0916D007F
:10116000EF2B09F041C04F3F09F03EC04FEF50E078
:1011700050936D0040936C0023583F4FF901449108
:10118000E0916A00F0916B0050E0E417F50708F079
:1011900049C040916A0050916B004F5F5F4F509380
:1011A0006B0040936A0040916C0050916D00FB0110
:1011B00064916417150671F440916A0050916B00B8
:1011C000F90124912417150629F4C0916B0170D8F8
:1011D000C0936B0110922B0110922A01D4CE981764
:1011E00008F0AECF81E0ABCFE0916C00F0916D00E4
:1011F00050E0E417F50738F440916C0050916D0011
:101200004F5F5F4FB5CFE0916C00F0916D004E17CE
:101210005F0708F0B1CF40916C0050916D004150D4
:101220005109A6CFE0916A00F0916B004E175F075D
:1012300008F0B9CF40916A0050916B0041505109BC
:10124000AECFC530A9F480916C01823408F49BCEF6
:1012500090E0801B910B282F813491053CF0873959
:10126000910508F026E920936B018DCE21E4FBCF98
:10127000C630B1F490916C0180914F01981708F03D
:1012800082CE090F111D90E08017910734F0C8013C
:101290000134110514F481E490E080936B0173CE66
:1012A000C73069F490916B0180916C01891710F43B
:1012B0008F5FF3CF981708F066CE8150EECFD11133
:1012C00048C0C33C99F481E0B11080E080934B01A9
:1012D0000AD9DBD880916C0190E058D880931A012C
:1012E000C3D880916C0180932C014ECEC33B51F446
:1012F000012B09F048CEDD2011F086E9F82E8F2D64
:10130000B3D842CEC33E19F480911A01F9CFC53C3F
:1013100049F480E00E94580170E060E088E89CE0B9
:1013200037DC32CE70E060E081E795E0C73B79F0D2
:10133000CA3C39F480916C0180934E01D4D897D87F
:1013400023CECA3B31F470E060E089E795E0CBDA68
:101350001BCED1E019CE992009F4FBCD70E060E0FE
:101360008BEA96E015DC0FCE282FCB01213C39F417
:1013700070E060E08BEA96E00BDC80E00895223CB0
:1013800029F470E060E083E796E0F6CF213B39F482
:101390006EE370E055D7892B81F769D8EECF213EF7
:1013A00041F46EE370E04CD76F5F60930C019BD803
:1013B000E4CF81E008958DE084B9109295011092F8
:1013C00096010E943601139A87EE83B908950F9310
:1013D0001F93CF93109270018091C8019091C90121
:1013E0009C012F5F3F4F88279078822B932B9093FF
:1013F000C9018093C801C0916E010E943A01C817CB
:10140000B9F010926D0180936E019091CA0188230A
:1014100009F1892F80699F709F30D1F48093CA01B0
:1014200090E080E00E9414011092C9011092C8015E
:101430000091C8011091C90180916D018823C1F00C
:10144000B80183E00E94F900CF911F910F91AFCABC
:101450008F5FE4CF892F8F7E95FD08C080688093D1
:10146000CA018091C8019091C901DCCF806CF7CF8F
:10147000C091CA018C2F807F803BC9F470E060E08E
:1014800081E00E94F900C8010E941401C0912D0161
:10149000C11105C00E94360181E080938C01CF5FAD
:1014A000CF71C0932D01CF911F910F910895B80175
:1014B00081E00E94F900C4FF0FC0C5FDE4CF0831F0
:1014C000110520F31092C9011092C801C062C093A7
:1014D000CA0190E080E0D8CFCC23C1F2C5FF03C0A1
:1014E0000E941801D3CF0231110580F2C064C0936D
:1014F000CA0190E080E00E941401F2CF8091970130
:10150000811173D880917001811161CF0895EF929C
:10151000FF920F931F93CF93DF93EC0108E017E046
:1015200082ECE82EFF24F394209739F4DF91CF91D9
:101530001F910F91FF90EF900895809150018111BC
:10154000F5CF80916C01863068F482E00E94F30050
:10155000C7010197F1F780E00E94F300CFDF27DA9F
:101560002197E2CF80E00E94F300C801F2CF0F93F1
:101570001F93CF93C82F06EA811102C008E0C1E093
:1015800010E089E10E945801C801C1DF80E00E949B
:1015900058018AEF90E0BBDFC15099F78AE992E0E9
:1015A000CF911F910F91B3CFCF93DF93282F64E694
:1015B0003BD6382FC92F892F6AE036D6D92F24364B
:1015C00050F0832FD4DF8C2F6AE02ED6D0DF8D2F02
:1015D000DF91CF91CCCFCA30B0F7F9CFCF93DF9363
:1015E000D82FC3E080911A010E94580188EC90E046
:1015F0008EDFDD2319F080E991E089DF80E00E9431
:10160000580188EC90E083DFC15061F7DF91CF9102
:101610000895DF92EF92FF920F931F93CF93DF9382
:10162000D82F8B01C0910B0181E080934301C3301F
:1016300079F4F09048018D2F6CD9FF20A1F08091B2
:101640004801811110C070E060E08BEA96E0A0DAFA
:10165000D83071F0D13C09F002C170E060E08BEA53
:1016600096E096DA08C0D83041F481E08093030117
:1016700081E08093040180E040C1D23C69F4109283
:1016800048018C2F90E0019666E070E0EDD58093E4
:101690000B010E947302EFCFD13BC1F48091020194
:1016A000012B41F49FEF8E3618F4823018F491E04C
:1016B0009093030190910301890F21F481E08093BD
:1016C0000201D9CF8F36D8F38EE6F9CFD13E59F447
:1016D000809103018195809303018091040181959C
:1016E00080930401D6CFD23BE1F481E080930301E3
:1016F00080910201823018F081508093020181E0D4
:1017000080930401C23008F0EBC000FDB4CFEC2F91
:10171000F0E0E75FFE4F80818F3F09F4ACCF8F5F31
:10172000B5C0D13009F0F1C00932110511F4D093E0
:101730000301D09027018D2D880FD7FC809590E074
:1017400067E070E060D5292FE09026018E2D880F8C
:10175000E7FC8095D09101016D2F70E090E053D5AA
:10176000290FF09025018F2D880FF7FC8095C091EF
:1017700000016C2F70E090E046D5622F690F8091D8
:101780000201680F7727771F80914801813091F41B
:10179000809145019091460125E0969587952A957F
:1017A000E1F724E730E0A901481B590BCA012BD50A
:1017B000B90146D5862F0E94580100FD06C00E943F
:1017C000430181708D0D80932701809124018E0D3E
:1017D000809326010E94430165E226D59F0D9093D8
:1017E00025010E9443018F7331F40E9443016DE093
:1017F0001BD590932401DD2339F00E9443018F73A0
:1018000019F4D150D09301010E944301811108C005
:101810000E9443016BE008D59093010110922601CC
:10182000C33038F00E9443018F7119F4C150C09346
:1018300000010E9443018F7731F40E94430166E06A
:10184000F3D4909300010932110519F481E08093DB
:10185000040180916A01080F00936A010CCFD23C09
:1018600009F40FCFD13B51F5C23090F400FD03CF06
:10187000EC2FF0E0E75FFE4F808190910401891B1F
:101880008F3F08F08EEF883008F488E08083F3CE35
:10189000C43009F0F0CE8091080190910401890FC5
:1018A000823040F482E080930801809108010E9418
:1018B0005801E1CE8937B8F388E7F5CFD13E09F476
:1018C0000CCFD23B09F41BCFD23E09F4E2CED53C7B
:1018D00081F470E060E088E89CE05AD980E0E7CFCE
:1018E000C43009F0C8CE809108018330F0F28150F5
:1018F000DACF81E0D13009F4A6CFDF91CF911F91EB
:101900000F91FF90EF90DF900895D13CE9F6A5CEBE
:101910000F931F93CF93DF93D82F8B01883031F42F
:1019200080914301813011F488E073DE8D2F80793E
:10193000803999F481E080934201C0914301CC2326
:1019400011F0C0E004C080911A010E9458018C2F50
:10195000DF91CF911F910F910895803831F410924B
:10196000420180E00E945801ECCFC1E0D13079F70C
:10197000C0914201CC2351F080914301813009F79D
:10198000B801DF91CF911F910F9143CE07331140E2
:10199000C0F2D0936D01DBCF2F932FB72F933F93DE
:1019A0008F939F93AF93BF93EF93FF938091960193
:1019B0008823E9F0E091950120B131B1F0E0EE0F1C
:1019C000FF1FDF01AF56BE4F2D933C93E357FE4FF1
:1019D000808191818217930708F4019628173907AF
:1019E00008F401979183808381E08093970181E0DF
:1019F00080939601FF91EF91BF91AF919F918F914D
:101A00003F912F912FBF2F9118958F9381E0809355
:101A100070018F9118958F9381E080936F018F9162
:101A20001895F89485B7877F85BF90E088ED0FB64D
:101A3000F894A8958FBD90B7977F90BF0FBE88E0B0
:101A40008CB98AE780BB81EA8093720081E0809341
:101A5000710084E082BB87BD8CB788608CBFA8957D
:101A600080E480BFA8DC789481E00E94220170E0CD
:101A700060E085E896E00E947304109250010E9495
:101A800037020E943A0181117AC0F89480E890E010
:101A9000FED3853A09F0A2C001E511E0C1E8D0E02B
:101AA000CE01F5D3F80181938F012196CA39D10572
:101AB000B9F778948091510180934B018091520144
:101AC0008093130180915301809310018091540100
:101AD00080930D01809155018093140180915601EE
:101AE000809311018091570180930E0180915801DC
:101AF00080931501809159018093120180915A01C0
:101B000080930F0180915B018093190180915C01AA
:101B100080934C0180915D0180934A0180915E0128
:101B20008093180180915F0180934E018091600144
:101B300080934D018091610180930B01809162013E
:101B4000809309018091630180930A01809164016F
:101B5000809308018091650180930C01809166015A
:101B600080931B01809167018093880180916801B7
:101B700080931C01809169018093440130C0C0E0D2
:101B80008C2F0E94580183E190E0C1DC8C2F869558
:101B90000E94580183E190E0BADC0E943A01882358
:101BA000D1F0CF5FC03461F765E181E00E9455025A
:101BB0000E947302C6E98C2F0E94580184E090E0D5
:101BC000A6DCC150C1F761CF8C2F0E9458018DE077
:101BD00090E09DDCC150C111F7CF57CF7894809130
:101BE0004E01811180931A0161E070E08BEA96E06A
:101BF0000E94730443E4242E52E0352E60E4462E06
:101C0000772473947CEF872E73E0972E512C612CF0
:101C1000EBEACE2EE6E0DE2E0E94D704809173011F
:101C200090917401009751F060917101709172016F
:101C30000E94C805109274011092730180916D0189
:101C4000882309F180E00E945801A89520BE1F98C2
:101C50000E943A018111FCCF0E9418018CB7886064
:101C60008CBF109297011092700110926F018091B9
:101C70006D0181112BC030921D018CB7877F8CBF05
:101C80009ADBA89540BE3ADC109250018091860103
:101C900090918701F2E08F349F0709F038C0C0E7C8
:101CA000D0E0FE018491805362DC8CE291E02FDC75
:101CB0002196F0E0CC37DF07A1F7D0927401C092F3
:101CC00073011092720110927101A6CF86B78F79BD
:101CD000806486BF86B7806186BF889586B78F7E11
:101CE00086BF80916F01811110926D0180919701E3
:101CF000882331F070921D0170928C010E94F502D0
:101D000080917001882309F4B2CF61DBB0CF2BE062
:101D10008930920779F0ECE088389E0709F02BC2F1
:101D200080914301813009F063C280914201882390
:101D300009F45EC2C0910B01C43009F400C208F07E
:101D400075C0C23008F4DDC1C23009F065CF0E9411
:101D500043018F73082F10E00E94430167E064D2B3
:101D6000C1E0D0E07E0102C0EE0CFF1C9A95E2F7C4
:101D70000E94430165E058D202C0CC0FDD1F9A9546
:101D8000E2F7CE0DDF1D0E94430190E0BE016CD250
:101D9000C80FD91FC739D10524F0F6E9CF2F20E0AD
:101DA000D22F8C2F0E945801C801B1DB7E0133E095
:101DB000F594E7943A95E1F7E11002C0EE24E3943C
:101DC000F12CC801A4DB5E01AE18BF08E501B7FE27
:101DD00002C0C52DD62D8C2F0E9458010E944301B0
:101DE000837039F4C80193DBCE01959587950E94E5
:101DF0005801F2E0AF16B10424F70E9443016DE0F0
:101E000013D201E010E002C0000F111F9A95E2F713
:101E10000E944301E801219790E0C823D923C00F15
:101E2000D11F80E00E945801CE017FC1C53009F06A
:101E3000F3CE80E20E94580180E890E068DB80E009
:101E40000E94580180E890E062DB80E20E94580125
:101E500080E891E05CDB80E00E94580180E890E03F
:101E600056DB80E20E94580180E891E050DB80E080
:101E70000E94580180E890E04ADB80E20E9458010D
:101E800080E891E044DB80E00E94580180E891E026
:101E90003EDB80E20E94580180E890E038DB80E081
:101EA0000E94580180E890E032DB80E20E945801F5
:101EB00080E890E02CDB80E00E94580180E891E00F
:101EC00026DB80E20E94580180E891E020DB80E080
:101ED0000E94580180E890E01ADB80E20E945801DD
:101EE00080E891E014DB80E00E94580180E891E0F6
:101EF0000EDB80E20E94580180E891E008DB80E080
:101F00000E94580180E890E002DB80E20E945801C4
:101F100080E891E0FCDA80E00E94580180E891E0DE
:101F2000F6DA80E20E94580180E891E0F0DA80E081
:101F30000E94580180E890E0EADA80E20E945801AD
:101F400080E890E0E4DA80E00E94580180E890E0C8
:101F5000DEDA80E20E94580180E891E0D8DA80E081
:101F60000E94580180E890E0D2DA80E20E94580195
:101F700080E891E0CCDA80E00E94580180E893E0AC
:101F8000C6DA80E20E94580180E890E0C0DA80E082
:101F90000E94580180E890E0BADA80E20E9458017D
:101FA00080E890E0B4DA80E00E94580180E890E098
:101FB000AEDA80E20E94580180E890E0A8DA80E082
:101FC0000E94580180E891E0A2DA80E20E94580164
:101FD00080E890E09CDA80E00E94580180E890E080
:101FE00096DA80E20E94580180E890E090DA80E082
:101FF0000E94580180E890E08ADA80E20E9458014D
:1020000080E891E084DA80E00E94580180E891E065
:102010007EDA80E20E94580180E891E078DA80E080
:102020000E94580180E890E072DA80E20E94580134
:1020300080E890E06CDA80E00E94580180E890E04F
:1020400066DA80E20E94580180E891E060DA80E080
:102050000E94580180E890E05ADA80E20E9458011C
:1020600080E890E054DA80E00E94580180E891E036
:102070004EDA80E20E94580180E891E048DA80E080
:102080000E94580180E890E042DA80E20E94580104
:1020900080E890E03CDA80E00E94580180E890E01F
:1020A00036DA80E20E94580180E891E030DA80E080
:1020B0000E94580180E891E02ADA80E20E945801EB
:1020C00080E890E024DA80E00E94580180E890E007
:1020D0001EDA80E20E94580180E890E018DA80E081
:1020E0000E94580180E890E012DA80E20E945801D4
:1020F00080E890E00CDA80E00E94580180E098E0EF
:1021000014C0EC2FF0E0E75FFE4FD08186E90E941B
:102110005801C11110C0DA3250F4C4010197F1F72F
:1021200080E00E9458018D2F90E0F1D975CD81E0BB
:1021300090E0EDD9F5CF8D2F869590E0FACFD09134
:102140000801DD0FD73908F0D6E98D2F0E9458011C
:1021500085E090E0DCD9809108010E94580181E47B
:1021600090E0D5D9C15089F780ED92E0D0D980E0D8
:102170000E94580151CD25E0883D920751F480918D
:102180008B0112DA80911901811197CD88EE93E0CD
:10219000CCCFE5E0883F9E0721F48091890104DAE5
:1021A000F5CFF9E0843B9F07B9F480916E0181116E
:1021B00033CD80911A010E94580184E690E0A7D99E
:1021C00080E00E94580180910C0190E068EE73E07D
:1021D0001AD084569109A9CF8357964049F480E0DC
:1021E000FDD981E0FBD980E0F9D980ED97E09DCF62
:1021F00086B78F7986BF86B7806186BF889586B798
:102200008F7E86BF09CD0024552704C0080E591FB4
:10221000880F991F009729F076956795B8F3710597
:10222000B9F7802D952F0895991B79E004C0991F67
:10223000961708F0961B881F7A95C9F78095089520
:10224000AA1BBB1B51E107C0AA1FBB1FA617B707DC
:1022500010F0A61BB70B881F991F5A95A9F78095F8
:102260009095BC01CD01089597FB072E16F40094BC
:1022700006D077FD08D0E4DF07FC05D03EF490954A
:1022800081959F4F0895709561957F4F0895E199CD
:10229000FECF1FBA8EBBE09A99278DB30895262FE3
:1022A000E199FECF1FBA8EBBE09A81500DB20216A3
:1022B00039F01CBA2DBB0FB6F894E29AE19A0FBE22
:0622C0000895F894FFCF21
:1022C600060B180101010004412943030201070519
:1022D600787878010A0A78010101412D0702130175
:0422E60010010D01D5
:00000001FF
