:1000000022C100003DC100000C940A0F39C100005C
:1000100037C100000C94040F33C1000031C100004F
:100020002FC100002DC100002BC1000029C100001C
:1000300027C1000025C100000C94CB0E21C1000097
:100040001FC100001DC100001BC1000019C100003C
:1000500017C1000015C1000013C1000011C100004C
:100060000FC100000DC100000BC1000009C100005C
:10007000323032323035313430313333000105041F
:100080001410111500000000000000000000000026
:100090000000000000000000000000000000000060
:1000A0000000000000000000000000000000000050
:1000B0000000000000000000000000000000000040
:1000C0000000000000000000000000000000000030
:1000D0000000000000000000000000000000000020
:1000E00000030506080A0C0E10121417191B1E2017
:1000F0002326292C2F3235393C4043474B4F535749
:100100005C60656A6F74797F848A90969CA3A9B0BD
:10011000B7BEC5CDD5DDE5EDF6FF0000000000005F
:1001200000000000000000000000000000000000CF
:1001300000000000000000000000000000000000BF
:1001400000000000000000000000000000000000AF
:1001500000000000000000000C1015191E23292EBD
:10016000343A40474D545C636B737C858E97A1ACE9
:10017000B6C1CDD9E5F2FFFFFFFFFFFFFFFFFFFF95
:10018000FFFFFFFFFFFFFFFFFFFFFFFFFFFFFFFF7F
:10019000FFFFFFFFFFFFFFFFFFFFFFFFFFFFFFFF6F
:1001A000FFFFFFFFFFFFFFFFFFFFFFFFFFFFFF005E
:1001B000010102020303040505060708090A0B0CE6
:1001C0000D111213141516181A1C1E212326292C82
:1001D0002F3236393D41454A4F54595E646A717732
:1001E0007E868E969EA7B0BAC4CFDAE6F2FFFFFFF6
:1001F000FFFFFFFFFFFFFFFFFFFFFFFFFFFFFFFF0F
:10020000FFFFFFFFFFFFFFFFFFFFFFFFFFFFFFFFFE
:10021000FFFFFFFFFFFFFFFFFFFFFFFFFFFFFFFFEE
:10022000FFFFFFFFFFFFFFFFFFFFFFFFFFFFFFFFDE
:10023000FFFFFFFFFFFFFFFFFFFFFFFFFFFFFFFFCE
:10024000FFFFFFFFFF0011241FBECFEFD4E0DEBF92
:10025000CDBF11E0A0E0B1E0ECEDF6E202C0059008
:100260000D92AE34B107D9F721E0AEE4B1E001C0A0
:100270001D92A93FB207E1F70E94100F0C946C1376
:10028000BFCEF89498ED9FBD83BF78940895482F12
:10029000362F272FE6ECF1E090E080E050815111FD
:1002A0000BC063E070E00E940E13FC01EA53FE4FA6
:1002B00040833183228305C00196339680319105B6
:1002C00069F70895BC018091F801E1CF1092F8011F
:1002D0001092F7011092F60181E080937C0108955D
:1002E0000F931F93CF93C82F08EA17E0C15020F453
:1002F000CF911F910F91089582E0C3DFC80101974C
:10030000F1F780E0BEDFF2CF83B1886483B908954E
:100310008FB182FB882780F991E0892780939C0127
:100320000895E0910601F09107013196FB70F460A9
:10033000F0930701E0930601809198018B5A809316
:100340009801E491809198018E0F0895CF93DF93E7
:1003500000D00F92CDB7DEB72091490130914A010C
:1003600040914B0129833A834B83FE01319650E043
:1003700040E0682F70E0A1E0B0E09B01042E02C0D5
:10038000359527950A94E2F7922F937081919D01FC
:1003900001C0220F8A95EAF7992329F09130C1F024
:1003A00080B3822B19C080B32095822380BB82B397
:1003B000822382BB81B3282321BB4E5F5F4F46302F
:1003C0005105D9F60F900F900F90DF91CF910895BE
:1003D00090B3822F8095892380BB82B3822B82BB0E
:1003E00081B3282BE9CFCF93C82F80939A018093B4
:1003F000990180919B01811101C0A8DFC11110C03A
:1004000010926D0010926C0018BA10926B0010924E
:100410006A0080919A018830F0F482E0CF9131CF68
:10042000C1508C2F90E0FC01E055FE4FE491F0E0CC
:10043000F0936D00E0936C00FC01E65EFE4FE491EA
:10044000E8BB8C579F4FFC01849190E090936B0028
:1004500080936A00DECF823110F481E0DFCF80E04C
:10046000DDCFCF93DF9300D000D000D0CDB7DEB783
:10047000209177014091B4015091B501445B564001
:1004800009F422E0843059F46093780126960FB67F
:10049000F894DEBF0FBECDBFDF91CF9108956623E4
:1004A000A9F3823019F497E9961B692F96E0E0E2F0
:1004B000F1E0DE01119601900D929A95E1F78150DD
:1004C000990B880F991FA1E0B0E0AC0FBD1F8A0FF8
:1004D0009B1FDC01ED91FC91E20FF11D6083D6CFF3
:1004E000CF92DF92EF92FF920F931F93CF93DF9300
:1004F0009C0150917701E0911B0182E0E11101C064
:10050000852F90E0DC01AB5EBE4F4C91409319010A
:100510008E5E9E4FDC018C9180931801F0E0E15FCC
:10052000FE4FC181642F70E0552381F0C13071F41A
:10053000860F972F911D95958795DF91CF911F91EC
:100540000F91FF90EF90DF90CF9008952617370717
:100550009CF1821713068CF3511102C0822FEDCF4C
:10056000841B6C2F6150770B8B01E82EF12CC70197
:100570000E943F13609375016695E62FF0E0842F8B
:10058000D12CC12CD0E0DC17C1F2C601B8010E9409
:100590002B13842F860FA82FB0E0B9016A1B7B0BA9
:1005A00077FF03C0BD01621B730BCE0CDF1CE61787
:1005B000F7071CF6DF5FE7CF842FBFCF80937B0167
:1005C00012CF0F931F93CF93E82F862F9091B901ED
:1005D0002FEF290F2C3128F480E0CF911F910F913C
:1005E000B5CECE2FC295CF70EF7020919B01211117
:1005F00003C0C33008F0C2E0E73010F4F0E016C0EA
:10060000E73079F50091530110E00F5F1F4F89DE4D
:1006100065E00E941F139801290F311DC90166E092
:1006200070E00E943F1380935301FC01E358FF4F99
:10063000E491C33071F48091520190E0019663E13E
:1006400070E00E942B13809352018A5D9E4FDC0163
:10065000CC91CC2321F0C130C1F1CE2FCC0F8C2F07
:10066000BCCFE830A9F490919B016FE0911101C0DB
:1006700063E0862351F48091530190E0019666E097
:1006800070E00E943F1380935301E0915301B6CF75
:1006900020919B01222381F080E09D3118F4E0E05D
:1006A000C8CF8E5FE82FF0E0E75CFE4F2081921705
:1006B000C0F73197E081A2CF869563E00E941F13B7
:1006C000E92FF0E0EE0FFF1FB1CFCE2FC8CFCF93B1
:1006D000C0919A0189E18C0F873908F080E083DEB0
:1006E00082E0FEDD8C2FCF917ECECF93C0919A0118
:1006F00080E079DE83E0F4DD8C2FCF9174CE81E051
:100700000895611160931E010895662369F0813098
:1007100099F48091B6019091B701891B680F60939D
:10072000B60182E080931F0180911D01873418F08B
:1007300086E480931D010895635E60931D01F4CFEC
:100740006093700108950F931F93CF93DF9380916F
:10075000770180937D018091150180937E018091C6
:10076000120180937F0180910F018093800180911D
:100770001601809381018091130180938201809101
:1007800010018093830180911701809384018091EF
:1007900014018093850180911101809386018091DD
:1007A0001B0180938701809178018093880180915B
:1007B00076018093890180911A0180938A0180914A
:1007C0007A0180938B018091790180938C018091D3
:1007D0000B0180938D018091090180938E0180919E
:1007E0000A0180938F01809108018093900180918C
:1007F0000C018093910180911D0180939201809161
:10080000B6018093930180911E01809394018091A1
:100810000E018093950180910D0180939601809146
:10082000700180939701F8940DE711E0C1E8D0E0E2
:10083000F80161918F01CE010E945A132196CC39A3
:10084000D105B1F765EA80E890E00E945A137894E8
:10085000DF91CF911F910F9108951092C50130B192
:1008600081B120919801329536953695337090E09C
:10087000880F991F880F991F830F911D820F8093F6
:1008800098018091BA01882309F44EC01092BA01F0
:100890008091C30190919B01992319F01F981092A8
:1008A000C30181114AC080911F016091BB01709109
:1008B000BC01882341F06091BF017091C001709329
:1008C000BC016093BB01605F7F4FA6E076956795A2
:1008D000AA95E1F780E098E50E942B1380911E0114
:1008E0008350990B680F791F769567956093B901CE
:1008F00080916C018823C9F0815080936C018091B4
:100900009B01811108C08EE884B981E08093C30106
:100910001092C401F9DC80911F01882329F0809195
:100920001F01815080931F0108956D3140F770E0E1
:1009300060E084E0ACDC85E0E0CF813061F780915D
:100940001F0181115EC08091BD019091BE01409652
:10095000DC0145E0B695A7954A95E1F74091B601CF
:1009600056E0969587955A95E1F7042E000C550BA5
:100970009A012E503140820F931F9093B8018093BB
:10098000B70180915B01E82FF0E0EE0FFF1FE45A02
:10099000FE4F20813181BD01621B730B9B01B1832E
:1009A000A0838F5F877080935B01660F771F660F50
:1009B000771F6A0F7B1F80911D0190E0841B950BB0
:1009C000825F9E4F880F991F681B790B83E0161674
:1009D00017060CF045C0615071098150C1F7161619
:1009E00017060CF057C037FD74C080915A011816D5
:1009F000F4F5861B80935A018DE084B91092C301EF
:100A000087CF8091C1019091C2019093BE018093E4
:100A1000BD01409635E0969587953A95E1F790931C
:100A20005D0180935C0190935F0180935E019093E0
:100A300061018093600190936301809362019093C0
:100A400065018093640190936701809366019093A0
:100A500069018093680190936B0180936A0173CF61
:100A60006115710509F4B9CF6F5F7F4FB6CF660F7F
:100A7000771F653071055CF0635071097595679556
:100A800088E1861B80935A0185E001DCB5CF61E0E7
:100A900070E0F6CF6C3F8FEF7807DCF437FF19C0BA
:100AA00080915A0187FF02C08450A3CF84EE861B39
:100AB00080935A018091B9018F3108F49DCF8CEF5A
:100AC0009FEF9C01261B370BB9017595679586E052
:100AD000DCCF8091B9018E3108F48ECF70E060E0F8
:100AE00087E0D3CF813019F410927A0108958230D3
:100AF00019F4609379010895833019F460937601B5
:100B00000895843011F460931A010895FF920F93B1
:100B10001F93CF93DF938C01D62FC72FF42E809194
:100B2000B4019091B501892B31F0E091B401F091BD
:100B3000B50189E009951093B5010093B401012B2B
:100B400041F0E091B401F091B5016D2F7C2F8F2D14
:100B5000099581E080937C01DF91CF911F910F91E6
:100B6000FF9008952091A301283080F4E22FF0E057
:100B7000EE0FFF1FEC55FE4F808391832F5F209374
:100B8000A30148E0C3DF8091A30108958FEF08958A
:100B9000282FCB0130911B01311147C0283039F487
:100BA0001092740110927201109271010895213B0C
:100BB00059F48091740181508330B8F583E08093BB
:100BC0007401809373010895253BA1F46EE370E0F6
:100BD0000E942B13892B49F5809174018A3F28F5D7
:100BE0008B5F809374018093730110927201109255
:100BF00071016DCD2130C9F4809171019091720124
:100C0000019688382EE0920728F490937201809321
:100C10007101089510927201109271018091740116
:100C2000882319F08150809374010895EF92FF9208
:100C30001F93CF93DF931091C601111106C0DF916E
:100C4000CF911F91FF90EF900895E090C701F09031
:100C5000C801C091A301C1500C2E000CDD0BC7FDD3
:100C60000EC0FE01EE0FFF1FEC55FE4F0190F0810C
:100C7000E02DB701812F099521978111F0CFE6EC86
:100C8000F1E083818083848195819283818333968F
:100C900081E0E33FF807A9F71092F3011092F50104
:100CA0001092F401C8CF8091A301882319F08150DC
:100CB0008093A301E091A30190E080E0EE2341F056
:100CC000E150FF0BEE0FFF1FEC55FE4F808191812D
:100CD0004AE070E060E01ACF582FCB01F90158309C
:100CE00089F41092550180E07EDB80919C01811196
:100CF0001DC081E08093550170E060E088EC96E0D3
:100D000031DF14C0252F207F203BB9F420915501FD
:100D1000421788F06DE570E00E942B13029741F4B2
:100D20002F5F2093550188E3421718F480E008955F
:100D300082E159DBFBCF80E0FCCF203E41F4809183
:100D40005501882311F04817B8F6ADDFEFCF5A30C0
:100D500069F760916D01809155010995F4DCF5CF3B
:100D600021E332E043E0B8CF21E332E044E0B4CF06
:100D700022E735E044E0B0CF21E833E041E0ACCFFA
:100D800025E833E042E0A8CF20EA33E041E0A4CFF9
:100D9000883039F410926D011092540180E023DB09
:100DA0000CC08130F9F490915401911108C0603267
:100DB000710518F08093540189DA80E0089591302C
:100DC00079F46B3B710520F082E080935401E6CF0B
:100DD0006115710591F3862F880F84708E5EDFCFC9
:100DE00062DFEBCF813811F0813E39F791E09093CB
:100DF0005401813E41F480916D01865F80936D01C5
:100E000065DA8BE4CCCF80916D018F5FF7CF0F93C4
:100E10001F93CF93DF93D82FC92F8B0144DFB801E5
:100E20008D2F9C2FDF91CF911F910F919BCECF9350
:100E3000C0911B01C11119C0813C41F470E060E018
:100E400089E897E0E4DF8C2FCF910895823C29F464
:100E500070E060E087E397E0F5CF873B31F470E026
:100E600060E08CEB96E07EDEEECFC1E0ECCF813C23
:100E700039F470E060E089E897E0C9DF80E0089528
:100E8000823C29F470E060E080EF9AE0F6CF873B87
:100E900031F470E060E080EC96E064DEEFCF81E05A
:100EA0000895813C39F470E060E089E897E0AFDFB5
:100EB00080E00895823C29F470E060E087E197E0EB
:100EC000F6CF81E00895843011F58091B4019091BE
:100ED000B5012DE08430920731F469E170E087E8D4
:100EE00098E095DF0DC08758984061F490919A0181
:100EF000923040F0892F869596959695890F5EDB06
:100F000080E0089570E060E089E897E0EACF81E052
:100F100008950F931F93CF938B018830A1F480E045
:100F200062DA60E080910E014CDB10927401012BBB
:100F300031F0C0E08C2FCF911F910F91089581E087
:100F400080939B01F6CF813049F46931710588F3B4
:100F500080939B0180910E0134DBEBCF833029F528
:100F600020917A01222361F08091790190E062EC76
:100F700071E00E940E130817190710F020931C014E
:100F8000602F80910E011DDB80917001882389F212
:100F900090E062EC71E00E940E138017910748F612
:100FA00070E060E089E19BE016C0813BB1F481E034
:100FB00090E096DA18DA809176018111BACF8091AB
:100FC0007701811104C00831110508F4B2CF61E046
:100FD00070E087E898E01BDFACCF813EC1F3813839
:100FE00031F480911C0190E07BDAFDD9A2CF6091B1
:100FF0009A0170E0813C69F3823B71F480911A019F
:1010000090911B01911180917801811103C086E9B3
:1010100090E0EACF86E9E9CF823E11F480E0E5CFA7
:1010200066E970E0823CA9F28339C1F3833C29F47C
:1010300070E060E087E197E0CECF843C11F447DBBD
:10104000AFCF8F3C29F470E060E08FE793E0C3CF2F
:10105000C0911B018A3B81F4012B09F056C0CC23BF
:1010600029F035DB10921B016EDB63CF70E060E08E
:1010700084EB96E077DD5ECFC11147C08A3C31F446
:1010800026DB81E080931B015EDB54CF833B31F490
:1010900070E060E084E09DE0BADE4CCF853C31F446
:1010A00016DB70E060E083E89EE0F6CF873C91F4C9
:1010B00090910E01892F82958F708F5F837082953A
:1010C000807F9F70892B80930E0160E07ADA3BDB92
:1010D000FEDA30CF873BB1F4C8018F739927892B93
:1010E00061F420910E01822F8F708F5F207F6BE063
:1010F0000E941F13922B90930E01602F80910E017E
:1011000060DA18CF873E09F4BFCFC1E013CF9F92BA
:10111000AF92BF92CF92DF92EF92FF920F931F9305
:10112000CF93DF93C82F8B01A0901901E090180195
:10113000B0907701D0907501B11002C0DD24D39436
:10114000C0901A01D0911B01D111C0907801CC2020
:1011500009F441C041E0C41621F080911C018E15B4
:10116000D0F1A6E9FA2E90907401B8018C2F10DD11
:1011700060917401662309F42AC2911004C0809121
:101180009A01809358018C2F8D7F883031F5109211
:101190006F01CA3019F400911C0110E0A01611066D
:1011A00030F4E016110619F010F000931C01C8018C
:1011B00097D904DA81E080930501D0E08D2FDF918B
:1011C000CF911F910F91FF90EF90DF90CF90BF9044
:1011D000AF909F900895FE2CC6CFC13C09F4FAC190
:1011E000C23C71F480919A018F1538F48F2DE6D9A5
:1011F00080919A0180935801E0CF80911C01F7CF34
:10120000C43C39F480E0EFD870E060E089E19BE015
:10121000E5C18FE48C0F823008F052C060910F015D
:1012200070E0C801BB2011F068E170E00E942B1350
:10123000892B19F620919A010115110519F5C23B68
:10124000D9F48FEF80930501D0919A018091050127
:101250006D2D70E0082E000C990B0E940E138D0F5F
:10126000911D3ED9C82F80931C01D81719F08E11FB
:1012700001C03BDA8C2FBBCF2E1518F7A21620F336
:1012800081E0E0CFE0910F01F0E0CF0166E371E093
:101290000E940E138017910710F42E1590F6CF01BF
:1012A0006CE672E00E940E138017910768F6A21692
:1012B00058F20DDA70E060E089E19BE0A8DDC4CF70
:1012C0008FE18C0F823020F480910501819573CFDE
:1012D000C13009F0F1C00932110511F4C0930501C4
:1012E000662399F0809158016150770B90E00E943D
:1012F0000E136091730170E00E943F13611101C0F1
:1013000061E06093990160937B01809199019091D4
:101310009A01E82FE91BFF0B9F0160915601709124
:1013200057016F5F7F4F709357016093560130975D
:1013300009F443CF40E052E0F7FF06C040E450E03C
:10134000933810F440E051E05695479537FF02C0BE
:101350002F5F3F4F3595279521153105A9F7461782
:10136000570708F02ACF891708F068C08FEF890F58
:10137000AFEFA80F2A2F30E0B90160557E4FFB0177
:101380004491A91708F05FC0E0916C00F0916D00E6
:10139000EF2B09F058C04F3F09F055C04FEF50E018
:1013A00050936D0040936C00A901465E5E4FFA01B8
:1013B0009491E0919A01AE1708F063C0E8B3E1118F
:1013C00060C09F3F09F05DC098BB2C573F4FF901AB
:1013D0009491A0916A00B0916B00E92FF0E0AE17F4
:1013E000BF0708F05BC0E0916A00F0916B00319696
:1013F000F0936B00E0936A00A0916C00B0916D00D7
:10140000FB0164916A171B06A1F498B3FA01449199
:1014100094130FC040916A0050916B00F901249120
:101420002417150631F4C09199010E94F301C0936D
:1014300099011092570110925601BFCE981708F0EB
:1014400097CF81E094CFE0916C00F0916D0050E077
:10145000E417F50738F440916C0050916D004F5F30
:101460005F4F9ECFE0916C00F0916D004E175F07CB
:1014700008F09ACF40916C0050916D004150510995
:101480008FCFE8B3E91718F498B39F5F9DCFE8B307
:101490009E1708F09ACF98B3915096CFA0916A000A
:1014A000B0916B00EA17FB0708F0A6CFE0916A0045
:1014B000F0916B0031979CCFC530A9F480919A01CF
:1014C0008F3308F47ACE90E0801B910B282F8E3357
:1014D00091053CF08739910508F026E920939901A0
:1014E0006CCE2EE3FBCFC630B1F490919A0180917F
:1014F0007B01981708F061CE090F111D90E080174D
:10150000910734F0C8010E33110514F48EE390E016
:101510008093990152CEC73069F4909199018091DE
:101520009A01891710F48F5FF3CF981708F045CE12
:101530008150EECFD11149C0C33CA1F481E0B1107C
:1015400080E080937701FFD8D0D880919A0190E015
:101550000E94700280931C0131D880919A0180937F
:1015600058012CCEC33B51F4012B09F026CECC20E0
:1015700011F086E9F82E8F2D21D820CEC33E19F424
:1015800080911C01F9CFC53C49F480E00E94F30131
:1015900070E060E083E89EE03ADC10CE70E060E04E
:1015A00080EB96E0C73B79F0CA3C39F480919A0110
:1015B00080937A01C8D88BD801CECA3B31F470E051
:1015C00060E088EB96E0CEDAF9CDD1E0F7CD992056
:1015D00009F4D9CD70E060E089E897E018DCEDCD42
:1015E000282FCB01213C39F470E060E089E897E0D6
:1015F0000EDC80E00895223C29F470E060E081E593
:1016000097E0F6CF213B41F46EE370E00E942B138C
:10161000892B79F75CD8EDCF213E49F46EE370E079
:101620000E942B136F5F60930C018DD8E2CF81E095
:1016300008950F931F93CF93DF93C82F8B01873BA0
:1016400081F480E00E94F301D0911B01D1119DC073
:10165000CA3B09F066C070E060E084EC96E082DA94
:1016600049C080798039F9F49091150120911601D3
:101670008C2F8F70823049F480917A01811108C0DB
:10168000822F291728F4892F03C0822F9217D8F3AD
:101690000E94F301C33C01F51AD870E060E089E8CC
:1016A00097E0B5DB17C0803811F480E0F1CFC83087
:1016B00009F06DC060E080910D010E94E102C4CF8D
:1016C0000931110538F0C0939B01602F80910D0105
:1016D0000E94E102D0E00EC0C43C91F4D0917A01A6
:1016E0006D2F70E0D11114C060911C0170E087E88B
:1016F00098E08DDB8D2FDF91CF911F910F91089591
:10170000C43B49F40E9475031092F80161E070E057
:1017100087E898E0C6CFC53C09F096CF66E970E04F
:10172000F7CFC73CA9F490910D01892F82958F7056
:101730008F5F83708295807F9F70892B80930D01CE
:1017400060E00E94E1020E94A3030E946703D2CFDF
:10175000C73BB1F4C8018F739927892B59F42091A5
:101760000D01822F8F708F5F207F6BE068D7922BE7
:1017700090930D01602F80910D010E94E102BACF7C
:10178000C73E19F40E94A303B5CFD1E0B3CFC13057
:1017900009F496CFC33009F498CF7CCF8DE084B99B
:1017A0001092C3011092C4010E948401139A87EE23
:1017B00083B908950F931F93CF9310929E01809148
:1017C000F6019091F7019C012F5F3F4F8827907899
:1017D000822B932B9093F7018093F601C0919C018B
:1017E0000E948801C817B9F010929B0180939C0158
:1017F0009091F8018823B1F1892F80699F709F3003
:1018000079F58093F80190E080E00E9462011092E7
:10181000F7011092F6010091F6011091F701809105
:101820009B01882369F1B80183E00E944701FED93A
:101830000F731127012B81F410925901AFDFC09172
:101840005901C11105C00E94840181E08093BA0151
:10185000CF5FCF71C0935901CF911F910F91089520
:101860008F5FCFCF892F8F7E95FD08C080688093D2
:10187000F8018091F6019091F701C7CF806CF7CF06
:10188000C091F8018C2F807F803B49F470E060E0CC
:1018900081E00E944701C8010E946201D0CFB801D7
:1018A00081E00E944701C4FF0FC0C5FDF4CF08319D
:1018B000110528F21092F7011092F601C062C09350
:1018C000F80190E080E0E8CFCC2309F4B8CFC5FF61
:1018D00003C00E946601B3CF0231110508F4AFCFF7
:1018E000C064C093F80190E080E00E946201F1CFF3
:1018F0008091C50181110E942D0480919E0181116A
:1019000059CF0895EF92FF920F931F93CF93DF93D8
:10191000EC0108E017E082ECE82EFF24F394209716
:1019200039F4DF91CF911F910F91FF90EF900895BF
:1019300080917C018111F5CF80919A01883068F403
:1019400082E00E944101C7010197F1F780E00E9407
:101950004101CEDF6BD92197E2CF80E00E944101A7
:10196000C801F2CF0F931F93CF93C82F06EA8111BE
:1019700002C008E0C1E010E089E10E94F301C80163
:10198000C1DF80E00E94F3018AEF90E0BBDFC1502D
:1019900099F78AE992E0CF911F910F91B3CFCF933E
:1019A000DF93282F64E64BD6382FC92F892F6AE0A2
:1019B00046D6D92F243650F0832FD4DF8C2F6AE0FF
:1019C0003ED6D0DF8D2FDF91CF91CCCFCA30B0F78C
:1019D000F9CFCF93DF93D82FC3E080911C010E94F1
:1019E000F30188EC90E08EDFDD2319F080E991E0CF
:1019F00089DF80E00E94F30188EC90E083DFC15032
:101A000061F7DF91CF910895DF92EF92FF920F93EC
:101A10001F93CF93DF93D82F8B01C0910B0181E0EF
:101A200080936F01C33079F4F09074018D2FB0D89A
:101A3000FF20A1F080917401811110C070E060E07E
:101A400089E897E0E4D9D83071F0D13C09F002C1BF
:101A500070E060E089E897E0DAD908C0D83041F456
:101A600081E08093030181E08093040180E040C124
:101A7000D23C69F4109274018C2F90E0019666E0DC
:101A800070E0FDD580930B010E94A303EFCFD13B03
:101A9000C1F480910201012B41F49FEF8E3618F4BE
:101AA000823018F491E09093030190910301890F23
:101AB00021F481E080930201D9CF8F36D8F38EE6EE
:101AC000F9CFD13E59F480910301819580930301B0
:101AD00080910401819580930401D6CFD23BE1F43B
:101AE00081E08093030180910201823018F08150DF
:101AF0008093020181E080930401C23008F0EBC0C2
:101B000000FDB4CFEC2FF0E0E75FFE4F80818F3F08
:101B100009F4ACCF8F5FB5C0D13009F0F1C0093204
:101B2000110511F4D0930301D09051018D2D880F30
:101B3000D7FC809590E067E070E070D5292FE090A9
:101B400050018E2D880FE7FC8095D09101016D2FFB
:101B500070E090E063D5290FF0904F018F2D880F32
:101B6000F7FC8095C09100016C2F70E090E056D595
:101B7000622F690F80910201680F7727771F80918C
:101B80007401813091F4809171019091720125E08E
:101B9000969587952A95E1F724E730E0A901481B3F
:101BA000590BCA013BD5B90156D5862F0E94F301C6
:101BB00000FD06C00E94910181708D0D809351013E
:101BC00080914E018E0D809350010E94910165E23B
:101BD00036D59F0D90934F010E9491018F7331F480
:101BE0000E9491016DE02BD590934E01DD2339F0D9
:101BF0000E9491018F7319F4D150D09301010E947A
:101C00009101811108C00E9491016BE018D5909359
:101C1000010110925001C33038F00E9491018F7180
:101C200019F4C150C09300010E9491018F7731F4E3
:101C30000E94910166E003D59093000109321105DD
:101C400019F481E08093040180919801080F0093BA
:101C500098010CCFD23C09F40FCFD13B51F5C230E3
:101C600090F400FD03CFEC2FF0E0E75FFE4F8081A2
:101C700090910401891B8F3F08F08EEF883008F4A3
:101C800088E08083F3CEC43009F0F0CE8091080163
:101C900090910401890F823040F482E08093080122
:101CA000809108010E94F301E1CE8937B8F388E7FB
:101CB000F5CFD13E09F40CCFD23B09F41BCFD23E75
:101CC00009F4E2CED53C81F470E060E083E89EE068
:101CD0009ED880E0E7CFC43009F0C8CE80910801DB
:101CE0008330F0F28150DACF81E0D13009F4A6CF11
:101CF000DF91CF911F910F91FF90EF90DF900895AA
:101D0000D13CE9F6A5CE0F931F93CF93DF93D82F45
:101D10008B01883031F480916F01813011F488E0BB
:101D200073DE8D2F8079803999F481E080936E0184
:101D3000C0916F01CC2311F0C0E004C080911C0160
:101D40000E94F3018C2FDF91CF911F910F91089585
:101D5000803831F410926E0180E00E94F301ECCFE4
:101D6000C1E0D13079F7C0916E01CC2351F0809160
:101D70006F01813009F7B801DF91CF911F910F9169
:101D800043CE07331140C0F2D0939B0160E080E066
:101D90000E94E102D7CF2F932FB72F933F938F93BA
:101DA0009F93AF93BF93EF93FF938091C4018823D8
:101DB000E9F0E091C30120B131B1F0E0EE0FFF1F77
:101DC000DF01A154BE4F2D933C93E554FE4F80811B
:101DD00091818217930708F401962817390708F4B0
:101DE00001979183808381E08093C50181E0809396
:101DF000C401FF91EF91BF91AF919F918F913F915E
:101E00002F912FBF2F9118958F9381E080939E0182
:101E10008F9118958F9381E080939D018F911895F4
:101E2000F89485B7877F85BF90E088ED0FB6F8946A
:101E3000A8958FBD90B7977F90BF0FBE88E780BBF6
:101E400088E08CB981E088B991EA90937200809320
:101E5000710091E89BBB8ABB84E082BB87BD8CB7D5
:101E600088608CBFA89580E480BF98DC789481E07E
:101E70000E94700170E060E083E697E00E94B20586
:101E800010927C010E9467030E948801811182C028
:101E9000F89480E890E006D4853A09F0AAC00DE7EE
:101EA00011E0C1E8D0E0CE01FDD3F80181938F01AC
:101EB0002196CC39D105B9F7789480917D01809332
:101EC000770180917E018093150180917F0180933D
:101ED00012018091800180930F0180918101809394
:101EE0001601809182018093130180918301809378
:101EF0001001809184018093170180918501809366
:101F00001401809186018093110180918701809353
:101F10001B018091880180937801809189018093D1
:101F2000760180918A0180931A0180918B018093C0
:101F30007A0180918C018093790180918D01809349
:101F40000B0180918E018093090180918F01809314
:101F50000A01809190018093080180919101809302
:101F60000C018091920180931D01809193018093D7
:101F7000B6018091940180931E0180919501809318
:101F80000E018091960180930D01809197018093BD
:101F9000700130C0C0E08C2F0E94F30183E190E01B
:101FA000B1DC8C2F86950E94F30183E190E0AADCDE
:101FB0000E9488018823D1F0CF5FC03461F765E1CA
:101FC00081E00E9485030E94A303C6E98C2F0E9432
:101FD000F30184E090E096DCC150C1F759CF8C2F1B
:101FE0000E94F3018DE090E08DDCC150C111F7CF6C
:101FF0004FCF789480917A01811180931C0161E028
:1020000070E089E897E00E94B20543E4242E52E094
:10201000352E60E4462E772473947CEF872E73E090
:10202000972E512C612CE9E8CE2EE7E0DE2E0E949F
:1020300016068091A1019091A201009751F0609144
:102040009F017091A0010E9407071092A2011092B7
:10205000A10180919B01882309F180E00E94F30196
:10206000A89520BE1F980E9488018111FCCF0E9474
:1020700066018CB788608CBF1092C50110929E01DA
:1020800010929D0180919B0181112BC030921F0104
:102090008CB7877F8CBF82DBA89540BE29DC10926D
:1020A0007C018091B4019091B501F3E08F379F07D7
:1020B00009F038C0C0E7D0E0FE018491805352DCC3
:1020C0008CE291E01FDC2196F0E0CC37DF07A1F72E
:1020D000D092A201C092A1011092A00110929F0182
:1020E000A6CF86B78F79806486BF86B7806186BFAA
:1020F000889586B78F7E86BF80919D018111109251
:102100009B018091C501882331F070921F0170926C
:10211000BA010E942D0480919E01882309F4B2CF58
:1021200049DBB0CF2DE08430920779F0EEE08338C0
:102130009E0709F02BC280916F01813009F063C2C4
:1021400080916E01882309F45EC2C0910B01C430F6
:1021500009F400C208F075C0C23008F4DDC1C23015
:1021600009F065CF0E9491018F73082F10E00E9443
:10217000910167E064D2C1E0D0E07E0102C0EE0CC4
:10218000FF1C9A95E2F70E94910165E058D202C0C7
:10219000CC0FDD1F9A95E2F7CE0DDF1D0E94910155
:1021A00090E0BE016CD2C80FD91FC739D10524F009
:1021B000F6E9CF2F20E0D22F8C2F0E94F301C80127
:1021C000A1DB7E0133E0F594E7943A95E1F7E11065
:1021D00002C0EE24E394F12CC80194DB5E01AE183A
:1021E000BF08E501B7FE02C0C52DD62D8C2F0E9479
:1021F000F3010E949101837039F4C80183DBCE01A1
:10220000959587950E94F301F2E0AF16B10424F78B
:102210000E9491016DE013D201E010E002C0000FB6
:10222000111F9A95E2F70E949101E801219790E031
:10223000C823D923C00FD11F80E00E94F301CE0133
:102240007FC1C53009F0F3CE80E20E94F30180E83F
:1022500090E058DB80E00E94F30180E890E052DBE0
:1022600080E20E94F30180E891E04CDB80E00E9474
:10227000F30180E890E046DB80E20E94F30180E811
:1022800091E040DB80E00E94F30180E890E03ADBDF
:1022900080E20E94F30180E891E034DB80E00E945C
:1022A000F30180E891E02EDB80E20E94F30180E8F8
:1022B00090E028DB80E00E94F30180E890E022DBE0
:1022C00080E20E94F30180E890E01CDB80E00E9445
:1022D000F30180E891E016DB80E20E94F30180E8E0
:1022E00091E010DB80E00E94F30180E890E00ADBDF
:1022F00080E20E94F30180E891E004DB80E00E942C
:10230000F30180E891E0FEDA80E20E94F30180E8C8
:1023100091E0F8DA80E00E94F30180E890E0F2DAE0
:1023200080E20E94F30180E891E0ECDA80E00E9414
:10233000F30180E891E0E6DA80E20E94F30180E8B0
:1023400091E0E0DA80E00E94F30180E890E0DADAE0
:1023500080E20E94F30180E890E0D4DA80E00E94FD
:10236000F30180E890E0CEDA80E20E94F30180E899
:1023700091E0C8DA80E00E94F30180E890E0C2DAE0
:1023800080E20E94F30180E891E0BCDA80E00E94E4
:10239000F30180E893E0B6DA80E20E94F30180E87E
:1023A00090E0B0DA80E00E94F30180E890E0AADAE1
:1023B00080E20E94F30180E890E0A4DA80E00E94CD
:1023C000F30180E890E09EDA80E20E94F30180E869
:1023D00090E098DA80E00E94F30180E891E092DAE0
:1023E00080E20E94F30180E890E08CDA80E00E94B5
:1023F000F30180E890E086DA80E20E94F30180E851
:1024000090E080DA80E00E94F30180E890E07ADAE0
:1024100080E20E94F30180E891E074DA80E00E949B
:10242000F30180E891E06EDA80E20E94F30180E837
:1024300091E068DA80E00E94F30180E890E062DADF
:1024400080E20E94F30180E890E05CDA80E00E9484
:10245000F30180E890E056DA80E20E94F30180E820
:1024600091E050DA80E00E94F30180E890E04ADADF
:1024700080E20E94F30180E890E044DA80E00E946C
:10248000F30180E891E03EDA80E20E94F30180E807
:1024900091E038DA80E00E94F30180E890E032DADF
:1024A00080E20E94F30180E890E02CDA80E00E9454
:1024B000F30180E890E026DA80E20E94F30180E8F0
:1024C00091E020DA80E00E94F30180E891E01ADADE
:1024D00080E20E94F30180E890E014DA80E00E943C
:1024E000F30180E890E00EDA80E20E94F30180E8D8
:1024F00090E008DA80E00E94F30180E890E002DAE0
:1025000080E20E94F30180E890E0FCD980E00E9424
:10251000F30180E098E014C0EC2FF0E0E75FFE4F9D
:10252000D08186E90E94F301C11110C0DA3250F463
:10253000C4010197F1F780E00E94F3018D2F90E034
:10254000E1D975CD81E090E0DDD9F5CF8D2F86956D
:1025500090E0FACFD0910801DD0FD73908F0D6E925
:102560008D2F0E94F30185E090E0CCD98091080185
:102570000E94F30181E490E0C5D9C15089F780ED54
:1025800092E0C0D980E00E94F30151CD27E087316D
:10259000920751F48091B90102DA80911B018111F7
:1025A00097CD88EE93E0CCCFE7E087339E0721F408
:1025B0008091B701F4D9F5CFFAE0803F9F07B9F4D5
:1025C00080919C01811133CD80911C010E94F30107
:1025D00084E690E097D980E00E94F30180910C019D
:1025E00090E068EE73E01AD084569109A9CF815526
:1025F000974049F480E0EDD981E0EBD980E0E9D95A
:1026000080ED97E09DCF86B78F7986BF86B78061D2
:1026100086BF889586B78F7E86BF09CD0024552753
:1026200004C0080E591F880F991F009729F076954E
:102630006795B8F37105B9F7802D952F0895991B0B
:1026400079E004C0991F961708F0961B881F7A95A9
:10265000C9F780950895AA1BBB1B51E107C0AA1FAB
:10266000BB1FA617B70710F0A61BB70B881F991F33
:102670005A95A9F780959095BC01CD01089597FBD7
:10268000072E16F4009406D077FD08D0E4DF07FC8F
:1026900005D03EF4909581959F4F08957095619572
:1026A0007F4F0895E199FECF1FBA8EBBE09A99271C
:1026B0008DB30895262FE199FECF1FBA8EBBE09A05
:1026C00081500DB2021639F01CBA2DBB0FB6F8942A
:0C26D000E29AE19A0FBE0895F894FFCF43
:1026DC00060B1801010100043E29430302371801BF
:1026EC000705828276011414820101013E2D070236
:1026FC00150112010F010201000000000000000191
:10270C000000000000000000010000210123022550
:0E271C0003270429052C06FF06050403000010
:00000001FF
