:10000000ABC0C5C0FECCC3C0C2C0C1C0C0C0BFC0B1
:10001000B9CCBDC0BCC0BBC0EECCB9C0B8C03230DA
:1000200032323035313430353331000000000000D9
:1000300000000000000000000000000000000000C0
:1000400000000000000000000000000000000000B0
:10005000000000000000000000000000000000019F
:100060000202030405060708090A0B0C0E0F101103
:100070001214151618191B1C1E1F21232426282AAA
:100080002B2D2F31333537393B3E40424447494BC6
:100090004E505356585B5E606366696C6F7275783C
:1000A0007C7F8286898C9094979B9FA2A6AAAEB2F1
:1000B000B6BABEC3C7CBD0D4D9DDE2E7EBF0F5FAD0
:1000C000FF010202030405060708090B0D0E1012BA
:1000D00015171A1C1F2326292D31353A3F43494E47
:1000E000545A60666D747C838B939CA5AEB8C2CC69
:1000F000D7E2EDF9FFFFFFFFFFFFFFFFFFFFFFFF6D
:10010000FFFFFFFFFFFFFFFFFFFFFFFFFFFFFFFFFF
:10011000FFFFFFFFFFFFFFFFFFFFFFFFFFFFFFFFEF
:10012000FFFFFFFFFFFFFFFFFFFFFFFFFFFFFFFFDF
:10013000FFFFFFFFFFFFFFFFFFFFFFFFFFFFFFFFCF
:10014000FFFFFFFFFFFFFFFFFFFFFFFFFFFFFFFFBF
:10015000FFFFFFFFFFFF000011241FBECFE5D2E02D
:10016000DEBFCDBF10E0A0E6B0E0E6ECFFE102C0EC
:1001700005900D92A639B107D9F721E0A6E9B0E0C4
:1001800001C01D92AE33B207E1F741DC1ACF38CF80
:10019000482F362F272FEBE0F1E090E080E05081F0
:1001A00051110AC063E070E0AEDEFC01E55FFE4F76
:1001B00040833183228305C00196339680319105B7
:1001C00071F70895BC0180913D01E2CF10923D018D
:1001D00010923C0110923B0181E08093C20008958F
:1001E00090E822E048EA57E030E0815008F40895B2
:1001F0000FB6F89496BD26BD0FBEFA013197F1F700
:100200000FB6F89496BD36BD0FBEEFCF86B18864A9
:1002100086B9089586B383FB882780F991E0892702
:100220008093E1000895E0916600F09167003196B7
:10023000FB70F460F0936700E09366008091DD004E
:100240008B5A8093DD00E4918091DD008E0F08953C
:10025000CF93DF9300D000D000D0CDB7DEB7209190
:10026000BD004091F9005091FA004157554009F402
:1002700022E0843059F46093BE0026960FB6F894BD
:10028000DEBF0FBECDBFDF91CF9108956623A9F3E6
:10029000823019F497E9961B692F96E0EFE7F0E0BA
:1002A000DE01119601900D929A95E1F78150990B1C
:1002B000880F991FA1E0B0E0AC0FBD1F8A0F9B1FF4
:1002C000DC01ED91FC91E20FF11D6083D6CFCF925E
:1002D000DF92EF92FF920F931F93CF93DF939C01D6
:1002E0005091BD00E0917A0082E0E11101C0852FBC
:1002F00090E0DC01AC58BF4F4C91409378008F5890
:100300009F4FDC018C9180937700F0E0E259FF4F22
:10031000C181642F70E0552381F0C13071F4860FE4
:10032000972F911D95958795DF91CF911F910F91F3
:10033000FF90EF90DF90CF900895261737078CF14C
:10034000821713068CF3511102C0822FEDCF841B4C
:100350006C2F6150770B8B01E82EF12CC70104DE66
:100360006093BB006695E62FF0E0842FD12CC12C62
:10037000D0E0DC17C9F2C601B801E2DD842F860F98
:10038000A82FB0E0B9016A1B7B0B77FF03C0BD014A
:10039000621B730BCE0CDF1CE617F7072CF6DF5F32
:1003A000E8CF842FC1CF81E00895611160937D0073
:1003B0000895662369F0813099F48091FB00909153
:1003C000FC00891B680F6093FB0082E080937E0035
:1003D00080917C00873418F086E480937C00089537
:1003E000635E60937C00F4CF6093B60008950F9332
:1003F0001F93CF93DF938091BD008093C3008091C2
:1004000074008093C400809171008093C500809136
:100410006E008093C600809175008093C700809124
:1004200072008093C80080916F008093C900809112
:1004300076008093CA00809173008093CB008091F6
:1004400070008093CC0080917A008093CD008091E1
:10045000BE008093CE008091BC008093CF0080913D
:1004600079008093D0008091C0008093D10080916A
:10047000BF008093D20080916B008093D300809165
:1004800069008093D40080916A008093D5008091A8
:1004900068008093D60080916C008093D700809193
:1004A0007C008093D8008091FB008093D9008091DC
:1004B0007D008093DA0080916D008093DB00809155
:1004C000B6008093DC00F89403EC10E0C1E0D1E0CA
:1004D000F80161918F01CE0162DD2196CB31F1E00F
:1004E000DF07B1F765EA80E091E059DD7894DF91AC
:1004F000CF911F910F91089510920A0134B185B1E7
:100500002091DD00329536953695337090E0880F56
:10051000991F880F991F830F911D820F8093DD0013
:100520008091FF00882309F44BC01092FF00809156
:1005300008019091E000992319F037981092080172
:10054000811147C080917E0060910001709101018E
:10055000882341F0609104017091050170930101BD
:1005600060930001605F7F4F86E0769567958A957E
:10057000E1F780E098E5E4DC80917D00680F711D73
:10058000769567956093FE008091B2008823C9F04C
:1005900081508093B2008091E000811108C08FEA01
:1005A00087B981E080930801109209012FDE8091C4
:1005B0007E00882329F080917E00815080937E0008
:1005C00008956D3140F770E060E084E0E1DD85E0A2
:1005D000E0CF813061F780917E0081115FC0809112
:1005E00002019091030140969C0145E036952795C4
:1005F0004A95E1F7E091FB0056E0969587955A956C
:10060000E1F70E2E000CFF0BAF0143515140840F58
:10061000951F9093FD008093FC008091A100A82F6E
:10062000B0E0AA0FBB1FAE55BF4F4D915C91119723
:10063000B901641B750BAB012D933C938F5F8770E1
:100640008093A100660F771F660F771F80917C0053
:1006500090E08D5E9E4F8E1B9F0B880F991F681B2D
:10066000790B620F731F83E0161617060CF045C056
:10067000615071098150C1F7161617060CF05AC067
:1006800057FD77C08091A0001816F4F5861B809363
:10069000A0008CE287B91092080186CF80910601F4
:1006A000909107019093030180930201409635E0F9
:1006B000969587953A95E1F79093A3008093A200D1
:1006C0009093A5008093A4009093A7008093A60028
:1006D0009093A9008093A8009093AB008093AA0008
:1006E0009093AD008093AC009093AF008093AE00E8
:1006F0009093B1008093B00072CF6115710509F439
:10070000B9CF6F5F7F4FB6CF660F771F6B30710524
:1007100074F06350710993E0759567959A95E1F7C8
:1007200088E1861B8093A00085E032DDB2CF61E0D6
:1007300070E0F6CF6C3F8FEF7807DCF457FF19C0FD
:100740008091A00087FF02C08450A0CF84EE861B5A
:100750008093A0008091FE008F3108F49ACF8CEF37
:100760009FEF9C01261B370BB9017595679586E0B5
:10077000DCCF8091FE008E3108F48BCF70E060E01A
:1007800087E0D3CF882321F0813029F0BA9A04C0C2
:10079000BA98C2980895BA98C29A0895CF93C82F6C
:1007A0008093DF008093DE008091E00081110AC019
:1007B00091E0C11101C090E081E0CF3208F480E007
:1007C000890FE0DFC1110FC01BBC19BC8091DF0095
:1007D0008A30B8F480E892E00FB6F89486BD96BDF2
:1007E0000FBECF910895C1508C2F90E0FC01EF53C4
:1007F000FF4FE491EBBD855D9F4FFC01849189BD66
:10080000E5CF843118F480E891E0E6CF80E890E00D
:10081000E3CF8093C100C2CFCF93C091DF0089E1C5
:100820008C0F873908F080E0B9DF82E0D9DC8C2FAB
:10083000CF91B4CFCF93C091DF0080E0AFDF83E0F2
:10084000CFDC8C2FCF91AACF813019F41092C00049
:100850000895823019F46093BF000895833019F42D
:100860006093BC000895843011F46093790008957A
:10087000E82F8091FE008D3110F480E083CFEF707F
:10088000F0E0EB57FF4F8081F9CFFF920F931F935A
:10089000CF93DF938C01D62FC72FF42E8091F900D0
:1008A0009091FA00892B31F0E091F900F091FA0073
:1008B00089E009951093FA000093F900012B41F0AB
:1008C000E091F900F091FA006D2F7C2F8F2D0995A2
:1008D00081E08093C200DF91CF911F910F91FF9033
:1008E00008952091E800283080F4E22FF0E0EE0F28
:1008F000FF1FE751FF4F808391832F5F2093E80014
:1009000048E0C3DF8091E80008958FEF0895282F15
:10091000CB0130917A00311146C0283039F4109261
:10092000BA001092B8001092B7000895213B59F414
:100930008091BA0081508330B0F583E08093BA0093
:100940008093B9000895253B99F46EE370E0F8DADE
:10095000892B49F58091BA008A3F28F58B5F8093F7
:10096000BA008093B9001092B8001092B70054CF2B
:100970002130C9F48091B7009091B8000196883871
:100980002EE0920728F49093B8008093B700089562
:100990001092B8001092B7008091BA00882319F025
:1009A00081508093BA000895EF92FF921F93CF93E6
:1009B000DF9310910B01111106C0DF91CF911F91B0
:1009C000FF90EF900895E0900C01F0900D01C09120
:1009D000E800C1500C2E000CDD0BC7FD0EC0FE015F
:1009E000EE0FFF1FE751FF4F0190F081E02DB7019F
:1009F000812F099521978111F0CFEBE0F1E0838100
:100A000080838481958192838183339681E0E8336A
:100A1000F807A9F71092380110923A0110923901A3
:100A2000C8CF8091E800882319F081508093E800B6
:100A3000E091E80090E080E0EE2341F0E150FF0B10
:100A4000EE0FFF1FE751FF4F808191814AE070E078
:100A500060E01BCF582FCB01F901583089F4109278
:100A60009B0080E09BDE8091E10081111CC081E051
:100A700080939B0070E060E085E895E032DF13C072
:100A8000252F207F203BB1F420919B00421780F05E
:100A90006DE570E055DA029741F42F5F20939B00DB
:100AA00088E3421718F480E0089582E177DEFBCFF7
:100AB00080E0FCCF203E41F480919B00882311F020
:100AC0004817C0F6AEDFEFCF5A3069F76091B30038
:100AD00080919B0009958BDCF5CF28E231E043E063
:100AE000B9CF28E231E044E0B5CF24E234E044E07D
:100AF000B1CF25ED31E041E0ADCF29ED31E042E06D
:100B0000A9CF24EF31E041E0A5CF883039F410922D
:100B1000B30010929A0080E041DE0CC08130F9F4FD
:100B200090919A00911108C06032710518F080937D
:100B30009A004CDB80E00895913079F46B3B7105AD
:100B400020F082E080939A00E6CF6115710591F361
:100B5000862F880F84708E5EDFCF63DFEBCF813806
:100B600011F0813E39F791E090939A00813E41F473
:100B70008091B300865F8093B30028DB8BE4CCCFF9
:100B80008091B3008F5FF7CF0F931F93CF93DF93C5
:100B9000D82FC92F8B0145DFB8018D2F9C2FDF91F6
:100BA000CF911F910F919DCECF93C0917A00C1112B
:100BB00019C0813C41F470E060E086E496E0E4DF37
:100BC0008C2FCF910895823C29F470E060E084EF8F
:100BD00095E0F5CF873B31F470E060E089E795E080
:100BE00080DEEECFC1E0ECCF813C39F470E060E014
:100BF00086E496E0C9DF80E00895823C29F470E045
:100C000060E081E299E0F6CF873B31F470E060E08C
:100C10008DE795E066DEEFCF81E00895813C39F401
:100C200070E060E086E496E0AFDF80E00895823C0B
:100C300029F470E060E084ED95E0F6CF81E008955E
:100C4000843011F58091F9009091FA002BE08C30FE
:100C5000920731F469E170E084E297E095DF0DC01E
:100C60008452974061F49091DF00923040F0892FD8
:100C7000869596959695890FCCDD80E0089570E075
:100C800060E086E496E0EACF81E008950F931F9339
:100C9000CF938B018830A1F480E080DD80916D00DE
:100CA000837070DD1092BA00012B31F0C0E08C2F00
:100CB000CF911F910F91089581E08093E000F6CFCE
:100CC000813051F46931710588F38093E00080919F
:100CD0006D00837057DDEACF833031F52091C0007D
:100CE000222359F08091BF0090E062EC71E00BD9B3
:100CF0000817190710F020937B0080916D00837016
:100D0000833011F4802FB4DD8091B600882371F216
:100D100090E062EC71E0F7D88017910738F670E048
:100D200060E088E499E016C0813BB1F481E090E096
:100D3000CEDA34DD8091BC008111B8CF8091BD0046
:100D4000811104C00831110508F4B0CF61E070E0F2
:100D500084E297E019DFAACF813EC1F3813831F4F4
:100D600080917B0090E0B3DA19DDA0CF813C21F4C3
:100D70006091DF0070E0ECCF823B71F480917900EC
:100D800090917A0091118091BE00811103C086E993
:100D900090E0E9CF86E9E8CF823E11F480E0E4CF2D
:100DA00066E970E0823CA1F28339C1F3833C29F407
:100DB00070E060E084ED95E0CDCF843C11F42CDD53
:100DC000AECF8F3C29F470E060E083ED91E0C2CFBC
:100DD000C0917A008A3B79F4012BA1F5CC2329F04C
:100DE0001BDD10927A0003DB61CF70E060E081E7E9
:100DF00095E077DD5CCFC11125C08A3C31F40CDD74
:100E000081E080937A00F3DA52CF833B31F470E0D3
:100E100060E08CE09BE0B8DE4ACF853C31F4FCDC3E
:100E200070E060E08EE79CE0F6CF873C59F490914B
:100E30006D0081E0890F83709C7F982B90936D00EB
:100E4000A1DCE1CFC1E033CF9F92AF92BF92CF92AE
:100E5000DF92EF92FF920F931F93CF93DF93C82FF0
:100E60008B01A0907800E0907700B090BD00D0900A
:100E7000BB00B11002C0DD24D394C0907900D091A2
:100E80007A00D111C090BE00CC2009F441C041E0ED
:100E9000C41621F080917B008E15D0F1A6E9FA2EC0
:100EA0009090BA00B8018C2F32DD6091BA006623B1
:100EB00009F4BEC1911004C08091DF0080939E00B0
:100EC0008C2F8D7F883031F51092B500CA3019F41F
:100ED00000917B0010E0A016110630F4E016110618
:100EE00019F010F000937B00C801F1D992DC81E089
:100EF00080936500D0E08D2FDF91CF911F910F91EE
:100F0000FF90EF90DF90CF90BF90AF909F900895AB
:100F1000FE2CC6CFC13C09F48EC1C23C71F4809155
:100F2000DF008F1538F48F2D74DC8091DF00809303
:100F30009E00E0CF80917B00F7CFC43C39F480E085
:100F40002DDC70E060E088E499E079C18FE48C0FDB
:100F5000823008F04EC060916E0070E0C801BB2086
:100F600011F068E170E0ECD7892B21F62091DF00C9
:100F70000115110511F5C23BD1F48FEF8093650087
:100F8000D091DF00809165006D2D70E0082E000C7F
:100F9000990BB9D78D0F911D9AD9C82F80937B00DB
:100FA000D81719F08E1101C045DC8C2FBDCF2E153E
:100FB00020F7A21628F381E0E1CFE0916E00F0E087
:100FC000CF0166E371E09FD78017910710F42E15CB
:100FD000A0F6CF016CE672E096D78017910780F6F5
:100FE000A21670F219DC70E060E088E499E0CCDDD4
:100FF000C7CF8FE18C0F823020F4809165008195FE
:1010000077CFC13009F090C00932110511F4C093B7
:101010006500662389F080919E006150770B90E017
:1010200072D76091B90070E09FD7611101C061E093
:101030006093DE006093C1008091DE009091DF003C
:10104000E82FE91BFF0B9F0160919C0070919D00B0
:101050006F5F7F4F70939D0060939C00309709F401
:1010600049CF40E052E0F7FF06C040E450E0993736
:1010700010F440E051E05695479537FF02C02F5FCE
:101080003F4F3595279521153105A9F74617570785
:1010900008F030CF891788F58FEF890F7FEF780F31
:1010A000272F30E0A9014F535F4FFA016491791760
:1010B00040F59BB5911125C06F3F19F56BBD255DBE
:1010C0003F4FF901949169B5691740F599B59F5F54
:1010D00099BD9BB5FA01449194130AC099B5F901E1
:1010E0002491921305C0C091DE0058DBC093DE004E
:1010F00010929D0010929C00FDCE981778F681E02A
:10110000CCCF9BB5961720F49BB59F5F9BBDD7CFE7
:101110009BB56917A0F69BB59150F8CF69B59617A6
:10112000C0F699B59150D4CFC530A9F48091DF00B5
:10113000803608F4DFCE90E0801B910B282F8F358E
:1011400091053CF08739910508F026E92093DE00EF
:10115000D1CE2FE5FBCFC630B1F49091DF00809166
:10116000C100981708F0C6CE090F111D90E0801736
:10117000910734F0C8010F35110514F48FE590E0A4
:101180008093DE00B7CEC73069F49091DE00809185
:10119000DF00891710F48F5FF3CF981708F0AACEFD
:1011A0008150EECFC33C71F481E0B11080E08093B8
:1011B000BD001DD93FDB8091DF0090E088D880938F
:1011C0007B00B2CED11132C0C33B51F4012B09F0E8
:1011D00091CECC2011F086E9F82E8F2D1ADB8BCE24
:1011E000C33E19F480917B00F9CFC53C41F480E007
:1011F000D5DA70E060E08EE79CE0C6DC7CCE70E083
:1012000060E08DE695E0C73B79F0CA3C39F4809107
:10121000DF008093C000EBD8FFDA6DCECA3B31F41B
:1012200070E060E085E795E05CDB65CED1E063CE01
:10123000992009F445CE70E060E086E496E0A4DCF5
:1012400059CE282FCB01213C39F470E060E086E4D0
:1012500096E09ADC80E00895223C29F470E060E09A
:101260008EE096E0F6CF213B39F46EE370E068D66D
:10127000892B81F7D1DAEECF213E41F46EE370E0A5
:101280005FD66F5F60936C00B2D8E4CF81E00895C1
:10129000CF93DF93D82FCB012D2F20792039F1F474
:1012A00090917400209175008D2F8F70823049F4D9
:1012B0008091C000811108C0822F291728F4892F3E
:1012C00003C0822F9217D8F369DAD33CB1F5A4DAC0
:1012D00070E060E086E496E057DC24C0203811F42A
:1012E00080E0F2CFD83091F480916D00869586959C
:1012F00049DAC0917A00C11155C0DA3B09F03FC00C
:1013000070E060E081E895E0ECDA25C0D13061F46E
:101310006931710538F0D093E00080916D008695B9
:10132000869530DAC0E017C0D33079F620916D0091
:101330002C702C30B9F79CDAF5CFD43C81F4C091F5
:10134000C0006C2F70E0C11111C060917B0070E093
:1013500084E297E019DC8C2FDF91CF910895D43B84
:1013600041F468DA10923D0161E070E084E297E0B8
:10137000B3CFD53C09F0BDCF66E970E0F7CFD73CDD
:1013800089F490916D00892F869586958F5F837083
:10139000282F220F220F9370920F90936D00F2D995
:1013A00026D8D9CFC1E0D7CF8CE287B910920801F7
:1013B000109209012BD787EE86B908950F931F93DA
:1013C000CF931092E30080913B0190913C019C01EE
:1013D0002F5F3F4F88279078822B932B90933C016F
:1013E00080933B01C091E10015D7C817B1F010926E
:1013F000E0008093E10090913D01882399F1892FCD
:1014000080699F709F3061F580933D0190E080E09E
:10141000D9D610923C0110923B0100913B011091F2
:101420003C018091E000882359F1B80183E0B0D6F7
:10143000BBDA0F731127012B79F410929F00B4DFF0
:10144000C0919F00C11104C0E1D681E08093FF00EC
:10145000CF5FCF71C0939F00CF911F910F910895DF
:101460008F5FD2CF892F8F7E95FD08C080688093D3
:101470003D0180913B0190913C01CACF806CF7CF38
:10148000C0913D018C2F807F803B39F470E060E09B
:1014900081E07ED6C80196D6D3CFB80181E078D658
:1014A000C4FF0FC0C5FDF6CF0831110548F21092F8
:1014B0003C0110923B01C062C0933D0190E080E08E
:1014C000EACFCC2309F4BCCFC5FF02C07FD6B8CF8A
:1014D0000231110508F4B4CFC064C0933D0190E01F
:1014E00080E070D6F3CF80910A01811105D88091F8
:1014F000E300811163CF0895BF92CF92DF92EF9204
:10150000FF920F931F93CF93DF93EC0110E888E0D5
:10151000E82E87E0F82E02E092ECC92EDD24D39469
:10152000B12C209751F4DF91CF911F910F91FF9033
:10153000EF90DF90CF90BF9008958091C20081110D
:10154000F2CF9091DF009A3090F40FB6F89416BD68
:1015500006BD0FBEC6010197F1F78B2D0FB6F894AB
:1015600016BD86BD0FBEBFDF1FDA2197DACF0FB6DB
:10157000F89416BD86BD0FBEC701EDCF0F931F9324
:10158000CF93C82F06EA811102C008E0C1E010E045
:1015900089E104D9C801B0DF80E000D98AEF90E08A
:1015A000ABDFC150A9F78AE992E0CF911F910F916B
:1015B000A3CFCF93DF93282F64E6B6D4382FC92F5B
:1015C000892F6AE0B1D4D92F243650F0832FD6DF8B
:1015D0008C2F6AE0A9D4D2DF8D2FDF91CF91CECFAF
:1015E000CA30B0F7F9CFCF93DF93D82FC3E0809103
:1015F0007B00D4D888EC90E07FDFDD2319F080E910
:1016000091E07ADF80E0CAD888EC90E075DFC150C5
:1016100071F7DF91CF910895DF92EF92FF920F93D0
:101620001F93CF93DF93D82F8B01C0916B0081E084
:101630008093B500C33079F4F090BA008D2F67D94C
:10164000FF20A1F08091BA00811110C070E060E02D
:1016500086E496E099DAD83071F0D13C09F0F6C012
:1016600070E060E086E496E08FDA08C0D83041F49C
:1016700081E08093630081E08093640080E033C167
:10168000D23C61F41092BA008C2F90E0019666E093
:1016900070E06AD480936B00AAD6F0CFD13BC1F43E
:1016A00080916200012B41F49FEF8E3618F4823056
:1016B00018F491E09093630090916300890F21F4F6
:1016C00081E080936200DACF8F36D8F38EE6F9CFCF
:1016D000D13E59F48091630081958093630080919D
:1016E0006400819580936400D7CFD23BE1F481E020
:1016F0008093630080916200823018F08150809363
:10170000620081E080936400C23008F0DFC000FD19
:10171000B5CFEC2FF0E0E759FF4F80818F3F09F400
:10172000ADCF8F5FAAC0D13009F0E5C009321105F5
:1017300011F4D0936300D09099008D2D880FD7FCC1
:10174000809590E067E070E0DED3292FE09098006C
:101750008E2D880FE7FC8095D09161006D2F70E091
:1017600090E0D1D3290FF09097008F2D880FF7FCD0
:101770008095C09160006C2F70E090E0C4D3622F20
:10178000690F80916200680F7727771F8091BA00F8
:10179000813091F48091B7009091B80025E0969542
:1017A00087952A95E1F724E730E0A901481B590BFA
:1017B000CA01A9D3B901C4D3862FF0D700FD05C053
:1017C00032D581708D0D80939900809196008E0D99
:1017D0008093980028D565E2A7D39F0D909397003A
:1017E00022D58F7329F41FD56DE09ED39093960078
:1017F000DD2331F018D58F7319F4D150D0936100E7
:1018000012D5811107C00FD56BE08ED39093610084
:1018100010929800C33030F006D58F7119F4C15082
:10182000C093600000D58F7729F4FDD466E07CD3A7
:10183000909360000932110519F481E080936400EF
:101840008091DD00080F0093DD0018CFD23C09F431
:101850001BCFD13B49F5C23090F400FD0FCFEC2FE8
:10186000F0E0E759FF4F808190916400891B8F3F22
:1018700008F08EEF883008F488E08083FFCEC43013
:1018800009F0FCCE8091680090916400890F82304D
:1018900038F482E080936800809168007FD7EECEB4
:1018A0008937C0F388E7F6CFD13E09F418CFD23B91
:1018B00009F427CFD23E09F4EFCED53C81F470E095
:1018C00060E08EE79CE060D980E0E8CFC43009F0AA
:1018D000D5CE809168008330F8F28150DBCF81E073
:1018E000D13009F4A7CFDF91CF911F910F91FF90D5
:1018F000EF90DF900895D13CE9F6B2CE0F931F939D
:10190000CF93DF93D82F8B01883031F48091B500CD
:10191000813011F488E080DE8D2F8079803991F458
:1019200081E08093B400C091B500CC2311F0C0E0F9
:1019300003C080917B0032D78C2FDF91CF911F9114
:101940000F910895803829F41092B40080E026D7D2
:10195000EECFC1E0D13081F7C091B400CC2351F07B
:101960008091B500813019F7B801DF91CF911F91B7
:101970000F9152CE07331140D0F2D093E00080E0B7
:1019800001D7DACF2F932FB72F933F938F939F9346
:10199000AF93BF93EF93FF93809109018823E9F000
:1019A000E091080124B135B1F0E0EE0FFF1FDF0137
:1019B000AC5FBE4F2D933C93E050FF4F80819181EF
:1019C0008217930708F401962817390708F401973E
:1019D0009183808381E080930A0181E080930901F3
:1019E000FF91EF91BF91AF919F918F913F912F9177
:1019F0002FBF2F9118958F9381E08093E3008F91F3
:101A000018958F9381E08093E2008F911895F89458
:101A100084B7877F84BF0FB6F894A89581B5886195
:101A200081BD11BC0FBEBC9A81E083BF91EA9ABD13
:101A300080BF80E68CBD8FEF8DBDB89A88E088BBF3
:101A400085BB8BB780628BBFA89581B5886181BD4E
:101A500080E481BDA9DC789481E0C2D370E060E0CD
:101A600080E296E03ED71092C200D6D6D3D3811141
:101A70007FC0F89480E091E08AD2853A09F0A0C056
:101A800003EC10E0C1E0D1E0CE0181D2F8018193F6
:101A90008F012196CB31F1E0DF07B1F77894809187
:101AA000C3008093BD008091C40080937400809136
:101AB000C500809371008091C60080936E00809174
:101AC000C700809375008091C80080937200809158
:101AD000C90080936F008091CA0080937600809146
:101AE000CB00809373008091CC0080937000809134
:101AF000CD0080937A008091CE008093BE008091CB
:101B0000CF008093BC008091D000809379008091B9
:101B1000D1008093C0008091D2008093BF0080915B
:101B2000D30080936B008091D400809369008091F2
:101B3000D50080936A008091D600809368008091E0
:101B4000D70080936C008091D80080937C008091B6
:101B5000D9008093FB008091DA0080937D00809112
:101B6000DB0080936D008091DC008093B60029C07B
:101B7000C0E08C2F13D683E190E0BEDC8C2F8695DD
:101B80000DD683E190E0B8DC45D38823B1F0CF5F78
:101B9000C03479F765E181E00CD429D4C6E98C2FF3
:101BA000FDD584E090E0A8DCC150C9F762CF8C2F4E
:101BB000F5D58DE090E0A0DCC150C111F8CF59CF30
:101BC00078948091C000811180937B0061E070E087
:101BD00086E496E086D643E4242E52E0352E60E477
:101BE000462E772473947CEF872E73E0972E512C2A
:101BF000612CE6E4CE2EE6E0DE2ED6D68091E6001D
:101C00009091E700009749F06091E4007091E50041
:101C1000BBD71092E7001092E6008091E000882385
:101C200021F180E0BBD5A89581B5886181BD21BC3B
:101C30003798F0D28111FDCFC9D28BB780628BBFAC
:101C400010920A011092E3001092E2008091E000ED
:101C500081112DC030927E008BB78F7D8BBFA4DBAE
:101C6000A89581B5886181BD41BC3DDC1092C20060
:101C70008091F9009091FA0021E0833D9207B9F537
:101C8000CEE1D0E0FE018491805378DC8CE291E0DB
:101C900033DC2196F0E0CA32DF07A1F7D092E700EB
:101CA000C092E6001092E5001092E400A6CF85B73E
:101CB000877E806185BF85B7806285BF889585B73F
:101CC0008F7D85BF8091E20081111092E0008091AC
:101CD0000A01882329F070927E007092FF000CD4D4
:101CE0008091E300882309F4B1CF68DBAFCF2BE00C
:101CF0008C30920779F0ECE08E379E0709F0BDC07A
:101D00008091B500813009F0F3C08091B400882340
:101D100009F4EEC0C0916B00C43009F495C008F01E
:101D20006AC0C23008F474C0C23009F066CF7BD2FA
:101D30008F73082F10E077D267E0F6D0C1E0D0E0D3
:101D40007E0102C0EE0CFF1C9A95E2F76CD265E0B2
:101D5000EBD002C0CC0FDD1F9A95E2F7CE0DDF1D50
:101D600062D290E0BE0100D1C80FD91FC739D1059A
:101D700024F0F6E9CF2F20E0D22F8C2F0FD5C80109
:101D8000BBDB7E0133E0F594E7943A95E1F7E1108F
:101D900002C0EE24E394F12CC801AEDB5E01AE1864
:101DA000BF08E501B7FE02C0C52DD62D8C2FF6D495
:101DB0003AD2837031F4C8019FDBCE0195958795A7
:101DC000EDD4F2E0AF16B1043CF72DD26DE0ACD00B
:101DD00001E010E002C0000F111F9A95E2F723D234
:101DE000E801219790E0C823D923C00FD11F80E0DC
:101DF000D5D4CE011FC0C53009F0FFCE80E4CED4CB
:101E000080E094E079DB80E0C9D480E094E012C007
:101E1000EC2FF0E0E759FF4FD08186E9BFD4C11124
:101E20000FC0DA3248F4C4010197F1F780E0B6D46C
:101E30008D2F90E061DBE1CE81E090E05DDBF6CFBD
:101E40008D2F869590E0FACFD0916800DD0FD739BD
:101E500008F0D6E98D2FA2D485E090E04DDB80918B
:101E600068009CD481E490E047DBC15099F780ED95
:101E700092E042DB80E092D4C0CE25E0843D920720
:101E800051F48091FE0095DB80917A00811106CF9C
:101E900088EE93E0CFCFE5E0843F9E0721F4809168
:101EA000FC0087DBF5CFF9E081329F07A9F4809130
:101EB000E1008111A2CE80917B0070D484E690E095
:101EC0001BDB80E06BD480916C0090E068EE73E0E7
:101ED0001AD084569109AECF8E50964049F480E0D6
:101EE00082DB81E080DB80E07EDB80ED97E0A2CFCB
:101EF00085B7877E85BF85B7806285BF889585B7A2
:101F00008F7D85BF7ACE0024552704C0080E591F47
:101F1000880F991F009729F076956795B8F371059A
:101F2000B9F7802D952F0895991B79E004C0991F6A
:101F3000961708F0961B881F7A95C9F78095089523
:101F4000AA1BBB1B51E107C0AA1FBB1FA617B707DF
:101F500010F0A61BB70B881F991F5A95A9F78095FB
:101F60009095BC01CD01089597FB072E16F40094BF
:101F700006D077FD08D0E4DF07FC05D03EF490954D
:101F800081959F4F0895709561957F4F0895E199D0
:101F9000FECF9FBB8EBBE09A99278DB30895262F65
:101FA000E199FECF9FBB8EBBE09A01970DB202165E
:101FB00039F01CBA2DBB0FB6F894E29AE19A0FBE25
:061FC0000895F894FFCF24
:101FC600060B180101010004342943030209010725
:101FD60005707096010A0A700101012E3707027416
:101FE6000071006E00000102010000000000000107
:061FF600000000000000E5
:00000001FF
