:10000000D7C00000F2C000000C94160EEEC0000035
:10001000ECC000000C94100EE8C00000E6C0000028
:10002000E4C00000E2C00000E0C00000DEC000004C
:10003000DCC00000DAC000000C94D70DD6C0000070
:10004000D4C00000D2C00000D0C00000CEC000006C
:10005000CCC00000CAC00000C8C00000C6C000007C
:10006000C4C00000C2C00000C0C00000BEC000008C
:10007000323032323035313430323533000105041C
:100080001410111500000000010001000200020020
:100090000300030004000500050006000700080037
:1000A00009000A000B000C000D000E000F001000EC
:1000B0001100130014001600170019001A001C008C
:1000C0001E001F0021002300250027002A002C000D
:1000D0002E0030003300350038003B003D0040006A
:1000E0004300460049004C005000530056005A009F
:1000F0005E006100650069006D00710075007A00A6
:100100007E00820087008C00900095009A009F007E
:10011000A500AA00AF00B500BB00C100C600CC001E
:10012000D300D900DF00E600EC00F300FA00010183
:1001300008010F0117011E0126012E0136013E01A3
:1001400046014E0157015F01680171017A01830187
:100150008D019601A001AA01B401BE01C801D2011E
:10016000DD01E801F301FE010902140220022B0265
:10017000370243024F025C026802750282028F025C
:100180009C02AA02B702C502D302E102EF02FE02FC
:100190000C031B032A03390349035803680378033C
:1001A00088039903A903BA03CB03DC03ED03FF0320
:1001B00011241FBECFEFD4E0DEBFCDBF11E0A0E021
:1001C000B1E0E6E1F5E202C005900D92AE34B10770
:1001D000D9F721E0AEE4B1E001C01D92AA3FB20719
:1001E000E1F70E941C0E0C9489120ACF482F362F7B
:1001F000272FE7ECF1E090E080E0508151110BC037
:1002000063E070E00E942B12FC01E953FE4F408333
:100210003183228305C0019633968031910569F7B9
:100220000895BC018091F901E1CF1092F90110927B
:10023000F8011092F70181E080937D01089528E193
:100240003FE1815008F40895F9013197F1F7F9CFB2
:1002500083B1886483B90895E0910601F0910701A4
:100260003196FB70F460F0930701E09306018091F2
:1002700099018B5A80939901E491809199018E0F95
:100280000895CF93DF9300D00F92CDB7DEB72091C2
:10029000490130914A0140914B0129833A834B83B4
:1002A000FE01319650E040E0682F70E0A1E0B0E040
:1002B0009B01042E02C0359527950A94E2F7922FF0
:1002C000937081919D0101C0220F8A95EAF79923CD
:1002D00029F09130C1F080B3822B19C080B32095F2
:1002E000822380BB82B3822382BB81B3282321BBBC
:1002F0004E5F5F4F46305105D9F60F900F900F902B
:10030000DF91CF91089590B3822F8095892380BB90
:1003100082B3822B82BB81B3282BE9CFCF93DF93AB
:1003200000D000D000D0CDB7DEB720917801409149
:10033000B5015091B6014353564009F422E0843090
:1003400059F46093790126960FB6F894DEBF0FBE7C
:10035000CDBFDF91CF9108956623A9F3823019F4C0
:1003600097E9961B692F96E0E0E2F1E0DE01119635
:1003700001900D929A95E1F78150990B880F991F82
:10038000A1E0B0E0AC0FBD1F8A0F9B1FDC01ED9117
:10039000FC91E20FF11D6083D6CFCF92DF92EF92F6
:1003A000FF920F931F93CF93DF939C01509178019D
:1003B000E0911B0182E0E11101C0852F90E0DC019A
:1003C000AB5EBE4F4C91409319018E5E9E4FDC0197
:1003D0008C9180931801F0E0E15FFE4FC181642FA2
:1003E00070E0552381F0C13071F4860F972F911D75
:1003F00095958795DF91CF911F910F91FF90EF9089
:10040000DF90CF900895261737079CF182171306C7
:100410008CF3511102C0822FEDCF841B6C2F6150E1
:10042000770B8B01E82EF12CC7010E945C126093C0
:1004300076016695E62FF0E0842FD12CC12CD0E018
:10044000DC17C1F2C601B8010E944812842F860F42
:10045000A82FB0E0B9016A1B7B0B77FF03C0BD0179
:10046000621B730BCE0CDF1CE617F7071CF6DF5F71
:10047000E7CF842FBFCF9091BA0180E09D3180F00B
:10048000E82FF0E0E75CFE4F2081921738F43197B7
:10049000E081F0E0E358FF4F849108958E5FF0CF44
:1004A00008950F931F93CF93E82F862F9091BA0151
:1004B00091509C3128F480E0CF911F910F91E1CEB3
:1004C000CE2FC295CF70EF7090919C01911103C017
:1004D000C33008F0C2E0E73010F4F0E016C0E730B7
:1004E000C1F40091530110E00F5F1F4FB5DE65E0CE
:1004F0000E943C129801290F311DC90166E070E08D
:100500000E945C1280935301FC01E358FF4FE49179
:100510001BC090919C01E83099F46FE0911101C0EB
:1005200063E0862351F48091530190E0019666E0E8
:1005300070E00E945C1280935301E0915301CDCF93
:100540009923D1F098DFE82FC33071F480915201E4
:1005500090E0019663E170E00E944812809352019E
:100560008A5D9E4FDC01CC91CC2321F0C13069F033
:10057000CE2FCC0F8C2FA0CF869563E00E943C122B
:10058000E92FF0E0EE0FFF1FC0CFCE2FF3CF81E0B9
:100590000895611160931E010895662369F081300A
:1005A00099F48091B7019091B801891B680F60930D
:1005B000B70182E080931F0180911D01873418F0FC
:1005C00086E480931D010895635E60931D01F4CF5E
:1005D0006093700108950F931F93CF93DF938091E1
:1005E000780180937E018091150180937F01809135
:1005F00012018093800180910F018093810180918D
:100600001601809382018091130180938301809170
:10061000100180938401809117018093850180915E
:10062000140180938601809111018093870180914C
:100630001B018093880180917901809389018091C9
:10064000770180938A0180911A0180938B018091B8
:100650007B0180938C0180917A0180938D01809140
:100660000B0180938E018091090180938F0180910D
:100670000A018093900180910801809391018091FB
:100680000C018093920180911D01809393018091D0
:10069000B7018093940180911E0180939501809110
:1006A0000E018093960180910D01809397018091B6
:1006B00070018093980182E0C2DDF8940EE711E0AA
:1006C000C1E8D0E0F80161918F01CE010E9477125C
:1006D0002196CC39D105B1F765EA80E890E00E9417
:1006E00077127894DF91CF911F910F910895109216
:1006F000C60130B181B12091990132953695369578
:10070000337090E0880F991F880F991F830F911DF8
:10071000820F809399018091BB01882309F444C022
:100720001092BB018091C40190919C01992319F012
:100730001F981092C401811145C080911F01882328
:10074000A1F18091C0019091C1019093BD0180936E
:10075000BC01409696958795807F9F7761EC72E00B
:100760000E94481280911E018750680F6093BA0161
:1007700080916C018823F1F0815080936C0180910D
:100780009C01811108C08EE884B981E08093C40186
:100790001092C5015DDD80911F01882329F08091B1
:1007A0001F01815080931F0108958091BC01909199
:1007B000BD01CFCF6D3118F770E060E084E016DD49
:1007C00085E0DBCF813039F780911F0181115EC058
:1007D0008091BE019091BF014096DC0145E0B69545
:1007E000A7954A95E1F74091B701042E000C550BEF
:1007F0009A012E50314066E0969587956A95E1F70B
:10080000820F931F9093B9018093B80180915B018F
:10081000E82FF0E0EE0FFF1FE45AFE4F20813181F8
:10082000BD01621B730B9B01B183A0838F5F877037
:1008300080935B01660F771F660F771F6A0F7B1F20
:1008400080911D0190E0841B950B825F9E4F880F65
:10085000991F681B790B83E0161617060CF045C02C
:10086000615071098150C1F7161617060CF059C076
:1008700037FD76C080915A011816F4F5861B8093D7
:100880005A0186E884B91092C40182CF8091C201D6
:100890009091C3019093BF018093BE01409635E0D3
:1008A000969587953A95E1F790935D0180935C0169
:1008B00090935F0180935E0190936101809360014A
:1008C000909363018093620190936501809364012A
:1008D000909367018093660190936901809368010A
:1008E00090936B0180936A0173CF6115710509F4D0
:1008F000B9CF6F5F7F4FB6CF660F771F6730710537
:100900006CF063507109759567957595679580E2F0
:10091000861B80935A0185E069DCB3CF61E070E00B
:10092000F6CF6C3F8FEF7807DCF437FF19C080916A
:100930005A0187FF02C08450A1CF8CED861B8093A3
:100940005A018091BA018F3108F49BCF8CEF9FEF51
:100950009C01261B370BB9017595679586E0DCCFA6
:100960008091BA018E3108F48CCF70E060E087E0AE
:10097000D3CFE82F80939B0180939A01811107C008
:1009800010926D0010926C00689848980895689ACB
:10099000489AE150F0E0EE0FFF1FEC57FF4F8591B2
:1009A000949190936D0080936C00089580937C01E6
:1009B000E0CFCF93C0919B0189E18C0F873908F07C
:1009C00080E0D7DF82E03BDC8C2FCF91D2CFCF937A
:1009D000C0919B0180E0CDDF83E031DC8C2FCF9193
:1009E000C8CF813019F410927B010895823019F438
:1009F00060937A010895833019F460937701089524
:100A0000843011F460931A010895FF920F931F939D
:100A1000CF93DF938C01D62FC72FF42E8091B50191
:100A20009091B601892B31F0E091B501F091B601BA
:100A300089E009951093B6010093B501012B41F0AF
:100A4000E091B501F091B6016D2F7C2F8F2D0995A6
:100A500081E080937D01DF91CF911F910F91FF90F5
:100A600008952091A401283080F4E22FF0E0EE0FE9
:100A7000FF1FEB55FE4F808391832F5F2093A401CE
:100A800048E0C3DF8091A40108958FEF0895282FD7
:100A9000CB0130911B01311147C0283039F410923D
:100AA000740110927201109271010895213B59F462
:100AB0008091740181508330B8F583E08093740194
:100AC000809373010895253BA1F46EE370E00E94CA
:100AD0004812892B49F5809174018A3F28F58B5F74
:100AE00080937401809373011092720110927101CE
:100AF00060CF2130C9F4809171019091720101960B
:100B000088382EE0920728F4909372018093710147
:100B100008951092720110927101809174018823DE
:100B200019F08150809374010895EF92FF921F9302
:100B3000CF93DF931091C701111106C0DF91CF91C0
:100B40001F91FF90EF900895E090C801F090C901C7
:100B5000C091A401C1500C2E000CDD0BC7FD0EC0CE
:100B6000FE01EE0FFF1FEB55FE4F0190F081E02DCF
:100B7000B701812F099521978111F0CFE7ECF1E0C2
:100B8000838180838481958192838183339681E000
:100B9000E43FF807A9F71092F4011092F6011092C1
:100BA000F501C8CF8091A401882319F0815080936A
:100BB000A401E091A40190E080E0EE2341F0E15037
:100BC000FF0BEE0FFF1FEB55FE4F808191814AE036
:100BD00070E060E01ACF582FCB01F901583089F44A
:100BE0001092550180E0C5DE80919D0181111DC0EC
:100BF00081E08093550170E060E087E496E031DFAA
:100C000014C0252F207F203BB9F4209155014217B5
:100C100088F06DE570E00E944812029741F42F5F62
:100C20002093550188E3421718F480E0089582E18B
:100C3000A0DEFBCF80E0FCCF203E41F48091550147
:100C4000882311F04817B8F6ADDFEFCF5A3069F7B7
:100C500060916D01809155010995BDDCF5CF2EE8BD
:100C600031E043E0B8CF2EE831E044E0B4CF21EFEB
:100C700034E044E0B0CF29EC32E041E0ACCF2DECE1
:100C800032E042E0A8CF28EE32E041E0A4CF883045
:100C900039F410926D011092540180E06ADE0CC0AC
:100CA0008130F9F490915401911108C060327105BE
:100CB00018F080935401B9DA80E00895913079F406
:100CC0006B3B710520F082E080935401E6CF611503
:100CD000710591F3862F880F84708E5EDFCF62DFFF
:100CE000EBCF813811F0813E39F791E090935401B8
:100CF000813E41F480916D01865F80936D0195DAAC
:100D00008BE4CCCF80916D018F5FF7CF0F931F9352
:100D1000CF93DF93D82FC92F8B0144DFB8018D2FDC
:100D20009C2FDF91CF911F910F919BCECF93C091BC
:100D30001B01C11119C0813C41F470E060E088E002
:100D400097E0E4DF8C2FCF910895823C29F470E086
:100D500060E086EB96E0F5CF873B31F470E060E031
:100D60008BE396E07EDEEECFC1E0ECCF813C39F440
:100D700070E060E088E097E0C9DF80E00895823CA1
:100D800029F470E060E08FE09AE0F6CF873B31F421
:100D900070E060E08FE396E064DEEFCF81E00895DD
:100DA000813C39F470E060E088E097E0AFDF80E0FC
:100DB0000895823C29F470E060E086E996E0F6CF81
:100DC00081E00895843011F58091B5019091B601CC
:100DD0002CE08131920731F469E170E08BE098E01A
:100DE00095DF0DC08B50984061F490919B0192303B
:100DF00040F0892F869596959695890FD7DD80E0EE
:100E0000089570E060E088E097E0EACF81E008951F
:100E10000F931F93CF938B018830A1F480E0A9DD5D
:100E200060E080910E013DDB10927401012B31F0E6
:100E3000C0E08C2FCF911F910F91089581E0809396
:100E40009C01F6CF813049F46931710588F38093B4
:100E50009C0180910E0125DBEBCF833029F5209199
:100E60007B01222361F080917A0190E062EC71E0D5
:100E70000E942B120817190710F020931C01602FF5
:100E800080910E010EDB80917001882389F290E041
:100E900062EC71E00E942B128017910748F670E017
:100EA00060E088E39AE016C0813BB1F481E090E015
:100EB00074DA5FDD809177018111BACF809178017A
:100EC000811104C00831110508F4B2CF61E070E06F
:100ED0008BE098E01BDFACCF813EC1F3813831F469
:100EE00080911C0190E059DA44DDA2CF60919B0112
:100EF00070E0813C69F3823B71F480911A0190911A
:100F00001B01911180917901811103C086E990E064
:100F1000EACF86E9E9CF823E11F480E0E5CF66E9C9
:100F200070E0823CA9F28339C1F3833C29F470E07C
:100F300060E086E996E0CECF843C11F43ADDAFCF95
:100F40008F3C29F470E060E087EC92E0C3CFC09161
:100F50001B018A3B81F4012B09F05BC0CC2329F0F3
:100F600028DD10921B0137DB63CF70E060E083E384
:100F700096E077DD5ECFC1114CC08A3C31F419DDBB
:100F800081E080931B0127DB54CF833B31F470E079
:100F900060E081E19CE0BADE4CCF853C31F409DDB4
:100FA00070E060E08FE89DE0F6CF873C91F490918F
:100FB0000E01892F82958F708F5F83708295807F5D
:100FC0009F70892B80930E0160E06BDA04DBF1DC0B
:100FD00030CF873BC9F481E080937501C8018F73DE
:100FE0009927892B61F420910E01822F8F708F5FDA
:100FF000207F6BE00E943C12922B90930E01602F99
:1010000080910E014EDA15CF873E19F410927501CA
:10101000BACFC1E00ECF9F92AF92BF92CF92DF9234
:10102000EF92FF920F931F93CF93DF93C82F8B0103
:10103000A0901901E0901801B0907801D09076014D
:10104000B11002C0DD24D394C0901A01D0911B01CD
:10105000D111C0907901CC2009F441C041E0C416FF
:1010600021F080911C018E15D0F1A6E9FA2E909006
:101070007401B8018C2F0BDD60917401662309F4B3
:10108000C5C1911004C080919B01809358018C2FA1
:101090008D7F883031F510926F01CA3019F40091BC
:1010A0001C0110E0A016110630F4E016110619F02C
:1010B00010F000931C01C80170D978DC81E08093A6
:1010C0000501D0E08D2FDF91CF911F910F91FF90FF
:1010D000EF90DF90CF90BF90AF909F900895FE2C3F
:1010E000C6CFC13C09F495C1C23C71F480919B010B
:1010F0008F1538F48F2D5ADC80919B018093580115
:10110000E0CF80911C01F7CFC43C39F480E031DCA2
:1011100070E060E088E39AE080C18FE48C0F823059
:1011200008F052C060910F0170E0C801BB2011F0BF
:1011300068E170E00E944812892B19F620919B010A
:101140000115110519F5C23BD9F48FEF8093050104
:10115000D0919B01809105016D2D70E0082E000C4F
:10116000990B0E942B128D0F911D17D9C82F8093B8
:101170001C01D81719F08E1101C029DC8C2FBBCFB0
:101180002E1518F7A21620F381E0E0CFE0910F01B1
:10119000F0E0CF0166E371E00E942B128017910707
:1011A00010F42E1590F6CF016CE672E00E942B121F
:1011B0008017910768F6A21658F2FBDB70E060E03A
:1011C00088E39AE0A3DDC4CF8FE18C0F823020F456
:1011D00080910501819573CFC13009F08EC009322D
:1011E000110511F4C0930501662399F0809158010F
:1011F0006150770B90E00E942B126091730170E0B8
:101200000E945C12611101C061E060939A016093D9
:101210007C0180919A0190919B01482F491B550BAD
:101220009A0160915601709157016F5F7F4F7093E3
:10123000570160935601452B09F443CF40E052E03B
:1012400037FF06C040E450E0933810F440E051E02E
:101250005695479537FF02C02F5F3F4F359527952D
:1012600021153105A9F74617570708F02ACF891726
:1012700090F58FEF890FEFEFE80FF0E0EE0FFF1F13
:101280009F012C573F4FF9014591549160916C009B
:1012900070916D006417750710F540916C005091C6
:1012A0006D004F5F5F4F50936D0040936C00409115
:1012B0006C0050916D00F90125913491421753074C
:1012C00029F4C0919A0155DBC0939A0110925701FD
:1012D00010925601F6CE981770F681E0CBCF609150
:1012E0006C0070916D004617570708F740916C002D
:1012F00050916D0041505109D6CFC530A9F480916D
:101300009B01833308F4DDCE90E0801B910B282FE6
:10131000823391053CF08739910508F026E9209346
:101320009A01CFCE22E3FBCFC630B1F490919B015E
:1013300080917C01981708F0C4CE090F111D90E030
:101340008017910734F0C8010233110514F482E3C9
:1013500090E080939A01B5CEC73069F490919A01DC
:1013600080919B01891710F48F5FF3CF981708F0D5
:10137000A8CE8150EECFD11147C0C33C99F481E093
:10138000B11080E08093780126D921DB80919B0108
:1013900090E003D880931C0109DB80919B0180932E
:1013A000580190CEC33B51F4012B09F08ACECC20DA
:1013B00011F086E9F82E8F2DF9DA84CEC33E19F4A8
:1013C00080911C01F9CFC53C41F480E0D2DA70E095
:1013D00060E08FE89DE09ADC75CE70E060E08FE21F
:1013E00096E0C73B79F0CA3C39F480919B01809329
:1013F0007B01F1D8DEDA66CECA3B31F470E060E002
:1014000087E396E02EDB5ECED1E05CCE992009F436
:101410003ECE70E060E088E097E078DC52CE282F86
:10142000CB01213C39F470E060E088E097E06EDCAD
:1014300080E00895223C29F470E060E080ED96E0C1
:10144000F6CF213B41F46EE370E00E944812892BF5
:1014500079F7AFDAEDCF213E49F46EE370E00E94F8
:1014600048126F5F60930C01B6D8E2CF81E0089517
:101470000F931F93CF93DF93C82F8B01873B79F492
:1014800080E077DAD0911B01D1119DC0CA3B09F0F1
:1014900064C070E060E083E496E0E3DA48C08079FD
:1014A0008039F1F490911501209116018C2F8F70E5
:1014B000823049F480917B01811108C0822F291765
:1014C00028F4892F03C0822F9217D8F352DAC33C35
:1014D00001F56FDA70E060E088E097E017DC17C094
:1014E000803811F480E0F2CFC83009F06EC060E0BF
:1014F00080910D010E945102C5CF0931110538F0CC
:10150000C0939C01602F80910D010E945102D0E098
:101510000EC0C43C91F4D0917B016D2F70E0D111CD
:1015200013C060911C0170E08BE098E0EFDB8D2F21
:10153000DF91CF911F910F910895C43B41F447DA99
:101540001092F90161E070E08BE098E0C7CFC53CF4
:1015500009F098CF66E970E0F7CFC73C99F4909115
:101560000D01892F82958F708F5F83708295807FA8
:101570009F70892B80930D0160E00E9451022BD84F
:1015800018DAD5CFC73BC9F481E080937501C80153
:101590008F739927892B59F420910D01822F8F7019
:1015A0008F5F207F6BE068D7922B90930D01602FA7
:1015B00080910D010E945102BACFC73E21F41092D2
:1015C000750109D8B4CFD1E0B2CFC13009F495CFBD
:1015D000C33009F497CF7BCF86E884B91092C40159
:1015E0001092C5010E942801E1E6F0E0808182604E
:1015F0008083139A87EE83B908950F931F93CF9337
:1016000010929F018091F7019091F8019C012F5F4A
:101610003F4F88279078822B932B9093F8018093EB
:10162000F70190919D012FB1822F8095881F882707
:10163000881F80939D019817B9F010929C018093A8
:101640009D019091F901892F27FD35C080699F7018
:101650009F3079F58093F90190E080E00E941101BC
:101660001092F8011092F7010091F7011091F80122
:1016700080919C01882361F1B80183E00E94F6000B
:1016800054DA0F731127012B81F410925901A4DF52
:10169000C0915901C11105C00E94280181E08093C9
:1016A000BB01CF5FCF71C0935901CF911F910F91B3
:1016B00008958F5FCFCF8F7E95FD08C0806880939F
:1016C000F9018091F7019091F801C8CF806CF7CFB4
:1016D000C091F9018C2F807F803B49F470E060E07D
:1016E00081E00E94F600C8010E941101D1CFB8012B
:1016F00081E00E94F600C4FF0FC0C5FDF4CF0831A1
:10170000110530F21092F8011092F701C062C093F7
:10171000F90190E080E0E8CFCC2309F4B9CFC5FF10
:1017200003C00E941501B4CF0231110508F4B0CFF7
:10173000C064C093F90190E080E00E941101F1CFF4
:101740008091C60181110E94770380919F018111D0
:1017500054CF08950F931F93CF93DF93EC0108E0CC
:1017600017E0209729F4DF91CF911F910F910895F1
:1017700080917D0121978111F6CFC8010197F1F782
:10178000DFDFD3D9EECF0F931F93CF93C82F06EA95
:10179000811102C008E0C1E010E089E1EAD8C80187
:1017A000D9DF80E0E6D88AEF90E0D4DFC150A9F716
:1017B0008AE992E0CF911F910F91CCCFCF93DF9325
:1017C000282F64E659D6382FC92F892F6AE054D6BE
:1017D000D92F243650F0832FD6DF8C2F6AE04CD6D9
:1017E000D2DF8D2FDF91CF91CECFCA30B0F7F9CFB6
:1017F000CF93DF93D82FC3E080911C01BAD888EC37
:1018000090E0A8DFDD2319F080E991E0A3DF80E01C
:10181000B0D888EC90E09EDFC15071F7DF91CF9196
:101820000895DF92EF92FF920F931F93CF93DF9370
:10183000D82F8B01C0910B0181E080936F01C330E1
:1018400079F4F09074018D2F22D9FF20A1F08091BE
:101850007401811110C070E060E088E097E056DA12
:10186000D83071F0D13C09F001C170E060E088E04F
:1018700097E04CDA08C0D83041F481E0809303014E
:1018800081E08093040180E03FC1D23C69F4109272
:1018900074018C2F90E0019666E070E00DD6809385
:1018A0000B010E94EB02EFCFD13BC1F4809102010A
:1018B000012B41F49FEF873618F4823018F491E041
:1018C0009093030190910301890F21F481E08093AB
:1018D0000201D9CF8836D8F387E6F9CFD13E59F443
:1018E000809103018195809303018091040181958A
:1018F00080930401D6CFD23BE1F481E080930301D1
:1019000080910201823018F081508093020181E0C1
:1019100080930401C23008F0EAC000FDB4CFEC2F80
:10192000F0E0E75FFE4F80818F3F09F4ACCF8F5F1F
:10193000B4C0D13009F0F0C00932110511F4D093D0
:101940000301D09051018D2D880FD7FC809590E038
:1019500069E070E080D5292FE09050018E2D880F2E
:10196000E7FC8095D09101016D2F70E090E073D578
:10197000290FF0904F018F2D880FF7FC8095C091B3
:1019800000016C2F70E090E066D5622F690F8091A6
:101990000201680F7727771F80917401813091F4DD
:1019A000809171019091720125E0969587952A9515
:1019B000E1F724E730E0A901481B590BCA014BD5D8
:1019C000B90166D5862F0E94B90400FD06C00E94A9
:1019D0002C0181708D0D8093510180914E018E0DEF
:1019E000809350010E942C0165E246D59F0D909393
:1019F0004F010E942C018F7331F40E942C016DE085
:101A00003BD590934E01DD2339F00E942C018F735A
:101A100019F4D150D09301010E942C01811108C00A
:101A20000E942C016EE028D5909301011092500184
:101A3000C33038F00E942C018F7119F4C150C0934B
:101A400000010E942C018F7729F40E942C018770DD
:101A5000809300010932110519F481E0809304019B
:101A600080919901080F009399010DCFD23C09F4A0
:101A700010CFD13B51F5C23090F400FD04CFEC2FD4
:101A8000F0E0E75FFE4F808190910401891B8F3F5A
:101A900008F08EEF883008F488E08083F4CEC430FC
:101AA00009F0F1CE8091080190910401890F8230F4
:101AB00040F482E080930801809108010E94B904FB
:101AC000E2CE8937B8F388E7F5CFD13E09F40DCFE0
:101AD000D23B09F41CCFD23E09F4E3CED53C81F4CD
:101AE00070E060E08FE89DE011D980E0E7CFC4307E
:101AF00009F0C9CE809108018330F0F28150DACF2D
:101B000081E0D13009F4A6CFDF91CF911F910F91E1
:101B1000FF90EF90DF900895D13CE9F6A6CE0F93A9
:101B20001F93CF93DF93D82F8B01883031F48091AE
:101B30006F01813011F488E074DE8D2F8079803957
:101B400099F481E080936E01C0916F01CC2311F074
:101B5000C0E004C080911C010E94B9048C2FDF9169
:101B6000CF911F910F910895803831F410926E013A
:101B700080E00E94B904ECCFC1E0D13079F7C09188
:101B80006E01CC2351F080916F01813009F7B801CB
:101B9000DF91CF911F910F9144CE07331140C0F2D6
:101BA000D0939C0160E080E00E945102D7CF2F9338
:101BB0002FB72F933F938F939F93AF93BF93EF9341
:101BC000FF938091C5018823E9F0E091C40120B121
:101BD00031B1F0E0EE0FFF1FDF01A054BE4F2D9397
:101BE0003C93E454FE4F808191818217930708F45F
:101BF00001962817390708F401979183808381E0C3
:101C00008093C60181E08093C501FF91EF91BF9160
:101C1000AF919F918F913F912F912FBF2F91189549
:101C20008F9381E080939F018F9118958F9381E02E
:101C300080939E018F911895F89485B7877F85BF13
:101C400090E088ED0FB6F894A8958FBD90B7977F78
:101C500090BF0FBE81E088B999E09CB998E390BB32
:101C600093E8909372008093710080E882BB87BDF7
:101C70008CB788608CBFA89580E480BFADDC789479
:101C800081E00E941F0170E060E082EE96E00E9419
:101C9000310510927D010E94D9049FB1892F809552
:101CA000881F8827881F80939D0197FF85C082E049
:101CB0000E941F01F89480E890E011D4853A09F061
:101CC000B0C00EE711E0C1E8D0E0CE0108D4F801C1
:101CD00081938F012196CC39D105B9F77894809101
:101CE0007E018093780180917F018093150180911E
:101CF0008001809312018091810180930F01809176
:101D00008201809316018091830180931301809159
:101D10008401809310018091850180931701809147
:101D20008601809314018091870180931101809135
:101D3000880180931B0180918901809379018091B2
:101D40008A018093770180918B0180931A018091A1
:101D50008C0180937B0180918D0180937A01809129
:101D60008E0180930B0180918F01809309018091F6
:101D7000900180930A0180919101809308018091E4
:101D8000920180930C018091930180931D018091B9
:101D900094018093B7018091950180931E018091F9
:101DA000960180930E018091970180930D0180919F
:101DB00098018093700136C0C0E08C2F0E94B90456
:101DC00083E190E0C7DC8C2F86950E94B90483E103
:101DD00090E0C0DC9FB1892F8095881F8827881FDD
:101DE00080939D0197FD1AC0CF5FC03431F765E144
:101DF00081E00E94CD020E94EB02C6E98C2F0E9476
:101E0000B90484E090E0A6DCC150C1F750CF8C2F1C
:101E10000E94B9048DE090E09DDCC150C111F7CF64
:101E200046CF789480917B01811180931C0161E001
:101E300070E088E097E00E94310543E4242E52E0F0
:101E4000352E60E4462E77247394CC24C394D12C91
:101E5000612C512CE8E08E2EE7E09E2E0E94950525
:101E60008091A2019091A301009751F06091A0018F
:101E70007091A1010E9486061092A3011092A20106
:101E800080919C01882339F180E00E94B904A895D3
:101E900020BE1F989FB1892F8095881F8827881F93
:101EA00080939D0197FFF6CF0E9415018CB7886043
:101EB0008CBF1092C60110929F0110929E018091DA
:101EC0009C01811134C030921F018CB7877F8CBF79
:101ED00083DBA89540BE34DC10927D01C091B50132
:101EE000D091B60180917501811105C00E943B021D
:101EF000880F0E944101F2E0C73CDF0709F038C0BB
:101F0000C0E7D0E0FE01849180533DDC8CE291E09B
:101F100021DC2196F0E0CC37DF07A1F79092A301F6
:101F20008092A2011092A1011092A00197CF86B7D2
:101F30008F79806486BF86B7806186BF889586B7B3
:101F40008F7E86BF80919E01811110929C018091AD
:101F5000C601882331F070921F017092BB010E946C
:101F6000770380919F01882309F4A9CF46DBA7CF8F
:101F70008CE0C131D80779F0EDE0CF38DE0709F009
:101F800022C280916F01813009F05AC280916E01A6
:101F9000882309F455C2C0910B01C43009F4F7C17C
:101FA00008F073C0C23008F4DBC1C23009F056CF6C
:101FB0000E942C018F73082F10E00E942C0167E013
:101FC0005BD2760102C0EE0CFF1C9A95E2F70E94EC
:101FD0002C0165E051D2E60102C0CC0FDD1F9A95BD
:101FE000E2F7CE0DDF1D0E942C0190E0BE0164D20D
:101FF000C80FD91FC739D10524F0F6E9CF2F80E0EB
:10200000D82F8C2F0E94B904C801A4DB7E0133E0D5
:10201000F594E7943A95E1F7E11002C0EE24E394D9
:10202000F12CC80197DB5E01AE18BF08E501B7FED1
:1020300002C0C62DD52D8C2F0E94B9040E942C0100
:10204000837039F4C80186DBCE01959587950E948F
:10205000B90482E0A816B10424F70E942C016DE0B7
:102060000BD2860102C0000F111F9A95E2F70E9461
:102070002C01E801219790E0C823D923C00FD11F7C
:1020800080E00E94B904CE0180C1C53009F0E6CEDF
:1020900080E20E94B90480E890E05CDB80E00E946E
:1020A000B90480E890E056DB80E20E94B90480E841
:1020B00091E050DB80E00E94B90480E890E04ADBC8
:1020C00080E20E94B90480E891E044DB80E00E9455
:1020D000B90480E890E03EDB80E20E94B90480E829
:1020E00091E038DB80E00E94B90480E891E032DBC7
:1020F00080E20E94B90480E890E02CDB80E00E943E
:10210000B90480E890E026DB80E20E94B90480E810
:1021100090E020DB80E00E94B90480E891E01ADBC7
:1021200080E20E94B90480E891E014DB80E00E9424
:10213000B90480E890E00EDB80E20E94B90480E8F8
:1021400091E008DB80E00E94B90480E891E002DBC6
:1021500080E20E94B90480E891E0FCDA80E00E940D
:10216000B90480E890E0F6DA80E20E94B90480E8E1
:1021700091E0F0DA80E00E94B90480E891E0EADAC8
:1021800080E20E94B90480E891E0E4DA80E00E94F5
:10219000B90480E890E0DEDA80E20E94B90480E8C9
:1021A00090E0D8DA80E00E94B90480E890E0D2DACA
:1021B00080E20E94B90480E891E0CCDA80E00E94DD
:1021C000B90480E890E0C6DA80E20E94B90480E8B1
:1021D00091E0C0DA80E00E94B90480E893E0BADAC6
:1021E00080E20E94B90480E890E0B4DA80E00E94C6
:1021F000B90480E890E0AEDA80E20E94B90480E899
:1022000090E0A8DA80E00E94B90480E890E0A2DAC9
:1022100080E20E94B90480E890E09CDA80E00E94AD
:10222000B90480E891E096DA80E20E94B90480E87F
:1022300090E090DA80E00E94B90480E890E08ADAC9
:1022400080E20E94B90480E890E084DA80E00E9495
:10225000B90480E890E07EDA80E20E94B90480E868
:1022600091E078DA80E00E94B90480E891E072DAC7
:1022700080E20E94B90480E891E06CDA80E00E947C
:10228000B90480E890E066DA80E20E94B90480E850
:1022900090E060DA80E00E94B90480E890E05ADAC9
:1022A00080E20E94B90480E891E054DA80E00E9464
:1022B000B90480E890E04EDA80E20E94B90480E838
:1022C00090E048DA80E00E94B90480E891E042DAC8
:1022D00080E20E94B90480E891E03CDA80E00E944C
:1022E000B90480E890E036DA80E20E94B90480E820
:1022F00090E030DA80E00E94B90480E890E02ADAC9
:1023000080E20E94B90480E891E024DA80E00E9433
:10231000B90480E891E01EDA80E20E94B90480E806
:1023200090E018DA80E00E94B90480E890E012DAC8
:1023300080E20E94B90480E890E00CDA80E00E941C
:10234000B90480E890E006DA80E20E94B90480E8EF
:1023500090E000DA80E00E94B90480E098E015C0C7
:10236000EC2FF0E0E75FFE4FD08186E90E94B904D0
:1023700084E090E0CC2319F08D2F869590E0EAD987
:1023800080E00E94B9048D2F90E0E4D967CDD09110
:102390000801DD0FD73908F0D6E98D2F0E94B90466
:1023A00085E090E0D7D9809108010E94B90481E4CA
:1023B00090E0D0D9C15089F780ED92E0CBD980E090
:1023C0000E94B9044BCDE6E0C639DE0751F4809196
:1023D000BA01F4D980911B018111A0CD88EE93E060
:1023E000D4CFF6E0C63BDF0721F48091B801E6D9EF
:1023F000F5CF8AE0CF30D807B9F480919D018111E3
:102400002DCD80911C010E94B90484E690E0A2D9F0
:1024100080E00E94B90480910C0190E068EE73E0C6
:102420001AD084569109B1CFC05DD64049F480E0FE
:10243000DFD981E0DDD980E0DBD980ED97E0A5CF61
:1024400086B78F7986BF86B7806186BF889586B745
:102450008F7E86BF03CD0024552704C0080E591F68
:10246000880F991F009729F076956795B8F3710545
:10247000B9F7802D952F0895991B79E004C0991F15
:10248000961708F0961B881F7A95C9F780950895CE
:10249000AA1BBB1B51E107C0AA1FBB1FA617B7078A
:1024A00010F0A61BB70B881F991F5A95A9F78095A6
:1024B0009095BC01CD01089597FB072E16F400946A
:1024C00006D077FD08D0E4DF07FC05D03EF49095F8
:1024D00081959F4F0895709561957F4F0895E1997B
:1024E000FECF1FBA8EBBE09A99278DB30895262F91
:1024F000E199FECF1FBA8EBBE09A81500DB2021651
:1025000039F01CBA2DBB0FB6F894E29AE19A0FBECF
:062510000895F894FFCFCE
:10251600080E18010101000432294303023718018D
:102526000705828278010A0A82010101322D07021B
:10253600150112010F010201000000000000000158
:102546000000000000000000010000210123022518
:0E25560003270429052C06FF060504030000D8
:00000001FF
