:10000000F6C010C115CD0EC10DC10CC10BC10AC186
:10001000D0CC08C107C106C105CD04C103C132302F
:1000200032323035313430353231000000000000DA
:1000300000000000000000000000000000000000C0
:1000400000000000000000000000000000000000B0
:1000500000000000000000000000000000000000A0
:100060000000000000000000000000000000000090
:100070000000000000000000000000000000000080
:100080000000000000000000000000000000000070
:1000900000000000000000000003060A0D11151802
:1000A0001C2125292E32373C42474C52585E656B45
:1000B000727980878F979FA7B0B9C2CBD5DFE9F45B
:1000C000FF00000000000000000000000000000031
:1000D0000000000000000000000000000000000020
:1000E0000000000000000000000000000000000010
:1000F0000000000000000000000000000000000000
:1001000000000B0D10121417191C1F2225282B2F6D
:1001100032363A3E42464B50555A5F646A70767D9D
:10012000838A9199A1A9B1B9C2CCD5DFE9F4FFFFC7
:10013000FFFFFFFFFFFFFFFFFFFFFFFFFFFFFFFFCF
:10014000FFFFFFFFFFFFFFFFFFFFFFFFFFFFFFFFBF
:10015000FFFFFFFFFFFF000101020203030405058B
:1001600006070809090A0E0F1011121314151618A4
:100170001A1C1E202225272A2D3033363A3E4145AF
:100180004A4E53585D62686E747B82899199A1AA28
:10019000B3BCC6D0DBE7F3FFFFFFFFFFFFFFFFFFAE
:1001A000FFFFFFFFFFFFFFFFFFFFFFFFFFFFFFFF5F
:1001B000FFFFFFFFFFFFFFFFFFFFFFFFFFFFFFFF4F
:1001C000FFFFFFFFFFFFFFFFFFFFFFFFFFFFFFFF3F
:1001D000FFFFFFFFFFFFFFFFFFFFFFFFFFFFFFFF2F
:1001E000FFFFFFFFFFFFFFFFFFFFFFFF00001124E6
:1001F0001FBECFE5D2E0DEBFCDBF10E0A0E6B0E08D
:10020000E4ECFFE102C005900D92A439B107D9F7E3
:1002100021E0A4E9B0E001C01D92A833B207E1F7E4
:100220000DDCCECEEDCE482F362F272FE5E0F1E0C6
:1002300090E080E0508151110AC063E070E062DE1E
:10024000FC01EB5FFE4F40833183228305C00196A2
:1002500033968031910571F70895BC018091370183
:10026000E2CF10923701109236011092350181E0F1
:100270008093BF00089590E822E048EA57E030E01C
:10028000815008F408950FB6F89496BD26BD0FBEB0
:10029000FA013197F1F70FB6F89496BD36BD0FBE4F
:1002A000EFCF86B1886486B9089586B383FB88272B
:1002B00080F991E089278093DB000895E091660042
:1002C000F09167003196FB70F460F0936700E09363
:1002D00066008091D7008B5A8093D700E49180917B
:1002E000D7008E0F0895CF93DF9300D000D000D0B9
:1002F000CDB7DEB72091BA004091F3005091F400E1
:10030000415A554009F422E0843059F46093BB000F
:1003100026960FB6F894DEBF0FBECDBFDF91CF910A
:1003200008956623A9F3823019F497E9961B692F83
:1003300096E0EEE7F0E0DE01119601900D929A95BD
:10034000E1F78150990B880F991FA1E0B0E0AC0F45
:10035000BD1F8A0F9B1FDC01ED91FC91E20FF11D87
:100360006083D6CFCF92DF92EF92FF920F931F93CD
:10037000CF93DF939C015091BA00E0917A0082E024
:10038000E11101C0852F90E0DC01AC58BF4F4C91CA
:10039000409378008F589F4FDC018C9180937700B9
:1003A000F0E0E259FF4FC181642F70E0552381F0E6
:1003B000C13071F4860F972F911D95958795DF9128
:1003C000CF911F910F91FF90EF90DF90CF90089504
:1003D000261737078CF1821713068CF3511102C0D0
:1003E000822FEDCF841B6C2F6150770B8B01E82E91
:1003F000F12CC701B8DD6093B9006695E62FF0E0F7
:10040000842FD12CC12CD0E0DC17C9F2C601B80171
:1004100096DD842F860FA82FB0E0B9016A1B7B0BF5
:1004200077FF03C0BD01621B730BCE0CDF1CE61708
:10043000F7072CF6DF5FE8CF842FC1CF81E0089566
:10044000662369F0813099F48091F5009091F6006F
:10045000891B680F6093F50082E080937D00809196
:100460007C00873418F086E480937C000895635EF6
:1004700060937C00F4CF6093B40008950F931F93B2
:10048000CF93DF938091BA008093C0008091740075
:100490008093C100809171008093C20080917500AB
:1004A0008093C300809172008093C40080916F009C
:1004B0008093C500809176008093C6008091730080
:1004C0008093C700809170008093C80080917A006B
:1004D0008093C9008091BB008093CA00809179000D
:1004E0008093CB008091BD008093CC008091BC00B4
:1004F0008093CD0080916B008093CE008091690045
:100500008093CF0080916A008093D0008091680032
:100510008093D10080916C008093D20080917C0008
:100520008093D3008091F5008093D40080916D007A
:100530008093D5008091B4008093D600F89400ECAD
:1005400010E0C1E0D1E0F80161918F01CE0126DD1C
:100550002196C831F1E0DF07B1F765EA80E091E06C
:100560001DDD7894DF91CF911F910F910895109226
:10057000040134B185B12091D70032953695369576
:10058000337090E0880F991F880F991F830F911D7A
:10059000820F8093D7008091F900882309F449C025
:1005A0001092F900809102019091DA00992319F0DC
:1005B000379810920201811145C080917D006091B1
:1005C000FA007091FB00882341F06091FE00709169
:1005D000FF007093FB006093FA00605F7F4F86E03E
:1005E000769567958A95E1F780E098E5A8DC6B5FE2
:1005F0007F4F769567956093F8008091B0008823CF
:10060000C9F081508093B0008091DA00811108C058
:100610008FEA87B981E0809302011092030141DEE5
:1006200080917D00882329F080917D008150809306
:100630007D0008956D3140F770E060E084E0F3DD07
:1006400085E0E0CF813061F780917D0081115FC04E
:100650008091FC009091FD0040969C0145E036950C
:1006600027954A95E1F7E091F50056E09695879534
:100670005A95E1F70E2E000CFF0BAF01435151408C
:10068000840F951F9093F7008093F60080919F0050
:10069000A82FB0E0AA0FBB1FA056BF4F4D915C9191
:1006A0001197B901641B750BAB012D933C938F5FC0
:1006B000877080939F00660F771F660F771F80916A
:1006C0007C0090E08D5E9E4F8E1B9F0B880F991FC4
:1006D000681B790B620F731F83E0161617060CF068
:1006E00045C0615071098150C1F7161617060CF00C
:1006F00057C057FD74C080919E001816F4F5861BF4
:1007000080939E008CE287B91092020186CF80917F
:100710000001909101019093FD008093FC004096B0
:1007200035E0969587953A95E1F79093A1008093EF
:10073000A0009093A3008093A2009093A5008093C3
:10074000A4009093A7008093A6009093A9008093A3
:10075000A8009093AB008093AA009093AD00809383
:10076000AC009093AF008093AE0072CF611571051D
:1007700009F4B9CF6F5F7F4FB6CF660F771F653033
:1007800071055CF0635071097595679588E1861B6A
:1007900080939E0085E047DDB5CF61E070E0F6CF45
:1007A0006C3F8FEF7807DCF457FF19C080919E00F3
:1007B00087FF02C08450A3CF84EE861B80939E00E7
:1007C0008091F8008F3108F49DCF8CEF9FEF9C0152
:1007D000261B370BB9017595679586E0DCCF8091B4
:1007E000F8008E3108F48ECF70E060E087E0D3CF60
:1007F000882321F0813029F0BA9A04C0BA98C298AF
:100800000895BA98C29A0895CF93C82F8093D900BB
:100810008093D8008091DA00811101C0E9DFC11115
:1008200010C019BC18BC1BBC8091D9008830E0F402
:1008300080E892E00FB6F89486BD96BD0FBECF91CA
:100840000895C1508C2F90E0FC01E95AFE4FE491CD
:10085000E9BDFC01EF53FF4FE491E8BD855D9F4F7B
:10086000FC0184918BBDE0CF803118F480E891E0E9
:10087000E1CF80E890E0DECF8093BE00C5CFCF937C
:10088000C091D90089E18C0F873908F080E0BCDF86
:1008900082E0F1DC8C2FCF91B7CFCF93C091D900FC
:1008A00080E0B2DF83E0E7DC8C2FCF91ADCF8130E9
:1008B00019F41092BD000895823019F46093BC00C1
:1008C0000895843011F4609379000895E82F8091A1
:1008D000F8008D3110F480E08BCFEF70F0E0EC5732
:1008E000FF4F8081F9CFFF920F931F93CF93DF9338
:1008F0008C01D62FC72FF42E8091F3009091F40035
:10090000892B31F0E091F300F091F40089E0099532
:100910001093F4000093F300012B41F0E091F300F9
:10092000F091F4006D2F7C2F8F2D099581E080933D
:10093000BF00DF91CF911F910F91FF9008952091FB
:10094000E200283080F4E22FF0E0EE0FFF1FED51BF
:10095000FF4F808391832F5F2093E20048E0C3DF45
:100960008091E20008958FEF0895282FCB013091F8
:100970007A00311146C0283039F41092B800109234
:10098000B6001092B5000895213B59F48091B8004B
:1009900081508330B0F583E08093B8008093B70036
:1009A0000895253B99F46EE370E0C9DA892B49F587
:1009B0008091B8008A3F28F58B5F8093B8008093C0
:1009C000B7001092B6001092B50059CF2130C9F48B
:1009D0008091B5009091B600019688382EE092077C
:1009E00028F49093B6008093B50008951092B60055
:1009F0001092B5008091B800882319F0815080933F
:100A0000B8000895EF92FF921F93CF93DF93109158
:100A10000501111106C0DF91CF911F91FF90EF905A
:100A20000895E0900601F0900701C091E200C150E6
:100A30000C2E000CDD0BC7FD0EC0FE01EE0FFF1FDC
:100A4000ED51FF4F0190F081E02DB701812F099505
:100A500021978111F0CFE5E0F1E0838180838481EB
:100A6000958192838183339681E0E233F807A9F779
:100A7000109232011092340110923301C8CF80914C
:100A8000E200882319F081508093E200E091E200B7
:100A900090E080E0EE2341F0E150FF0BEE0FFF1FEE
:100AA000ED51FF4F808191814AE070E060E01BCF03
:100AB000582FCB01F901583089F41092990080E049
:100AC000A3DE8091DB0081111CC081E0809399003E
:100AD00070E060E081EB95E032DF13C0252F207FCE
:100AE000203BB1F420919900421780F06DE570E051
:100AF00026DA029741F42F5F2093990088E342178A
:100B000018F480E0089582E17FDEFBCF80E0FCCF27
:100B1000203E41F480919900882311F04817C0F6D7
:100B2000AEDFEFCF5A3069F76091B1008091990044
:100B30000995A4DCF5CF4091BA004E5F23E731E080
:100B4000B7CF23E731E044E0B3CF27E534E044E01A
:100B5000AFCF20E232E042E0ABCF2BE332E041E026
:100B6000A7CF883039F41092B1001092980080E03D
:100B70004BDE0CC08130F9F490919800911108C0BF
:100B80006032710518F0809398006BDB80E0089567
:100B9000913079F46B3B710520F082E080939800EE
:100BA000E6CF6115710591F3862F880F84708E5EF4
:100BB000DFCF65DFEBCF813811F0813E39F791E06F
:100BC00090939800813E41F48091B100865F8093BC
:100BD000B10047DB8BE4CCCF8091B1008F5FF7CFC2
:100BE0000F931F93CF93DF93D82FC92F8B0147DF2C
:100BF000B8018D2F9C2FDF91CF911F910F919FCE28
:100C0000CF93C0917A00C11111C0813C41F470E0D2
:100C100060E088E596E0E4DF8C2FCF910895823C78
:100C200029F470E060E088E196E0F5CFC1E0F4CF10
:100C3000813C39F470E060E088E596E0D1DF80E047
:100C40000895823C29F470E060E081E599E0F6CFF8
:100C5000873B31F470E060E089EA95E070DEEFCF29
:100C600081E00895843011F58091F3009091F400B3
:100C70002BE08332920731F469E170E082E397E080
:100C8000AFDF0DC08253974061F49091D90092304C
:100C900040F0892F869596959695890FEDDD80E039
:100CA000089570E060E088E596E0EACF81E008957D
:100CB0000F931F93CF938B018830A1F480E0A4DDC4
:100CC00080916D00837094DD1092B800012B31F09B
:100CD000C0E08C2FCF911F910F91089581E08093F8
:100CE000DA00F6CF813051F46931710588F38093D1
:100CF000DA0080916D0083707BDDEACF833031F5BF
:100D00002091BD00222359F08091BC0090E062EC5C
:100D100071E0F8D80817190710F020937B00809134
:100D20006D008370833011F4802FD0DD8091B4008A
:100D3000882371F290E062EC71E0E4D880179107AB
:100D400038F670E060E088E799E012C0813B91F4EA
:100D500081E090E007DB58DD8091BA00811104C08A
:100D60000831110508F4B4CF61E070E082E397E048
:100D700037DFAECF813EC1F3813831F480917B0003
:100D800090E0F0DA41DDA4CF813C21F46091D900FC
:100D900070E0ECCF823B71F48091790090917A0001
:100DA00091118091BB00811103C086E990E0E9CFE9
:100DB00086E9E8CF823E11F480E0E4CF66E970E096
:100DC000823CA1F28339C1F3833C29F470E060E0F6
:100DD00080E096E0CDCF843C11F451DDB2CF8F3C62
:100DE00029F470E060E08EE192E0C2CFC0917A0019
:100DF0008A3B79F4012BA1F5CC2329F040DD109238
:100E00007A003CDB65CF70E060E081EA95E097DD39
:100E100060CFC11125C08A3C31F431DD81E080937F
:100E20007A002CDB56CF833B31F470E060E083E244
:100E30009BE0D6DE4ECF853C31F421DD70E060E0F2
:100E400085E99CE0F6CF873C59F490916D0081E0F4
:100E5000890F83709C7F982B90936D00C9DCE1CF44
:100E6000C1E037CF9F92AF92BF92CF92DF92EF92C5
:100E7000FF920F931F93CF93DF93C82F8B01B090F6
:100E80007800E0907700C090BA009090B900C1104F
:100E900002C099249394D0907900D0917A00D11116
:100EA000D090BB00DD2009F441C041E0D41621F010
:100EB00080917B008E15D0F1A6E9FA2EA090B800A3
:100EC000B8018C2F52DD6091B800662309F4E0C1AF
:100ED000A11004C08091D90080939C008C2F8D7F3D
:100EE000883031F51092B300CA3019F400917B00BC
:100EF00010E0B016110630F4E016110619F010F0EB
:100F000000937B00C8012EDAB7DC81E08093650096
:100F1000D0E08D2FDF91CF911F910F91FF90EF9037
:100F2000DF90CF90BF90AF909F900895FE2CC6CFDA
:100F3000C13C09F4B0C1C23C71F48091D9008F1555
:100F400038F48F2D99DC8091D90080939C00E0CFFC
:100F500080917B00F7CFC43C39F480E055DC70E031
:100F600060E088E799E09BC18FE48C0F823008F045
:100F700041C0CC2031F0C80168E170E0E0D7892B96
:100F800039F68091D9000115110511F5C23BD1F454
:100F90008FEF80936500D091D90080916500692D15
:100FA00070E0082E000C990BADD78D0F911DDAD98A
:100FB000C82F80937B00D81719F08E1101C06DDC0B
:100FC0008C2FC0CF8E1520F7B81628F381E0E1CF23
:100FD000073351E0150710F08E15D0F60D3612408C
:100FE000D0F2B816C0F24BDC70E060E088E799E020
:100FF000F7DDD1CF8FE18C0F823020F48091650036
:10100000819584CFC13009F0BAC00932110511F4BD
:10101000C0936500662389F080919C006150770B36
:1010200090E070D76091B70070E09DD7611101C06A
:1010300061E06093D8006093BE008091D8009091E9
:10104000D900E82FE91BFF0B9F0160919A00709176
:101050009B006F5F7F4F70939B0060939A00309767
:1010600009F456CF40E052E0F7FF06C040E450E0FC
:10107000933810F440E051E05695479537FF02C091
:101080002F5F3F4F3595279521153105A9F7461755
:10109000570708F03DCF891708F04AC08FEF890F36
:1010A000AFEFA80F2A2F30E0B901695A7E4FFB013C
:1010B0004491A91708F041C099B591113EC04F3F26
:1010C00009F03BC049BDA9014F535F4FFA0194910C
:1010D000E091D900AE1708F03EC0E8B5E1113BC081
:1010E0009F3F09F038C098BD255D3F4FF9019491AD
:1010F000EBB5E91708F03CC09BB59F5F9BBD99B568
:10110000FB01649196130FC098B5FA0144919413B2
:101110000AC09BB5F9012491921305C0C091D80073
:1011200073DBC093D80010929B0010929A00F0CE0F
:10113000981708F0B5CF81E0B2CF99B5941720F495
:1011400099B59F5F99BDBFCF99B5491708F0BBCF3F
:1011500099B59150F7CFE8B5E91718F498B59F5FA6
:10116000C2CFE8B59E1708F0BFCF98B59150BBCF5E
:10117000EBB59E1708F0C3CF9BB59150BFCFC530DC
:10118000A9F48091D900823408F4C2CE90E0801B8B
:10119000910B282F813491053CF08739910508F097
:1011A00026E92093D800B4CE21E4FBCFC630B1F4B9
:1011B0009091D9008091BE00981708F0A9CE090F30
:1011C000111D90E08017910734F0C801013411051A
:1011D00014F481E490E08093D8009ACEC73069F48B
:1011E0009091D8008091D900891710F48F5FF3CFC8
:1011F000981708F08DCE8150EECFD11147C0C33C77
:1012000099F481E0C11080E08093BA0037D945DBC2
:101210008091D90090E0A6D880937B002DDB80914F
:10122000D90080939C0075CEC33B51F4012B09F08B
:101230006FCEDD2011F086E9F82E8F2D1DDB69CEF3
:10124000C33E19F480917B00F9CFC53C41F480E0A6
:10125000DBDA70E060E085E99CE0C2DC5ACE70E049
:1012600060E08BE995E0C73B79F0CA3C39F48091A6
:10127000D9008093BD0002D902DB4BCECA3B31F4CA
:1012800070E060E085EA95E05ADB43CED1E041CEE4
:10129000AA2009F423CE70E060E088E596E0A0DCA7
:1012A00037CE282FCB01213C39F470E060E088E58F
:1012B00096E096DC80E00895223C29F470E060E03E
:1012C00080E096E0F6CF213B39F46EE370E037D64C
:1012D000892B81F7D4DAEECF213E41F46EE370E042
:1012E0002ED66F5F60936C00C9D8E4CF81E008957B
:1012F000CF93DF93D82FCB012D2F20792039F1F414
:1013000090917400209175008D2F8F70823049F478
:101310008091BD00811108C0822F291728F4892FE0
:1013200003C0822F9217D8F36FDAD33CB1F5A7DA56
:1013300070E060E088E596E053DC24C0203811F4CA
:1013400080E0F2CFD83091F480916D00869586953B
:101350004FDAC0917A00C11155C0DA3B09F03FC0A5
:1013600070E060E08DEA95E0EADA25C0D13061F402
:101370006931710538F0D093DA0080916D0086955F
:10138000869536DAC0E017C0D33079F620916D002B
:101390002C702C30B9F79ADAF5CFD43C81F4C09197
:1013A000BD006C2F70E0C11111C060917B0070E036
:1013B00082E397E015DC8C2FDF91CF910895D43B29
:1013C00041F46BDA1092370161E070E082E397E05C
:1013D000B3CFD53C09F0BDCF66E970E0F7CFD73C7D
:1013E00089F490916D00892F869586958F5F837023
:1013F000282F220F220F9370920F90936D00F8D92F
:101400003DD8D9CFC1E0D7CF8CE287B91092020185
:101410001092030146D787EE86B908950F931F9364
:10142000CF931092DD0080913501909136019C019F
:101430002F5F3F4F88279078822B932B9093360114
:1014400080933501C091DB0030D7C817B1F01092FE
:10145000DA008093DB0090913701882399F1892F7E
:1014600080699F709F3061F58093370190E080E044
:10147000F4D6109236011092350100913501109189
:1014800036018091DA00882359F1B80183E0CBD688
:10149000B9DA0F731127012B79F410929D00B4DF94
:1014A000C0919D00C11104C0FCD681E08093F90079
:1014B000CF5FCF71C0939D00CF911F910F91089581
:1014C0008F5FD2CF892F8F7E95FD08C08068809373
:1014D00037018091350190913601CACF806CF7CFEA
:1014E000C09137018C2F807F803B39F470E060E041
:1014F00081E099D6C801B1D6D3CFB80181E093D6A7
:10150000C4FF0FC0C5FDF6CF0831110548F2109297
:10151000360110923501C062C093370190E080E03F
:10152000EACFCC2309F4BCCFC5FF02C09AD6B8CF0E
:101530000231110508F4B4CFC064C093370190E0C4
:1015400080E08BD6F3CF80910401811110D8809177
:10155000DD00811163CF0895BF92CF92DF92EF92A9
:10156000FF920F931F93CF93DF93EC0110E888E075
:10157000E82E87E0F82E02E092ECC92EDD24D39409
:10158000B12C209751F4DF91CF911F910F91FF90D3
:10159000EF90DF90CF90BF9008958091BF008111B0
:1015A000F2CF9091D900983090F40FB6F89416BD10
:1015B00006BD0FBEC6010197F1F78B2D0FB6F8944B
:1015C00016BD86BD0FBEBFDF1DDA2197DACF0FB67D
:1015D000F89416BD86BD0FBEC701EDCF0F931F93C4
:1015E000CF93C82F06EA811102C008E0C1E010E0E5
:1015F00089E10AD9C801B0DF80E006D98AEF90E01E
:10160000ABDFC150A9F78AE992E0CF911F910F910A
:10161000A3CFCF93DF93282F64E685D4382FC92F2B
:10162000892F6AE080D4D92F243650F0832FD6DF5B
:101630008C2F6AE078D4D2DF8D2FDF91CF91CECF7F
:10164000CA30B0F7F9CFDF92EF92FF920F931F935A
:10165000CF93DF93D82F8B01C0916B0081E08093F3
:10166000B300C33079F4F090B8008D2F7ED9FF20FD
:10167000A1F08091B800811110C070E060E088E5B1
:1016800096E0AEDAD83071F0D13C09F0F6C070E0E7
:1016900060E088E596E0A4DA08C0D83041F481E043
:1016A0008093630081E08093640080E033C1D23C8A
:1016B00061F41092B8008C2F90E0019666E070E023
:1016C00052D480936B00DAD6F0CFD13BC1F4809135
:1016D0006200012B41F49FEF8E3618F4823018F42B
:1016E00091E09093630090916300890F21F481E071
:1016F00080936200DACF8F36D8F38EE6F9CFD13EF1
:1017000059F4809163008195809363008091640017
:10171000819580936400D7CFD23BE1F481E0809340
:10172000630080916200823018F0815080936200E3
:1017300081E080936400C23008F0DFC000FDB5CFC7
:10174000EC2FF0E0E759FF4F80818F3F09F4ADCFD8
:101750008F5FAAC0D13009F0E5C00932110511F43C
:10176000D0936300D09097008D2D880FD7FC809583
:1017700090E067E070E0C6D3292FE09096008E2DB0
:10178000880FE7FC8095D09161006D2F70E090E0AC
:10179000B9D3290FF09095008F2D880FF7FC809515
:1017A000C09160006C2F70E090E0ACD3622F690FA5
:1017B00080916200680F7727771F8091B800813091
:1017C00091F48091B5009091B60025E096958795AB
:1017D0002A95E1F724E730E0A901481B590BCA011B
:1017E00091D3B901ACD3862F0FD800FD05C066D5C3
:1017F00081708D0D80939700809194008E0D809361
:1018000096005CD565E28FD39F0D9093950056D5D9
:101810008F7329F453D56DE086D390939400DD2324
:1018200031F04CD58F7319F4D150D093610046D567
:10183000811107C043D56BE076D39093610010927D
:101840009600C33030F03AD58F7119F4C150C0936F
:10185000600034D58F7729F431D566E064D3909356
:1018600060000932110519F481E0809364008091D1
:10187000D700080F0093D70018CFD23C09F41BCF34
:10188000D13B49F5C23090F400FD0FCFEC2FF0E0D2
:10189000E759FF4F808190916400891B8F3F08F0CA
:1018A0008EEF883008F488E08083FFCEC43009F0E2
:1018B000FCCE8091680090916400890F823038F4EA
:1018C00082E080936800809168009ED7EECE8937D1
:1018D000C0F388E7F6CFD13E09F418CFD23B09F424
:1018E00027CFD23E09F4EFCED53C81F470E060E022
:1018F00085E99CE075D980E0E8CFC43009F0D5CE09
:10190000809168008330F8F28150DBCF81E0D130E4
:1019100009F4A7CFDF91CF911F910F91FF90EF9026
:10192000DF900895D13CE9F6B2CE0F931F93CF9389
:10193000DF93D82F8B01883031F48091B300813050
:1019400011F488E080DE8D2F8079803991F481E078
:101950008093B200C091B300CC2311F0C0E003C06B
:1019600080917B0051D78C2FDF91CF911F910F91E8
:101970000895803829F41092B20080E045D7EECF68
:10198000C1E0D13081F7C091B200CC2351F08091F9
:10199000B300813019F7B801DF91CF911F910F91FA
:1019A00052CE07331140D0F2D093DA0080E020D736
:1019B000DACF2F932FB72F933F938F939F93AF93AC
:1019C000BF93EF93FF93809103018823E9F0E091A7
:1019D000020124B135B1F0E0EE0FFF1FDF01A2508C
:1019E000BF4F2D933C93E650FF4F8081918182172A
:1019F000930708F401962817390708F40197918393
:101A0000808381E08093040181E080930301FF9152
:101A1000EF91BF91AF919F918F913F912F912FBFE8
:101A20002F9118958F9381E08093DD008F91189509
:101A30008F9381E08093DC008F911895F89484B7A0
:101A4000877F84BF0FB6F894A89581B5886181BD62
:101A500011BC0FBEB89A81E083BF91EA9ABDB99AD2
:101A6000BC9A80BF80E68CBD8FEF8DBD88E088BBBF
:101A700085BB8BB780628BBFA89581B5886181BD1E
:101A800080E481BDC1DC789481E0F5D370E060E052
:101A900082E396E054D71092BF00F1D606D48111AC
:101AA00073C0F89480E091E071D2853A09F094C057
:101AB00000EC10E0C1E0D1E0CE0168D2F8018193E2
:101AC0008F012196C831F1E0DF07B1F7789480915A
:101AD000C0008093BA008091C1008093740080910F
:101AE000C200809371008091C30080937500809143
:101AF000C400809372008091C50080936F00809134
:101B0000C600809376008091C70080937300809117
:101B1000C800809370008091C90080937A00809102
:101B2000CA008093BB008091CB00809379008091A4
:101B3000CC008093BD008091CD008093BC0080914B
:101B4000CE0080936B008091CF00809369008091DC
:101B5000D00080936A008091D100809368008091CA
:101B6000D20080936C008091D30080937C008091A0
:101B7000D4008093F5008091D50080936D00809112
:101B8000D6008093B40029C0C0E08C2F3DD683E1FD
:101B900090E0E2DC8C2F869537D683E190E0DCDCA8
:101BA00084D38823B1F0CF5FC03479F765E181E059
:101BB00047D464D4C6E98C2F27D684E090E0CCDCEF
:101BC000C150C9F76ECF8C2F1FD68DE090E0C4DCDA
:101BD000C150C111F8CF65CF78948091BD008111BB
:101BE00080937B0061E070E088E596E0A8D643E44E
:101BF000242E52E0352E60E4462E772473947CEF39
:101C0000872E73E0972E512C612CE8E5CE2EE6E06E
:101C1000DE2EF8D68091E0009091E100009749F027
:101C20006091DE007091DF00DBD71092E10010922E
:101C3000E0008091DA00882321F180E0E5D5A895C5
:101C400081B5886181BD21BC37982FD38111FDCF2B
:101C500008D38BB780628BBF109204011092DD0015
:101C60001092DC008091DA0081112DC030927D004D
:101C70008BB78F7D8BBFC8DBA89581B5886181BD8F
:101C800041BC61DC1092BF008091F3009091F400A0
:101C900022E08E319207B9F5CEE1D0E0FE018491C9
:101CA00080539CDC8CE291E057DC2196F0E0CA3254
:101CB000DF07A1F7D092E100C092E0001092DF00B0
:101CC0001092DE00A6CF85B7877E806185BF85B77D
:101CD000806285BF889585B78F7D85BF8091DC0048
:101CE00081111092DA0080910401882329F070920A
:101CF0007D007092F9003BD48091DD00882309F4C7
:101D0000B1CF8CDBAFCF2BE08332920779F0ECE0E0
:101D100085399E0709F0BDC08091B300813009F07C
:101D2000E6C08091B200882309F4E1C0C0916B0045
:101D3000C43009F495C008F06AC0C23008F474C019
:101D4000C23009F066CFBAD28F73082F10E0B6D236
:101D500067E0E9D0C1E0D0E07E0102C0EE0CFF1CDC
:101D60009A95E2F7ABD265E0DED002C0CC0FDD1F62
:101D70009A95E2F7CE0DDF1DA1D290E0BE01F3D01F
:101D8000C80FD91FC739D10524F0F6E9CF2F20E0BD
:101D9000D22F8C2F39D5C801DFDB7E0133E0F594DB
:101DA000E7943A95E1F7E11002C0EE24E394F12CB8
:101DB000C801D2DB5E01AE18BF08E501B7FE02C064
:101DC000C52DD62D8C2F20D579D2837031F4C80142
:101DD000C3DBCE019595879517D5F2E0AF16B10418
:101DE0003CF76CD26DE09FD001E010E002C0000F24
:101DF000111F9A95E2F762D2E801219790E0C8237B
:101E0000D923C00FD11F80E0FFD4CE011FC0C53041
:101E100009F0FFCE80E4F8D480E094E09DDB80E020
:101E2000F3D480E094E012C0EC2FF0E0E759FF4FCC
:101E3000D0818EE6E9D4C1110FC0DA3248F4C40172
:101E40000197F1F780E0E0D48D2F90E085DBE1CEC3
:101E500081E090E081DBF6CF8D2F869590E0FACF80
:101E6000D0916800DD0FD73908F0D6E98D2FCCD49A
:101E700085E090E071DB80916800C6D481E490E059
:101E80006BDBC15099F780ED92E066DB80E0BCD45B
:101E9000C0CE26E08030920751F48091F800B9DB83
:101EA00080917A00811106CF88EE93E0CFCFE6E0F3
:101EB00088319E0721F48091F600ABDBF5CF815588
:101EC0009940A9F48091DB008111A3CE80917B0021
:101ED0009BD484E690E040DB80E096D480916C0057
:101EE00090E068EE73E00ED084569109AFCF85B7CD
:101EF000877E85BF85B7806285BF889585B78F7DD2
:101F000085BF87CE0024552704C0080E591F880FAF
:101F1000991F009729F076956795B8F37105B9F781
:101F2000802D952F0895991B79E004C0991F96176D
:101F300008F0961B881F7A95C9F780950895AA1B0B
:101F4000BB1B51E107C0AA1FBB1FA617B70710F0A4
:101F5000A61BB70B881F991F5A95A9F780959095D6
:101F6000BC01CD01089597FB072E16F4009406D00E
:101F700077FD08D0E4DF07FC05D03EF4909581950D
:101F80009F4F0895709561957F4F0895E199FECF19
:101F90009FBB8EBBE09A99278DB30895262FE199B8
:101FA000FECF9FBB8EBBE09A01970DB2021639F0AF
:101FB0001CBA2DBB0FB6F894E29AE19A0FBE0895B1
:041FC000F894FFCFC3
:101FC400060B18010101000441294303020D010716
:101FD4000582826E010F0F82010201412D027400FD
:101FE40071006E0000010201000000000000010009
:041FF40000000000E9
:00000001FF
