:10000000ABC0C5C06ECCC3C0C2C0C1C0C0C0BFC041
:1000100029CCBDC0BCC0BBC05ECCB9C0B8C03230FA
:1000200032323035313430343431000000000000D9
:1000300000000000000000000000000000000000C0
:1000400000000000000000000000000000000000B0
:1000500000000000000000000000000000000000A0
:100060000000000000000000000000000000000090
:100070000000000000000000000000000000000080
:100080000000000000000000020507090C0E10131C
:1000900016181B1E2124272A2D3034373A3E42459C
:1000A000494D51555A5E62676B70757A7F84898FAE
:1000B000949AA0A6ACB2B8BFC5CCD3DAE1E8F0F709
:1000C000FF010102020303040405050606070808F0
:1000D000090A0A0B0C0D0E0F0F101112141516172A
:1000E000181A1B1C1E1F2122242627292B2D2F31D5
:1000F0003335383A3C3F4144474A4D505356595D99
:100100006064676B6F73777C8084898E93989DA3FE
:10011000A8AEB4BAC0C6CCD3DAE1E8F0F7FFFFFF6F
:10012000FFFFFFFFFFFFFFFFFFFFFFFFFFFFFFFFDF
:10013000FFFFFFFFFFFFFFFFFFFFFFFFFFFFFFFFCF
:10014000FFFFFFFFFFFFFFFFFFFFFFFFFFFFFFFFBF
:10015000FFFFFFFFFFFF000011241FBECFE5D2E02D
:10016000DEBFCDBF10E0A0E6B0E0E4EBFEE102C0F0
:1001700005900D92A438B107D9F721E0A4E8B0E0CA
:1001800001C01D92AB32B207E1F7B1DB91CE38CF9F
:10019000482F362F272FE8EFF0E090E080E05081E5
:1001A00051110AC063E070E025DEFC01E850FF4F0A
:1001B00040833183228305C00196339680319105B7
:1001C00071F70895BC0180912A01E2CF10922A01B3
:1001D000109229011092280181E08093B0000895C7
:1001E00090E822E048EA57E030E0815008F40895B2
:1001F0000FB6F89496BD26BD0FBEFA013197F1F700
:100200000FB6F89496BD36BD0FBEEFCF86B18864A9
:1002100086B9089586B383FB882780F991E0892702
:100220008093CE000895E0916600F09167003196CA
:10023000FB70F460F0936700E09366008091CA0061
:100240008B5A8093CA00E4918091CA008E0F089562
:100250008093CC008093CB0081110EC019BC18BCD8
:100260008091CC008730A8F480E892E00FB6F89433
:1002700086BD96BD0FBE0895815090E0FC01EF53FE
:10028000FF4FE491E9BD855D9F4FFC01849188BDDE
:10029000E7CF8E3018F480E891E0E8CF80E890E076
:1002A000E5CFCF93DF9300D000D000D0CDB7DEB73D
:1002B0002091AB004091E6005091E7004853554033
:1002C00009F422E0843059F46093AC0026960FB60E
:1002D000F894DEBF0FBECDBFDF91CF9108956623A6
:1002E000A9F3823019F497E9961B692F96E0EEE79F
:1002F000F0E0DE01119601900D929A95E1F78150A0
:10030000990B880F991FA1E0B0E0AC0FBD1F8A0FB9
:100310009B1FDC01ED91FC91E20FF11D6083D6CFB4
:10032000CF92DF92EF92FF920F931F93CF93DF93C1
:100330009C015091AB00E091790082E0E11101C095
:10034000852F90E0DC01AD58BF4F4C914093770072
:1003500080599F4FDC018C9180937600F0E0E35947
:10036000FF4FC181642F70E0552381F0C13071F4DB
:10037000860F972F911D95958795DF91CF911F91AE
:100380000F91FF90EF90DF90CF90089526173707D9
:100390008CF1821713068CF3511102C0822FEDCF1E
:1003A000841B6C2F6150770B8B01E82EF12CC70159
:1003B00052DD6093A9006695E62FF0E0842FD12CE2
:1003C000C12CD0E0DC17C9F2C601B80130DD842FA2
:1003D000860FA82FB0E0B9016A1B7B0B77FF03C023
:1003E000BD01621B730BCE0CDF1CE617F7072CF662
:1003F000DF5FE8CF842FC1CF8093AF0029CFCF93A9
:10040000C091CC0089E18C0F873908F080E020DFB3
:1004100082E0E6DE8C2FCF911BCFCF93C091CC0032
:1004200080E016DF83E0DCDE8C2FCF9111CF81E0FE
:100430000895611160937C000895662369F081300E
:1004400099F48091E8009091E900891B680F60930E
:10045000E80082E080937D0080917B00873418F073
:1004600086E480937B000895635E60937B00F4CF05
:100470006093A40008950F931F93CF93DF9380910F
:10048000AB008093B100809173008093B2008091A3
:1004900070008093B30080916D008093B4008091D0
:1004A00074008093B500809171008093B6008091B4
:1004B0006E008093B700809175008093B8008091A2
:1004C00072008093B90080916F008093BA00809190
:1004D00079008093BB008091AC008093BC00809138
:1004E000AA008093BD00809178008093BE00809127
:1004F000AE008093BF008091AD008093C0008091DA
:100500006B008093C100809169008093C20080914C
:100510006A008093C300809168008093C40080913A
:100520006C008093C50080917B008093C600809111
:10053000E8008093C70080917C008093C800809180
:10054000A4008093C900F89401EB10E0C1E0D1E071
:10055000F80161918F01CE0199DC2196CA31F1E059
:10056000DF07B1F765EA80E091E090DC7894DF91F5
:10057000CF911F910F9108951092F70034B185B17A
:100580002091CA00329536953695337090E0880FE9
:10059000991F880F991F830F911D820F8093CA00A6
:1005A0008091EC00882309F444C01092EC00809103
:1005B000F500811147C080917D006091ED00709140
:1005C000EE00882341F06091F1007091F200709389
:1005D000EE006093ED00605F7F4F86E07695679553
:1005E0008A95E1F780E098E522DC80917C00680F35
:1005F000711D769567956093EB008091A00088232C
:10060000C9F081508093A0008091CD00811108C075
:100610008FEA87B981E08093F5001092F600F6DD4D
:1006200080917D00882329F080917D008150809306
:100630007D0008956D3140F770E060E084E0A8DD52
:1006400085E0E0CF813061F780917D0081115FC04E
:100650008091EF009091F00040969C0145E0369526
:1006600027954A95E1F7E091E80056E09695879541
:100670005A95E1F70E2E000CFF0BAF01435151408C
:10068000840F951F9093EA008093E90080918F007A
:10069000A82FB0E0AA0FBB1FA057BF4F4D915C9190
:1006A0001197B901641B750BAB012D933C938F5FC0
:1006B000877080938F00660F771F660F771F80917A
:1006C0007B0090E08D5E9E4F8E1B9F0B880F991FC5
:1006D000681B790B620F731F83E0161617060CF068
:1006E00045C0615071098150C1F7161617060CF00C
:1006F00057C057FD74C080918E001816F4F5861B04
:1007000080938E008CE287B91092F50086CF80919D
:10071000F3009091F4009093F0008093EF004096E6
:1007200035E0969587953A95E1F7909391008093FF
:100730009000909393008093920090939500809303
:1007400094009093970080939600909399008093E3
:10075000980090939B0080939A0090939D008093C3
:100760009C0090939F0080939E0072CF611571054D
:1007700009F4B9CF6F5F7F4FB6CF660F771F653033
:1007800071055CF0635071097595679588E1861B6A
:1007900080938E0085E0FCDCB5CF61E070E0F6CFA1
:1007A0006C3F8FEF7807DCF457FF19C080918E0003
:1007B00087FF02C08450A3CF84EE861B80938E00F7
:1007C0008091EB008F3108F49DCF8CEF9FEF9C015F
:1007D000261B370BB9017595679586E0DCCF8091B4
:1007E000EB008E3108F48ECF70E060E087E0D3CF6D
:1007F000813019F41092AE000895823019F460939C
:10080000AD000895833019F46093AA0008958430F0
:1008100011F4609378000895FF920F931F93CF9384
:10082000DF938C01D62FC72FF42E8091E600909194
:10083000E700892B31F0E091E600F091E70089E0D4
:1008400009951093E7000093E600012B41F0E09139
:10085000E600F091E7006D2F7C2F8F2D099581E048
:100860008093B000DF91CF911F910F91FF90089579
:100870002091D500283080F4E22FF0E0EE0FFF1F2A
:10088000EA52FF4F808391832F5F2093D50048E089
:10089000C3DF8091D50008958FEF0895282FCB01F5
:1008A00030917900311146C0283039F41092A800F7
:1008B0001092A6001092A5000895213B59F4809152
:1008C000A80081508330B0F583E08093A800809326
:1008D000A7000895253B99F46EE370E0A8DA892B10
:1008E00049F58091A8008A3F28F58B5F8093A80086
:1008F0008093A7001092A6001092A50080CD213011
:10090000C9F48091A5009091A600019688382EE048
:10091000920728F49093A6008093A5000895109262
:10092000A6001092A5008091A800882319F081509C
:100930008093A8000895EF92FF921F93CF93DF93C7
:100940001091F800111106C0DF91CF911F91FF9017
:10095000EF900895E090F900F090FA00C091D50072
:10096000C1500C2E000CDD0BC7FD0EC0FE01EE0FBA
:10097000FF1FEA52FF4F0190F081E02DB701812F58
:10098000099521978111F0CFE8EFF0E08381808312
:100990008481958192838183339681E0E532F807E3
:1009A000A9F7109225011092270110922601C8CFB5
:1009B0008091D500882319F081508093D500E09173
:1009C000D50090E080E0EE2341F0E150FF0BEE0F08
:1009D000FF1FEA52FF4F808191814AE070E060E0A2
:1009E0001BCF582FCB01F901583089F410928900A0
:1009F00080E02EDC8091CE0081111CC081E08093CC
:100A0000890070E060E08CE495E032DF13C0252FB0
:100A1000207F203BB1F420918900421780F06DE5E2
:100A200070E005DA029741F42F5F2093890088E394
:100A3000421718F480E0089582E10ADCFBCF80E0E1
:100A4000FCCF203E41F480918900882311F04817A3
:100A5000C0F6AEDFEFCF5A3069F76091A100809108
:100A60008900099508DDF5CF21E531E043E0B9CFF4
:100A700021E531E044E0B5CF28EF33E044E0B1CFE9
:100A800029E132E041E0ADCF2DE132E042E0A9CFF3
:100A900028E332E041E0A5CF883039F41092A1007C
:100AA0001092880080E0D4DB0CC08130F9F4909182
:100AB0008800911108C06032710518F08093880099
:100AC00085DB80E00895913079F46B3B710520F06F
:100AD00082E080938800E6CF6115710591F3862F3F
:100AE000880F84708E5EDFCF63DFEBCF813811F02B
:100AF000813E39F791E090938800813E41F48091E6
:100B0000A100865F8093A10061DB8BE4CCCF809154
:100B1000A1008F5FF7CF0F931F93CF93DF93D82F51
:100B2000C92F8B0145DFB8018D2F9C2FDF91CF910D
:100B30001F910F919DCECF93C0917900C11119C023
:100B4000813C41F470E060E08EE696E0E4DF8C2FBB
:100B5000CF910895823C29F470E060E08BEB95E042
:100B6000F5CF873B31F470E060E080E495E080DE13
:100B7000EECFC1E0ECCF813C39F470E060E08EE66E
:100B800096E0C9DF80E00895823C29F470E060E0DF
:100B900080E399E0F6CF873B31F470E060E084E4D5
:100BA00095E066DEEFCF81E00895CF93DF93D82FF5
:100BB0002D2F20792039F1F4909173002091740049
:100BC0008D2F8F70823049F48091AE00811108C062
:100BD000822F291728F4892F03C0822F9217D8F368
:100BE00037DBD33CA1F40BDC70E060E08EE696E0EE
:100BF00092DF0BC0203811F480E0F2CFD13089F7BA
:100C00006931710510F0D093CD00C0E00EC0D43C26
:100C100081F4C091AE006C2F70E0C11111C06091E1
:100C20007A0070E08EE297E076DF8C2FDF91CF9133
:100C30000895D43B41F4F1DB10922A0161E070E0A9
:100C40008EE297E0D5CFD53C19F466E970E0F8CF95
:100C5000C0917900C11108C0DA3B31F470E060E066
:100C600088E495E005DEE1CFC1E0DFCF813C39F4D7
:100C700070E060E08EE696E04EDF80E00895823C12
:100C800029F470E060E08BE995E0F6CF81E008950B
:100C9000843011F58091E6009091E7002AE08E37CC
:100CA000920731F469E170E08EE297E034DF0DC025
:100CB0008E52974061F49091CC00923040F0892F91
:100CC000869596959695890F97DB80E0089570E05C
:100CD00060E08EE696E0EACF81E008950F931F93DF
:100CE000CF938B01883081F480E0B2DA1092A800B3
:100CF000012B31F0C0E08C2FCF911F910F910895FF
:100D000081E08093CD00F6CF813021F46931710507
:100D100088F3F7CF8330F9F42091AE00222359F005
:100D20008091AD0090E062EC71E064D8081719077B
:100D300010F020937A008091A4008823D9F290E0EB
:100D400062EC71E057D880179107A0F670E060E080
:100D500085ED95E016C0813BB1F481E090E0E0DAEA
:100D600077DA8091AA008111C5CF8091AB00811103
:100D700004C00831110508F4BDCF61E070E08EE2D7
:100D800097E0C9DEB7CF813EC1F3813831F480915D
:100D90007A0090E0C5DA5CDAADCF813C21F4609155
:100DA000CC0070E0ECCF823B71F4809178009091A0
:100DB000790091118091AC00811103C086E990E027
:100DC000E9CF86E9E8CF823E11F480E0E4CF66E91E
:100DD00070E0823CA1F28339C1F3833C29F470E0D6
:100DE00060E08BE995E0CDCF843C11F408DBAECF19
:100DF0008F3C29F470E060E087E192E0C2CFC091BF
:100E000079008A3B79F4012B39F5CC2329F0F7DA04
:100E10001092790030DB6ECF70E060E088E395E0FF
:100E200027DD69CFC11118C08A3C31F4E8DA81E0CE
:100E30008093790020DB5FCF833B31F470E060E08A
:100E40008EE79AE068DE57CF853C31F4D8DA70E05F
:100E500060E080EF9BE0F6CFC1E04DCF9F92AF9274
:100E6000BF92CF92DF92EF92FF920F931F93CF9397
:100E7000DF93C82F8B01A0907700E0907600B090B0
:100E8000AB00D090A900B11002C0DD24D394C09073
:100E90007800D0917900D111C090AC00CC2009F439
:100EA00041C041E0C41621F080917A008E15D0F146
:100EB000A6E9FA2E9090A800B8018C2FEFDC609183
:100EC000A800662309F4C3C1911004C08091CC002E
:100ED00080938C008C2F8D7F883031F51092A30089
:100EE000CA3019F400917A0010E0A016110630F40F
:100EF000E016110619F010F000937A00C80110DA1C
:100F00007BDA81E080936500D0E08D2FDF91CF9177
:100F10001F910F91FF90EF90DF90CF90BF90AF9017
:100F20009F900895FE2CC6CFC13C09F493C1C23CEA
:100F300071F48091CC008F1538F48F2D5DDA80919B
:100F4000CC0080938C00E0CF80917A00F7CFC43C36
:100F500039F480E07DD970E060E085ED95E07EC1F8
:100F60008FE48C0F823008F04EC060916D0070E00D
:100F7000C801BB2011F068E170E059D7892B21F638
:100F80002091CC000115110511F5C23BD1F48FEF72
:100F900080936500D091CC00809165006D2D70E04C
:100FA000082E000C990B26D78D0F911DB9D9C82F8B
:100FB00080937A00D81719F08E1101C02EDA8C2F89
:100FC000BDCF2E1520F7A21628F381E0E1CFE091E6
:100FD0006D00F0E0CF0166E371E00CD78017910758
:100FE00010F42E15A0F6CF016CE672E003D780173F
:100FF000910780F6A21670F202DA70E060E085EDEB
:1010000095E089DDC7CF8FE18C0F823020F480918D
:101010006500819577CFC13009F090C00932110584
:1010200011F4C0936500662389F080918C006150B3
:10103000770B90E0DFD66091A70070E00CD76111CC
:1010400001C061E06093CB006093AF008091CB0062
:101050009091CC00E82FE91BFF0B9F0160918A0063
:1010600070918B006F5F7F4F70938B0060938A004D
:10107000309709F449CF40E052E0F7FF06C040E462
:1010800050E0933810F440E051E05695479537FF13
:1010900002C02F5F3F4F3595279521153105A9F7E0
:1010A0004617570708F030CF891788F58FEF890F5B
:1010B0007FEF780F272F30E0A9014F535F4FFA01E0
:1010C0006491791740F599B5911125C06F3F19F5D5
:1010D00069BD255D3F4FF901949168B5691740F5E9
:1010E00098B59F5F98BD99B5FA01449194130AC0D1
:1010F00098B5F9012491921305C0C091CB00A8D8EE
:10110000C093CB0010928B0010928A00FDCE9817EE
:1011100078F681E0CCCF99B5961720F499B59F5F0A
:1011200099BDD7CF99B56917A0F699B59150F8CF69
:1011300068B59617C0F698B59150D4CFC530A9F4CC
:101140008091CC00823408F4DFCE90E0801B910BBC
:10115000282F813491053CF08739910508F026E964
:101160002093CB00D1CE21E4FBCFC630B1F49091D7
:10117000CC008091AF00981708F0C6CE090F111D62
:1011800090E08017910734F0C8010134110514F480
:1011900081E490E08093CB00B7CEC73069F49091A2
:1011A000CB008091CC00891710F48F5FF3CF981794
:1011B00008F0AACE8150EECFD11147C0C33C99F4BC
:1011C00081E0B11080E08093AB0055D926D98091A1
:1011D000CC0090E0A5D880937A000ED98091CC0005
:1011E00080938C0092CEC33B51F4012B09F08CCE3E
:1011F000CC2011F086E9F82E8F2DFED886CEC33E86
:1012000019F480917A00F9CFC53C41F480E020D8F0
:1012100070E060E080EF9BE07EDC77CE70E060E025
:1012200084E395E0C73B79F0CA3C39F48091CC0067
:101230008093AE0020D9E3D868CECA3B31F470E089
:1012400060E08CE395E014DB60CED1E05ECE9920C7
:1012500009F440CE70E060E08EE696E05CDC54CEAF
:10126000282FCB01213C39F470E060E08EE696E057
:1012700052DC80E00895223C29F470E060E086E3CF
:1012800096E0F6CF213B39F46EE370E0D0D5892BA0
:1012900081F7B5D8EECF213E41F46EE370E0C7D5BB
:1012A0006F5F60936C00E7D8E4CF81E008950F93FF
:1012B0001F93CF931092D000809128019091290123
:1012C0009C012F5F3F4F88279078822B932B909320
:1012D000290180932801C091CE009CD7C817B1F096
:1012E0001092CD008093CE0090912A018823F9F0CE
:1012F000892F80699F709F30C1F480932A0190E00C
:1013000080E060D7109229011092280100912801F5
:10131000109129018091CD008823B9F0B80183E0B4
:1013200037D7CF911F910F9106CB8F5FE6CF892FD3
:101330008F7E95FD08C0806880932A0180912801E6
:1013400090912901DECF806CF7CFC0912A018C2FBC
:10135000807F803BB1F470E060E081E019D7C80184
:1013600031D7C0918D00C11104C050D781E0809366
:10137000EC00CF5FCF71C0938D00CF911F910F9183
:101380000895B80181E004D7C4FF0FC0C5FDE7CFC1
:101390000831110530F31092290110922801C06222
:1013A000C0932A0190E080E0DBCFCC23D1F2C5FFCF
:1013B00002C00CD7D6CF0231110598F2C064C09399
:1013C0002A0190E080E0FED6F4CF8091F7008111F1
:1013D000D3D88091D00081116ACF0895BF92CF9267
:1013E000DF92EF92FF920F931F93CF93DF93EC0165
:1013F00010E888E0E82E87E0F82E02E092ECC92E93
:10140000DD24D394B12C209751F4DF91CF911F911B
:101410000F91FF90EF90DF90CF90BF900895809153
:10142000B0008111F2CF9091CC00973090F40FB6BC
:10143000F89416BD06BD0FBEC6010197F1F78B2DBE
:101440000FB6F89416BD86BD0FBEBFDF74DA2197C4
:10145000DACF0FB6F89416BD86BD0FBEC701EDCF2B
:101460000F931F93CF93C82F06EA811102C008E0A3
:10147000C1E010E089E1ECD6C801B0DF80E0E8D639
:101480008AEF90E0ABDFC150A9F78AE992E0CF91F3
:101490001F910F91A3CFCF93DF93282F64E6BBD486
:1014A000382FC92F892F6AE0B6D4D92F243650F0AF
:1014B000832FD6DF8C2F6AE0AED4D2DF8D2FDF9161
:1014C000CF91CECFCA30B0F7F9CFCF93DF93D82FDB
:1014D000C3E080917A00BCD688EC90E07FDFDD230A
:1014E00019F080E991E07ADF80E0B2D688EC90E0F4
:1014F00075DFC15071F7DF91CF910895DF92EF92C0
:10150000FF920F931F93CF93DF93D82F8B01C0913E
:101510006B0081E08093A300C33079F4F090A800C1
:101520008D2FBCD9FF20A1F08091A800811110C09F
:1015300070E060E08EE696E0EEDAD83071F0D13CF3
:1015400009F0F6C070E060E08EE696E0E4DA08C0EC
:10155000D83041F481E08093630081E0809364009F
:1015600080E033C1D23C61F41092A8008C2F90E04F
:10157000019666E070E06FD480936B007CD7F0CF6B
:10158000D13BC1F480916200012B41F49FEF8E3674
:1015900018F4823018F491E0909363009091630006
:1015A000890F21F481E080936200DACF8F36D8F37F
:1015B0008EE6F9CFD13E59F48091630081958093F6
:1015C000630080916400819580936400D7CFD23B03
:1015D000E1F481E08093630080916200823018F032
:1015E00081508093620081E080936400C23008F0F3
:1015F000DFC000FDB5CFEC2FF0E0E759FF4F808151
:101600008F3F09F4ADCF8F5FAAC0D13009F0E5C09C
:101610000932110511F4D0936300D09087008D2D0D
:10162000880FD7FC809590E067E070E0E3D3292F26
:10163000E09086008E2D880FE7FC8095D0916100A8
:101640006D2F70E090E0D6D3290FF09085008F2D9C
:10165000880FF7FC8095C09160006C2F70E090E0DF
:10166000C9D3622F690F80916200680F7727771FB7
:101670008091A800813091F48091A5009091A600FE
:1016800025E0969587952A95E1F724E730E0A901B2
:10169000481B590BCA01AED3B901C9D3862FD8D57F
:1016A00000FD05C0C0D581708D0D809387008091AD
:1016B00084008E0D80938600B6D565E2ACD39F0D75
:1016C00090938500B0D58F7329F4ADD56DE0A3D389
:1016D00090938400DD2331F0A6D58F7319F4D15097
:1016E000D0936100A0D5811107C09DD56BE093D345
:1016F0009093610010928600C33030F094D58F71C2
:1017000019F4C150C09360008ED58F7729F48BD522
:1017100066E081D3909360000932110519F481E0ED
:10172000809364008091CA00080F0093CA0018CF0C
:10173000D23C09F41BCFD13B49F5C23090F400FDF7
:101740000FCFEC2FF0E0E759FF4F808190916400BC
:10175000891B8F3F08F08EEF883008F488E0808383
:10176000FFCEC43009F0FCCE8091680090916400F7
:10177000890F823038F482E080936800809168009D
:1017800067D5EECE8937C0F388E7F6CFD13E09F4AE
:1017900018CFD23B09F427CFD23E09F4EFCED53C87
:1017A00081F470E060E080EF9BE0B5D980E0E8CFA5
:1017B000C43009F0D5CE809168008330F8F28150B2
:1017C000DBCF81E0D13009F4A7CFDF91CF911F911A
:1017D0000F91FF90EF90DF900895D13CE9F6B2CEE3
:1017E0000F931F93CF93DF93D82F8B01883031F461
:1017F0008091A300813011F488E080DE8D2F807904
:10180000803991F481E08093A200C091A300CC23A1
:1018100011F0C0E003C080917A001AD58C2FDF91BF
:10182000CF911F910F910895803829F41092A20052
:1018300080E00ED5EECFC1E0D13081F7C091A2009B
:10184000CC2351F08091A300813019F7B801DF91CA
:10185000CF911F910F9152CE07331140D0F2D09308
:10186000CD00DCCF2F932FB72F933F938F939F9370
:10187000AF93BF93EF93FF938091F6008823E9F035
:10188000E091F50024B135B1F0E0EE0FFF1FDF016C
:10189000AF50BF4F2D933C93E351FF4F8081918117
:1018A0008217930708F401962817390708F401975F
:1018B0009183808381E08093F70081E08093F6003C
:1018C000FF91EF91BF91AF919F918F913F912F9198
:1018D0002FBF2F9118958F9381E08093D0008F9127
:1018E00018958F9381E08093CF008F911895F8948D
:1018F00084B7877F84BF0FB6F894A89581B58861B7
:1019000081BD11BC0FBEB89A81E083BF81EA8ABD58
:10191000B99A88E088BB85BB8BB780628BBFA895DE
:1019200081B5886181BD80E481BD8CE287B9109268
:10193000F5001092F6006AD487EE86B9789481E0BB
:101940004FD470E060E088E496E092D71092B00047
:1019500056D560D481117BC0F89480E091E08ED29E
:10196000853A09F09CC001EB10E0C1E0D1E0CE0166
:1019700085D2F80181938F012196CA31F1E0DF070A
:10198000B1F778948091B1008093AB008091B20060
:10199000809373008091B300809370008091B400B5
:1019A00080936D008091B500809374008091B600A3
:1019B000809371008091B70080936E008091B80091
:1019C000809375008091B900809372008091BA0075
:1019D00080936F008091BB00809379008091BC0060
:1019E0008093AC008091BD008093AA008091BE00DE
:1019F000809378008091BF008093AE008091C000FA
:101A00008093AD008091C10080936B008091C200F3
:101A1000809369008091C30080936A008091C40024
:101A2000809368008091C50080936C008091C6000F
:101A300080937B008091C7008093E8008091C8006C
:101A400080937C008091C9008093A40029C0C0E0ED
:101A50008C2FFED383E190E0C1DC8C2F8695F8D3E8
:101A600083E190E0BBDCD6D38823B1F0CF5FC034F4
:101A700079F765E181E0E1D4FED4C6E98C2FE8D3A3
:101A800084E090E0ABDCC150C9F766CF8C2FE0D387
:101A90008DE090E0A3DCC150C111F8CF5DCF789408
:101AA0008091AE00811180937A0061E070E08EE653
:101AB00096E0DED64CE2242E57EE352E60E4462E1C
:101AC000772473947CEF872E73E0972E512C612C32
:101AD000EEE6CE2EE6E0DE2E2ED78091D30090915A
:101AE000D400009749F06091D1007091D20013D8D2
:101AF0001092D4001092D3008091CD00882361F120
:101B000080E0A6D3A89581B5886181BD23E421BD7D
:101B1000379880D38111FDCF59D38BB780628BBFAB
:101B20001092F7001092D0001092CF008091CD005B
:101B3000811134C082E080937D008BB78F7D8BBF95
:101B400027B81092F5001092F60060D336B8A89529
:101B500081B5886181BD41BC38DC1092B0008091B4
:101B6000E6009091E700E2E087319E07B9F5CEE10B
:101B7000D0E0FE018491805373DC8CE291E02EDC96
:101B80002196F0E0CA32DF07A1F7D092D400C092CC
:101B9000D3001092D2001092D1009ECF85B7877EDD
:101BA000806185BF85B7806285BF889585B78F7D49
:101BB00085BF8091CF0081111092CD008091F700F8
:101BC000882329F070927D007092EC00D5D480912A
:101BD000D000882309F4AACF6ADBA8CF2AE08E3789
:101BE000920779F0EBE0803F9E0709F0BDC080913D
:101BF000A300813009F0F3C08091A200882309F48A
:101C0000EEC0C0916B00C43009F495C008F06AC002
:101C1000C23008F474C0C23009F05ECF04D38F73B1
:101C2000082F10E000D367E0F6D0C1E0D0E07E01DD
:101C300002C0EE0CFF1C9A95E2F7F5D265E0EBD0FE
:101C400002C0CC0FDD1F9A95E2F7CE0DDF1DEBD25F
:101C500090E0BE0100D1C80FD91FC739D10524F0CB
:101C6000F6E9CF2F20E0D22F8C2FF2D2C801B6DBBD
:101C70007E0133E0F594E7943A95E1F7E11002C074
:101C8000EE24E394F12CC801A9DB5E01AE18BF0875
:101C9000E501B7FE02C0C52DD62D8C2FD9D2C3D2F7
:101CA000837031F4C8019ADBCE0195958795D0D227
:101CB000F2E0AF16B1043CF7B6D26DE0ACD001E073
:101CC00010E002C0000F111F9A95E2F7ACD2E801B4
:101CD000219790E0C823D923C00FD11F80E0B8D24C
:101CE000CE011FC0C53009F0F7CE80E4B1D280E04C
:101CF00094E074DB80E0ACD280E094E012C0EC2F82
:101D0000F0E0E759FF4FD08186E9A2D2C1110FC0A0
:101D1000DA3248F4C4010197F1F780E099D28D2FAF
:101D200090E05CDBD9CE81E090E058DBF6CF8D2FE0
:101D3000869590E0FACFD0916800DD0FD73908F092
:101D4000D6E98D2F85D285E090E048DB8091680050
:101D50007FD281E490E042DBC15099F780ED92E0C0
:101D60003DDB80E075D2B8CE25E08B39920751F487
:101D70008091EB0090DB80917900811106CF88EE95
:101D800093E0CFCFE5E08B3B9E0721F48091E90003
:101D900082DBF5CFF9E080339F07A9F48091CE0074
:101DA00081119ACE80917A0053D284E690E016DBBE
:101DB00080E04ED280916C0090E068EE73E01AD023
:101DC00084569109AECF8653964049F480E07DDB7E
:101DD00081E07BDB80E079DB80ED97E0A2CF85B707
:101DE000877E85BF85B7806285BF889585B78F7DE3
:101DF00085BF72CE0024552704C0080E591F880FD6
:101E0000991F009729F076956795B8F37105B9F792
:101E1000802D952F0895991B79E004C0991F96177E
:101E200008F0961B881F7A95C9F780950895AA1B1C
:101E3000BB1B51E107C0AA1FBB1FA617B70710F0B5
:101E4000A61BB70B881F991F5A95A9F780959095E7
:101E5000BC01CD01089597FB072E16F4009406D01F
:101E600077FD08D0E4DF07FC05D03EF4909581951E
:101E70009F4F0895709561957F4F0895E199FECF2A
:101E80009FBB8EBBE09A99278DB30895262FE199C9
:101E9000FECF9FBB8EBBE09A01970DB2021639F0C0
:101EA0001CBA2DBB0FB6F894E29AE19A0FBE0895C2
:041EB000F894FFCFD4
:101EB400060B1801010100045D2943030201070414
:101EC400828282011414820102015D2D07027300D3
:041ED40070006D002D
:00000001FF
