:100000006DC1000088C1000086C100000C94500F33
:1000100082C100000C944A0F7EC100007CC1000028
:100020007AC1000078C1000076C1000074C10000F0
:1000300072C1000070C100000C94110F6CC100006F
:100040006AC1000068C1000066C1000064C1000010
:1000500062C1000060C100005EC100005CC1000020
:100060005AC1000058C1000056C1000054C1000030
:100070003230323230353134303231320001050421
:1000800014101115FF3FFF3F7430CC1FC62C6C3984
:10009000212B9332E3351F372C377A364935C0335D
:1000A000F7316A340832013361308C304630B12F79
:1000B000E02EE22DC32C8B2B962B292AD4295029F4
:1000C000BD270E274826712537253E243F23C5220C
:1000D000BA2126211820751FC91EBF1D101D5D1CC9
:1000E000611BB01A001A161934188F17BB16EF15BA
:1000F0002B1546146D13C312DB1122115310730F0D
:10010000A10EDD0D0C0D490C7C0BA90AD1090809C3
:100110003D086F07A106D30506052E046703960266
:10012000CB01FF00FF00FF00FF00FF00FF00FF000A
:10013000FF00FF00FF00FF00FF00FF00FF00FF00C7
:10014000FF00FF00FF00FF00FF00FF00FF00FF00B7
:10015000FF00FF00FF00FF00FF00FF00FF00FF00A7
:10016000FF00FF00FF00FF00FF00FF00FF00FF0097
:10017000FF00FF00FF00FF00FF00FF00FF00FF0087
:10018000FF00FF00FF00FF00FF00FF00FF00FF0077
:10019000FF00FF00FF00FF00FF00FF00FF00FF0067
:1001A000FF00FF00FF00FF00FF00FF00FF00FF0057
:1001B0000000010001000100020003000300040030
:1001C000050006000700080009000A000B000D00EA
:1001D0000E001000110013001500170019001B007D
:1001E0001D001F002200240027002A002C002F00E1
:1001F0003200350039003C003F00430046004A0011
:100200004D005100550058005C006000630067001D
:100210006B006E007100750078007B007E0080002E
:100220008200850086008800890089008900890095
:1002300088008700850082007E007A0075006F00CC
:100240006800600057004C00410034002600160092
:10025000170019001A001B001C001D001E002000C2
:100260002100220024002500270028002A002B005E
:100270002D002F00310033003500370039003B00DE
:100280003D003F0042004400460049004C004E0043
:100290005100540057005A005D0060006300670081
:1002A0006A006E007100750079007D008100850094
:1002B00089008E00920097009B00A000A500AA0074
:1002C000AF00B500BA00C000C500CB00D100D70018
:1002D000DE00E400EA00F100F800FF0011241FBE78
:1002E000CFEFD4E0DEBFCDBF11E0A0E0B1E0E6E6A5
:1002F000F7E202C005900D92AE34B107D9F721E0C4
:10030000AEE4B1E001C01D92AB3FB207E1F70E943D
:10031000560F0C94B11374CEF89498ED9FBD83BF23
:1003200078940895482F362F272FE8ECF1E090E0DD
:1003300080E0508151110BC063E070E00E945313C4
:10034000FC01E853FE4F40833183228305C00196B0
:1003500033968031910569F70895BC018091FA01C7
:10036000E1CF1092FA011092F9011092F80181E0A8
:1003700080937D0108950F931F93CF93C82F08EAB0
:1003800017E0C15020F4CF911F910F91089582E0A2
:10039000C3DFC8010197F1F780E0BEDFF2CF83B180
:1003A000886483B908958BB182FB882780F991E036
:1003B000892780939E010895E0910601F09107013D
:1003C0003196FB70F460F0930701E0930601809191
:1003D0009A018B5A80939A01E49180919A018E0F31
:1003E0000895882321F0813031F0829A05C08298E7
:1003F00092988A9808958298929A8A9A0895CF93AB
:10040000DF9300D00F92CDB7DEB720914A01309133
:100410004B0140914C0129833A834B83FE01319675
:1004200050E040E0682F70E0A1E0B0E09B01042EB6
:1004300002C0359527950A94E2F7922F9370819127
:100440009D0101C0220F8A95EAF7992329F0913086
:10045000C1F080B3822B19C080B32095822380BB6A
:1004600082B3822382BB81B3282321BB4E5F5F4FBF
:1004700046305105D9F60F900F900F90DF91CF9134
:10048000089590B3822F8095892380BB82B3822BFD
:1004900082BB81B3282BE9CFCF93C82F80919C01D9
:1004A000811109C0CC2339F080911D01C81718F4BF
:1004B000F3DF82E060DFC0939C01C0939B018091D9
:1004C0009D0181110BC09BDF91E0C11101C090E043
:1004D00081E0C33308F480E0890F83DFC11112C0CB
:1004E00010926D0010926C0010926F0010926E00CE
:1004F0006898C093590180919C01843090F582E006
:10050000CF910ACF689A2FEF2C0F30E0220F331FC4
:10051000F901E055FE4F8591949190936D00809381
:100520006C00F901EC57FF4F85919491609159014E
:100530009C0120523109662339F040916E005091A0
:100540006F0024173507B8F3909369008093680013
:10055000809159018111CDCF10926F0010926E00E1
:10056000C8CF8C3010F481E0CBCF80E0C9CFCF93DF
:10057000DF9300D000D000D0CDB7DEB72091780156
:100580004091B6015091B7014454574009F422E01C
:10059000843059F46093790126960FB6F894DEBF43
:1005A0000FBECDBFDF91CF9108956623A9F38230AE
:1005B00019F497E9961B692F96E0E1E2F1E0DE017C
:1005C000119601900D929A95E1F78150990B880F41
:1005D000991FA1E0B0E0AC0FBD1F8A0F9B1FDC018B
:1005E000ED91FC91E20FF11D6083D6CF813011F4C3
:1005F00060931D010895CF92DF92EF92FF920F93C7
:100600001F93CF93DF939C0150917801E0911B01E0
:1006100082E0E11101C0852F90E0DC01AB5EBE4FAE
:100620004C91409319018E5E9E4FDC018C9180931A
:100630001801F0E0E15FFE4FC181642F70E05523A7
:1006400081F0C13071F4860F972F911D9595879594
:10065000DF91CF911F910F91FF90EF90DF90CF909E
:100660000895261737079CF1821713068CF3511152
:1006700002C0822FEDCF841B6C2F6150770B8B0152
:10068000E82EF12CC7010E948413609376016695D1
:10069000E62FF0E0842FD12CC12CD0E0DC17C1F282
:1006A000C601B8010E947013842F860FA82FB0E0F6
:1006B000B9016A1B7B0B77FF03C0BD01621B730B83
:1006C000CE0CDF1CE617F7071CF6DF5FE7CF842FA1
:1006D000BFCF80937C01E0CE0F931F93CF93E82F81
:1006E000862F9091BB012FEF290F2C3138F480E039
:1006F00086DE80E0CF911F910F9173CECE2FC295F1
:10070000CF70EF7020919D01211103C0C33008F01C
:10071000C2E0E73010F4F0E016C0E73089F5009150
:10072000530110E00F5F1F4F47DE65E00E94641326
:100730009801290F311DC90166E070E00E94841301
:1007400080935301FC01E358FF4FE491C33071F4EF
:100750008091520190E0019663E170E00E94701375
:1007600080935201895D9E4FDC01CC91CC23E1F155
:10077000C13011F0EE0FC2E08E2F41DE8C2FBACFC8
:10078000E830A9F490919D016FE0911101C063E000
:10079000862351F48091530190E0019666E070E069
:1007A0000E94841380935301E0915301B4CF2091B0
:1007B0009D01222381F080E09D3118F4E0E0C6CF56
:1007C0008E5FE82FF0E0E65CFE4F20819217C0F7C5
:1007D0003197E081A0CF869563E00E946413E92FF2
:1007E000F0E0EE0FFF1FAFCFE0E0C6CFCF93C09198
:1007F0009C0182E38C0F873908F080E04DDE83E0B6
:10080000BADD8C2FCF9148CECF93C0919C0180E070
:1008100043DE83E0B0DD8C2FCF913ECE81E00895A2
:10082000611160931F010895662369F0813099F486
:100830008091B8019091B901891B680F6093B8014C
:1008400082E08093200180911E01873418F086E4B5
:1008500080931E010895635E60931E01F4CF609340
:10086000710108950F931F93CF93DF9380917801C7
:1008700080937E018091150180937F018091120108
:100880008093800180910F018093810180911601F6
:1008900080938201809113018093830180911001E4
:1008A00080938401809117018093850180911401C8
:1008B00080938601809111018093870180911B01B3
:1008C00080938801809179018093890180917701DB
:1008D00080938A0180911A0180938B0180917B0122
:1008E00080938C0180917A0180938D0180911D010C
:1008F00080938E0180910B0180938F01809109017B
:100900008093900180910A01809391018091080168
:100910008093920180910C018093930180911E013C
:10092000809394018091B8018093950180911F017B
:100930008093960180910E018093970180910D0123
:1009400080939801809171018093990182E013DD79
:10095000F8940EE711E0C1E8D0E0F80161918F0151
:10096000CE010E949F132196CD39D105B1F765EADA
:1009700080E890E00E949F137894DF91CF911F91BF
:100980000F9108951092C70130B181B120919A0161
:10099000329536953695337090E0880F991F880F01
:1009A000991F830F911D820F80939A018091BC0142
:1009B000882309F444C01092BC018091C501909134
:1009C0009D01992319F01F981092C501811145C00E
:1009D000809120018823A1F18091C1019091C201F1
:1009E0009093BE018093BD01409696958795807F38
:1009F0009F7761EC72E00E94701380911F01875015
:100A0000680F6093BB0180916D018823F1F08150E4
:100A100080936D0180919D01811108C08EE884B999
:100A200081E08093C5011092C601B9DC809120015C
:100A3000882329F08091200181508093200108951E
:100A40008091BD019091BE01CFCF6D3118F770E05C
:100A500060E084E067DC85E0DBCF813039F78091AE
:100A6000200181115EC08091BF019091C00140962C
:100A7000DC0145E0B695A7954A95E1F74091B801AC
:100A8000042E000C550B9A012E50314066E09695CD
:100A900087956A95E1F7820F931F9093BA0180932F
:100AA000B90180915C01E82FF0E0EE0FFF1FE35ADF
:100AB000FE4F20813181BD01621B730B9B01B1830D
:100AC000A0838F5F877080935C01660F771F660F2E
:100AD000771F6A0F7B1F80911E0190E0841B950B8E
:100AE000825F9E4F880F991F681B790B83E0161653
:100AF00017060CF045C0615071098150C1F71616F8
:100B000017060CF057C037FD74C080915B011816B2
:100B1000F4F5861B80935B0186E884B91092C501C9
:100B200082CF8091C3019091C4019093C0018093C2
:100B3000BF01409635E0969587953A95E1F79093F9
:100B40005E0180935D019093600180935F019093BB
:100B5000620180936101909364018093630190939B
:100B6000660180936501909368018093670190937B
:100B70006A018093690190936C0180936B0173CF3C
:100B80006115710509F4B9CF6F5F7F4FB6CF660F5E
:100B9000771F653071055CF0635071097595679535
:100BA00088E1861B80935B0185E0BCDBB5CF61E00B
:100BB00070E0F6CF6C3F8FEF7807DCF437FF19C099
:100BC00080915B0187FF02C08450A3CF84EE861B17
:100BD00080935B018091BB018F3108F49DCF8CEF36
:100BE0009FEF9C01261B370BB9017595679586E031
:100BF000DCCF8091BB018E3108F48ECF70E060E0D5
:100C000087E0D3CF813019F410927B0108958230B0
:100C100019F460937A010895833019F46093770191
:100C20000895843011F460931A010895FF920F9390
:100C30001F93CF93DF938C01D62FC72FF42E809173
:100C4000B6019091B701892B31F0E091B601F09196
:100C5000B70189E009951093B7010093B601012B04
:100C600041F0E091B601F091B7016D2F7C2F8F2DEF
:100C7000099581E080937D01DF91CF911F910F91C4
:100C8000FF9008952091A501283080F4E22FF0E034
:100C9000EE0FFF1FEA55FE4F808391832F5F209355
:100CA000A50148E0C3DF8091A50108958FEF089565
:100CB000282FCB0130911B01311147C0283039F466
:100CC0001092750110927301109272010895213BE8
:100CD00059F48091750181508330B8F583E0809399
:100CE0007501809374010895253BA1F46EE370E0D3
:100CF0000E947013892B49F5809175018A3F28F570
:100D00008B5F809375018093740110927301109230
:100D100072016CCD2130C9F4809172019091730100
:100D2000019688382EE0920728F4909373018093FF
:100D300072010895109273011092720180917501F1
:100D4000882319F08150809375010895EF92FF92E6
:100D50001F93CF93DF931091C801111106C0DF914B
:100D6000CF911F91FF90EF900895E090C901F0900E
:100D7000CA01C091A501C1500C2E000CDD0BC7FDAE
:100D80000EC0FE01EE0FFF1FEA55FE4F0190F081ED
:100D9000E02DB701812F099521978111F0CFE8EC63
:100DA000F1E083818083848195819283818333966E
:100DB00081E0E53FF807A9F71092F5011092F701DD
:100DC0001092F601C8CF8091A501882319F08150B7
:100DD0008093A501E091A50190E080E0EE2341F031
:100DE000E150FF0BEE0FFF1FEA55FE4F808191810E
:100DF0004AE070E060E01ACF582FCB01F90158307B
:100E000089F41092550180E047DB80919E018111A9
:100E10001DC081E08093550170E060E08CE597E0B3
:100E200031DF14C0252F207F203BB9F420915501DC
:100E3000421788F06DE570E00E947013029741F44C
:100E40002F5F2093550188E3421718F480E008953E
:100E500082E122DBFBCF80E0FCCF203E41F4809199
:100E60005501882311F04817B8F6ADDFEFCF5A309F
:100E700069F760916E01809155010995F3DCF5CF1A
:100E800027EB32E043E0B8CF27EB32E044E0B4CFC9
:100E900022E036E044E0B0CF26EF32E041E0ACCFD4
:100EA00020E134E041E0A8CF24E134E042E0A4CFE7
:100EB0002FE234E041E0A0CF883039F410926E0187
:100EC0001092540180E0E8DA0CC08130F9F490917E
:100ED0005401911108C06032710518F080935401DB
:100EE00040DA80E00895913079F46B3B710520F091
:100EF00082E080935401E6CF6115710591F3862F4E
:100F0000880F84708E5EDFCF5EDFEBCF813811F00B
:100F1000813E39F791E090935401813E41F48091F4
:100F20006E01865F80936E011CDA8BE4CCCF8091DA
:100F30006E018F5FF7CF0F931F93CF93DF93D82F5F
:100F4000C92F8B0140DFB8018D2F9C2FDF91CF91EE
:100F50001F910F9197CECF93C0911B01C11119C062
:100F6000813C41F470E060E08DE198E0E4DF8C2F9B
:100F7000CF910895823C29F470E060E08BEC97E01B
:100F8000F5CF873B31F470E060E080E597E07ADEF2
:100F9000EECFC1E0ECCF813C39F470E060E08DE150
:100FA00098E0C9DF80E00895823C29F470E060E0B9
:100FB00086E39BE0F6CF873B31F470E060E084E5A8
:100FC00097E060DEEFCF81E00895813C39F470E076
:100FD00060E08DE198E0AFDF80E00895823C29F485
:100FE00070E060E08BEA97E0F6CF81E0089584300E
:100FF00011F58091B6019091B7012DE08B349207E5
:1010000031F469E170E08EE299E095DF0DC08E5217
:10101000994061F490919C01923040F0892F86951F
:1010200096959695890F55DB80E0089570E060E015
:101030008DE198E0EACF81E008950F931F93CF935D
:101040008B018830A1F480E027DA60E080910E0106
:1010500043DB10927501012B31F0C0E08C2FCF9152
:101060001F910F91089581E080939D01F6CF81300B
:1010700049F46931710588F380939D0180910E01D7
:101080002BDBEBCF833029F520917B01222361F00C
:1010900080917A0190E062EC71E00E94531308178E
:1010A000190710F020931C01602F80910E0114DBB2
:1010B00080917101882389F290E062EC71E00E94D6
:1010C00053138017910748F670E060E08FE59BE0CE
:1010D00016C0813BB1F481E090E08DDADDD98091DA
:1010E00077018111BACF80917801811104C0083154
:1010F000110508F4B2CF61E070E08EE299E01BDFE9
:10110000ACCF813EC1F3813831F480911C0190E075
:1011100072DAC2D9A2CF60919C0170E0813C69F380
:10112000823B71F480911A0190911B019111809181
:101130007901811103C086E990E0EACF86E9E9CF21
:10114000823E11F480E0E5CF66E970E0823CA9F2CE
:101150008339C1F3833C29F470E060E08BEA97E0C7
:10116000CECF843C11F442DBAFCF8D3B41F4F894F9
:1011700088ED8FBD88E880BF7894A895FFCF8F3C1D
:1011800029F470E060E08EE094E0B9CFC0911B01DB
:101190008A3B81F4012B09F05FC0CC2329F026DBC8
:1011A00010921B015FDB59CF70E060E084E497E0B0
:1011B00069DD54CFC11150C08A3C31F417DB81E0A6
:1011C00080931B014FDB4ACF833B31F470E060E03A
:1011D0008BE49DE0B0DE42CF853C31F407DB70E06C
:1011E00060E089EC9EE0F6CF873C91F490910E018F
:1011F000892F82958F708F5F83708295807F9F701B
:10120000892B80930E0160E067DA2CDBEFDA26CFC2
:10121000873BB1F4C8018F739927892B61F4209122
:101220000E01822F8F708F5F207F6BE00E9464130E
:10123000922B90930E01602F80910E014DDA0ECF0C
:10124000873E09F4BFCF893B39F4012B29F470E0C4
:1012500060E08CE497E0ACCFC1E000CF9F92AF920A
:10126000BF92CF92DF92EF92FF920F931F93CF9393
:10127000DF93C82F8B01A0901901E0901801B09066
:101280007801D0907601B11002C0DD24D394C090D3
:101290001A01D0911B01D111C0907901CC2009F421
:1012A00041C041E0C41621F080911C018E15D0F19F
:1012B000A6E9FA2E90907501B8018C2FF9DC6091A7
:1012C0007501662309F4C9C1911004C080919C0185
:1012D000809358018C2F8D7F883031F510927001EA
:1012E000CA3019F400911C0110E0A016110630F468
:1012F000E016110619F010F000931C01C8017BD90B
:10130000E8D981E080930501D0E08D2FDF91CF9166
:101310001F910F91FF90EF90DF90CF90BF90AF9013
:101320009F900895FE2CC6CFC13C09F499C1C23CE0
:1013300071F480919C018F1538F48F2DCAD980915A
:101340009C0180935801E0CF80911C01F7CFC43CF1
:1013500039F480E0A1D870E060E08FE59BE084C1C3
:101360008FE48C0F823008F054C060910F0170E060
:10137000C801BB2011F068E170E00E947013892B56
:1013800019F620919C010115110529F5C23BE9F4DC
:101390008FEF80930501D0919C01809105016D2D07
:1013A00070E0082E000C990B0E9453138D0F911DB5
:1013B00022D9C82F80931C01D81729F0863911F043
:1013C0008E1101C021DA8C2FB9CF2E1508F7A21685
:1013D00010F381E0DECFE0910F01F0E0CF0166E392
:1013E00071E00E9453138017910710F42E1580F6B8
:1013F000CF016CE672E00E9453138017910758F6F4
:10140000A21648F2F3D970E060E08FE59BE093DD2F
:10141000C2CF8FE18C0F823020F48091050181953D
:1014200071CFC13009F08FC00932110511F4C0939A
:101430000501662399F0809158016150770B90E087
:101440000E9453136091740170E00E948413611133
:1014500001C061E060939B0160937C0180919B01DE
:1014600090919C01482F491B550B9A0160915601A0
:10147000709157016F5F7F4F7093570160935601D2
:10148000452B09F441CF40E052E037FF06C040E46D
:1014900050E09D3810F440E051E05695479537FFF5
:1014A00002C02F5F3F4F3595279521153105A9F7CC
:1014B0004617570708F028CF891798F58FEF890F3F
:1014C000EFEFE80FF0E0EE0FFF1F9F0120553E4FBA
:1014D000F9014591549160916C0070916D00641711
:1014E000750718F540916C0050916D004F5F5F4F8C
:1014F00050936D0040936C0040916C0050916D00D2
:10150000F901259134914217530731F4C0919B01A1
:101510000E944C02C0939B011092570110925601F9
:10152000F3CE981768F681E0CACF60916C00709195
:101530006D004617570700F740916C0050916D0001
:1015400041505109D5CFC530A9F480919C01813516
:1015500008F4DACE90E0801B910B282F803591059E
:101560003CF08739910508F026E920939B01CCCE09
:1015700020E5FBCFC630B1F490919C0180917C01B5
:10158000981708F0C1CE090F111D90E08017910740
:1015900034F0C8010035110514F480E590E0809323
:1015A0009B01B2CEC73069F490919B0180919C0160
:1015B000891710F48F5FF3CF981708F0A5CE8150EC
:1015C000EECFD11148C0C33C99F481E0B11080E066
:1015D0008093780147D918D980919C0190E00BD86D
:1015E00080931C0176D880919C01809358018DCE08
:1015F000C33B51F4012B09F087CECC2011F086E9D2
:10160000F82E8F2D66D881CEC33E19F480911C012F
:10161000F9CFC53C49F480E00E944C0270E060E0E4
:1016200089EC9EE088DC71CE70E060E080E497E0B9
:10163000C73B79F0CA3C39F480919C0180937B01CF
:1016400011D9D4D862CECA3B31F470E060E088E4AE
:1016500097E018DB5ACED1E058CE992009F43ACE63
:1016600070E060E08DE198E066DC4ECE282FCB0183
:10167000213C39F470E060E08DE198E05CDC80E0D2
:101680000895223C29F470E060E085EE97E0F6CF03
:10169000213B41F46EE370E00E947013892B79F7CF
:1016A000A5D8EDCF213E49F46EE370E00E9470139F
:1016B0006F5F60930C01D6D8E2CF81E008950F935D
:1016C0001F93CF93DF93C82F8B01873B81F480E07A
:1016D0000E944C02D0911B01D11199C0CA3B09F064
:1016E00065C070E060E088E597E0CCDA49C08079B9
:1016F0008039F9F490911501209116018C2F8F708B
:10170000823049F480917B01811108C0822F291712
:1017100028F4892F03C0822F9217D8F30E944C021D
:10172000C33C01F563D870E060E08DE198E003DC34
:1017300017C0803811F480E0F1CFC83009F069C0DB
:1017400060E080910D010E946C03C4CF0931110546
:1017500038F0C0939D01602F80910D010E946C03B1
:10176000D0E00EC0C43C91F4D0917B016D2F70E0AD
:10177000D11113C060911C0170E08EE299E0DBDBB7
:101780008D2FDF91CF911F910F910895C43B41F4AC
:101790003BD81092FA0161E070E08EE299E0C7CF89
:1017A000C53C09F097CF66E970E0F7CFC73C99F4E4
:1017B00090910D01892F82958F708F5F8370829534
:1017C000807F9F70892B80930D0160E00E946C03E5
:1017D00049D80CD8D5CFC73BB1F4C8018F7399272E
:1017E000892B59F420910D01822F8F708F5F207FFC
:1017F0006BE06AD7922B90930D01602F80910D01C1
:101800000E946C03BDCFC73E11F42CD8B9CFD1E0F4
:10181000B7CFC13009F49ACFC33009F49CCF80CF41
:1018200086E884B91092C5011092C6010E94CF01CA
:10183000E1E6F0E0808182608083139A87EE83B9CD
:1018400008950F931F93CF931092A0018091F801F8
:101850009091F9019C012F5F3F4F88279078822B50
:10186000932B9093F9018093F801C0919E010E94FF
:10187000D301C817B9F010929D0180939E019091F9
:10188000FA018823B1F1892F80699F709F3079F523
:101890008093FA0190E080E00E94AD011092F9017E
:1018A0001092F8010091F8011091F90180919D01C9
:1018B000882369F1B80183E00E94920147DA0F732F
:1018C0001127012B81F410925A01AADFC0915A010D
:1018D000C11105C00E94CF0181E08093BC01CF5FA0
:1018E000CF71C0935A01CF911F910F9108958F5FCF
:1018F000CFCF892F8F7E95FD08C080688093FA0135
:101900008091F8019091F901C7CF806CF7CFC09119
:10191000FA018C2F807F803B49F470E060E081E029
:101920000E949201C8010E94AD01D0CFB80181E0B0
:101930000E949201C4FF0FC0C5FDF4CF083111050C
:1019400028F21092F9011092F801C062C093FA01D6
:1019500090E080E0E8CFCC2309F4B8CFC5FF03C006
:101960000E94B101B3CF0231110508F4AFCFC064BA
:10197000C093FA0190E080E00E94AD01F1CF809128
:10198000C70181110E94C2048091A001811159CF29
:101990000895EF92FF920F931F93CF93DF93EC0183
:1019A00008E017E082ECE82EFF24F394209739F446
:1019B000DF91CF911F910F91FF90EF90089580914B
:1019C0007D018111F5CF80919C01843068F482E023
:1019D0000E948C01C7010197F1F780E00E948C0101
:1019E000CEDFB4D92197E2CF80E00E948C01C801FC
:1019F000F2CF0F931F93CF93C82F06EA811102C035
:101A000008E0C1E010E082E30E944C02C801C1DF9F
:101A100080E00E944C028AEF90E0BBDFC15099F752
:101A20008AE992E0CF911F910F91B3CFCF93DF93CB
:101A3000282F64E649D6382FC92F892F6AE044D66B
:101A4000D92F243650F0832FD4DF8C2F6AE03CD678
:101A5000D0DF8D2FDF91CF91CCCFCA30B0F7F9CF47
:101A6000CF93DF93D82FC3E080911C010E944C02DA
:101A700088EC90E08EDFDD2319F080E991E089DFCA
:101A800080E00E944C0288EC90E083DFC15061F757
:101A9000DF91CF910895DF92EF92FF920F931F9302
:101AA000CF93DF93D82F8B01C0910B0181E08093FE
:101AB0007001C33079F4F09075018D2FF9D8FF20B3
:101AC000A1F080917501811110C070E060E08DE19E
:101AD00098E031DAD83071F0D13C09F001C170E002
:101AE00060E08DE198E027DA08C0D83041F481E069
:101AF0008093030181E08093040180E03FC1D23CE8
:101B000069F4109275018C2F90E0019666E070E008
:101B1000FBD580930B010E943204EFCFD13BC1F47F
:101B200080910201012B41F49FEF873618F4823037
:101B300018F491E09093030190910301890F21F42F
:101B400081E080930201D9CF8836D8F387E6F9CFB8
:101B5000D13E59F4809103018195809303018091D6
:101B60000401819580930401D6CFD23BE1F481E05A
:101B70008093030180910201823018F0815080939C
:101B8000020181E080930401C23008F0EAC000FD48
:101B9000B4CFEC2FF0E0E75FFE4F80818F3F09F478
:101BA000ACCF8F5FB4C0D13009F0F0C0093211055D
:101BB00011F4D0930301D09051018D2D880FD7FCE3
:101BC000809590E069E070E06ED5292FE09050019B
:101BD0008E2D880FE7FC8095D09101016D2F70E06C
:101BE00090E061D5290FF0904F018F2D880FF7FC01
:101BF0008095C09100016C2F70E090E054D5622F69
:101C0000690F80910201680F7727771F8091750116
:101C1000813091F4809172019091730125E0969545
:101C200087952A95E1F724E730E0A901481B590B75
:101C3000CA0139D5B90154D5862F0E944C0200FD46
:101C400006C00E94DC0181708D0D8093510180914E
:101C50004E018E0D809350010E94DC0165E234D567
:101C60009F0D90934F010E94DC018F7331F40E940D
:101C7000DC016DE029D590934E01DD2339F00E94FF
:101C8000DC018F7319F4D150D09301010E94DC0163
:101C9000811108C00E94DC016EE016D5909301010D
:101CA00010925001C33038F00E94DC018F7119F49A
:101CB000C150C09300010E94DC018F7729F40E947B
:101CC000DC018770809300010932110519F481E06D
:101CD0008093040180919A01080F00939A010DCF1F
:101CE000D23C09F410CFD13B51F5C23090F400FD45
:101CF00004CFEC2FF0E0E75FFE4F8081909104016C
:101D0000891B8F3F08F08EEF883008F488E08083CD
:101D1000F4CEC43009F0F1CE809108019091040115
:101D2000890F823040F482E080930801809108019D
:101D30000E944C02E2CE8937B8F388E7F5CFD13E56
:101D400009F40DCFD23B09F41CCFD23E09F4E3CE07
:101D5000D53C81F470E060E089EC9EE0ECD880E056
:101D6000E7CFC43009F0C9CE809108018330F0F28A
:101D70008150DACF81E0D13009F4A6CFDF91CF9145
:101D80001F910F91FF90EF90DF900895D13CE9F6FD
:101D9000A6CE0F931F93CF93DF93D82F8B0188305C
:101DA00031F480917001813011F488E074DE8D2F60
:101DB0008079803999F481E080936F01C09170013E
:101DC000CC2311F0C0E004C080911C010E944C02A1
:101DD0008C2FDF91CF911F910F910895803831F4AE
:101DE00010926F0180E00E944C02ECCFC1E0D13034
:101DF00079F7C0916F01CC2351F08091700181304F
:101E000009F7B801DF91CF911F910F9144CE0733AD
:101E10001140C0F2D0939D0160E080E00E946C030D
:101E2000D7CF2F932FB72F933F938F939F93AF933A
:101E3000BF93EF93FF938091C6018823E9F0E0916F
:101E4000C50120B131B1F0E0EE0FFF1FDF01AF534C
:101E5000BE4F2D933C93E354FE4F808191818217B6
:101E6000930708F401962817390708F4019791831E
:101E7000808381E08093C70181E08093C601FF9158
:101E8000EF91BF91AF919F918F913F912F912FBF74
:101E90002F9118958F9381E08093A0018F911895D1
:101EA0008F9381E080939F018F911895F89485B767
:101EB000877F85BF90E088ED0FB6F894A8958FBD19
:101EC00090B7977F90BF0FBE89E08CB98CE780BB3D
:101ED00082EA8093720081E1809371008FEF90E03D
:101EE000909369008093680084E08EB988BD8CB7B8
:101EF00080618CBFA89580E480BF92DC789481E0FB
:101F00000E94BB0170E060E087EF97E00E9442060C
:101F100010927D010E94F6030E94D301811189C0B5
:101F200082E00E94BB01F89480E890E000D4853AFA
:101F300009F0AEC00EE711E0C1E8D0E0CE01F7D362
:101F4000F80181938F012196CD39D105B9F77894A5
:101F500080917E018093780180917F0180931501AB
:101F600080918001809312018091810180930F0103
:101F700080918201809316018091830180931301E7
:101F800080918401809310018091850180931701D5
:101F900080918601809314018091870180931101C3
:101FA0008091880180931B01809189018093790140
:101FB00080918A018093770180918B0180931A012F
:101FC00080918C0180937B0180918D0180937A01B7
:101FD00080918E0180931D0180918F0180930B0170
:101FE00080919001809309018091910180930A0171
:101FF00080919201809308018091930180930C015C
:102000008091940180931E01809195018093B80185
:102010008091960180931F018091970180930E011A
:102020008091980180930D018091990180937101B5
:1020300030C0C0E08C2F0E944C0283E190E0A9DC0C
:102040008C2F86950E944C0283E190E0A2DC0E94D6
:10205000D3018823D1F0CF5FC03461F765E181E01F
:102060000E9414040E943204C6E98C2F0E944C0284
:1020700084E090E08EDCC150C1F752CF8C2F0E94DB
:102080004C028DE090E085DCC150C111F7CF48CF04
:10209000789480917B01811180931C0161E070E054
:1020A0008DE198E00E94420643E4242E52E0352E52
:1020B00060E4462E77247394CC24C394D12C612CF5
:1020C000512CEDE18E2EE8E09E2E0E94A606809116
:1020D000A3019091A401009751F06091A10170912A
:1020E000A2010E949B071092A4011092A30180916B
:1020F0009D01882309F180E00E944C02A89520BE32
:102100001F980E94D3018111FCCF0E94B1018CB7AE
:1021100080618CBF1092C7011092A00110929F01A4
:1021200080919D0181112BC0309220018CB78F7E50
:102130008CBF76DBA89540BE22DC10927D01809199
:10214000B6019091B701F4E08E309F0709F038C0D6
:10215000C0E7D0E0FE01849180534BDC8CE291E03B
:1021600018DC2196F0E0CC37DF07A1F79092A401AC
:102170008092A3011092A2011092A101A6CF86B76E
:102180008F79806486BF86B7806186BF889586B761
:102190008F7E86BF80919F01811110929D01809159
:1021A000C701882331F0709220017092BC010E9417
:1021B000C2048091A001882309F4B2CF42DBB0CFE2
:1021C0002DE08B34920779F0EEE0893C9E0709F010
:1021D00022C280917001813009F05AC280916F0152
:1021E000882309F455C2C0910B01C43009F4F7C12A
:1021F00008F073C0C23008F4DBC1C23009F065CF0B
:102200000E94DC018F73082F10E00E94DC0167E060
:102210005BD2760102C0EE0CFF1C9A95E2F70E9499
:10222000DC0165E051D2E60102C0CC0FDD1F9A95BA
:10223000E2F7CE0DDF1D0E94DC0190E0BE0164D20A
:10224000C80FD91FC739D10524F0F6E9CF2F20E0F8
:10225000D22F8C2F0E944C02C8019BDB7E0133E001
:10226000F594E7943A95E1F7E11002C0EE24E39487
:10227000F12CC8018EDB5E01AE18BF08E501B7FE88
:1022800002C0C62DD52D8C2F0E944C020E94DC016D
:10229000837039F4C8017DDBCE01959587950E9446
:1022A0004C02F2E0AF16B10424F70E94DC016DE0AD
:1022B0000BD2860102C0000F111F9A95E2F70E940F
:1022C000DC01E801219790E0C823D923C00FD11F7A
:1022D00080E00E944C02CE0180C1C53009F0F5CEED
:1022E00080E20E944C0280E890E053DB80E00E9494
:1022F0004C0280E890E04DDB80E20E944C0280E8D6
:1023000091E047DB80E00E944C0280E890E041DBF6
:1023100080E20E944C0280E891E03BDB80E00E947A
:102320004C0280E890E035DB80E20E944C0280E8BD
:1023300091E02FDB80E00E944C0280E891E029DBF5
:1023400080E20E944C0280E890E023DB80E00E9463
:102350004C0280E890E01DDB80E20E944C0280E8A5
:1023600090E017DB80E00E944C0280E891E011DBF6
:1023700080E20E944C0280E891E00BDB80E00E944A
:102380004C0280E890E005DB80E20E944C0280E88D
:1023900091E0FFDA80E00E944C0280E891E0F9DAF7
:1023A00080E20E944C0280E891E0F3DA80E00E9433
:1023B0004C0280E890E0EDDA80E20E944C0280E876
:1023C00091E0E7DA80E00E944C0280E891E0E1DAF7
:1023D00080E20E944C0280E891E0DBDA80E00E941B
:1023E0004C0280E890E0D5DA80E20E944C0280E85E
:1023F00090E0CFDA80E00E944C0280E890E0C9DAF9
:1024000080E20E944C0280E891E0C3DA80E00E9402
:102410004C0280E890E0BDDA80E20E944C0280E845
:1024200091E0B7DA80E00E944C0280E893E0B1DAF4
:1024300080E20E944C0280E890E0ABDA80E00E94EB
:102440004C0280E890E0A5DA80E20E944C0280E82D
:1024500090E09FDA80E00E944C0280E890E099DAF8
:1024600080E20E944C0280E890E093DA80E00E94D3
:102470004C0280E891E08DDA80E20E944C0280E814
:1024800090E087DA80E00E944C0280E890E081DAF8
:1024900080E20E944C0280E890E07BDA80E00E94BB
:1024A0004C0280E890E075DA80E20E944C0280E8FD
:1024B00091E06FDA80E00E944C0280E891E069DAF6
:1024C00080E20E944C0280E891E063DA80E00E94A2
:1024D0004C0280E890E05DDA80E20E944C0280E8E5
:1024E00090E057DA80E00E944C0280E890E051DAF8
:1024F00080E20E944C0280E891E04BDA80E00E948A
:102500004C0280E890E045DA80E20E944C0280E8CC
:1025100090E03FDA80E00E944C0280E891E039DAF6
:1025200080E20E944C0280E891E033DA80E00E9471
:102530004C0280E890E02DDA80E20E944C0280E8B4
:1025400090E027DA80E00E944C0280E890E021DAF7
:1025500080E20E944C0280E891E01BDA80E00E9459
:102560004C0280E891E015DA80E20E944C0280E89B
:1025700090E00FDA80E00E944C0280E890E009DAF7
:1025800080E20E944C0280E890E003DA80E00E9442
:102590004C0280E890E0FDD980E20E944C0280E885
:1025A00090E0F7D980E00E944C0280E098E015C0EE
:1025B000EC2FF0E0E75FFE4FD08186E90E944C02ED
:1025C00082E090E0CC2319F08D2F869590E0E1D940
:1025D00080E00E944C028D2F90E0DBD976CDD09127
:1025E0000801DD0FD73908F0D6E98D2F0E944C0283
:1025F00085E090E0CED9809108010E944C0281E4F0
:1026000090E0C7D9C15089F780ED92E0C2D980E04F
:102610000E944C025ACD27E08B3A920751F48091E8
:10262000BB0104DA80911B018111A0CD88EE93E0FB
:10263000D4CFE7E08B3C9E0721F48091B901F6D915
:10264000F5CFFBE086339F07B9F480919E0181119D
:102650003CCD80911C010E944C0284E690E099D907
:1026600080E00E944C0280910C0190E068EE73E0E3
:102670001AD084569109B1CF855E974049F480E025
:10268000EFD981E0EDD980E0EBD980ED97E0A5CFDF
:1026900086B78F7986BF86B7806186BF889586B7F3
:1026A0008F7E86BF12CD0024552704C0080E591F07
:1026B000880F991F009729F076956795B8F37105F3
:1026C000B9F7802D952F0895991B79E004C0991FC3
:1026D000961708F0961B881F7A95C9F7809508957C
:1026E000AA1BBB1B51E107C0AA1FBB1FA617B70738
:1026F00010F0A61BB70B881F991F5A95A9F7809554
:102700009095BC01CD01089597FB072E16F4009417
:1027100006D077FD08D0E4DF07FC05D03EF49095A5
:1027200081959F4F0895709561957F4F0895E19928
:10273000FECF1FBA8EBBE09A99278DB30895262F3E
:10274000E199FECF1FBA8EBBE09A81500DB20216FE
:1027500039F01CBA2DBB0FB6F894E29AE19A0FBE7D
:062760000895F894FFCF7C
:10276600080E1801010100049629430302371801D7
:1027760007058282820B0B0B820B010132192D0792
:1027860002150112010F0102010000000000000005
:1027960001000000000000000001000021012302EA
:0E27A6002503270429052C06FF060504030061
:00000001FF
